:100000000C94F4010C94DA4C0C94B5440C94933198
:100010000C9456390C94DA4C0C94DA4C0C94DA4C5F
:100020000C94DA4C0C94DA4C0C94DA4C0C94DA4CB8
:100030000C94DA4C0C94DA4C0C94DA4C0C94DA4CA8
:100040000C94DA4C0C94DA4C0C94DA4C0C94DA4C98
:100050000C94DA4C0C94DA4C0C9497440C9482393E
:100060000C94DA4C0C94DA4C0C94DA4C0C94DA4C78
:100070000C94DA4C0C945B270C94DA4C0C94D63A22
:100080000C94FF3A0C94F8410C94DA4C0C94DA4C32
:10009000AD0FAF0FB20FB60FBA0FBD0FC10FC50F27
:1000A000ED0FEF0FF20FF60FFA0FFD0F0110051015
:1000B0002D102F10321036103A103D1041104510FF
:1000C0006D106F10721076107A107D1081108510EF
:1000D000327132728032353237803165316F009B38
:1000E0000E327232738032733274802E6B2ECF8058
:1000F000301C3042009A433205320980280028091A
:10010000803209320D009BAE3274327580311C3161
:100110002C009AF0316F3179009B183179318300CE
:100120009B223183318D009B2C280928198030CDEA
:1001300030E2009AB332373239803275327680310C
:100140008D3197009B36319731A1009B4031A13111
:10015000AB009B4A31AB31B5009B542819282F8046
:100160003239323B80282F2858802858285C802834
:100170005C28B080323B323D8028B028CB8032767C
:100180003277803277327880320D321180321132FC
:10019000158031B531BF009B5E323D323F80323F2A
:1001A000324180324132438032783279000AD1299B
:1001B000422AD2802AD22C6280310A311C8031BF7F
:1001C00031C9009B6831C931D3009B7231D331DD15
:1001D000009B7C31DD31E7009B8631E731F1009BEC
:1001E000903279327A803243324580327A327B8063
:1001F000327B327C80327C327D8031583165803177
:100200003C314A80312C313C8030B030CD80327D61
:10021000327E80327E327F8028CB28CD80324532BC
:100220004780327F32808032473249803249324BB8
:1002300080324B324D80324D324F80324F325180BE
:100240003251325380325332558032803281803283
:10025000153219009BB232553257803257325980CD
:100260003259325B803068308C009A8F308C30B0DD
:1002700080325B325D80325D325F009BB6325F322E
:1002800061009BB832813282803282328380328335
:100290003284802F6F2FAF80328432858032853256
:1002A000868032863287802FAF2FEF80314A3158D7
:1002B000009B0032873288009BBA328832898032B4
:1002C00089328A8032613263803219321D80328AEB
:1002D000328B80321D322180328B328C009BBB32BC
:1002E0002132258032633265802FEF301C009A1650
:1002F000328C328D803265326780328D328E803220
:100300008E328F80328F32908032903291803225BF
:10031000322980326732698032913292803269327A
:100320006B80326B326D80326D326F802DF22E6BAE
:10033000802C622D2A802ECF2F1F802D2A2DF28017
:100340002F1F2F6F803229322D8031F131FB009B1E
:100350009A329232938030E230F6009AC832933269
:10036000948028CD29328030F6310A009ADC32940C
:1003700032958032953296009BBC32963297009B24
:10038000BD32973298009BBE32983299009BBF31A4
:10039000FB3205009BA43299329A80329A329B80BC
:1003A000329B329C80329C329D80329D329E8032C4
:1003B0009E329F80329F32A08032A032A180322DA7
:1003C000323180323132358030423068009A6932C1
:1003D0006F32718029322938802938293C80293CA4
:1003E000294080294029428011241FBECFEFCDBF74
:1003F000DFE3DEBFE0EDF0E043E017C0B591A5918B
:1004000035912591059107FD0CC095918591EF01DE
:10041000F92FE82F05900D92A217B307D9F7FE0127
:1004200004C01D92A217B307E1F7E83EF40731F7C5
:0C0430000E94E04B0C941C02F894FFCFDB
:10043C004F4B0D00646562756720706172616D656C
:10044C00746572206D7573742062652062657477B3
:10045C0065656E203020284C656173742920616EAF
:10046C0064203420284D6F737429200D00312E32F6
:10047C002E31007625730D0A0400332E30002573BF
:10048C000D0A0400556E6B6E6F776E2E0D0A04000C
:10049C004572726F722067657474696E6720546858
:1004AC00696E672049442E0D0A04002C00000031AF
:1004BC00002564004572726F722E2057692D4669B3
:1004CC0020636F6D6D616E6420666F726D61742058
:1004DC0069732077696669203C737369643E5B2C91
:1004EC003C706173733E2C5B6175746854797065F4
:1004FC005D5D0D0A04004F4B0D0A04002D2D2D2DB2
:10050C002D2D2D2D2D2D2D2D2D2D2D2D2D2D2D2D0F
:10051C002D2D2D2D2D2D2D2D2D2D2D2D2D2D2D2DFF
:10052C002D2D2D2D2D2D2D2D0D0A556E6B6E6F77BE
:10053C006E20636F6D6D616E642E204C6973742038
:10054C006F6620617661696C61626C6520636F6DAA
:10055C006D616E64733A0D0A72657365740D0A648D
:10056C0065766963650D0A7468696E670D0A726554
:10057C00636F6E6E6563740D0A76657273696F6E68
:10058C000D0A636C695F76657273696F6E0D0A771D
:10059C00696669203C737369643E5B2C3C706173C3
:1005AC00733E2C5B61757468547970655D5D0D0AE2
:1005BC0064656275670D0A2D2D2D2D2D2D2D2D2D7C
:1005CC002D2D2D2D2D2D2D2D2D2D2D2D2D2D2D2D4F
:1005DC002D2D2D2D2D2D2D2D2D2D2D2D2D2D2D2D3F
:1005EC002D2D2D0D0A04000D0A436F6D6D616E6487
:1005FC0020746F6F206C6F6E670D0072657365747D
:10060C00007265636F6E6E6563740077696669006E
:10061C007468696E670064657669636500636C690C
:10062C005F76657273696F6E0076657273696F6E53
:10063C00006465627567002D2D2D2D2D42454749AF
:10064C004E205055424C4943204B45592D2D2D2DB4
:10065C002D0D0A25730D0A2D2D2D2D2D454E4420C3
:10066C005055424C4943204B45592D2D2D2D2D0DC8
:10067C000A04002530325800613167717438737484
:10068C00746969676E332E696F742E75732D65618D
:10069C0073742D322E616D617A6F6E6177732E6378
:1006AC006F6D002564002A2E706F6F6C2E6E747047
:1006BC002E6F726700005468696E67204944206988
:1006CC0073206E6F742070726573656E742C206568
:1006DC0072726F7220747970652025642C2075738A
:1006EC00657220646566696E6564207468696E67FE
:1006FC002049442069732075736564005468696EE1
:10070C006720494420726561642066726F6D2074A5
:10071C0068652064657669636520697320257300BC
:10072C004D4348502E494F542E414343455353504B
:10073C004F494E5400000000000000000000000073
:10074C000031323334353637383930000000000090
:10075C000000000000000000000000000411334302
:10076C000407C440246177732F7468696E67732F14
:10077C0025732F736861646F772F7570646174656E
:10078C002F64656C74610022746F67676C65223A24
:10079C0000746F7069633A202573007061796C6F17
:1007AC0061643A2025730025732F73656E736F7225
:1007BC0073007B224465766963654944223A22259D
:1007CC0073222C224C69676874223A25642C2254BB
:1007DC00656D70223A25642E253032647D002461CB
:1007EC0077732F7468696E67732F25732F73686125
:1007FC00646F772F757064617465007B227374610C
:10080C007465223A7B227265706F72746564223A49
:10081C007B224465766963654944223A222573221A
:10082C002C22746F67676C65223A25647D7D7D0090
:10083C004D4348502E494F54006D6963726F636885
:10084C00697000256400257304202573202573200E
:10085C00001B5B306D0D001B5B33376D4E4F524DE3
:10086C00414C1B5B33376D001B5B33326D202047D3
:10087C004F4F441B5B33376D001B5B33316D2020B6
:10088C00204241441B5B33376D001B5B33316D1BC6
:10089C005B376D204552524F521B5B32376D1B5BE1
:1008AC0033376D001B5B33376D2020204E4F4E4588
:1008BC001B5B33376D001B5B33336D5741524E4915
:1008CC004E471B5B33376D001B5B33346D204E4F33
:1008DC00544943451B5B33376D001B5B33356D202F
:1008EC002020494E464F1B5B33376D001B5B333169
:1008FC006D202044454255471B5B32376D1B5B33E3
:10090C00376D00074636450D4633411746AB161C6E
:10091C00465B442246053F29464C4435463D443D02
:10092C0046E244511B002828002419001C320043C5
:10093C001302152300408D0230050056A500172325
:10094C00000837001614004632001B170002050081
:10095C0080E001771409474B00419902200A0045B9
:10096C003D04122D00511B002828002419001C32B4
:10097C000043AC0015230040D70030050056A500FD
:10098C001723000837001614004632001B1700020C
:10099C00050080A000777102472A0041DC00200A84
:1009AC0000452701122D00511B0028280024190096
:1009BC001C3200434B0015190040730030050056E3
:1009CC00A5001723000837001614004632001B1729
:1009DC000002050080500077FA00472400417300A4
:1009EC00200A00456900122D00280D002414001C5B
:1009FC003200433A00150B0040730011170030020F
:100A0C0000172000080E00161D00010300463000E0
:100A1C001B1700020500470900413C00200A004555
:100A2C004800121A00280D002414001C3200150B6B
:100A3C0000407300111700300200172000080E0050
:100A4C00161D000103004630001B1700020500476D
:100A5C000900413C00200A00454800121A002826D3
:100A6C00001C3E00152B0011450030020017180029
:100A7C00082300163C000102001B3200020500474F
:100A8C001600200C00122A00C24CAA4C69475F4386
:100A9C0071438343C54CC84C00000000C900E824D6
:100AAC00000000525C9A1DBB07094D094D4D1B09F6
:100ABC004D094D6348744885489648B048C248D49F
:050ACC0048E648F8486F
:010AD100FF25
:100AD2000F931F93CF93DF9300D0CDB7DEB78C0176
:100AE20010927B3280917932823020F0833009F487
:100AF20090C030C280917E3280FF2CC2C8010E9419
:100B02008C48C80108960E948C4841E050E060EB96
:100B120070E3C8010E94652D61EB70E38091CB30D8
:100B22009091CC300E947442482F50E061EB70E308
:100B3200C8010E94652D4AE050E065EB70E3C801F0
:100B42000E94652D42E050E06FEB70E3C8010E9405
:100B5200652D6091C1307091C230FB01019000207F
:100B6200E9F73197AF01461B570BC8010E94652D6B
:100B72008091C7309091C830892B31F48091C33075
:100B82009091C430892B41F142E050E063EC70E374
:100B9200C8010E94652D4091C3305091C4300E941B
:100BA2004F4C6091C5307091C630C8010E94652DCE
:100BB20042E050E067EC70E3C8010E94652D40916D
:100BC200C7305091C8300E944F4C6091C93070912B
:100BD200CA30C8010E94652DC8010E948E3F882339
:100BE20009F4C1C180917E328E7F80937E3285E08E
:100BF20080937B320E94224B87EE91E30E94A634BF
:100C020082E08093793280917C328E7F80937C3235
:100C1200A1C120917E32222309F49CC180E030E000
:100C2200482FB901082E02C0759567950A94E2F71C
:100C320060FD02C08F5FF4CF81E090E001C0880FB9
:100C42004A95EAF7883009F4B5C020F4843009F4F3
:100C520040C080C1803109F40DC1803209F07AC1EF
:100C620080917C3281FF76C180917C328D7F80932E
:100C72007C3219821A82C8010E948C48C8010896E7
:100C82000E948C4889818170806C8E7F89831A8250
:100C920041E00E94024A0E94652D0E944C490E9436
:100CA200652DC8010E948E3F882309F453C18091AB
:100CB2007E328F7D80937E3280917D3280618093FF
:100CC2007D320E94224B83ED91E30E94A63485E09F
:100CD2004BC18DED91E30E946042C8010E948C4895
:100CE200C80108960E948C4841E050E06CE271E332
:100CF200C8010E94652D6DE271E380913A319091B5
:100D02003B310E947442482F50E06DE271E3C8010A
:100D12000E94652D42E050E061E371E3C8010E9448
:100D2200652D40913131509132310E944F4C60918A
:100D3200333170913431C8010E94652D80912C317C
:100D42008670823071F441E050E066E371E3C801DD
:100D52000E94652D41E050E065E371E3C8010E9405
:100D6200652D4091373150E06091383170913931C1
:100D7200C8010E94652D80917E3282FD04C080915F
:100D82002C3183FFF4C0C8010E948E3F882309F4EE
:100D9200EEC080917E328B7F80937E3280912C31A7
:100DA2008670823009F0BFC080917D32806280936C
:100DB2007D32B9C0C8010E948C48C80108960E94C1
:100DC2008C4841E050E06CE371E3C8010E94652D5C
:100DD2006DE371E380914831909149310E947442F0
:100DE200482F50E06DE371E3C8010E94652D41E098
:100DF20050E062E471E3C8010E94652D41E050E0D9
:100E020061E471E3C8010E94652D42E050E063E4B1
:100E120071E3C8010E94652D4091433150914431E4
:100E22000E944F4C6091453170914631C8010E9439
:100E3200652D41E050E067E471E3C8010E94652D31
:100E4200C8010E948E3F882309F470C080917E32CF
:100E5200877F80937E3280917D32846080937D3261
:100E620080917C32877F80937C320E94224B89EC76
:100E720091E357C0C8010E948C48C80108960E949D
:100E82008C4841E050E068E571E3C8010E94652D9D
:100E920069E571E380916331909164310E947442FB
:100EA200482F50E069E571E3C8010E94652D41E0D9
:100EB20050E06EE571E3C8010E94652D41E050E00B
:100EC2006DE571E3C8010E94652D42E050E06FE5D7
:100ED20071E3C8010E94652D40915F3150916031EC
:100EE2000E944F4C6091613170916231C8010E9441
:100EF200652DC8010E948E3F8823C1F080917E3209
:100F02008F7E80937E3280917D32886080937D32A5
:100F120080917C328F7E80937C320E94224B8FEBB9
:100F220091E30E94A63485E080937B322091BD300C
:100F32003091BE302115310569F03227232732273F
:100F42000E941D4B0E94C444AB01BC018DED91E394
:100F52000E94A634809179320F900F90DF91CF9149
:100F62001F910F91089586E080937B32F3CF109208
:040F72007932F0CF11
:100F76002F923F924F925F926F927F928F929F92A3
:100F8600AF92BF92CF92DF92EF92FF920F931F9391
:100F9600CF93DF93CDB7DEB7C455D109CDBFDEBF42
:100FA6005B0169017A01813411F08435B1F40E9444
:100FB600E4480E9442328111E9C18A8126968FAFA8
:100FC6002697E0916B32F0916C32309709F4DEC1CE
:100FD600AE014B5B5F4F61E017C08234C1F40E94E3
:100FE600E4480E9442328111D1C18A8126968FAF90
:100FF6002697E0916B32F0916C32309709F4C6C1B6
:10100600AE014B5B5F4F62E089810995BFC18334B6
:1010160009F073C02CE030E0AE014B5B5F4FC701B7
:10102600B6010E9442328111B1C12F963FAD2F9772
:1010360037FD3FC0432F032E000C550B2E962FADC8
:101046002E976BE02603F0011124EE50F24D8185B8
:10105600649FF001659FF00D1124EE50F24D8187DB
:1010660081E0808761968EAD9FAD619708978683F4
:10107600978380916D3290916E32BC016F5F7F4F86
:1010860029F060936D3270936E3205C0029680939C
:101096006D3290936E328BE0849FF001859FF00D48
:1010A6001124EE50F24D80916D3290916E32848310
:1010B6009583398382E090E08A839B8329968EAD5F
:1010C6009FAD29978C839D832D968CAD9DADAEAD3E
:1010D600BFAD2D978E839F83A887B987E0916B322A
:1010E600F0916C32309709F451C1AE014F5F5F4FFA
:1010F60064E02E968FAD2E9788CF843411F08B3412
:1011060031F50E94E4480E94423281113FC1898133
:1011160026968FAF26979A8127969FAF279791118C
:101126000AC00E949F4BEE50F24D2B813C81285005
:10113600310926833783E0916B32F0916C32309718
:1011460009F424C1AE014B5B5F4F65E05ECF8A3484
:10115600C1F424E40E9499490E944232811116C1C9
:10116600E0916932F0916A32309709F40FC1259601
:101176004CAD5DAD6EAD7FAD2597CE01019609955F
:1011860005C1863429F0883431F08D3409F0A7C0C2
:1011960096E0992E02C089E0982E20E130E0AE015B
:1011A6004B5B5F4FC701B6010E9442328111EEC010
:1011B60062968FAC629765964EAD5FAD6597882D4A
:1011C6000E949F4BEE50F24D12862F968EAD9FAD2C
:1011D6002F9761966EAD7FAD619729962EAD3FAD87
:1011E600299729873A872D960CAD1DAD2EAD3FADBB
:1011F6002D970B871C872D873E870E94734A09F01F
:10120600C5C0181619060CF059C08C018A159B0525
:1012160008F054C00E94074C09F4B8C0828193813B
:10122600892B09F4B3C08085813009F0AFC026014F
:101236003701460E571E611C711C0D831E835F010C
:101246001F01E2E02E0E311C6501F8E0CF0ED11C25
:10125600F101E080F1800E151F0508F47801F50113
:10126600408151819701C301B2010E94423281112E
:101276008DC00E94934C89839A83EB82FC828D8178
:101286009E818E199F098D839E83E0916B32F0912A
:101296006C32309731F0AE014F5F5F4F692D882D6C
:1012A60009954E0C5F1C611C711CF6018081882318
:1012B60009F46CC00E191F0959F668C08B839C830C
:1012C60019821A82E0916B32F0916C32309709F4F0
:1012D6005DC0AE014F5F5F4F692D882D96CE853478
:1012E60021F0873421F08C3429F517E001C018E08D
:1012F60028E00E9499490E944232811147C08981A3
:101306004D815E812B813C8127962EAF3FAF27977B
:101316000E949F4BEE50F24D0E94734AB9F5E09140
:101326006B32F0916C32309789F1AE014B5B5F4FB7
:10133600612F6BCE823551F524E10E9499490E94B6
:101346004232811123C04D815E816F817885809103
:10135600253290912632A0912732B09128320E94F0
:10136600CD4A81F4E0916732F0916832309751F0BE
:1013760029853A854B855C8569817A818B819C813B
:10138600098909951092673210926832CC5ADF4F5C
:10139600CDBFDEBFDF91CF911F910F91FF90EF90F0
:1013A600DF90CF90BF90AF909F908F907F906F907F
:0A13B6005F904F903F902F90089534
:1013C000ABE0B0E0E6EEF9E00C948D406C017B01FF
:1013D0008A01FC0116821782838181FFCCC1CE0174
:1013E00001963C01F6019381F70193FD859193FFEE
:1013F00081917F01882309F4BAC1853239F493FDC4
:10140000859193FF81917F01853229F4B60190E0A7
:101410000E94B532E7CF912C212C312CFFE1F3153E
:10142000D8F08B3279F038F4803279F08332A1F43D
:10143000232D20611DC08D3261F0803369F4232D8E
:10144000216016C0832D8260382EE32DE4603E2E8D
:101450002AC0F32DF8601DC037FC2DC020ED280FE9
:101460002A3040F08E32B9F436FC81C1232D20643D
:10147000322E19C036FE06C08AE0989E200D112437
:10148000922E11C0EAE02E9E200D1124222EF32D63
:10149000F0623F2E08C08C3621F4832D8068382EF0
:1014A00002C0883641F4F70193FD859193FF819145
:1014B0007F018111B3CF982F9F7D9554933028F4ED
:1014C0000C5F1F4F9FE399830DC0833631F0833744
:1014D00071F0833509F059C021C0F80180818983FA
:1014E0000E5F1F4F88248394912C530113C0280151
:1014F000F2E04F0E511CF801A080B18036FE03C00F
:10150000692D70E002C06FEF7FEFC5010E946D464C
:101510004C018201F32DFF773F2E16C0280122E0F7
:10152000420E511CF801A080B18036FE03C0692D27
:1015300070E002C06FEF7FEFC5010E9462464C0170
:10154000F32DF0683F2E820133FC1BC0822D90E00A
:1015500088169906B0F4B60180E290E00E94B53298
:101560002A94F4CFF50137FC859137FE81915F0114
:10157000B60190E00E94B53221102A9421E0821A2F
:1015800091088114910471F7E8C0843611F089360E
:1015900041F5F80137FE07C0608171818281938136
:1015A0000C5F1F4F08C060817181072E000C880BF3
:1015B000990B0E5F1F4FF32DFF763F2E97FF09C04B
:1015C00090958095709561957F4F8F4F9F4FF068F4
:1015D0003F2E2AE030E0A3010E949B25882E86182A
:1015E00045C0853731F4232D2F7EB22E2AE030E01E
:1015F00025C0932D997FB92E8F36C1F018F4883508
:1016000079F0B5C0803719F0883721F0B0C0E92FE4
:10161000E061BE2EB4FE0DC0FB2DF460BF2E09C0EC
:1016200034FE0AC0292F2660B22E06C028E030E022
:1016300005C020E130E002C020E132E0F801B7FE51
:1016400007C060817181828193810C5F1F4F06C04A
:101650006081718180E090E00E5F1F4FA3010E94C6
:101660009B25882E8618FB2DFF773F2E36FE0DC05A
:10167000232D2E7FA22E891458F434FE0BC032FC89
:1016800009C0832D8E7EA82E05C0B82CA32C03C0C4
:10169000B82C01C0B92CA4FE0FC0FE01E80DF11D4D
:1016A0008081803321F49A2D997EA92E09C0A2FE53
:1016B00006C0B394B39404C08A2D867809F0B3941D
:1016C000A3FC11C0A0FE06C0B21488F4280C922C12
:1016D0009B180EC0B21460F4B60180E290E00E9444
:1016E000B532B394F7CFB21418F42B1802C0982C6B
:1016F000212CA4FE10C0B60180E390E00E94B53218
:10170000A2FE17C0A1FC03C088E790E002C088E5F4
:1017100090E0B6010CC08A2D867859F0A1FE02C077
:101720008BE201C080E2A7FC8DE2B60190E00E944E
:10173000B532891438F4B60180E390E00E94B532E6
:101740009A94F7CF8A94F301E80DF11D8081B601D8
:1017500090E00E94B5328110F5CF222009F442CEEC
:10176000B60180E290E00E94B5322A94F6CFF601ED
:101770008681978102C08FEF9FEF2B96E2E10C9458
:02178000D64051
:10178200AF92BF92CF92DF92EF92FF920F931F938D
:10179200CF93DF93CDB7DEB72997CDBFDEBF7C01F4
:1017A20010927B32198680917C3282FD08C0809132
:1017B2007C3283FD04C080917C3284FF05C010928C
:1017C2007932C7010E94C846F70186859785109134
:1017D2007932892B11F4812F7FC1123051F01330ED
:1017E20009F484C0113009F475C187E0809379321D
:1017F20071C180917C3280FD70C0C090BD30D090AC
:10180200BE3087EE91E30E9460425701F8E0AF0ECE
:10181200B11C41E050E0BE01675F7F4FC5010E94ED
:10182200783B9C019985892F807F803209F047C0DF
:10183200BE016F5F7F4F84E0FB0111928A95E9F749
:1018420041E050E0C5010E945A3A41E050E0BE0139
:101852006E5F7F4FC5010E945A3A41E050E0BE01DF
:101862006D5F7F4FC5010E945A3A41E050E0BE01D0
:101872006C5F7F4FC5010E945A3A8C81882311F018
:1018820080E001C083E0809379328330B1F43C2D53
:101892002D2D2115310579F080917E328062809361
:1018A2007E320E941D4B0E94C444AB01BC018DEDEF
:1018B20091E30E94A63484E016C083E014C0109322
:1018C2007B3290937A322093433230934432109297
:1018D2007932C7010E94C846FDC010927932C70111
:1018E2000E94C84681E080937B32F4C08701085F82
:1018F2001F4F41E050E0BE01675F7F4FC8010E9469
:10190200783B898582958F70893081F138F48330F4
:1019120009F4B5C0843009F4B6C0DCC08B3009F4D8
:101922006EC08D3009F0D6C080917D3284FFD2C066
:1019320080917C3282FDCEC083ED91E30E946042B1
:1019420019821A8241E00E94024A0E945A3A809108
:10195200BD309091BE30892B29F080917E32806219
:1019620080937E32C8010E948C48B4C080917D323F
:1019720082FFB0C080917C3283FDACC089EC91E3E0
:101982000E9460420E94034C88E0FB0111928A95FA
:10199200E9F741E050E0C8010E945A3A0E944C49DE
:1019A2000E945A3A41E050E0BE016A5F7F4FC8018F
:1019B2000E945A3A41E050E0BE01695F7F4FC80180
:1019C2000E945A3A9F8180914131981711F0F12C6F
:1019D20012C09E81809142319813F9CF41E050E0CC
:1019E200BE01685F7F4FC8010E945A3A88858038DD
:1019F20071F393E0F92E80917D328B7F38C0809114
:101A02007D3283FF67C080917C3284FD63C08FEB9F
:101A120091E30E9460420E94034C84E0FB01119218
:101A22008A95E9F741E050E0C8010E945A3A0E94C3
:101A32004C490E945A3A8A81823091F40E94454967
:101A42000E945A3A0E9453490E945A3A9C818091BC
:101A52005D31981305C09B8180915E31981711F01A
:101A6200F12C02C083E0F82E80917D32877F809333
:101A72007D32C8010E948C48F09279322BC0C70196
:101A82000E94131527C0BE016F5F7F4FFB011192A9
:101A92008A95E9F741E050E0C8010E945A3A0E9453
:101AA2004C490E945A3A0E9453490E945A3A0E9453
:101AB20045490E945A3A9B818091353198130AC058
:101AC2009C8180913631981305C080917D328F7D43
:101AD20080937D32809179322996CDBFDEBFDF912E
:101AE200CF911F910F91FF90EF90DF90CF90BF9019
:041AF200AF90089514
:101AF600CF92DF92EF92FF92CF93DF9380910928E6
:101B0600982F957051F4E0911C31F0911D316FE6DC
:101B160071E389E791E309951AC083FD18C0E09146
:101B26002831F09129310995811111C08091092838
:101B360081FD0DC040E157E260E070E089E791E386
:101B46000E94A63480910928886080930928809194
:101B56000E2881FD0BC0E0912831F09129310995BD
:101B6600882309F4D1C00E94B34CCEC00E94B04C69
:101B76000E9482460E945747C82F0E94D43D6B019F
:101B86007C010E94DE47672B682B692BF9F0E091F8
:101B96002831F091293109958823C1F080910E28CA
:101BA600806880930E288091093290910A32A09124
:101BB6000B32B0910C320E94B44A41F0C092093205
:101BC600D0920A32E0920B32F0920C32C23009F413
:101BD6009BC030F0C330E1F0C43009F091C094C02E
:101BE6000E94503B60910A2870910B2880910C2826
:101BF60090910D28E0911E31F0911F3109958F3F8C
:101C060009F47EC080910E28806180930E287CC0E6
:101C1600E0912A31F0912B310995882331F0E0913A
:101C26002031F091213109956FC00E94B04CEC0132
:101C36000E94C10B873069F00E94B94C823039F09E
:101C4600843039F40E94DE470E94E74702C00E94B2
:101C5600BC4CCE010E9469050E94B94C0E94B04C52
:101C6600FC01C484D5840E94B04CDC011896ED902A
:101C7600FC9019970E94B04CDC015096ED91FC91B6
:101C86005197808120E030E0A601B7010E94534CB5
:101C96000E94DB34E0912831F0912931099588239F
:101CA60099F180910E288F7E8B7F80930E2889E78D
:101CB60091E30E9460428FE691E30E946042809128
:101CC60009288B7F877F8093092884FF05C0E091D0
:101CD6002231F091233109950E94D43D61317E4035
:101CE600810591058CF0E0912631F0912731099517
:101CF600E889F98980810E94534C0E94AC3E04C059
:101D060080910E28846081CF64EF71E080E090E0DE
:0E1D1600DF91CF91FF90EF90DF90CF90089576
:101D2400AF92BF92CF92DF92EF92FF920F931F93E5
:101D3400CF93DF93CDB7DEB72697CDBFDEBF8C013F
:101D44006B01609121327091223280912332909103
:101D540024320E94AA4A11F484EFE1C059017A01A5
:101D640022E030E0A8010E9442328111F5CF809137
:101D7400213290912232A0912332B09124320E94D8
:101D8400844960932132709322328093233290935A
:101D9400243222E030E0AE014F5F5F4F0E944232B6
:101DA4008111DACF8091213290912232A091233295
:101DB400B09124320E94844960932132709322327C
:101DC400809323329093243222E030E0AE014B5FC3
:101DD4005F4F0E9442328111BFCF80912132909196
:101DE4002232A0912332B09124320E94844960931C
:101DF400213270932232809323329093243222E052
:101E040030E0AE014D5F5F4F0E9442328111A4CF9A
:101E14008091213290912232A0912332B0912432C8
:101E24000E9484496093213270932232809323323A
:101E340090932432F80120813181322723273227DD
:101E44002083318329813A81322723273227850150
:101E5400005C1F4FF801208331834D815E810E9415
:101E64004F4C4D835E834B815C810E944F4C4B836E
:101E74005C83220F331FA5010E94423281116CCF73
:101E8400F80120813181220F331F809121329091FA
:101E94002232A0912332B09124320E948B49609364
:101EA40021327093223280932332909324322D81F5
:101EB4003E81A6010E94423281114ECF2D813E8186
:101EC4008091213290912232A0912332B091243218
:101ED4000E948B4960932132709322328093233283
:101EE400909324322B813C81A7010E9442328111BC
:101EF40033CF2B813C814091213250912232609129
:101F0400233270912432420F531F611D711D40937F
:101F140021325093223260932332709324322696D6
:101F2400CDBFDEBFDF91CF911F910F91FF90EF9056
:0A1F3400DF90CF90BF90AF900895AA
:101F3E00E0919C328E2F90E08830910520F5FC01C7
:101F4E00E85BFF4F8091A0320C94684A817019C0F3
:101F5E008695817016C082FB882780F912C083FB9C
:101F6E00882780F90EC0829581700BC085FB88276B
:101F7E0080F907C086FB882780F903C087FB882776
:101F8E0080F98093983280919832811104C081E05B
:101F9E008093660403C081E08093650480919C3237
:101FAE00873018F010929C3203C08F5F80939C3262
:101FBE00E09199328E2F90E08830910520F5FC014A
:101FCE00E05BFF4F80919D320C94684A817019C07E
:101FDE008695817016C082FB882780F912C083FB1C
:101FEE00882780F90EC0829581700BC085FB8827EB
:101FFE0080F907C086FB882780F903C087FB8827F6
:10200E0080F98093973280919732811104C088E0D5
:10201E008093660403C088E08093650480919932B2
:10202E00873018F01092993203C08F5F80939932E7
:10203E00E0919A328E2F90E08830910520F5FC01C8
:10204E00E85AFF4F80919E320C94684A817019C0F5
:10205E008695817016C082FB882780F912C083FB9B
:10206E00882780F90EC0829581700BC085FB88276A
:10207E0080F907C086FB882780F903C087FB882775
:10208E0080F98093963280919632811104C084E05B
:10209E008093660403C084E08093650480919A3235
:1020AE00873018F010929A3203C08F5F80939A3265
:1020BE00E0919B328E2F90E08830910520F5FC0147
:1020CE00E05AFF4F80919F320C94684A817019C07C
:1020DE008695817016C082FB882780F912C083FB1B
:1020EE00882780F90EC0829581700BC085FB8827EA
:1020FE0080F907C086FB882780F903C087FB8827F5
:10210E0080F98093953280919532811104C082E0DE
:10211E008093660403C082E08093650480919B32B5
:10212E00873018F010929B3203C08F5F80939B32E2
:0A213E006AEF70E080E090E0089581
:10214800CF92DF92EF92FF92CF93DF930E94DE4708
:102158006B017C010E948C4A882309F47DC0209180
:10216800293230912A3240912B3250912C32C701BA
:10217800B6010E94004D16161706180619060CF02F
:102188006BC0C0922932D0922A32E0922B32F09260
:102198002C32EFE1FFE280E5DF011D928A95E9F735
:1021A8008FE298E29F938F9383EB97E49F938F93AB
:1021B800FF93EF930E94713D80910E280F900F902E
:1021C8000F900F900F900F9081FF46C00E94CA3E5B
:1021D800EC010E94D74C482FE92FCE01D7FF04C04D
:1021E800882799278C1B9D0B24E630E0B9010E94B3
:1021F800D8429F938F93CE01B9010E94D8427F9312
:102208006F93EF934F9382EE90E39F938F938EEBB0
:1022180097E49F938F938AE29DE29F938F930E9406
:10222800713D2DB73EB7245F3F4F2DBF3EBF1816F7
:10223800190694F4AC016AE27DE28FE19FE20E9404
:10224800874A80919232882321F08150809392327C
:1022580003C083E30E94D64B80910E2883FD10C0F3
:1022680081FF03C080E00E94CC4B80910E2884FD42
:1022780007C00E948C4A882319F080E00E94D14B45
:1022880080910E2882FF02C080E001C08FEF0E947B
:10229800C74BB6993FC0EFECFEE280E5DF011D9227
:1022A8008A95E9F78FE298E29F938F938AEE97E4F5
:1022B8009F938F93FF93EF930E94713D80910E2817
:1022C8000F900F900F900F900F900F9081FF22C0EA
:1022D800809193321F928F9382EE90E39F938F9316
:1022E80087E098E49F938F9382E69CE29F938F9375
:1022F8000E94713D2DB73EB7285F3F4F2DBF3EBFAF
:10230800181619063CF4AC0162E67CE28FEC9EE2FA
:102318000E94874A64E60E949B4CDF91CF91FF9010
:08232800EF90DF90CF900895C3
:102330000F931F93CF930E94DC3F0E9453260E946D
:10234000004382EE90E30E94784A82EE90E30E947E
:10235000C24B0E941A45811105C080910E288460ED
:1023600080930E2882EE90E30E94F02E8093312914
:10237000882329F080910E28846080930E2882EEB5
:1023800090E30E94784A82EE90E30E94BC490E944A
:10239000932C00E217E426E130E080E090E0DC01DD
:1023A00040E050E0BA01E6B3E0744E0F511D611DEC
:1023B000711DE6B3E0728E0F911DA11DB11D01507C
:1023C00011092109310979F7403953426B407105F0
:1023D00008F04DC080399342AB40B10598F56CE3ED
:1023E00078E48CE598E20E94D14965E478E48BE7D3
:1023F00098E20E94D1491F9282E08F938FE498E483
:102400009F938F938EEA98E29F938F930E94713DE2
:1024100085E50E94D14B85E50E94CC4B8FEF0E9451
:10242000D64B8FEF0E94C74B80910E2888608F7D1E
:10243000806480930E280F900F900F900F900F9054
:102440000F9028C083E30E94CC4B8FEF0E94D14BAA
:102450008FEF0E94D64B8FEF0E94C74B80910E28C2
:10246000877F80628F7B80930E28C0E014C085E553
:102470000E94CC4B8FEF0E94D14B8FEF0E94D64B26
:102480008FEF0E94C74B80910E2888608F7D8F7BD5
:1024900080930E28C1E06C2F8DEB9BE40E948E3E52
:1024A000C13061F482EE90E30E94244844E650E09B
:1024B00060E070E081EF91E30E94A6340E94532611
:1024C0000E940C498FE298E29F938F9380E797E4F4
:1024D0009F938F938DEC98E29F938F930E94713D11
:1024E0000F900F900F900F900F900F9065EB73E28D
:0E24F0008DEC98E2CF911F910F910C944C420D
:1024FE002F923F924F925F926F927F928F929F9206
:10250E00AF92BF92CF92DF92EF92FF920F931F93F3
:10251E00CF93DF93CDB7DEB72C97CDBFDEBF962F0F
:10252E009F779A8789870115110529F0F70138964B
:10253E00EC0DFD1D02C0F9013896EB87FC87EB858B
:10254E00FC85ED33F64008F047C0360159016A01AB
:10255E00962E882E0E94884281113EC02B853C8586
:10256E00C901A0E0B0E0DC019927882788299C01E9
:10257E00AD0139292D833E834F8358870E94814BAD
:10258E000E940F3622E00E949F4C68E70E948B4CFF
:10259E000E940F360E94954B48EE842E43E0942EF7
:1025AE0009C085EF881681E0980620F40E94774BCB
:1025BE000E94BE4091E0891A9108E0F0AE014B5F97
:1025CE005F4F68E70E948B4C0E941D440E94D14CC5
:1025DE00882321F00E9405418FEF54C08D8181FD2B
:1025EE00E0CFAE014F5F5F4F60E074E085E190E0B9
:1025FE000E941D440E94D14C811109C029803A804D
:10260E004B805C80211431044104510421F40E945A
:10261E0005418DEF37C028E030E0AE01475F5F4FD8
:10262E00C201B1010E94FC2198E0290E311C411C0F
:10263E00511CC114D10431F09501A601C201B101A2
:10264E000E94FC210115110551F0C201B101660D68
:10265E00771D811D911D9701A8010E94FC210E94EA
:10266E007C4B22E00E94624AE9F79C01AD01226098
:10267E006CE60E948B4C0E940F360E9405410E9410
:10268E00D14C81952C96CDBFDEBFDF91CF911F919E
:10269E000F91FF90EF90DF90CF90BF90AF909F90F3
:1026AE008F907F906F905F904F903F902F900895F6
:1026BE004F925F926F927F92BF92CF92DF92EF9284
:1026CE00FF920F931F93CF93DF9300D000D0CDB71F
:1026DE00DEB7B82EF62E29013A0120E030E0A9012E
:1026EE006CE070E0CB010E940F3620E030E0A901D3
:1026FE000E94814B0E940F3620E030E0A9010E941B
:10270E00864B0E940F360E9496470E946F2F882399
:10271E0011F080E09CC00E949F470E946F2F811194
:10272E00F8CF64E10E948B4C0E940B3D97FFF9CFCE
:10273E006CEB77E082E090E00E940B3D60FF0BC0F7
:10274E00BB20F9F02DE735ED4CE15CE30E94864BA2
:10275E000E940F361FC000ED17E00150110980F3E3
:10276E000E94774B0E94BE406CE070E0CB010E944D
:10277E000B3D6E39704D8D4A904179F7012B01F763
:10278E00C8CFFF2039F090E8C92EDD24D394E12C78
:10279E00F12C04C0C12CD12C7601D394A30192014B
:1027AE000E94814B0E940F360E94A41E0E940E476B
:1027BE0010F06894C1F8A701960160EA74E180E018
:1027CE0090E00E940F360E94FB4B60EA74E180E0BD
:1027DE0090E00E941D44811107C089819A81AB81CE
:1027EE00BC810E94B44A39F721E63FE242E55FEE32
:1027FE006CE070E0CB010E940F3601ED17E0015046
:10280E00110909F486CF62E00E949B4C0E94BE40E3
:10281E00B11013C00E94814B0E940B3D663376426D
:10282E008345924061F720E030E0A9010E94814B80
:10283E000E940F360E9442400AC00E94864B0E94A0
:10284E000B3D633C714C8D45974DC9F681E0249646
:10285E00CDBFDEBFDF91CF911F910F91FF90EF9013
:10286E00DF90CF90BF907F906F905F904F900895C4
:10287E00CF93DF938B3109F490C0EB018C3120F4B0
:10288E00893009F494C0C5C08C3221F0823309F42A
:10289E006BC0BFC08881813099F5809175328823D5
:1028AE0099F08BEA91E30E9460421092753285E5B1
:1028BE000E94CC4B44EF51E060E070E081EA91E37E
:1028CE000E94A6340E94E74580910E288A708830B7
:1028DE0051F485E50E94D14B80910E288260877B52
:1028EE00806180930E2880910E2885FF06C08F7D13
:1028FE0080930E288FE00E94CC4B0E94134325C07C
:10290E00811123C08FEF0E94D64B8FEF0E94C74BD1
:10291E0080910E2886FD06C08FEF0E94D14B85E573
:10292E000E94CC4B80910E288D7E886080930E285D
:10293E0042E350E060E070E08DE891E30E94A6343F
:10294E0080910E28816080930E28E0913732F091AD
:10295E003832309709F45DC080910E2880FD59C041
:10296E008881DF91CF91099484E896E40E947440A7
:10297E0081114FC080910E2880FF09C08DE891E330
:10298E000E94604280910E288E7F80930E28809147
:10299E000E288B7F80930E283CC0FB018081918195
:1029AE00892BB9F1CB01DF91CF910C946437FB01E8
:1029BE00ED59FF4F808181112CC0319780811F927C
:1029CE008F938FEA96E49F938F938EEA98E29F936C
:1029DE008F930E94713DBE018CE598E20E94D14911
:1029EE00BE016F5D7F4F8BE798E20E94D14981E077
:1029FE00809375320F900F900F900F900F900F9055
:102A0E0040E050E0BA018BEA91E3DF91CF910C9454
:082A1E00A634DF91CF91089569
:102A26002F923F924F925F926F927F928F929F92D8
:102A3600AF92BF92CF92DF92EF92FF920F931F93C6
:102A4600CF93DF93CDB7DEB7CE53D140CDBFDEBF38
:102A56008E01035D1E4F20E1D8011D922A95E9F7EC
:102A6600FE01E753FF4FC35C0E94334CCD53D14068
:102A760024E611922A95E9F70E94274C390128ECA1
:102A8600D3011D922A95E9F708967C0141E050E0B2
:102A9600B8010E945A3A6801BFEFCB1ADB0A41E03F
:102AA60050E0B601C7010E945A3A4801E5E08E0E91
:102AB600911CD6018D916D0187FF0AC0A815B90535
:102AC60039F041E050E0B601C7010E945A3AF1CF11
:102AD600F801212C312C2101812C912C5401839455
:102AE600D180AD2DAF77B0E0A50194010E944C4690
:102AF600260E371E481E591E87E0880C991CAA1CF4
:102B0600BB1C8A95D1F7D7FE02C03196E9CF42E0C9
:102B160050E0B8016B5F7F4FC7010E945A3A29EC1B
:102B260030E02C0F3D1FF801278330874581568101
:102B36000E944F4CB901C7010E945A3AD8010E941F
:102B4600C34A0E94574C4EEF5FEF6FEF7FEF481B73
:102B5600590B61097109420D531D641D751D1C96A3
:102B66006D927C921D97B301C7010E945A3A0E944A
:102B76002C4BFC01892B51F0D8011C966D917C9150
:102B86001D9717968D919C9118970995C7010E94DC
:102B96008C4883E0C25CDE4FCDBFDEBFDF91CF91B4
:102BA6001F910F91FF90EF90DF90CF90BF90AF9065
:102BB6009F908F907F906F905F904F903F902F9057
:022BC600089570
:102BC800A8E0B0E0EAEEF5E10C9497408B01FC0137
:102BD800608171818281938120E831E541E050E094
:102BE8000E944F3D69017A012CE330E040E050E05B
:102BF8000E941C4129833A834B835C8389819A8193
:102C0800AB81BC81F80160836CE370E00E94D8421C
:102C1800DC01CB01F801A1838283C601069667E037
:102C280070E00E94C44284832DEA3EE840E050E010
:102C3800C701B6010E941C4129833A836D837E83B4
:102C48008F83988789819A8124E6289F6001299F2C
:102C5800D00C11246D817E818F81988525EB35E01C
:102C680040E050E00E941C4129833A836D837E83B3
:102C7800E980FA80EE0CFF1CEE0CFF1CEC0CFD1C2E
:102C88008D819E81F5E6EF16F10410F0019604C0DF
:102C980024E6E216F10419F021E030E002C020E059
:102CA80030E0A90144595E4F4817590768F46DE6AA
:102CB80071E0821B930B0E94D842DC01CB01E80E25
:102CC800F91ECD0120E030E044E6E40EF11CF801E5
:102CD800E682F78280879187255C3F4F82179307AA
:102CE80048F46FE170E00E94D842DC01CB01F801A2
:102CF800858322C069E970E0821B930B0E94D84249
:102D0800DC01CB01F82EFF0CFF0CF80E6DE370E030
:102D1800CD010E94D842DC01CB01E82EEE0C6FE118
:102D280070E0CD010E94D842DC01CB0122E0280FDF
:102D3800F20EFE0CF801F582A383F80112861386C1
:0E2D480083818F5F83832896E8E00C94E0403F
:102D5600EF92FF921F93CF93DF93CDB7DEB72697FF
:102D6600CDBFDEBF1B821C821D821E8267EB74E410
:102D76000E94E54B89839A839E012F5F3F4F79011D
:102D860010E0009771F0133061F0F7018193919391
:102D96007F011F5F67EB74E480E090E00E94E54BE3
:102DA600F0CFE980FA80E114F104D9F02B813C815F
:102DB6008D819E812115310519F4009779F417C08C
:102DC600009761F4C9010E94A34C9EEF980F9230C0
:102DD60008F443C0813059F012E01DC00E94A34C94
:102DE600182F113021F0C8F11430A8F036C04EE18A
:102DF60050E0B7018CE598E20E94D34469EB74E495
:102E06008BE798E20E94D1496BEB74E48EEA98E274
:102E16000E94D1492BC04EE150E0B7018CE598E203
:102E26000E94D3446B817C814EE150E08BE798E2AF
:102E36000E94D3441F921F938DEB94E49F938F932C
:102E46008EEA98E29F938F930E94713D0F900F90A8
:102E56000F900F900F900F9009C080EC94E49F9311
:102E66008F930E94CD410F900F9029C082E095E488
:102E76009F938F930E94CD410E948C4A0F900F9092
:102E8600882321F00E94B04C0E94C84680910E28EB
:102E960087FF07C08F7780930E280E94B04C0E9450
:102EA600ED320E94FE448FEF0E94D64B8FEF0E94B8
:102EB600C74B8FEF0E94D14B85E50E94CC4B2696DF
:102EC600CDBFDEBFDF91CF911F91FF90EF900895A8
:102ED6002F923F924F925F926F927F928F929F9224
:102EE600AF92BF92CF92DF92EF92FF920F931F9312
:102EF600CF93DF93CDB7DEB7A597CDBFDEBF19A2BF
:102F06001AA2833010F082EE8CC0823019F4603140
:102F16007105C8F70115110511F480E082C021156D
:102F2600310589F328012CA33DA35A011B01F82E74
:102F3600AE014F5D5F4F0E94CE31811172C029A153
:102F46003AA1C8018A0D9B1D28173907E0F2350101
:102F560065E0769467946A95E1F720E22BA3C12C8D
:102F6600D12C812C912C84149504B8F68BA1803237
:102F7600C1F489A19AA1930155E0220F331F5A95F6
:102F8600E1F7821B930B809760F46401CA0CDB1C8B
:102F9600D694C794D694C79497E0C922DD2424E03A
:102FA6002BA3EBA00E942F4C2C2D462DB1018F2D6B
:102FB6000E947E24811135C0C30123E0880F991F2A
:102FC6002A95E1F78C0D9D1D0E94A54A8A159B0541
:102FD60020F4B501681B790B02C060E070E02BA1FC
:102FE600822F90E0861B970B82010819190980171A
:102FF600910708F48C010E942249A8018CA19DA189
:10300600880D991D0E94F947800E911E9BA1903252
:1030160021F42FEF621A720AA6CF8FEFC81AD80AC8
:10302600A2CFA596CDBFDEBFDF91CF911F910F91A5
:10303600FF90EF90DF90CF90BF90AF909F908F90D2
:0E3046007F906F905F904F903F902F90089575
:10305400A0E0B0E0E0E3F8E10C949340EC01EE81F1
:10306400FF818F0104561109B9F0CF0185569109EA
:103074006C0197FF03C023E0C20ED11CD594C79402
:10308400D594C7946CE97FEF0E94D842C60ED71E30
:103094008FEFC81AD80A02C0C12CD12C2DE631E01A
:1030A400D8010E94C3490D2C000CEE08FF08C60E7F
:1030B400D71EE81EF91E8B81082E000C990B8C017B
:1030C400015011092D8122302CF4222379F1015E63
:1030D4001F4F2CC0CF018459984F0E94EC42282FD7
:1030E40030E0255C3F4F200F311F8D81082E000CEE
:1030F400990B02978530910514F027563F4F65E0F0
:1031040070E00E94D842AC0197FF02C04F5F5F4F4E
:10311400559547959DE3949F8001959F100D11242B
:10312400020F131F80FF02C0015E1F4FC801110F61
:10313400AA0BBB0B9C01AD012C0D3D1D4E1D5F1D4B
:1031440060E871E581E090E00E942D444B015C0150
:10315400AA810A2E000CBB0B20E13EE00E94C34969
:103164006B017C01A9810A2E000CBB0B2CE330E01F
:103174000E94C349C60ED71EE81EF91E6881862F19
:10318400660F990BAA0BBB0B8C0D9D1DAE1DBF1DAD
:10319400BC01CD01680D791D8A1D9B1DCDB7DEB71D
:0631A400ECE00C94DC409D
:1031AA00AF92BF92CF92DF92EF92FF920F931F934B
:1031BA00CF93DF93CDB7DEB7EC97CDBFDEBFFA0171
:1031CA00309711F481EF84C00E944B4C11F416829F
:1031DA00178222813381232BA9F324813581232B62
:1031EA0089F3E680F780408551858A0120E030E046
:1031FA000E0D1F1D211D311D053811052105310533
:10320A0008F7A285B385A13091E0B907D8F66F0116
:10321A009B01E40EF51EECE0EE0EF11CEA0EFB1E1D
:10322A000E942B4CA70164E00E941B24811150C00C
:10323A00A70160E070E0CE01C1960E94CA4981E010
:10324A0089ABF6018485882311F081E889ABF60100
:10325A008585882319F089A9806489AB1AAAF601A1
:10326A0060817181CE01CD965C016115710551F0C5
:10327A00068117810AAB1127A8010E94F9470A0D96
:10328A001B1D01C08C01F601408551854BAB5CAB1F
:10329A0062817381C8010E94F9478BA99CA9800F9A
:1032AA00911F9C012A193B092DAB3EABF6014285C1
:1032BA0053854FAB58AF648175810E94F94780E30B
:1032CA00C82ED12C8E010F5C0E94BA470E947F1231
:1032DA00EC96CDBFDEBFDF91CF911F910F91FF908A
:0C32EA00EF90DF90CF90BF90AF90089560
:1032F6008F929F92AF92BF92DF92EF92FF920F93BF
:103306001F93CF93DF93F12C0FE219E4C8E0D5E4C5
:103316000E946149882309F480C00E942940E091F7
:1033260073328D3019F08A3009F068C0F0E0E55943
:10333600F14D108290917232911153C091E08A3012
:1033460029F4209171322D3009F490E08093713286
:10335600992309F446C0F11044C060E270E08BE6A0
:103366009EE20E9457467C01009719F0DC011D92EF
:103376007D01EBE6FEE201900020E9F73197EB567E
:10338600FE42DE2E8FE0A82E89E4B82EF50180805D
:103396009180B4018BE69EE20E940248F4010190FE
:1033A6000020E9F73197E819F90981110CC0DE12FE
:1033B6000AC0D5011296ED91FC911397309719F03A
:1033C600C70109950CC0B4E0AB0EB11C0A151B056C
:1033D600E9F6DF93CF930E94CD410F900F90FF2423
:1033E600F39480917232882321F083EF95E40E9452
:1033F600933710927332109272328ACFE43648F4C1
:1034060091E09E0F90937332F0E0E559F14D808381
:103416007FCF81E0809372327BCF0E947D4ADF911D
:10342600CF911F910F91FF90EF90DF90BF90AF90DB
:063436009F908F900895A5
:10343C00CF93DF93FC018DE1A0EBB0E3ED0119928A
:10344C008A95E9F78091B0308F7080618093B030AD
:10345C0084E08093B6309DE49093B73091E59093DF
:10346C00B83094E59093B9309093BA308093BB30D8
:10347C006789708D6115710521F483899489892B75
:10348C0011F082EC01C082E08093BC30858596857A
:10349C000E94574C8093BD309093BE30A189B28965
:1034AC00A093C130B093C230ED0109900020E9F730
:1034BC0021979E012A1B3B0B2093BF303093C030C9
:1034CC004091BC3046FF0AC0818D928D8093C930EB
:1034DC009093CA306093C7307093C83047FF16C0C2
:1034EC00858996898093C5309093C6306389748999
:1034FC006093C3307093C4308091C7309091C830C2
:10350C00860F971F0496820F931F01C0C9010C965A
:10351C008093CB309093CC30407CA1F08091C7301D
:10352C009091C8300E94574C8093C7309093C8300C
:10353C008091C3309091C4300E94574C8093C3301B
:10354C009093C4303227232732272093BF303093F7
:10355C00C03081E080937E3280937932DF91CF91BD
:02356C000895C0
:10356E000F931F93CF93DF930E94A33640E054E056
:10357E0082EDFA01808320E234E0F901108280E4CA
:10358E0094E0FC011082C0E6D4E06FE06883A0E80E
:10359E00B4E01C9200EA14E079E1F801708370E85F
:1035AE00FA017483F9011482FC0114826C8314965F
:1035BE001C921497F8011482FA010E946047F901D7
:1035CE000E946047FC010E946047188A198A1A8A75
:1035DE001B8A1C8A1D8A1E8A1F8A50961C9250971F
:1035EE0051961C92519752961C92529753961C923A
:1035FE00539754961C92549755961C9255975696DF
:10360E001C92569757961C92F801108A118A8BE0DD
:10361E00828B138A148A88E0858B868B178AE0EE5C
:10362E00F5E011821082148215821382128283E0D9
:10363E009DE4809353329093543284E09DE48093C2
:10364E0051329093523285E09DE480934F329093A5
:10365E00503286E09DE480934D3290934E3287E057
:10366E009DE480934B3290934C3288E09DE480939E
:10367E00493290934A3282E09DE480934732909390
:0C368E004832DF91CF911F910F910895F9
:10369A00CF92DF92EF92FF92CF93DF93CDB7DEB74F
:1036AA00C057D109CDBFDEBF69017A01863029F141
:1036BA00873009F434C0813009F075C020E70E94D0
:1036CA0099490E94423281116EC0E0916332F091B1
:1036DA006432309709F467C080E7C80ED11CE11C38
:1036EA00F11CC0922132D0922232E0922332F0921F
:1036FA0024320E94134C81E055C00E94E4480E9483
:10370A004232811150C0E0916332F09164323097B5
:10371A0009F449C0BE016F5F7F4F86E043C028E0CD
:10372A000E9499490E944232882351F0E091633203
:10373A00F09164323097B9F16BE872E387E032C0F6
:10374A004D815E812F813885EB81FC8189819A8147
:10375A004115510519F461E060938B32420F531FF2
:10376A009C01332721303105C9F048F02230310558
:10377A0099F060918B322330310531F00AC02091E3
:10378A008B32213059F408C0623041F0643021F4A0
:10379A0005C0623019F084E080938B32E417F50794
:1037AA0011F4C4CF0995C059DF4FCDBFDEBFDF91F9
:0C37BA00CF91FF90EF90DF90CF9008952A
:1037C600CF93DF93CDB7DEB72897CDBFDEBF0E947C
:1037D6007649882309F47CC0AE014B5F5F4F0E9497
:1037E600724B0E941D44882311F084EF76C00E941C
:1037F600AE4B80FFFACF9C01AD012E7F2D833E8319
:103806004F8358870E94724B0E940F368111EDCF6D
:103816000E94AE4B22E0B695A795979587952A9577
:10382600D1F79F708093613290936232892B09F4AD
:1038360051C049E152E30E94B84B0E941D448111D8
:10384600D4CF6091193270911A3280911B329091C7
:103856001C320E944A4A0E94B0278111C6CF6B8152
:103866007C818091613290916232861B970B05971D
:1038760098F5E9818FEF8E0F873008F0B6CF8091EB
:10388600193290911A32A0911B32B0911C329C01D0
:10389600AD01285F3F4F4F4F5F4F685071090E943F
:1038A6000B4CE155F54B0E94234C8A81099581E02A
:1038B6000E94A14122E00E949F4C0E94724B0E94EE
:1038C6006F2F80E00E94A1410E94D14C81118DCFC3
:1038D60080E003C08EEF01C08AEF2896CDBFDEBF21
:0638E600DF91CF9108956F
:1038EC00CF92DF92EF920F93CF93DF93CDB7DEB7EA
:1038FC006497CDBFDEBF6C01F9011F86188A898BD6
:10390C009A8B6B8B0C8BE11002C082E001C080E0C3
:10391C006132D8F04230E9F048F4413009F068C027
:10392C00BE01615F7F4F0E942D3D63C0433051F15A
:10393C00443009F438C05CC0615048F09601260F41
:10394C00311DD9012C912111F7CF962FF5CF9B8BDF
:10395C00E1CF309709F44CC00E94E449DF010D908F
:10396C000020E9F70E948F4CA034B10519F4E983CB
:10397C00FA8303C0EB83FC83AD830E9492490E94BF
:10398C00252037C03097A1F19F012E5F3F4F29832F
:10399C003A83918191509B8390819C830E949249A0
:1039AC000E943A2A26C0309719F119821A82EB83A9
:1039BC00FC839F012B5E3F4F2D833E831F82188615
:1039CC00DF010D900020E9F70E948F4CA987BA8780
:1039DC00F90101900020E9F73197E21BF30BEB871B
:1039EC00FC871D861E860E9492490E94D51801C034
:1039FC0081EF6496CDBFDEBFDF91CF910F91EF9039
:063A0C00DF90CF90089549
:103A1200EF92FF920F931F93CF93DF93CDB7DEB751
:103A2200C25CD109CDBFDEBF8C01CF53DF4F1882FC
:103A32001982C15CD04081E090E08B839C83F801C5
:103A4200808191818330910569F1A0F481309105E3
:103A5200F1F0029709F041C0AE014F5A5F4FB80131
:103A6200645F7F4FF801E25BFF4F808191810E948A
:103A7200824A1CC084309105F9F0059771F5F8016E
:103A820064857585868597850E949D200FC0AE014D
:103A9200435F5F4FBE016F5A7F4FC8010C960E9471
:103AA2004B2304C0CE010D960E942D2E082E000C31
:103AB200990B8B839C8311C07E01F1E7EF0EF11C01
:103AC200AE014F535F4FB701C8010C960E945D33A0
:103AD2000E94534C8B839C8302C0E12CF12CF80191
:103AE2008081918189839A830E94F04A8D839E838B
:103AF200AF83B88780859185A285B38589879A87A8
:103B0200AB87BC870E94B147CF53DF4F48815981B1
:103B1200C15CD0400E94EF4B0E945B40CE53DF4F0E
:103B2200CDBFDEBFDF91CF911F910F91FF90EF903C
:023B32000895F4
:103B3400AF92BF92CF92DF92EF92FF921F93CF93F7
:103B4400DF93CDB7DEB7CC56D109CDBFDEBF182F7A
:103B540069017A018FEEA82E8FE2B82EF5018081DB
:103B64008E3399F181132DC0D50111962D913C917D
:103B740012972115310539F4E0916532F0916632DE
:103B8400309759F422C0AE014F5F5F4FC701B601B1
:103B94000E944232811143C0EFCFD5010E94904B65
:103BA400892B51F0113129F410928C328981809340
:103BB4008E320E94034C02C060E070E0812F0995B0
:103BC40004C0B3E0AB0EB11CC9CF103241F528E0FC
:103BD40030E0AE014B595F4FC701B6010E9442323B
:103BE40081111DC0AB962EAD3FADAB97A7964EADE0
:103BF4005FADA797C701B601685F7F4F8F4F9F4F97
:103C04000E94423281110BC0E0916532F09166321C
:103C1400309729F0BE016B597F4F80E20995C45952
:103C2400DF4FCDBFDEBFDF91CF911F91FF90EF90AB
:0A3C3400DF90CF90BF90AF9008958D
:103C3E00EF92FF921F93CF93DF9300D000D0CDB7BA
:103C4E00DEB7029709F06EC0613009F5109190321F
:103C5E0027E03BE087E0E82EF12C812F90E0389FA3
:103C6E00F001399FF00D1124EE50F24D0196B7017F
:103C7E000E94D8429085911103C08093903227C044
:103C8E002150182F51F7809390321FEF20C06230D1
:103C9E0009F048C010918F3224E08BE0189FF0019C
:103CAE001124E15CF14D812F90E0019683709927EC
:103CBE003085311104C080938F32195F06C02150B8
:103CCE00182F59F780938F321FEF309761F18BE0E9
:103CDE00DF011D928A95E9F781E0808780916D3230
:103CEE0090916E329C012F5F3F4F29F020936D32E1
:103CFE0030936E3205C0029680936D3290936E3281
:103D0E0080916D3290916E328483958340FF0BC00B
:103D1E00198381E281870E94504A60E582E00E9409
:103D2E00224201C01FEF812F2496CDBFDEBFDF914F
:0A3D3E00CF911F91FF90EF900895C0
:103D4800CF92DF92EF92FF92CF93DF9300D000D013
:103D5800CDB7DEB7C0901D32D0901E32E0901F3232
:103D6800F09020320E94A04A09F060C0AE014F5F77
:103D78005F4F64EF73E180E090E00E941D44811181
:103D880055C04DE152E360E00E948B4C0E941D44F7
:103D980081114CC080911D3290911E32A0911F322A
:103DA800B0912032803A22E0920720E1A207B105C3
:103DB80041F40E94044931F181EA92E0A0E1B0E0C7
:103DC80019C0803B9240A041B105E1F40E947C4BB0
:103DD80083309105A105B105A9F00497A105B105A6
:103DE80029F481EB92E0A0E1B0E004C082EB92E01C
:103DF800A0E1B0E080931D3290931E32A0931F3251
:103E0800B0932032C0901D32D0901E32E0901F3205
:103E1800F090203280EFE82225E0E22AC0921D329D
:103E2800D0921E32E0921F32F0922032C701B601C2
:103E38002496CDBFDEBFDF91CF91FF90EF90DF904A
:043E4800CF9008957A
:103E4C004F925F926F927F928F929F92AF92BF929E
:103E5C00EF92FF920F931F93CF93DF9300D000D07C
:103E6C00CDB7DEB77C0128013901B42EAA249924E0
:103E7C008824872F9927AA270E945C4A8BE0882ADE
:103E8C00DB01CA010E94DB45442755277727452FC4
:103E9C00562F672F7727842A952AA62AB72AA3019B
:103EAC00920168E072E081E090E00E940F36A5017B
:103EBC0094010E94B34B0E940F3625EA0E949F4C3E
:103ECC0060E172E081E090E00E940F362FE10E94E9
:103EDC00F4480E940F3620E030E04DE00E94564A34
:103EEC000E940F3625E80E94EC480E940F360E9473
:103EFC00FC480E941D44811103C00E940449B9F77B
:103F0C000E94D14C882311F084EF0AC09201A701C2
:103F1C0060E070E08DE090E00E94B0278111F4CF5A
:103F2C002496CDBFDEBFDF91CF911F910F91FF90F3
:103F3C00EF90BF90AF909F908F907F906F905F901D
:043F4C004F900895F5
:103F5000CF93DF93FC0180E1ACE2B1E3ED01199274
:103F60008A95E9F780917932833009F06AC090919F
:103F70002C319F70906390932C31808183FB882734
:103F800080F980FB93F990932C3180818670997F22
:103F9000982B90932C31892F8E70883019F4977F4D
:103FA00090932C31908180912C3190FB80F98093FB
:103FB0002C31878190858093333190933431A78160
:103FC000B085ED0109900020E9F72197CE018A1B09
:103FD0009B0B809331319093323120812695237051
:103FE00061F021852093353122852093363122E0FE
:103FF00030E020933A3130933B312485358520934E
:1040000038313093393143854093373120913A31FB
:1040100030913B312E5F3F4F240F311D280F391F48
:1040200020933A3130933B310E94574C8093313189
:104030009093323180917E32846080937E3281E031
:0A40400001C080E0DF91CF910895E8
:10404A00AF92BF92CF92DF92EF92FF920F931F939C
:10405A00CF93DF93CDB7DEB7CC59D109CDBFDEBF41
:10406A004115510509F453C07A019B018E01035988
:10407A001F4F4CE650E062E00E941B24182F81116A
:10408A0047C0CE0101965C018CE6F50111928A9532
:10409A00E9F7F70160817181828193816115710568
:1040AA00B9F0892BA1F580E4898340E2CE0102961A
:1040BA000E94163C811111EF498150E0F70160819D
:1040CA007181CE0102960E94F947112371F020C036
:1040DA000097E9F0F70144814134C8F4498350E07C
:1040EA00BC01CE0102960E94F94780E3C82ED12C6A
:1040FA009CE6E92EF12C850120E330E0AE0143591C
:10410A005F4F6BEB81E00E947F12182F01C011EF05
:10411A00812FC456DF4FCDBFDEBFDF91CF911F91F4
:10412A000F91FF90EF90DF90CF90BF90AF900895DE
:10413A004F925F926F927F92AF92BF92CF92DF922D
:10414A00EF92FF921F93CF93DF93CDB7DEB7C75E8F
:10415A00D109CDBFDEBF2B013C01CE0101965C0126
:10416A0080E5F50111928A95E9F7CB51DF4F188264
:10417A001982C55ED040C12CD12C760114EF0E9461
:10418A00AF4AC9F19E012F553F4FAE014F5A5F4FBB
:10419A00B501CE018B519F4F0E94920E182F8111AB
:1041AA002AC0CB510E94F34BC55ED0404797D1F449
:1041BA00C951DF4F1882C75ED0409E0129513F4F37
:1041CA00AE014F555F4FBE016F5A7F4FC5010E9426
:1041DA006C2B81110DC0C951DF4F8881C75ED04059
:1041EA00882331F0FFEFCF1ADF0AEF0AFF0AC7CFA1
:1041FA000E940A4D14EF812FC951DF4FCDBFDEBF98
:10420A00DF91CF911F91FF90EF90DF90CF90BF90F9
:0C421A00AF907F906F905F904F900895E0
:10422600CF92DF92EF92FF920F931F93CF93DF937C
:10423600CDB7DEB76097CDBFDEBF6B017C018EEDDB
:1042460099E40E94EB4360E070EA80E090E00E940F
:10425600B0420E94A04A09F44AC082E090E08983F5
:104266009A8383EB92E20E94BF4C8B839C83CD8220
:10427600DE82EF82F8860E94B04C8C010E94824654
:104286000E945747811118C0F801E088F18841E083
:1042960050E061E070E082E090E00E94933DD7013B
:1042A6008C930E941B4987FD07C00E94C83B00975C
:1042B60019F021E0FC012483D8010E9433470E94B3
:1042C60057478130A1F40E941B4940E150E0BE01EE
:1042D6006F5F7F4F0E94534C0E94F925F82E88236A
:1042E60039F0D8010E9433470E94AC3E01C0F12C40
:1042F6008F2D6096CDBFDEBFDF91CF911F910F91BD
:0A430600FF90EF90DF90CF90089534
:10431000AF92BF92CF92DF92EF92FF921F93CF9313
:10432000DF9300D0CDB7DEB77C016B01DB016D916F
:104330007C91FC0182810E94D42A811151C0D60156
:10434000ED91FC911197A280B3800E94BE4A0E9419
:10435000EE40182F81113EC0F701418150E0B701B6
:10436000D6010E94BE4A0E94F649182F811132C020
:10437000B50180E090E00E946A44B6E0EB0EF11CCB
:1043800080ECF70111928A95E9F780EC90E089833F
:104390009A83AE014F5F5F4FB701D6010E94BE4ABC
:1043A0000E94FC49182F811115C089819A8184309F
:1043B000910520F4892B69F417EE0CC0C7010E9407
:1043C0007838182F811106C0C7010E942A39182F8A
:1043D00001C016EEF601828193810E946A45812F09
:1043E0000F900F90DF91CF911F91FF90EF90DF9092
:0843F000CF90BF90AF9008953B
:1043F8009F92AF92BF92CF92DF92EF92FF920F936C
:104408001F93CF93DF93CDB7DEB72897CDBFDEBF1D
:104418005A018901FE01319697E0DF011D929A95B4
:10442800E9F797EC998390918732992319F0DD2465
:10443800D39442C091E0909387322130310511F432
:1044480002E010E08A837B836C831E830F8367E01E
:10445800CF010E940D42D82E8111E9CF81EF8887C4
:1044680093EFC92E22EF922E01151105F1F0780174
:104478000130B0E21B0718F0E12C80E2F82E0E198B
:104488001F0909F4C88661E070E0CE0108960E9411
:104498006E2E882361F2B701C5010E946E2E882313
:1044A80031F29886AE0CBF1CDFCF83EC0E94A53892
:1044B8008111BDCF109287328D2D2896CDBFDEBFDA
:1044C800DF91CF911F910F91FF90EF90DF90CF90E8
:0844D800BF90AF909F90089582
:1044E000CF92DF92EF92FF920F931F93CF93DF93C0
:1044F000CDB7DEB7C75CD109CDBFDEBFFA013097BB
:1045000009F44DC0982F9370923021F42115310594
:1045100039F445C0933021F40115110509F43FC069
:10452000A0913B32B0913C32CD90DC900E943B4C4C
:1045300050E4DE01179601900D925A95E1F7923002
:1045400019F490E4F90105C00115110541F093E15A
:10455000F801DE01A95BBF4F0E941B4CE9F7BE01C9
:104560006F5F7F4FC6010E94494181111BC060915E
:104570003B3270913C32CE0101960E94882181111C
:1045800011C0E114F10469F08F81833250F080E2B0
:10459000FE013896D7010E941F4CE9F702C082EE57
:1045A00001C080E0C953DF4FCDBFDEBFDF91CF91A7
:0E45B0001F910F91FF90EF90DF90CF90089534
:1045BE00CF92DF92EF92FF920F931F93CF93DF93E1
:1045CE00EC01CE80DF80E884F98400913F321091B7
:1045DE0040321C821D828091113290911232A09134
:1045EE001332B09114320E94B44A68F40E9494338C
:1045FE002FEFE21AF20AC61AD70AE80AF90ACE8291
:10460E00DF82E886F986E0E0F0E081E00115110531
:10461E0041F0D80116960E94EB4A19970E940E4B54
:10462E0018F4813009F505C080E0F8010481158188
:10463E00EDCF6FEF7FEF80E090E00E94EF370E94AA
:10464E00144AE0913F32F0914032B1E3E53BFB0773
:10465E0019F40480F581E02DEC83FD83C0933F3285
:10466E00D093403281E007C0848195818C839D83F5
:10467E00C483D58380E0DF91CF911F910F91FF907E
:08468E00EF90DF90CF9008953A
:104696009F92AF92BF92CF92DF92EF92FF920F93CB
:1046A6001F93CF93DF936C015B01EA018091053282
:1046B60090910632A0910732B09108320E943F4C89
:1046C60041F0109205321092063210920732109283
:1046D6000832E0913B32F0913C320E941C48833014
:1046E600C1F08091053290910632A0910732B091C7
:1046F60008320196A11DB11D8093053290930632B2
:10470600A0930732B093083222E0E22EF12C912CCE
:1047160005C0EE24EA94FE2C9DE0992EBE01C70149
:104726000E942949882311F084EF10C0C05CDF4F36
:1047360080E290E08883998300E010E09501A6016D
:10474600B701892D0E94AA288111EECFDF91CF9162
:104756001F910F91FF90EF90DF90CF90BF90AF9099
:044766009F90089583
:10476A00EF92FF920F931F93CF93DF93F82EE92EC8
:10477A00162F072F8FE298E29F938F9380E797E493
:10478A009F938F93CDECD8E2DF93CF930E94713D34
:10479A0009900020E9F72197AE014D5C58426F2D30
:1047AA007E2D8DEC98E20E9428450F900F900F9075
:1047BA000F900F900F90892BC9F463E977E4812F4A
:1047CA00902F0E94F63F009789F0FC018185813382
:1047DA0029F481E08093933280E003C010929332EF
:1047EA008FEF0E94D64B82E080939232EF92FF9233
:1047FA008DE997E49F938F931F921F920E94E13055
:10480A000F931F9387EA97E49F938F931F921F92A8
:10481A000E94E1308DB79EB70C968DBF9EBFDF9187
:0C482A00CF911F910F91FF90EF90089527
:104836000F931F93CF93DF93F901D801445D5F4F28
:10484600309709F450C022813381232B09F44BC0E1
:104856009481913208F047C0109709F442C090E362
:10486600E80119929A95E9F74D935C931197813077
:1048760049F070F08230B9F50E940F4C82601296B2
:104886008C9312970E940F4C816012968C9312970C
:1048960085818F3F19F081508E3028F513968C93C1
:1048A60013978FEF860F8430F0F4ED018F016CA71C
:1048B60084818C83448150E062817381CD010596A9
:1048C6000E94F947F8010E94074C79F081E08DA318
:1048D600DE0196960E94234C86E00E941F4CE9F763
:1048E60004C084EF03C081EF01C080E0DF91CF9167
:0648F6001F910F910895CF
:1048FC00AF92BF92CF92DF92EF92FF920F931F93E2
:10490C00CF93DF93CDB7DEB7C95CD109CDBFDEBF86
:10491C00F82E6801012B09F43CC084E0E81619F06C
:10492C0080E2E81236C0E0913B32F0913C32A0803C
:10493C00B1808E0108531F4F8F2D0E94D2388111E8
:10494C0029C080E2E81203C08F2D8068F82EFC820B
:10495C00C8530E94F34BC85CD0408D839E830E9449
:10496C00E14A0E946448811115C060913B327091FC
:10497C003C32CE0101960E94882181110BC04E2D34
:10498C0050E0BE01685F7F4FC6010E94F94780E08E
:10499C0001C082EEC753DF4FCDBFDEBFDF91CF9199
:1049AC001F910F91FF90EF90DF90CF90BF90AF9041
:0249BC0008955C
:1049BE0010920A2810920B2810920C2810920D2893
:1049CE0080910E288D7F80930E2880910928877FF5
:1049DE008B7F809309280E94763560EF74E48DE317
:1049EE0095E20E94C3470E94503B8AE0EFE0F8E256
:1049FE00DF011D928A95E9F7CF010E94314B0E948B
:104A0E00B04CFC018089918980930F2890931028D7
:104A1E008CED9CE4809311289093122880915C2851
:104A2E00882329F081E09091AE28911101C080E099
:104A3E000E94E93C882391F08FE691E30E94604248
:104A4E0040E157E260E070E089E791E30E94A6340E
:104A5E00809109288D7F8860816003C0809109282C
:0C4A6E008E7F809309280E94F74B08956A
:104A7A00EF92FF920F931F93CF93DF93E82EF62EB8
:104A8A00EA010E94C83B8C01892B09F448C086E0E0
:104A9A00F81641F18F1520F0A5E0FA1641F03FC053
:104AAA00B7E0FB16C9F1E9E0FE1659F038C02097C5
:104ABA00B1F1898187FD0BC083E0D80114968C93EC
:104ACA002EC0209761F1888199810097D1F48E2DAB
:104ADA00EE0C990BDF91CF911F910F91FF90EF9000
:104AEA000C94AC3E2097D9F06A817B811616170682
:104AFA0074F7D8011296ED91FC91139788819981E8
:104B0A000AC06A817B816115710509F3D801129681
:104B1A00ED91FC911397099583E0F8018483DF9165
:0C4B2A00CF911F910F91FF90EF90089524
:104B3600FA01AA27283051F1203181F1E8946F93C8
:104B46006E7F6E5F7F4F8F4F9F4FAF4FB1E03ED06E
:104B5600B4E03CD0670F781F891F9A1FA11D680F0C
:104B6600791F8A1F911DA11D6A0F711D811D911D3F
:104B7600A11D20D009F468943F912AE0269F1124B4
:104B86003019305D3193DEF6CF010895462F477018
:104B9600405D4193B3E00FD0C9F7F6CF462F4F7073
:104BA600405D4A3318F0495D31FD4052419302D0D1
:104BB600A9F7EACFB4E0A695979587957795679577
:104BC600BA95C9F700976105710508959B01AC0177
:104BD6000A2E06945795479537952795BA95C9F79E
:0C4BE600620F731F841F951FA01D08950F
:104BF200AF92BF92CF92DF92EF92FF920F931F93E9
:104C0200CF93DF93CDB7DEB76097CDBFDEBF8C0108
:104C12005B016A010E94C83B7C01892B99F1F50175
:104C22008191919189839A832EE0DE0113960E94ED
:104C3200174CE9F78230910511F589839A834C2D3F
:104C42000E94034C802F0E943934882391F0873FC1
:104C520071F08A3FB9F417FF02C086E211C0AB2897
:104C620011F481E30DC0CD28C1F786E109C085E0CA
:104C720007C082E0F701848380E090E005C08FE204
:104C820080937F328FEF9FEF6096CDBFDEBFDF91C3
:104C9200CF911F910F91FF90EF90DF90CF90BF9037
:044CA200AF90089532
:104CA600E6E6F4E038E030832FE946E851E02150AB
:104CB60040405040E1F700C0000024E020836FE947
:104CC60086E891E0615080409040E1F700C0000026
:104CD60092E090834FE956E861E0415050406040D1
:104CE600E1F700C0000081E080834FE956E861E00B
:104CF600415050406040E1F700C00000E5E6F4E0B6
:104D060030833FE946E851E0315040405040E1F7FA
:104D160000C0000020836FE926E831E061502040A2
:104D26003040E1F700C0000090834FE956E861E0AB
:104D3600415050406040E1F700C0000080838FE999
:104D460096E821E0815090402040E1F700C0000045
:024D56000895BE
:104D5800A4E0B0E0E2EBF6E20C9497408C010E94EC
:104D68002A1869837A838B839C83F80182859385CB
:104D780097FF0EC0E0914029F0914129309741F00A
:104D88006CE379E2CE0101960995F8018287938751
:104D9800F801828593851816190694F4092E000CDB
:104DA800AA0BBB0B49815A816B817C816A017B010B
:104DB800C81AD90AEA0AFB0AC982DA82EB82FC829B
:104DC80089819A81AB81BC8140913C2950913D29D0
:104DD80060913E2970913F29841B950BA60BB70B58
:104DE80089839A83AB83BC83B801CE0101960E9464
:104DF800EB2D69817A818B819C812496E8E00C9463
:024E0800E04088
:104E0A00CF92DF92EF92FF920F931F93CF93DF938C
:104E1A00CDB7DEB76097CDBFDEBF87FD3AC061155B
:104E2A00710509F436C0493795E0590790F50E9493
:104E3A00D547EE50F24D9085992359F189834B83DA
:104E4A005C83248135812D873E8787301CF024E4DA
:104E5A0030E002C020E530E00E94A749EE50F24D52
:104E6A00818580FF04C0268137818CE401C085E4F6
:104E7A007A018B01682F6068690120E130E0AE0198
:104E8A004F5F5F4F82E00E947F12882319F082EF02
:104E9A0001C08AEF6096CDBFDEBFDF91CF911F912F
:0C4EAA000F91FF90EF90DF90CF900895E3
:104EB6001F920F920FB60F9211242F933F934F9389
:104EC6005F936F937F938F939F93AF93BF93EF936C
:104ED600FF93BE9B05C0E0915332F0915432099581
:104EE600B99B05C0E0915132F09152320995B89BB9
:104EF60005C0E0914F32F09150320995BB9B05C039
:104F0600E0914D32F0914E320995BA9B05C0E09181
:104F16004B32F0914C320995BD9B05C0E091493268
:104F2600F0914A320995BC9B05C0E0914732F09159
:104F3600483209958FEF87BBFF91EF91BF91AF91F3
:104F46009F918F917F916F915F914F913F912F919B
:0A4F56000F900FBE0F901F901895EA
:104F6000DF92EF92FF920F931F93CF93DF93CDB712
:104F7000DEB72997CDBFDEBFFE01319697E0DF0196
:104F80001D929A95E9F798EC99839091873299232D
:104F900019F0DD24D3942CC091E0909387328A835A
:104FA0007B836C832130310519F482E08F8302C04A
:104FB0003E832F8389017A0167E0CF010E940D4271
:104FC000D82E8111E6CF0130110551F462E070E076
:104FD000CE0108960E94043A9885F701908304C098
:104FE000B801C7010E94043A8111D3CF10928732D1
:104FF0008D2D2996CDBFDEBFDF91CF911F910F91EF
:08500000FF90EF90DF9008958E
:10500800FF920F931F93CF93DF93CDB7DEB72C9703
:10501800CDBFDEBF6115710509F43CC08B01F82EC8
:1050280086E2FB0111928A95E9F70E94BC480E942A
:105038001D44882321F080E090E0DC0113C08985BD
:105048009A85AB85BC850097A105B105A1F3BC0184
:10505800CD0183600E94444A0E94B0278111EBCFA2
:105068000E94AE4BAA27BB270097A105B10511F4F2
:1050780084EF11C0F11003C080E090E0DC01BC01B6
:10508800CD01836026E230E0A8010E94B027882382
:1050980011F0EECF81EF2C96CDBFDEBFDF91CF911F
:0850A8001F910F91FF90089584
:1050B0008091AF308E7F8093AF308091AB309091F4
:1050C000AC30019719F40E94634B02C00E945E4B02
:1050D0008091AB309091AC3001978093AB3090933E
:1050E000AC30E091A930F091AA30892B81F0809109
:1050F000A80880838091A9309091AA30019680936E
:10510000A9309093AA300E944F4B84E0089580917B
:10511000A80880838091A9309091AA30019680934D
:10512000A9309093AA308091AF3088608093AF30DF
:10513000E0918C30F0918D30809198309091993041
:1051400009958250823020F40E94634B88E00895D4
:045150000C94C345B3
:10515400EF92FF920F931F93CF93DF93CDB7DEB7F8
:10516400C75CD109CDBFDEBF79018C836D837E839B
:1051740080E40E94374C0E941F4CE9F7E0913B32D7
:10518400F0913C320E94134C808191810E94AA4686
:10519400811124C060913B3270913C32CE01019662
:1051A4000E94882181111AC0E114F10451F09F81F9
:1051B400933238F090E2FE013896D7010E941B4CDE
:1051C400E9F70115110551F09F81933438F090E20D
:1051D400FE01B896D8010E941B4CE9F7C953DF4F72
:1051E400CDBFDEBFDF91CF911F910F91FF90EF9064
:0251F40008951C
:1051F6000F931F930E94E64CE0913F32F0914032AC
:10520600309721F41F910F910C94E34100911132D4
:105216001091123220911332309114328681978187
:10522600A085B185BC01CD01601B710B820B930B70
:105236006115710521E08207910508F1809111320F
:1052460090911232A0911332B09114320197AF4F60
:10525600BF4F8093BB319093BC31A093BD31B093C7
:10526600BE31E093B931F093BA3185EB91E3809387
:105276003F32909340326FEF7FEF80E090E00E94E4
:10528600EF370E94E44C81E0809377321F910F91B3
:02529600089579
:10529800DF92EF92FF920F931F93CF93DF93CDB7D7
:1052A800DEB7C85DD109CDBFDEBF0097A1F1D42E0E
:1052B8007B018C010E94202D81112DC088E8F80106
:1052C800DE0111960E941F4CE9F7F801E857FF4FDD
:1052D8008CE0DE01A653BF4F0E941F4CE9F7F7018F
:1052E80080818823C1F0EF28B1F080E4DE01A75760
:1052F800BF4F0E941F4CE9F7C753DF4FD882C95CE4
:10530800D04010928C3228ED0E948B4B68E881E0E7
:105318000E94224201C084EFC852DF4FCDBFDEBFDA
:10532800DF91CF911F910F91FF90EF90DF9008953B
:10533800CF93DF93CDB7DEB7C858D109CDBFDEBF55
:105348009E012F5F3F4F88E8D9011D928A95E9F7A2
:1053580085E1ECE2F7E4D9010E941F4CE9F7FE0170
:1053680076968CE0DF011D928A95E9F791E09AA381
:105378008AE08CA38BE0EDE4F7E4DE0195960E94C9
:105388001F4CE9F7FE01F09680E1DF011D928A9536
:10539800E9F721969FAF219780EC23968FAF23974B
:1053A80088EA24968FAF249725969FAF259726964F
:1053B8009FAF269741E06DEC70E3C9010E94C23FA0
:0E53C800C857DF4FCDBFDEBFDF91CF910895F4
:1053D6000F931F93CF93DF93CDB7DEB7C75CD10989
:1053E600CDBFDEBFFA01A0913B32B0913C324D9168
:1053F6005C91982F93700E943B4C923010F494E18C
:1054060007C0933041F585FF02C090E401C090E2E9
:10541600DE0117960E941B4CE9F789010E94134C86
:10542600CA010E941040811119C060913B327091EF
:105436003C32CE0101960E94882181110FC00115D0
:10544600110559F08F81833240F00E94DC4A0E9498
:105456001F4CE9F702C082EE01C080E0C953DF4F5E
:0E546600CDBFDEBFDF91CF911F910F91089552
:10547400CF92DF92EF92FF920F931F93CF93DF931C
:10548400CDB7DEB7C054D109CDBFDEBFFA01309726
:1054940079F10E944B4C61F193819150943040F525
:1054A40092819F7E9A3021F57A019B010E942F4CB4
:1054B40040E150E063E00E941B2481111AC0F7010F
:1054C4008381815089AB428146954AAB6081718169
:1054D400CE01C3960E94163C80E3C82ED12C90E1E5
:1054E400E92EF12C005D0E94BA470E947F1201C090
:1054F40081EFC05CDF4FCDBFDEBFDF91CF911F9145
:0C5504000F91FF90EF90DF90CF90089582
:10551000CF92DF92EF92FF920F931F93CF93DF937F
:10552000C0903932D0903A32C114D104A1F17B013C
:105530008C01D601CD91DC9163E270E0CE010E9436
:105540005746FE0101900020E9F7892B51F0AF0189
:105550004C1B5D0B42505109BE01C8010E942845F9
:1055600008C03197AF014C1B5D0BB801CE010E9402
:105570009E45892B81F4D6011296ED91FC911397EB
:10558000B701C801DF91CF911F910F91FF90EF906C
:10559000DF90CF900994DF91CF911F910F91FF90F1
:0855A000EF90DF90CF90089519
:1055A800CF93DF93FB019081913031F0D0F09230AE
:1055B80039F0933049F011C093E121E33AE41CC07B
:1055C80094E125EF39E418C09181983271F098364A
:1055D80081F096E123EB39E40FC090E020E030E061
:1055E8000BC09EE02AE63AE407C096E121E739E4D9
:1055F80003C096E12FE239E44FEF5FEF4283538314
:1056080040E0491779F0D9012D5F3F4FE901239711
:105618005881581305C00E94904B8283938302C01F
:105628004F5FEFCF82819381019611F482EF01C021
:0856380080E0DF91CF9108959D
:105640000F931F93CF93DF93CDB7DEB72897CDBFCE
:10565000DEBF87FD36C06115710509F432C0411502
:10566000510509F42EC00E94D547EE50F24D9085A9
:10567000992339F160837183428353839285911119
:105680001EC091E09287918590FF02C06DE401C039
:1056900066E40E94A44B19F40FEF1FEF98010E94DB
:1056A000A94B8D830E94A749EE50F24D84819581CC
:1056B0000E94DC4882E00E942242811104C080E006
:1056C00003C08AEF01C082EF2896CDBFDEBFDF9115
:0856D000CF911F910F91089585
:1056D8009F92AF92BF92CF92DF92EF92FF920F9379
:1056E8001F93CF93DF932115310511F482EE2FC05C
:1056F800F901108261157105C9F30097B9F34115D5
:105708005105A1F3E0913B32F0913C320E94234CC9
:10571800E081E33021F4E0E29E2EE0E402C0912C27
:10572800E0E00E944C480E942643811110C0E12C01
:10573800F12C00E010E09501A60164E070E0892DED
:1057480082600E9470220E94EA4909F480E0DF9199
:10575800CF911F910F91FF90EF90DF90CF90BF9066
:06576800AF909F90089530
:10576E00EF92FF921F93CF93DF93CDB7DEB7C75C57
:10577E00D109CDBFDEBF7901E0913B32F0913C32D1
:10578E00208131818C836D837E834115510531F0EB
:10579E0083E00E94374C0E941F4CE9F7BE016F5FF9
:1057AE007F4FC9010E947944182F811118C0609152
:1057BE003B3270913C32CE0101960E948821182F07
:1057CE0081110DC0E114F10451F04F81453038F0D4
:1057DE0050E0435051090E94E64A0E94F947812F3A
:1057EE00C953DF4FCDBFDEBFDF91CF911F91FF9029
:0457FE00EF9008958B
:105802000F931F93CF93DF93EC0180913B329091E2
:105812003C32892B11F00E94434587EC98E2809339
:10582200B0289093B12884EB98E28093B2289093A9
:10583200B32860EB78E2CE010E94AD3A811124C018
:1058420080EB98E280933B3290933C3289818330A3
:10585200D1F42091B0283091B1282F5F3F4F01E061
:1058620010E043E150E060E070E080E00E946B17DE
:1058720081110AC0E0913B32F0913C320E94234CEC
:105882008181887F818380E0DF91CF911F910F9189
:02589200089577
:105894009091AF3092FD43C08093A830892F887FC8
:1058A4009EE09093AD3024EF31E02093A630309306
:1058B400A730846088608093AF308EEE9CE4809340
:1058C4008C3090938D301092983010929930809350
:1058D4008E3090938F3010929A3010929B30809338
:1058E40090309093913010929C3010929D30809320
:1058F40092309093933010929E3010929F308CEEA1
:105904009CE480939430909395301092A030109240
:10591400A1300E949C480E94264A80E0089581E0BC
:025924000895E4
:105926000F931F93CF930E94FC4381113CC009E261
:1059360010E020E030E040E05FE660E070E08FE2FB
:1059460098E20E94A82DC82F81110AC08FE298E222
:1059560020912F282F3F21F0209157282F3F99F48F
:1059660061EC76E48FE298E20E94D1498C2F0C2EEE
:10597600000C990B9F93CF9382EC96E49F938F93A1
:1059860083E08F9307C09F938F9388E097E49F935C
:105996008F931F921F920E94E1300F900F900F90ED
:0E59A6000F900F900F90CF911F910F910895C9
:1059B4008F929F92AF92BF92CF92DF92EF92FF921B
:1059C400CF93DF9300D000D0CDB7DEB76B017C015D
:1059D40049015A010E94FB4B0E941D440E947C4BCA
:1059E400AC01BD01482159216A217B21452B462B5D
:1059F400472BA1F0B501A401409550956095709591
:105A04009A01AB01282339234A235B2329833A8350
:105A14004B835C83C701B6010E940F3680918732A5
:105A24002496CDBFDEBFDF91CF91FF90EF90DF9042
:0C5A3400CF90BF90AF909F908F9008958E
:105A4000FC01892B09F43DC080818823D1F1DF015D
