:100000000C94FA010C942F4D0C94F6440C94A431EA
:100010000C946E390C942F4D0C942F4D0C942F4D45
:100020000C942F4D0C942F4D0C942F4D0C942F4D60
:100030000C942F4D0C942F4D0C942F4D0C942F4D50
:100040000C942F4D0C942F4D0C942F4D0C942F4D40
:100050000C942F4D0C942F4D0C94D8440C949A3939
:100060000C942F4D0C942F4D0C942F4D0C942F4D20
:100070000C942F4D0C942C270C942F4D0C94EE3A8D
:100080000C94173B0C9439420C942F4D0C942F4D2B
:10009000B50FB70FBA0FBE0FC20FC50FC90FCD0FE7
:1000A000F50FF70FFA0FFE0F0210051009100D10D3
:1000B000351037103A103E104210451049104D10BF
:1000C000751077107A107E108210851089108D10AF
:1000D000327F32808032433245803165316F009B00
:1000E000B8328032818032813282802E6B2ECF8076
:1000F000301C3042009AED320F321380280028095C
:100100008032133217009C623282328380311C317C
:100110002C009B9A316F3179009BC2317931830079
:100120009BCC3183318D009BD6280928198030CD96
:1001300030E2009B5D324532478032833284803129
:100140008D3197009BE0319731A1009BEA31A131BD
:10015000AB009BF431AB31B5009BFE2819282F80F2
:100160003247324980282F2858802858285C802818
:100170005C28B0803249324B8028B028CB80328452
:1001800032858032853286803217321B80321B32B4
:100190001F8031B531BF009C08324B324D80324D4B
:1001A000324F80324F32518032863287009C6E2926
:1001B000422AD2802AD22C6280310A311C8031BF7F
:1001C00031C9009C1231C931D3009C1C31D331DDBF
:1001D000009C2631DD31E7009C3031E731F1009C95
:1001E0003A32873288803251325380328832898065
:1001F0003289328A80328A328B803158316580313F
:100200003C314A80312C313C8030B030CD80328B53
:10021000328C80328C328D8028CB28CD8032533284
:100220005580328D328E8032553257803257325956
:10023000803259325B80325B325D80325D325F806A
:10024000325F3261803261326380328E328F80322F
:100250001F3223009C6632633265803265326780CC
:1002600032673269803068308C009B39308C30B016
:10027000803269326B80326B326D009C6A326D3233
:100280006F009C6C328F329080329032918032912C
:100290003292802F6F2FAF8032923293803293321E
:1002A000948032943295802FAF2FEF80314A3158AD
:1002B000009BAA32953296009C6F3296329780321C
:1002C00097329880326F3271803223322780329891
:1002D0003299803227322B803299329A009C7032C8
:1002E0002B322F8032713273802FEF301C009AC076
:1002F000329A329B803273327580329B329C8032CC
:100300009C329D80329D329E80329E329F80322F61
:100310003233803275327780329F32A0803277322A
:1003200079803279327B80327B327D802DF22E6B68
:10033000802C622D2A802ECF2F1F803233323780BF
:100340003237323B802D2A2DF2802F1F2F6F8031C4
:10035000F131FB009C4431FB3205009C4E32A0324F
:10036000A18030E230F6009B7232A132A28028CD0B
:1003700029328030F6310A009B8632A232A38032C5
:10038000A332A4009C7132A432A5009C7232A53223
:10039000A6009C7332A632A7009C743205320F006F
:1003A0009C5832A732A88032A832A98032A932AA3A
:1003B0008032AA32AB8032AB32AC8032AC32AD800C
:1003C00032AD32AE8032AE32AF80323B323F80321D
:1003D0003F32438030423068009B13327D327F8051
:1003E00029322938802938293C80293C2940802914
:1003F0004029428011241FBECFEFCDBFDFE3DEBF17
:10040000E0EDF0E043E017C0B591A591359125915D
:10041000059107FD0CC095918591EF01F92FE82F0B
:1004200005900D92A217B307D9F7FE0104C01D92E3
:10043000A217B307E1F7E43FF40731F70E94314C0C
:080440000C942202F894FFCF96
:100448004F4B0D00646562756720706172616D6560
:10045800746572206D7573742062652062657477A7
:1004680065656E203020284C656173742920616EA3
:1004780064203420284D6F737429200D00322E30EB
:100488002E30007625730D0A0400312E30002573B6
:100498000D0A0400556E6B6E6F776E2E0D0A040000
:1004A8004572726F722067657474696E672054684C
:1004B800696E672049442E0D0A04002C00000031A3
:1004C800002564004572726F722E2057692D4669A7
:1004D80020636F6D6D616E6420666F726D6174204C
:1004E80069732077696669203C737369643E5B2C85
:1004F8003C706173733E2C5B6175746854797065E8
:100508005D5D0D0A04004F4B0D0A04002D2D2D2DA5
:100518002D2D2D2D2D2D2D2D2D2D2D2D2D2D2D2D03
:100528002D2D2D2D2D2D2D2D2D2D2D2D2D2D2D2DF3
:100538002D2D2D2D2D2D2D2D0D0A556E6B6E6F77B2
:100548006E20636F6D6D616E642E204C697374202C
:100558006F6620617661696C61626C6520636F6D9E
:100568006D616E64733A0D0A72657365740D0A6481
:1005780065766963650D0A7468696E670D0A726548
:10058800636F6E6E6563740D0A76657273696F6E5C
:100598000D0A636C695F76657273696F6E0D0A7711
:1005A800696669203C737369643E5B2C3C706173B7
:1005B800733E2C5B61757468547970655D5D0D0AD6
:1005C80064656275670D0A2D2D2D2D2D2D2D2D2D70
:1005D8002D2D2D2D2D2D2D2D2D2D2D2D2D2D2D2D43
:1005E8002D2D2D2D2D2D2D2D2D2D2D2D2D2D2D2D33
:1005F8002D2D2D0D0A04000D0A436F6D6D616E647B
:1006080020746F6F206C6F6E670D00726573657470
:10061800007265636F6E6E65637400776966690062
:100628007468696E670064657669636500636C6900
:100638005F76657273696F6E0076657273696F6E47
:10064800006465627567002D2D2D2D2D42454749A3
:100658004E205055424C4943204B45592D2D2D2DA8
:100668002D0D0A25730D0A2D2D2D2D2D454E4420B7
:100678005055424C4943204B45592D2D2D2D2D0DBC
:100688000A04002530325800613167717438737478
:10069800746969676E332E696F742E75732D656181
:1006A80073742D322E616D617A6F6E6177732E636C
:1006B8006F6D002564002A2E706F6F6C2E6E74703B
:1006C8002E6F726700005468696E6720494420697C
:1006D80073206E6F742070726573656E742C20655C
:1006E80072726F7220747970652025642C2075737E
:1006F800657220646566696E6564207468696E67F2
:100708002049442069732075736564005468696ED4
:100718006720494420726561642066726F6D207499
:1007280068652064657669636520697320257300B0
:100738004D4348502E494F542E414343455353503F
:100748004F494E5400000000000000000000000067
:100758000031323334353637383930000000000084
:1007680000000000000000000000000004113343F6
:100778000407C440246177732F7468696E67732F08
:1007880025732F736861646F772F75706461746562
:10079800007B227374617465223A7B227265706FE4
:1007A80072746564223A7B224465766963654944BC
:1007B800223A222573222C22746F67676C65223ACD
:1007C80025647D7D7D00246177732F7468696E6769
:1007D800732F25732F736861646F772F7570646149
:1007E80074652F64656C74610022746F67676C654B
:1007F800223A00746F7069633A202573007061793A
:100808006C6F61643A2025730025732F73656E73CE
:100818006F7273007B224465766963654944223AA6
:10082800222573222C224C69676874223A25642C8D
:100838002254656D70223A25642E253032647D007D
:100848004D4348502E494F54006D6963726F636879
:100858006970002564002573042025732025732002
:10086800001B5B306D0D001B5B33376D4E4F524DD7
:10087800414C1B5B33376D001B5B33326D202047C7
:100888004F4F441B5B33376D001B5B33316D2020AA
:10089800204241441B5B33376D001B5B33316D1BBA
:1008A8005B376D204552524F521B5B32376D1B5BD5
:1008B80033376D001B5B33376D2020204E4F4E457C
:1008C8001B5B33376D001B5B33336D5741524E4909
:1008D8004E471B5B33376D001B5B33346D204E4F27
:1008E800544943451B5B33376D001B5B33356D2023
:1008F8002020494E464F1B5B33376D001B5B33315D
:100908006D202044454255471B5B32376D1B5B33D6
:10091800376D0013468545194674412346C7152887
:10092800469C442E46463F35468D4441467E4449C2
:10093800462345511B002828002419001C32004377
:100948001302152300408D0230050056A500172319
:10095800000837001614004632001B170002050075
:1009680080E001771409474B00419902200A0045AD
:100978003D04122D00511B002828002419001C32A8
:100988000043AC0015230040D70030050056A500F1
:100998001723000837001614004632001B17000200
:1009A800050080A000777102472A0041DC00200A78
:1009B80000452701122D00511B002828002419008A
:1009C8001C3200434B0015190040730030050056D7
:1009D800A5001723000837001614004632001B171D
:1009E8000002050080500077FA0047240041730098
:1009F800200A00456900122D00280D002414001C4F
:100A08003200433A00150B00407300111700300202
:100A180000172000080E00161D00010300463000D4
:100A28001B1700020500470900413C00200A004549
:100A38004800121A00280D002414001C3200150B5F
:100A480000407300111700300200172000080E0044
:100A5800161D000103004630001B17000205004761
:100A68000900413C00200A00454800121A002826C7
:100A7800001C3E00152B001145003002001718001D
:100A8800082300163C000102001B32000205004743
:100A98001600200C00122A00174DFF4CB847A0433F
:100AA800B243C4431A4D1D4D00000000CFFFFFFFA5
:100AB80000C900E824000000525C691DC3075E4DB0
:100AC8005E4D1C1B5E4D5E4D6F4880489148A248A4
:0A0AD800BC48CE48E048F24804494B
:100AE2000F931F93CF93DF9300D0CDB7DEB78C0166
:100AF2001092893280918732823020F0833009F45B
:100B020090C030C280918C3280FF2CC2C8010E94FA
:100B1200CB48C80108960E94CB4841E050E060EB08
:100B220070E3C8010E94362D61EB70E38091CB30F7
:100B32009091CC300E94B542482F50E061EB70E3B7
:100B4200C8010E94362D4AE050E065EB70E3C8010F
:100B52000E94362D42E050E06FEB70E3C8010E9424
:100B6200362D6091C1307091C230FB01019000209E
:100B7200E9F73197AF01461B570BC8010E94362D8A
:100B82008091C7309091C830892B31F48091C33065
:100B92009091C430892B41F142E050E063EC70E364
:100BA200C8010E94362D4091C3305091C4300E943A
:100BB2009C4C6091C5307091C630C8010E94362DA0
:100BC20042E050E067EC70E3C8010E94362D40918C
:100BD200C7305091C8300E949C4C6091C9307091CE
:100BE200CA30C8010E94362DC8010E94CF3F882317
:100BF20009F4C1C180918C328E7F80938C3285E062
:100C0200809389320E94694B87EE91E30E94F2340D
:100C120082E08093873280918A328E7F80938A32FB
:100C2200A1C120918C32222309F49CC180E030E0E2
:100C3200482FB901082E02C0759567950A94E2F70C
:100C420060FD02C08F5FF4CF81E090E001C0880FA9
:100C52004A95EAF7883009F4B5C020F4843009F4E3
:100C620040C080C1803109F40DC1803209F07AC1DF
:100C720080918A3281FF76C180918A328D7F809302
:100C82008A3219821A82C8010E94CB48C80108968A
:100C92000E94CB4889818170806C8E7F89831A8201
:100CA20041E00E944E4A0E94362D0E948B490E94CA
:100CB200362DC8010E94CF3F882309F453C1809189
:100CC2008C328F7D80938C3280918B3280618093C5
:100CD2008B320E94694B83ED91E30E94F23485E0EE
:100CE2004BC18DED91E30E94A142C8010E94CB4805
:100CF200C80108960E94CB4841E050E06CE271E3E3
:100D0200C8010E94362D6DE271E380913A319091D3
:100D12003B310E94B542482F50E06DE271E3C801B9
:100D22000E94362D42E050E061E371E3C8010E9467
:100D3200362D40913131509132310E949C4C60915C
:100D4200333170913431C8010E94362D80912C319B
:100D52008670823071F441E050E066E371E3C801CD
:100D62000E94362D41E050E065E371E3C8010E9424
:100D7200362D4091373150E06091383170913931E0
:100D8200C8010E94362D80918C3282FD04C0809170
:100D92002C3183FFF4C0C8010E94CF3F882309F49D
:100DA200EEC080918C328B7F80938C3280912C317B
:100DB2008670823009F0BFC080918B32806280934E
:100DC2008B32B9C0C8010E94CB48C80108960E9464
:100DD200CB4841E050E06CE371E3C8010E94362D3C
:100DE2006DE371E380914831909149310E94B5429F
:100DF200482F50E06DE371E3C8010E94362D41E0B7
:100E020050E062E471E3C8010E94362D41E050E0F7
:100E120061E471E3C8010E94362D42E050E063E4D0
:100E220071E3C8010E94362D409143315091443103
:100E32000E949C4C6091453170914631C8010E94DC
:100E4200362D41E050E067E471E3C8010E94362D7F
:100E5200C8010E94CF3F882309F470C080918C3270
:100E6200877F80938C3280918B32846080938B3227
:100E720080918A32877F80938A320E94694B89EC03
:100E820091E357C0C8010E94CB48C80108960E944E
:100E9200CB4841E050E068E571E3C8010E94362D7D
:100EA20069E571E380916331909164310E94B542AA
:100EB200482F50E069E571E3C8010E94362D41E0F8
:100EC20050E06EE571E3C8010E94362D41E050E02A
:100ED2006DE571E3C8010E94362D42E050E06FE5F6
:100EE20071E3C8010E94362D40915F31509160310B
:100EF2000E949C4C6091613170916231C8010E94E4
:100F0200362DC8010E94CF3F8823C1F080918C32D8
:100F12008F7E80938C3280918B32886080938B326B
:100F220080918A328F7E80938A320E94694B8FEB46
:100F320091E30E94F23485E0809389322091BD30A2
:100F42003091BE302115310569F03227232732272F
:100F52000E94644B0E940545AB01BC018DED91E3FB
:100F62000E94F234809187320F900F90DF91CF91DF
:100F72001F910F91089586E080938932F3CF1092EA
:040F82008732F0CFF3
:100F86002F923F924F925F926F927F928F929F9293
:100F9600AF92BF92CF92DF92EF92FF920F931F9381
:100FA600CF93DF93CDB7DEB7C455D109CDBFDEBF32
:100FB6005B0169017A01813411F08435B1F40E9434
:100FC60023490E948E328111E9C18A8126968FAF0C
:100FD6002697E0917932F0917A32309709F4DEC1A2
:100FE600AE014B5B5F4F61E017C08234C1F40E94D3
:100FF60023490E948E328111D1C18A8126968FAFF4
:101006002697E0917932F0917A32309709F4C6C189
:10101600AE014B5B5F4F62E089810995BFC18334A6
:1010260009F073C02CE030E0AE014B5B5F4FC701A7
:10103600B6010E948E328111B1C12F963FAD2F9716
:1010460037FD3FC0432F032E000C550B2E962FADB8
:101056002E976BE02603F0011124EE50F24D8185A8
:10106600649FF001659FF00D1124EE50F24D8187CB
:1010760081E0808761968EAD9FAD619708978683E4
:10108600978380917B3290917C32BC016F5F7F4F5A
:1010960029F060937B3270937C3205C00296809370
:1010A6007B3290937C328BE0849FF001859FF00D1C
:1010B6001124EE50F24D80917B3290917C328483E4
:1010C6009583398382E090E08A839B8329968EAD4F
:1010D6009FAD29978C839D832D968CAD9DADAEAD2E
:1010E600BFAD2D978E839F83A887B987E09179320C
:1010F600F0917A32309709F451C1AE014F5F5F4FDC
:1011060064E02E968FAD2E9788CF843411F08B3401
:1011160031F50E9423490E948E3281113FC1898197
:1011260026968FAF26979A8127969FAF279791117C
:101136000AC00E94EB4BEE50F24D2B813C812850A9
:10114600310926833783E0917932F0917A323097EC
:1011560009F424C1AE014B5B5F4F65E05ECF8A3474
:10116600C1F424E40E94DF490E948E32811116C127
:10117600E0917732F0917832309709F40FC12596D5
:101186004CAD5DAD6EAD7FAD2597CE01019609954F
:1011960005C1863429F0883431F08D3409F0A7C0B2
:1011A60096E0992E02C089E0982E20E130E0AE014B
:1011B6004B5B5F4FC701B6010E948E328111EEC0B4
:1011C60062968FAC629765964EAD5FAD6597882D3A
:1011D6000E94EB4BEE50F24D12862F968EAD9FADD0
:1011E6002F9761966EAD7FAD619729962EAD3FAD77
:1011F600299729873A872D960CAD1DAD2EAD3FADAB
:101206002D970B871C872D873E870E94E64B09F09A
:10121600C5C0181619060CF059C08C018A159B0515
:1012260008F054C00E94584C09F4B8C082819381DA
:10123600892B09F4B3C08085813009F0AFC026013F
:101246003701460E571E611C711C0D831E835F01FC
:101256001F01E2E02E0E311C6501F8E0CF0ED11C15
:10126600F101E080F1800E151F0508F47801F50103
:10127600408151819701C301B2010E948E328111D2
:101286008DC00E94E04C89839A83EB82FC828D811B
:101296009E818E199F098D839E83E0917932F0910C
:1012A6007A32309731F0AE014F5F5F4F692D882D4E
:1012B60009954E0C5F1C611C711CF6018081882308
:1012C60009F46CC00E191F0959F668C08B839C83FC
:1012D60019821A82E0917932F0917A32309709F4C4
:1012E6005DC0AE014F5F5F4F692D882D96CE853468
:1012F60021F0873421F08C3429F517E001C018E07D
:1013060028E00E94DF490E948E32811147C0898100
:101316004D815E812B813C8127962EAF3FAF27976B
:101326000E94EB4BEE50F24D0E94E64BB9F5E09170
:101336007932F0917A32309789F1AE014B5B5F4F8B
:10134600612F6BCE823551F524E10E94DF490E9460
:101356008E32811123C04D815E816F8178858091A7
:101366002F3290913032A0913132B09132320E94B8
:10137600144B81F4E0917532F0917632309751F04A
:1013860029853A854B855C8569817A818B819C812B
:10139600098909951092753210927632CC5ADF4F30
:1013A600CDBFDEBFDF91CF911F910F91FF90EF90E0
:1013B600DF90CF90BF90AF909F908F907F906F906F
:0A13C6005F904F903F902F90089524
:1013D000ABE0B0E0EEEEF9E00C94CE406C017B01A6
:1013E0008A01FC0116821782838181FFCCC1CE0164
:1013F00001963C01F6019381F70193FD859193FFDE
:1014000081917F01882309F4BAC1853239F493FDB3
:10141000859193FF81917F01853229F4B60190E097
:101420000E940133E7CF912C212C312CFFE1F315E1
:10143000D8F08B3279F038F4803279F08332A1F42D
:10144000232D20611DC08D3261F0803369F4232D7E
:10145000216016C0832D8260382EE32DE4603E2E7D
:101460002AC0F32DF8601DC037FC2DC020ED280FD9
:101470002A3040F08E32B9F436FC81C1232D20642D
:10148000322E19C036FE06C08AE0989E200D112427
:10149000922E11C0EAE02E9E200D1124222EF32D53
:1014A000F0623F2E08C08C3621F4832D8068382EE0
:1014B00002C0883641F4F70193FD859193FF819135
:1014C0007F018111B3CF982F9F7D9554933028F4DD
:1014D0000C5F1F4F9FE399830DC0833631F0833734
:1014E00071F0833509F059C021C0F80180818983EA
:1014F0000E5F1F4F88248394912C530113C0280141
:10150000F2E04F0E511CF801A080B18036FE03C0FE
:10151000692D70E002C06FEF7FEFC5010E94BC46ED
:101520004C018201F32DFF773F2E16C0280122E0E7
:10153000420E511CF801A080B18036FE03C0692D17
:1015400070E002C06FEF7FEFC5010E94B1464C0111
:10155000F32DF0683F2E820133FC1BC0822D90E0FA
:1015600088169906B0F4B60180E290E00E9401333B
:101570002A94F4CFF50137FC859137FE81915F0104
:10158000B60190E00E94013321102A9421E0821AD2
:1015900091088114910471F7E8C0843611F08936FE
:1015A00041F5F80137FE07C0608171818281938126
:1015B0000C5F1F4F08C060817181072E000C880BE3
:1015C000990B0E5F1F4FF32DFF763F2E97FF09C03B
:1015D00090958095709561957F4F8F4F9F4FF068E4
:1015E0003F2E2AE030E0A3010E946C25882E861849
:1015F00045C0853731F4232D2F7EB22E2AE030E00E
:1016000025C0932D997FB92E8F36C1F018F48835F7
:1016100079F0B5C0803719F0883721F0B0C0E92FD4
:10162000E061BE2EB4FE0DC0FB2DF460BF2E09C0DC
:1016300034FE0AC0292F2660B22E06C028E030E012
:1016400005C020E130E002C020E132E0F801B7FE41
:1016500007C060817181828193810C5F1F4F06C03A
:101660006081718180E090E00E5F1F4FA3010E94B6
:101670006C25882E8618FB2DFF773F2E36FE0DC079
:10168000232D2E7FA22E891458F434FE0BC032FC79
:1016900009C0832D8E7EA82E05C0B82CA32C03C0B4
:1016A000B82C01C0B92CA4FE0FC0FE01E80DF11D3D
:1016B0008081803321F49A2D997EA92E09C0A2FE43
:1016C00006C0B394B39404C08A2D867809F0B3940D
:1016D000A3FC11C0A0FE06C0B21488F4280C922C02
:1016E0009B180EC0B21460F4B60180E290E00E9434
:1016F0000133B394F7CFB21418F42B1802C0982C0E
:10170000212CA4FE10C0B60180E390E00E940133BA
:10171000A2FE17C0A1FC03C088E790E002C088E5E4
:1017200090E0B6010CC08A2D867859F0A1FE02C067
:101730008BE201C080E2A7FC8DE2B60190E00E943E
:101740000133891438F4B60180E390E00E9401333C
:101750009A94F7CF8A94F301E80DF11D8081B601C8
:1017600090E00E9401338110F5CF222009F442CE8F
:10177000B60180E290E00E9401332A94F6CFF60190
:101780008681978102C08FEF9FEF2B96E2E10C9448
:021790001741FF
:10179200AF92BF92CF92DF92EF92FF920F931F937D
:1017A200CF93DF93CDB7DEB72997CDBFDEBF7C01E4
:1017B20010928932198680918A3282FD08C0809106
:1017C2008A3283FD04C080918A3284FF05C0109260
:1017D2008732C7010E941747F701868597851091C6
:1017E2008732892B11F4812F7FC1123051F01330CF
:1017F20009F484C0113009F475C187E080938732FF
:1018020071C180918A3280FD70C0C090BD30D0908D
:10181200BE3087EE91E30E94A1425701F8E0AF0E7D
:10182200B11C41E050E0BE01675F7F4FC5010E94DD
:10183200B93B9C019985892F807F803209F047C08E
:10184200BE016F5F7F4F84E0FB0111928A95E9F739
:1018520041E050E0C5010E94723A41E050E0BE0111
:101862006E5F7F4FC5010E94723A41E050E0BE01B7
:101872006D5F7F4FC5010E94723A41E050E0BE01A8
:101882006C5F7F4FC5010E94723A8C81882311F0F0
:1018920080E001C083E0809387328330B1F43C2D35
:1018A2002D2D2115310579F080918C328062809343
:1018B2008C320E94644B0E940545AB01BC018DED48
:1018C20091E30E94F23484E016C083E014C01093C6
:1018D200893290938832209351323093523210924F
:1018E2008732C7010E941747FDC010928732C70195
:1018F2000E94174781E080938932F4C08701085F14
:101902001F4F41E050E0BE01675F7F4FC8010E9458
:10191200B93B898582958F70893081F138F48330A3
:1019220009F4B5C0843009F4B6C0DCC08B3009F4C8
:101932006EC08D3009F0D6C080918B3284FFD2C048
:1019420080918A3282FDCEC083ED91E30E94A14252
:1019520019821A8241E00E944E4A0E94723A809194
:10196200BD309091BE30892B29F080918C328062FB
:1019720080938C32C8010E94CB48B4C080918B32D4
:1019820082FFB0C080918A3283FDACC089EC91E3C2
:101992000E94A1420E94544C88E0FB0111928A9558
:1019A200E9F741E050E0C8010E94723A0E948B4977
:1019B2000E94723A41E050E0BE016A5F7F4FC80167
:1019C2000E94723A41E050E0BE01695F7F4FC80158
:1019D2000E94723A9F8180914131981711F0F12C47
:1019E20012C09E81809142319813F9CF41E050E0BC
:1019F200BE01685F7F4FC8010E94723A88858038B5
:101A020071F393E0F92E80918B328B7F38C08091F5
:101A12008B3283FF67C080918A3284FD63C08FEB73
:101A220091E30E94A1420E94544C84E0FB01119276
:101A32008A95E9F741E050E0C8010E94723A0E949B
:101A42008B490E94723A8A81823091F40E948449C1
:101A52000E94723A0E9492490E94723A9C8180913D
:101A62005D31981305C09B8180915E31981711F00A
:101A7200F12C02C083E0F82E80918B32877F809315
:101A82008B32C8010E94CB48F09287322BC0C7012B
:101A92000E942F1427C0BE016F5F7F4FFB0111927E
:101AA2008A95E9F741E050E0C8010E94723A0E942B
:101AB2008B490E94723A0E9492490E94723A0E9495
:101AC20084490E94723A9B818091353198130AC0F1
:101AD2009C8180913631981305C080918B328F7D25
:101AE20080938B32809187322996CDBFDEBFDF9102
:101AF200CF911F910F91FF90EF90DF90CF90BF9009
:041B0200AF90089503
:101B0600CF92DF92EF92FF92CF93DF9380910928D5
:101B1600982F957051F4E0911C31F0911D316FE6CC
:101B260071E389E791E309951AC083FD18C0E09136
:101B36002831F09129310995811111C08091092828
:101B460081FD0DC040E157E260E070E089E791E376
:101B56000E94F23480910928886080930928809138
:101B66000E2881FD0BC0E0912831F09129310995AD
:101B7600882309F4D1C00E94084DCEC00E94054DAD
:101B86000E94D1460E94A647C82F0E94153E6B01AF
:101B96007C010E942D48672B682B692BF9F0E09198
:101BA6002831F091293109958823C1F080910E28BA
:101BB600806880930E288091133290911432A09100
:101BC6001532B09116320E94FB4A41F0C092133290
:101BD600D0921432E0921532F0921632C23009F4E5
:101BE6009BC030F0C330E1F0C43009F091C094C01E
:101BF6000E94913B60910A2870910B2880910C28D5
:101C060090910D28E0911E31F0911F3109958F3F7B
:101C160009F47EC080910E28806180930E287CC0D6
:101C2600E0912A31F0912B310995882331F0E0912A
:101C36002031F091213109956FC00E94054DEC01CC
:101C46000E94C90B873069F00E940E4D823039F030
:101C5600843039F40E942D480E94364802C00E9402
:101C6600114DCE010E9471050E940E4D0E94054D38
:101C7600FC01C484D5840E94054DDC011896ED90C4
:101C8600FC9019970E94054DDC015096ED91FC9150
:101C96005197808120E030E0A601B7010E94A04C58
:101CA6000E942735E0912831F09129310995882342
:101CB60099F180910E288F7E8B7F80930E2889E77D
:101CC60091E30E94A1428FE691E30E94A142809196
:101CD60009288B7F877F8093092884FF05C0E091C0
:101CE6002231F091233109950E94153E61317E40E3
:101CF600810591058CF0E0912631F0912731099507
:101D0600E889F98980810E94A04C0E94ED3E04C0BA
:101D160080910E28846081CF64EF71E080E090E0CE
:0E1D2600DF91CF91FF90EF90DF90CF90089566
:101D3400AF92BF92CF92DF92EF92FF920F931F93D5
:101D4400CF93DF93CDB7DEB72697CDBFDEBF8C012F
:101D54006B0160912B3270912C3280912D329091D5
:101D64002E320E94F14A11F484EFE1C059017A0144
:101D740022E030E0A8010E948E328111F5CF8091DB
:101D84002B3290912C32A0912D32B0912E320E94A0
:101D9400CA4960932B3270932C3280932D329093E6
:101DA4002E3222E030E0AE014F5F5F4F0E948E3250
:101DB4008111DACF80912B3290912C32A0912D3267
:101DC400B0912E320E94CA4960932B3270932C3208
:101DD40080932D3290932E3222E030E0AE014B5F9F
:101DE4005F4F0E948E328111BFCF80912B32909130
:101DF4002C32A0912D32B0912E320E94CA496093A8
:101E04002B3270932C3280932D3290932E3222E019
:101E140030E0AE014D5F5F4F0E948E328111A4CF3E
:101E240080912B3290912C32A0912D32B0912E3290
:101E34000E94CA4960932B3270932C3280932D32C6
:101E440090932E32F80120813181322723273227C3
:101E54002083318329813A81322723273227850140
:101E6400005C1F4FF801208331834D815E810E9405
:101E74009C4C4D835E834B815C810E949C4C4B83C4
:101E84005C83220F331FA5010E948E3281116CCF17
:101E9400F80120813181220F331F80912B329091E0
:101EA4002C32A0912D32B0912E320E94D1496093F0
:101EB4002B3270932C3280932D3290932E322D81BD
:101EC4003E81A6010E948E3281114ECF2D813E812A
:101ED40080912B3290912C32A0912D32B0912E32E0
:101EE4000E94D14960932B3270932C3280932D320F
:101EF40090932E322B813C81A7010E948E32811156
:101F040033CF2B813C8140912B3250912C32609104
:101F14002D3270912E32420F531F611D711D40935B
:101F24002B3250932C3260932D3270932E3226969E
:101F3400CDBFDEBFDF91CF911F910F91FF90EF9046
:0A1F4400DF90CF90BF90AF9008959A
:101F4E00E091AA328E2F90E08830910520F5FC01A9
:101F5E00E85BFF4F8091AE320C94B44A817019C089
:101F6E008695817016C082FB882780F912C083FB8C
:101F7E00882780F90EC0829581700BC085FB88275B
:101F8E0080F907C086FB882780F903C087FB882766
:101F9E0080F98093A6328091A632811104C081E02F
:101FAE008093660403C081E0809365048091AA3219
:101FBE00873018F01092AA3203C08F5F8093AA3236
:101FCE00E091A7328E2F90E08830910520F5FC012C
:101FDE00E05BFF4F8091AB320C94B44A817019C014
:101FEE008695817016C082FB882780F912C083FB0C
:101FFE00882780F90EC0829581700BC085FB8827DB
:10200E0080F907C086FB882780F903C087FB8827E5
:10201E0080F98093A5328091A532811104C088E0A9
:10202E008093660403C088E0809365048091A73294
:10203E00873018F01092A73203C08F5F8093A732BB
:10204E00E091A8328E2F90E08830910520F5FC01AA
:10205E00E85AFF4F8091AC320C94B44A817019C08B
:10206E008695817016C082FB882780F912C083FB8B
:10207E00882780F90EC0829581700BC085FB88275A
:10208E0080F907C086FB882780F903C087FB882765
:10209E0080F98093A4328091A432811104C084E02F
:1020AE008093660403C084E0809365048091A83217
:1020BE00873018F01092A83203C08F5F8093A83239
:1020CE00E091A9328E2F90E08830910520F5FC0129
:1020DE00E05AFF4F8091AD320C94B44A817019C012
:1020EE008695817016C082FB882780F912C083FB0B
:1020FE00882780F90EC0829581700BC085FB8827DA
:10210E0080F907C086FB882780F903C087FB8827E4
:10211E0080F98093A3328091A332811104C082E0B2
:10212E008093660403C082E0809365048091A93297
:10213E00873018F01092A93203C08F5F8093A932B6
:0A214E006AEF70E080E090E0089571
:102158000F931F93CF930E941D400E9424260E9434
:10216800414382EE90E30E94BF4A82EE90E30E94D0
:10217800134C0E946945811105C080910E28846026
:1021880080930E2882EE90E30E94C12E809331291D
:10219800882329F080910E28846080930E2882EE8F
:1021A80090E30E94BF4A82EE90E30E94024A0E9496
:1021B800642C48EE53E060E070E081EF91E30E9408
:1021C800F23400E217E426E130E080E090E0DC0140
:1021D80040E050E0BA01E6B3E0744E0F511D611DB6
:1021E800711DE6B3E0728E0F911DA11DB11D015046
:1021F80011092109310979F7403953426B407105BA
:1022080008F04DC080399342AB40B10598F568E4B9
:1022180078E48CE598E20E94174A61E578E48BE758
:1022280098E20E94174A1F9282E08F938BE598E408
:102238009F938F938EEA98E29F938F930E94B23D6B
:1022480085E50E94224C85E50E941D4C8FEF0E9477
:10225800274C8FEF0E94184C80910E2888608F7D44
:10226800806480930E280F900F900F900F900F901E
:102278000F9028C083E30E941D4C8FEF0E94224CD0
:102288008FEF0E94274C8FEF0E94184C80910E28E8
:10229800877F80628F7B80930E28C0E014C085E51D
:1022A8000E941D4C8FEF0E94224C8FEF0E94274CFA
:1022B8008FEF0E94184C80910E2888608F7D8F7B4D
:1022C80080930E28C1E06C2F89E09CE40E94CF3EE9
:1022D800C13061F482EE90E30E94734844E650E016
:1022E80060E070E08BEF91E30E94F2340E942426B4
:1022F8000E944B498FE298E29F938F938EEC97E46C
:102308009F938F938DEC98E29F938F930E94B23D99
:102318000F900F900F900F900F900F9064E873E25A
:0E2328008DEC98E2CF911F910F910C948D4295
:102336002F923F924F925F926F927F928F929F92CF
:10234600AF92BF92CF92DF92EF92FF920F931F93BD
:10235600CF93DF93CDB7DEB72C97CDBFDEBF962FD9
:102366009F779A8789870115110529F0F701389615
:10237600EC0DFD1D02C0F9013896EB87FC87EB8555
:10238600FC85ED33F64008F047C0360159016A0175
:10239600962E882E0E94C94281113EC02B853C850F
:1023A600C901A0E0B0E0DC019927882788299C01B3
:1023B600AD0139292D833E834F8358870E94C84B30
:1023C6000E94BB3622E00E94F44C68E70E94D84C7B
:1023D6000E94BB360E94DC4B48EE842E43E0942ECE
:1023E60009C085EF881681E0980620F40E94BE4B4E
:1023F6000E94FF4091E0891A9108E0F0AE014B5F20
:102406005F4F68E70E94D84C0E945E440E94264DAA
:10241600882321F00E9446418FEF54C08D8181FDB3
:10242600E0CFAE014F5F5F4F60E074E085E190E082
:102436000E945E440E94264D811109C029803A807F
:102446004B805C80211431044104510421F40E9424
:1024560046418DEF37C028E030E0AE01475F5F4F61
:10246600C201B1010E94CB2198E0290E311C411C0A
:10247600511CC114D10431F09501A601C201B1016C
:102486000E94CB210115110551F0C201B101660D63
:10249600771D811D911D9701A8010E94CB210E94E5
:1024A600C34B22E00E94AE4AE9F79C01AD012260CF
:1024B6006CE60E94D84C0E94BB360E9446410E94A0
:1024C600264D81952C96CDBFDEBFDF91CF911F9112
:1024D6000F91FF90EF90DF90CF90BF90AF909F90BD
:1024E6008F907F906F905F904F903F902F900895C0
:1024F6004F925F926F927F92BF92CF92DF92EF924E
:10250600FF920F931F93CF93DF9300D000D0CDB7E8
:10251600DEB7B82EF62E29013A0120E030E0A901F7
:102526006CE070E0CB010E94BB3620E030E0A901F0
:102536000E94C84B0E94BB3620E030E0A9010E94F1
:10254600CD4B0E94BB360E94E5470E94802F882310
:1025560011F080E09CC00E94EE470E94802F8111FE
:10256600F8CF64E10E94D84C0E944C3D97FFF9CF0A
:102576006CEB77E082E090E00E944C3D60FF0BC080
:10258600BB20F9F02DE735ED4CE15CE30E94CD4B25
:102596000E94BB361FC000ED17E00150110980F301
:1025A6000E94BE4B0E94FF406CE070E0CB010E948F
:1025B6004C3D6E39704D8D4A904179F7012B01F7EC
:1025C600C8CFFF2039F090E8C92EDD24D394E12C42
:1025D600F12C04C0C12CD12C7601D394A301920115
:1025E6000E94C84B0E94BB360E94731E0E945D4724
:1025F60010F06894C1F8A701960160EA74E180E0E2
:1026060090E00E94BB360E944C4C60EA74E180E088
:1026160090E00E945E44811107C089819A81AB8156
:10262600BC810E94FB4A39F721E63FE242E55FEEB4
:102636006CE070E0CB010E94BB3601ED17E0015063
:10264600110909F486CF62E00E94F04C0E94FF4017
:10265600B11013C00E94C84B0E944C3D66337642AF
:102666008345924061F720E030E0A9010E94C84B03
:102676000E94BB360E9483400AC00E94CD4B0E9436
:102686004C3D633C714C8D45974DC9F681E02496CF
:10269600CDBFDEBFDF91CF911F910F91FF90EF90DD
:1026A600DF90CF90BF907F906F905F904F9008958E
:1026B600CF93DF938B3109F490C0EB018C3120F47A
:1026C600893009F494C0C5C08C3221F0823309F4F4
:1026D6006BC0BFC08881813099F580918332882391
:1026E60099F08BEA91E30E94A1421092833285E52C
:1026F6000E941D4C44EF51E060E070E081EA91E3F6
:102706000E94F2340E94364680910E288A708830E4
:1027160051F485E50E94224C80910E288260877BC9
:10272600806180930E2880910E2885FF06C08F7DDC
:1027360080930E288FE00E941D4C0E94544325C0B2
:10274600811123C08FEF0E94274C8FEF0E94184CF7
:1027560080910E2886FD06C08FEF0E94224C85E5EB
:102766000E941D4C80910E288D7E886080930E28D5
:1027760042E350E060E070E08DE891E30E94F234BD
:1027860080910E28816080930E28E0914532F09169
:102796004632309709F45DC080910E2880FD59C0FD
:1027A6008881DF91CF91099480E996E40E94B54033
:1027B60081114FC080910E2880FF09C08DE891E3FA
:1027C6000E94A14280910E288E7F80930E288091D0
:1027D6000E288B7F80930E283CC0FB01808191815F
:1027E600892BB9F1CB01DF91CF910C947C37FB019A
:1027F600ED59FF4F808181112CC0319780811F9246
:102806008F938BEB96E49F938F938EEA98E29F9338
:102816008F930E94B23DBE018CE598E20E94174A52
:10282600BE016F5D7F4F8BE798E20E94174A81E0F9
:10283600809383320F900F900F900F900F900F9010
:1028460040E050E0BA018BEA91E3DF91CF910C941E
:08285600F234DF91CF910895E7
:10285E002F923F924F925F926F927F928F929F92A2
:10286E00AF92BF92CF92DF92EF92FF920F931F9390
:10287E00CF93DF93CDB7DEB7CE53D140CDBFDEBF02
:10288E008E01035D1E4F20E1D8011D922A95E9F7B6
:10289E00FE01E753FF4FC35C0E94844CCD53D140E1
:1028AE0024E611922A95E9F70E94784C390128EC1A
:1028BE00D3011D922A95E9F708967C0141E050E07C
:1028CE00B8010E94723A6801BFEFCB1ADB0A41E0F1
:1028DE0050E0B601C7010E94723A4801E5E08E0E43
:1028EE00911CD6018D916D0187FF0AC0A815B905FF
:1028FE0039F041E050E0B601C7010E94723AF1CFC3
:10290E00F801212C312C2101812C912C540183941E
:10291E00D180AD2DAF77B0E0A50194010E949B460A
:10292E00260E371E481E591E87E0880C991CAA1CBD
:10293E00BB1C8A95D1F7D7FE02C03196E9CF42E093
:10294E0050E0B8016B5F7F4FC7010E94723A29ECCD
:10295E0030E02C0F3D1FF8012783308745815681CB
:10296E000E949C4CB901C7010E94723AD8010E9484
:10297E000A4B0E94A44C4EEF5FEF6FEF7FEF481BA8
:10298E00590B61097109420D531D641D751D1C966D
:10299E006D927C921D97B301C7010E94723A0E94FC
:1029AE00734BFC01892B51F0D8011C966D917C91D3
:1029BE001D9717968D919C9118970995C7010E94A6
:1029CE00CB4883E0C25CDE4FCDBFDEBFDF91CF913F
:1029DE001F910F91FF90EF90DF90CF90BF90AF902F
:1029EE009F908F907F906F905F904F903F902F9021
:0229FE0008953A
:102A0000A8E0B0E0E6E0F5E10C94D8408B01FC01D1
:102A1000608171818281938120E831E541E050E05D
:102A20000E94903D69017A012CE330E040E050E0E3
:102A30000E945D4129833A834B835C8389819A811B
:102A4000AB81BC81F80160836CE370E00E941943A4
:102A5000DC01CB01F801A1838283C601069667E001
:102A600070E00E94054384832DEA3EE840E050E098
:102A7000C701B6010E945D4129833A836D837E833D
:102A80008F83988789819A8124E6289F6001299FF6
:102A9000D00C11246D817E818F81988525EB35E0E6
:102AA00040E050E00E945D4129833A836D837E833C
:102AB000E980FA80EE0CFF1CEE0CFF1CEC0CFD1CF8
:102AC0008D819E81F5E6EF16F10410F0019604C0A9
:102AD00024E6E216F10419F021E030E002C020E023
:102AE00030E0A90144595E4F4817590768F46DE674
:102AF00071E0821B930B0E941943DC01CB01E80EAD
:102B0000F91ECD0120E030E044E6E40EF11CF801AE
:102B1000E682F78280879187255C3F4F8217930773
:102B200048F46FE170E00E941943DC01CB01F80129
:102B3000858322C069E970E0821B930B0E941943D0
:102B4000DC01CB01F82EFF0CFF0CF80E6DE370E0FA
:102B5000CD010E941943DC01CB01E82EEE0C6FE1A0
:102B600070E0CD010E941943DC01CB0122E0280F67
:102B7000F20EFE0CF801F582A383F801128613868B
:0E2B800083818F5F83832896E8E00C942141C7
:102B8E00EF92FF921F93CF93DF93CDB7DEB72697C9
:102B9E00CDBFDEBF1B821C821D821E8263EC74E4DD
:102BAE000E94364C89839A839E012F5F3F4F790195
:102BBE0010E0009771F0133061F0F701819391935B
:102BCE007F011F5F63EC74E480E090E00E94364C5E
:102BDE00F0CFE980FA80E114F104D9F02B813C8129
:102BEE008D819E812115310519F4009779F417C056
:102BFE00009761F4C9010E94F84C9EEF980F923035
:102C0E0008F443C0813059F012E01DC00E94F84C08
:102C1E00182F113021F0C8F11430A8F036C04EE153
:102C2E0050E0B7018CE598E20E94144565EC74E41F
:102C3E008BE798E20E94174A67EC74E48EEA98E2FA
:102C4E000E94174A2BC04EE150E0B7018CE598E286
:102C5E000E9414456B817C814EE150E08BE798E237
:102C6E000E9414451F921F9389EC94E49F938F93B7
:102C7E008EEA98E29F938F930E94B23D0F900F9031
:102C8E000F900F900F900F9009C08CEC94E49F93CF
:102C9E008F930E940E420F900F9029C08EE095E404
:102CAE009F938F930E940E420E94D34A0F900F90D3
:102CBE00882321F00E94054D0E94174780910E280F
:102CCE0087FF07C08F7780930E280E94054D0E94C4
:102CDE0039330E943F458FEF0E94274C8FEF0E94A1
:102CEE00184C8FEF0E94224C85E50E941D4C2696B3
:102CFE00CDBFDEBFDF91CF911F91FF90EF90089572
:102D0E002F923F924F925F926F927F928F929F92ED
:102D1E00AF92BF92CF92DF92EF92FF920F931F93DB
:102D2E00CF93DF93CDB7DEB7A597CDBFDEBF19A288
:102D3E001AA2833010F082EE8CC0823019F460310A
:102D4E007105C8F70115110511F480E082C0211537
:102D5E00310589F328012CA33DA35A011B01F82E3E
:102D6E00AE014F5D5F4F0E941A32811172C029A1D0
:102D7E003AA1C8018A0D9B1D28173907E0F23501CB
:102D8E0065E0769467946A95E1F720E22BA3C12C57
:102D9E00D12C812C912C84149504B8F68BA1803201
:102DAE00C1F489A19AA1930155E0220F331F5A95C0
:102DBE00E1F7821B930B809760F46401CA0CDB1C55
:102DCE00D694C794D694C79497E0C922DD2424E004
:102DDE002BA3EBA00E94804C2C2D462DB1018F2DE4
:102DEE000E944E24811135C0C30123E0880F991F24
:102DFE002A95E1F78C0D9D1D0E94EC4A8A159B05C4
:102E0E0020F4B501681B790B02C060E070E02BA1C5
:102E1E00822F90E0861B970B8201081919098017E3
:102E2E00910708F48C010E946149A8018CA19DA113
:102E3E00880D991D0E944848800E911E9BA19032CC
:102E4E0021F42FEF621A720AA6CF8FEFC81AD80A92
:102E5E00A2CFA596CDBFDEBFDF91CF911F910F916F
:102E6E00FF90EF90DF90CF90BF90AF909F908F909C
:0E2E7E007F906F905F904F903F902F9008953F
:102E8C00CF92DF92EF92FF92CF93DF930E942D4867
:102E9C006B017C010E94D34A882309F47DC02091E8
:102EAC003332309134324091353250913632C70141
:102EBC00B6010E94554D16161706180619060CF089
:102ECC006BC0C0923332D0923432E0923532F092F1
:102EDC003632EFECFEE280E5DF011D928A95E9F7D0
:102EEC008FE298E29F938F9381E198E49F938F9365
:102EFC00FF93EF930E94B23D80910E280F900F909C
:102F0C000F900F900F900F9081FF46C00E940B3FC7
:102F1C00EC010E942C4D482FE92FCE01D7FF04C0A5
:102F2C00882799278C1B9D0B24E630E0B9010E9461
:102F3C0019439F938F93CE01B9010E9419437F933C
:102F4C006F93EF934F9382EE90E39F938F938CE16B
:102F5C0098E49F938F9382E69CE29F938F930E94B9
:102F6C00B23D2DB73EB7245F3F4F2DBF3EBF181665
:102F7C00190694F4AC0162E67CE28FEC9EE20E94AE
:102F8C00CE4A8091A032882321F081508093A032C8
:102F9C0003C083E30E94274C80910E2883FD10C050
:102FAC0081FF03C080E00E941D4C80910E2884FD9F
:102FBC0007C00E94D34A882319F080E00E94224C5B
:102FCC0080910E2882FF02C080E001C08FEF0E942A
:102FDC00184C64E60E94F04CDF91CF91FF90EF907B
:062FEC00DF90CF90089574
:102FF200A0E0B0E0EFEFF7E10C94D440EC01EE81F9
:10300200FF818F0104561109B9F0CF01855691094C
:103012006C0197FF03C023E0C20ED11CD594C79464
:10302200D594C7946CE97FEF0E941943C60ED71E50
:103032008FEFC81AD80A02C0C12CD12C2DE631E07C
:10304200D8010E94094A0D2C000CEE08FF08C60E9A
:10305200D71EE81EF91E8B81082E000C990B8C01DD
:10306200015011092D8122302CF4222379F1015EC5
:103072001F4F2CC0CF018459984F0E942D43282FF7
:1030820030E0255C3F4F200F311F8D81082E000C50
:10309200990B02978530910514F027563F4F65E052
:1030A20070E00E941943AC0197FF02C04F5F5F4F6F
:1030B200559547959DE3949F8001959F100D11248E
:1030C200020F131F80FF02C0015E1F4FC801110FC4
:1030D200AA0BBB0B9C01AD012C0D3D1D4E1D5F1DAE
:1030E20060E871E581E090E00E946E444B015C0172
:1030F200AA810A2E000CBB0B20E13EE00E94094A85
:103102006B017C01A9810A2E000CBB0B2CE330E081
:103112000E94094AC60ED71EE81EF91E6881862F34
:10312200660F990BAA0BBB0B8C0D9D1DAE1DBF1D0F
:10313200BC01CD01680D791D8A1D9B1DCDB7DEB77F
:06314200ECE00C941D41BD
:10314800AF92BF92CF92DF92EF92FF920F931F93AD
:10315800CF93DF93CDB7DEB7EC97CDBFDEBFFA01D3
:10316800309711F481EF84C00E94E44C11F4168268
:10317800178222813381232BA9F324813581232BC4
:1031880089F3E680F780408551858A0120E030E0A8
:103198000E0D1F1D211D311D053811052105310595
:1031A80008F7A285B385A13091E0B907D8F66F0179
:1031B8009B01E40EF51EECE0EE0EF11CEA0EFB1E80
:1031C8000E947C4CA70164E00E94EB23811150C04F
:1031D800A70160E070E0CE01C1960E94104A81E02C
:1031E80089ABF6018485882311F081E889ABF60163
:1031F8008585882319F089A9806489AB1AAAF60104
:1032080060817181CE01CD965C016115710551F027
:10321800068117810AAB1127A8010E9448480A0DA8
:103228001B1D01C08C01F601408551854BAB5CAB81
:1032380062817381C8010E9448488BA99CA9800FAC
:10324800911F9C012A193B092DAB3EABF601428523
:1032580053854FAB58AF648175810E94484880E31D
:10326800C82ED12C8E010F5C0E9409480E949B1128
:10327800EC96CDBFDEBFDF91CF911F910F91FF90EC
:0C328800EF90DF90CF90BF90AF900895C2
:103294008F929F92AF92BF92DF92EF92FF920F9321
:1032A4001F93CF93DF93F12C0BE319E4C4E1D5E42E
:1032B4000E94A049882309F480C00E946A40E091DA
:1032C40081328D3019F08A3009F068C0F0E0E55998
:1032D400F14D108290918032911153C091E08A3067
:1032E40029F420917F322D3009F490E080937F32CD
:1032F400992309F446C0F11044C060E270E08BE603
:103304009EE20E94A6467C01009719F0DC011D9202
:103314007D01EBE6FEE201900020E9F73197EB56E0
:10332400FE42DE2E8BE1A82E89E4B82EF5018080C2
:103334009180B4018BE69EE20E945148F401019011
:103344000020E9F73197E819F90981110CC0DE1260
:103354000AC0D5011296ED91FC911397309719F09C
:10336400C70109950CC0B4E0AB0EB11C0A151B05CE
:10337400E9F6DF93CF930E940E420F900F90FF2443
:10338400F39480918032882321F08FEF95E40E949A
:10339400AB3710928132109280328ACFE43648F4EF
:1033A40091E09E0F90938132F0E0E559F14D8083D6
:1033B4007FCF81E0809380327BCF0E94C44ADF912B
:1033C400CF911F910F91FF90EF90DF90BF90AF903E
:0633D4009F908F90089508
:1033DA00CF93DF93FC018DE1A0EBB0E3ED011992ED
:1033EA008A95E9F78091B0308F7080618093B03010
:1033FA0084E08093B6309DE49093B73091E5909342
:10340A00B83094E59093B9309093BA308093BB303A
:10341A006789708D6115710521F483899489892BD7
:10342A0011F082EC01C082E08093BC3085859685DC
:10343A000E94A44C8093BD309093BE30A189B2897A
:10344A00A093C130B093C230ED0109900020E9F792
:10345A0021979E012A1B3B0B2093BF303093C0302B
:10346A004091BC3046FF0AC0818D928D8093C9304D
:10347A009093CA306093C7307093C83047FF16C024
:10348A00858996898093C5309093C63063897489FB
:10349A006093C3307093C4308091C7309091C83024
:1034AA00860F971F0496820F931F01C0C9010C96BD
:1034BA008093CB309093CC30407CA1F08091C73080
:1034CA009091C8300E94A44C8093C7309093C83022
:1034DA008091C3309091C4300E94A44C8093C33031
:1034EA009093C4303227232732272093BF3030935A
:1034FA00C03081E080938C3280938732DF91CF9104
:02350A00089522
:10350C000F931F93CF93DF930E948A3640E054E0D1
:10351C0082EDFA01808320E234E0F901108280E42C
:10352C0094E0FC011082C0E6D4E06FE06883A0E870
:10353C00B4E01C9200EA14E079E1F801708370E8C1
:10354C00FA017483F9011482FC0114826C831496C1
:10355C001C921497F8011482FA010E94AF47F901EA
:10356C000E94AF47FC010E94AF47188A198A1A8A39
:10357C001B8A1C8A1D8A1E8A1F8A50961C92509781
:10358C0051961C92519752961C92529753961C929C
:10359C00539754961C92549755961C925597569641
:1035AC001C92569757961C92F801108A118A8BE040
:1035BC00828B138A148A88E0858B868B178AE0EEBF
:1035CC00F5E011821082148215821382128288E532
:1035DC009DE4809361329093623289E59DE48093FF
:1035EC005F32909360328AE59DE480935D329093D4
:1035FC005E328BE59DE480935B3290935C328CE57C
:10360C009DE48093593290935A328DE59DE48093DA
:10361C0057329093583287E59DE4809355329093BE
:0C362C005632DF91CF911F910F9108954D
:10363800CF92DF92EF92FF92CF93DF93CDB7DEB7B1
:10364800C057D109CDBFDEBF69017A01863029F1A3
:10365800873009F434C0813009F075C020E70E9432
:10366800DF490E948E3281116EC0E0917132F09173
:103678007232309709F467C080E7C80ED11CE11C8C
:10368800F11CC0922B32D0922C32E0922D32F09263
:103698002E320E94644C81E055C00E9423490E944A
:1036A8008E32811150C0E0917132F09172323097B0
:1036B80009F449C0BE016F5F7F4F86E043C028E030
:1036C8000E94DF490E948E32882351F0E0917132C6
:1036D800F09172323097B9F169E972E387E032C04C
:1036E8004D815E812F813885EB81FC8189819A81AA
:1036F8004115510519F461E060939932420F531F47
:103708009C01332721303105C9F048F022303105BA
:1037180099F0609199322330310531F00AC0209137
:103728009932213059F408C0623041F0643021F4F4
:1037380005C0623019F084E080939932E417F507E8
:1037480011F4C4CF0995C059DF4FCDBFDEBFDF915B
:0C375800CF91FF90EF90DF90CF9008958C
:10376400CF93DF93CDB7DEB72897CDBFDEBF0E94DE
:10377400BC49882309F47CC0AE014B5F5F4F0E94B3
:10378400B94B0E945E44882311F084EF76C00E94F6
:10379400FA4B80FFFACF9C01AD012E7F2D833E832F
:1037A4004F8358870E94B94B0E94BB368111EDCFDD
:1037B4000E94FA4B22E0B695A795979587952A958E
:1037C400D1F79F7080936F3290937032892B09F4F4
:1037D40051C043E252E30E94044C0E945E448111B2
:1037E400D4CF60912332709124328091253290910C
:1037F40026320E94964A0E9481278111C6CF6B818E
:103804007C8180916F3290917032861B970B059763
:1038140098F5E9818FEF8E0F873008F0B6CF80914D
:10382400233290912432A0912532B09126329C010A
:10383400AD01285F3F4F4F4F5F4F685071090E94A1
:103844005C4CE054F54B0E94744C8A81099581E0EC
:103854000E94E24122E00E94F44C0E94B94B0E9473
:10386400802F80E00E94E2410E94264D81118DCF7D
:1038740080E003C08EEF01C08AEF2896CDBFDEBF83
:06388400DF91CF910895D1
:10388A00CF92DF92EF920F93CF93DF93CDB7DEB74C
:10389A006497CDBFDEBF6C01F9011F86188A898B38
:1038AA009A8B6B8B0C8BE11002C082E001C080E026
:1038BA006132D8F04230E9F048F4413009F068C08A
:1038CA00BE01615F7F4F0E946E3D63C0433051F17C
:1038DA00443009F438C05CC0615048F09601260FA4
:1038EA00311DD9012C912111F7CF962FF5CF9B8B42
:1038FA00E1CF309709F44CC00E94304ADF010D90A5
:10390A000020E9F70E94DC4CA034B10519F4E983E0
:10391A00FA8303C0EB83FC83AD830E94D8490E94DB
:10392A00F41F37C03097A1F19F012E5F3F4F2983C3
:10393A003A83918191509B8390819C830E94D849BC
:10394A000E940B2A26C0309719F119821A82EB833A
:10395A00FC839F012B5E3F4F2D833E831F82188677
:10396A00DF010D900020E9F70E94DC4CA987BA8795
:10397A00F90101900020E9F73197E21BF30BEB877D
:10398A00FC871D861E860E94D8490E94A41801C081
:10399A0081EF6496CDBFDEBFDF91CF910F91EF909B
:0639AA00DF90CF900895AC
:1039B000EF92FF920F931F93CF93DF93CDB7DEB7B4
:1039C000C25CD109CDBFDEBF8C01CF53DF4F18825F
:1039D0001982C15CD04081E090E08B839C83F80128
:1039E000808191818330910569F1A0F48130910546
:1039F000F1F0029709F041C0AE014F5A5F4FB80194
:103A0000645F7F4FF801E25BFF4F808191810E94EC
:103A1000C94A1CC084309105F9F0059771F5F80189
:103A200064857585868597850E946C200FC0AE01E0
:103A3000435F5F4FBE016F5A7F4FC8010C960E94D3
:103A40001A2304C0CE010D960E94FE2D082E000CF4
:103A5000990B8B839C8311C07E01F1E7EF0EF11C63
:103A6000AE014F535F4FB701C8010C960E94A933B6
:103A70000E94A04C8B839C8302C0E12CF12CF801A6
:103A80008081918189839A830E94374B8D839E83A5
:103A9000AF83B88780859185A285B38589879A870A
:103AA000AB87BC870E940048CF53DF4F48815981C4
:103AB000C15CD0400E94404C0E949C40CE53DF4FDE
:103AC000CDBFDEBFDF91CF911F910F91FF90EF909F
:023AD000089557
:103AD200AF92BF92CF92DF92EF92FF921F93CF935A
:103AE200DF93CDB7DEB7CC56D109CDBFDEBF182FDD
:103AF20069017A018FEEA82E8FE2B82EF50180813E
:103B02008E3399F181132DC0D50111962D913C91DF
:103B120012972115310539F4E0917332F091743224
:103B2200309759F422C0AE014F5F5F4FC701B60113
:103B32000E948E32811143C0EFCFD5010E94D74B34
:103B4200892B51F0113129F410929A328981809394
:103B52009C320E94544C02C060E070E0812F0995B3
:103B620004C0B3E0AB0EB11CC9CF103241F528E05E
:103B720030E0AE014B595F4FC701B6010E948E3251
:103B820081111DC0AB962EAD3FADAB97A7964EAD42
:103B92005FADA797C701B601685F7F4F8F4F9F4FF9
:103BA2000E948E3281110BC0E0917332F091743217
:103BB200309729F0BE016B597F4F80E20995C459B5
:103BC200DF4FCDBFDEBFDF91CF911F91FF90EF900E
:0A3BD200DF90CF90BF90AF900895F0
:103BDC00EF92FF921F93CF93DF9300D000D0CDB71D
:103BEC00DEB7029709F06EC0613009F510919E3274
:103BFC0027E03BE087E0E82EF12C812F90E0389F06
:103C0C00F001399FF00D1124EE50F24D0196B701E1
:103C1C000E9419439085911103C080939E3227C056
:103C2C002150182F51F780939E321FEF20C0623025
:103C3C0009F048C010919D3224E08BE0189FF001F0
:103C4C001124E15CF14D812F90E00196837099274E
:103C5C003085311104C080939D32195F06C021500C
:103C6C00182F59F780939D321FEF309761F18BE03D
:103C7C00DF011D928A95E9F781E0808780917B3284
:103C8C0090917C329C012F5F3F4F29F020937B3227
:103C9C0030937C3205C0029680937B3290937C32B9
:103CAC0080917B3290917C328483958340FF0BC052
:103CBC00198381E281870E949C4A60E582E00E9420
:103CCC00634201C01FEF812F2496CDBFDEBFDF9171
:0A3CDC00CF911F91FF90EF90089523
:103CE600CF92DF92EF92FF92CF93DF9300D000D076
:103CF600CDB7DEB7C0902732D0902832E090293277
:103D0600F0902A320E94E74A09F060C0AE014F5F88
:103D16005F4F64EF73E180E090E00E945E448111A2
:103D260055C047E252E360E00E94D84C0E945E44D0
:103D360081114CC08091273290912832A09129326E
:103D4600B0912A32803A22E0920720E1A207B1051B
:103D560041F40E94434931F181EA92E0A0E1B0E0EA
:103D660019C0803B9240A041B105E1F40E94C34BCB
:103D760083309105A105B105A9F00497A105B10508
:103D860029F481EB92E0A0E1B0E004C082EB92E07E
:103D9600A0E1B0E08093273290932832A093293295
:103DA600B0932A32C0902732D0902832E090293240
:103DB600F0902A3280EFE82225E0E22AC0922732EC
:103DC600D0922832E0922932F0922A32C701B60107
:103DD6002496CDBFDEBFDF91CF91FF90EF90DF90AD
:043DE600CF900895DD
:103DEA004F925F926F927F928F929F92AF92BF9201
:103DFA00EF92FF920F931F93CF93DF9300D000D0DF
:103E0A00CDB7DEB77C0128013901B42EAA24992442
:103E1A008824872F9927AA270E94A84A8BE0882AF4
:103E2A00DB01CA010E942A46442755277727452FD6
:103E3A00562F672F7727842A952AA62AB72AA301FD
:103E4A00920168E072E081E090E00E94BB36A50131
:103E5A0094010E94FF4B0E94BB3625EA0E94F44C53
:103E6A0060E172E081E090E00E94BB362FE10E949F
:103E7A0033490E94BB3620E030E04DE00E94A24A5E
:103E8A000E94BB3625E80E942B490E94BB360E943D
:103E9A003B490E945E44811103C00E944349B9F71D
:103EAA000E94264D882311F084EF0AC09201A701CF
:103EBA0060E070E08DE090E00E9481278111F4CFEC
:103ECA002496CDBFDEBFDF91CF911F910F91FF9056
:103EDA00EF90BF90AF909F908F907F906F905F9080
:043EEA004F90089558
:103EEE00CF93DF93FC0180E1ACE2B1E3ED011992D7
:103EFE008A95E9F780918732833009F06AC09091F4
:103F0E002C319F70906390932C31808183FB882796
:103F1E0080F980FB93F990932C3180818670997F84
:103F2E00982B90932C31892F8E70883019F4977FAF
:103F3E0090932C31908180912C3190FB80F980935D
:103F4E002C31878190858093333190933431A781C2
:103F5E00B085ED0109900020E9F72197CE018A1B6B
:103F6E009B0B8093313190933231208126952370B3
:103F7E0061F021852093353122852093363122E060
:103F8E0030E020933A3130933B31248535852093B0
:103F9E0038313093393143854093373120913A315E
:103FAE0030913B312E5F3F4F240F311D280F391FAB
:103FBE0020933A3130933B310E94A44C809331319F
:103FCE009093323180918C32846080938C3281E078
:0A3FDE0001C080E0DF91CF9108954B
:103FE800AF92BF92CF92DF92EF92FF920F931F93FF
:103FF800CF93DF93CDB7DEB7CC59D109CDBFDEBFA4
:104008004115510509F453C07A019B018E010359EA
:104018001F4F4CE650E062E00E94EB23182F8111FD
:1040280047C0CE0101965C018CE6F50111928A9594
:10403800E9F7F701608171818281938161157105CA
:10404800B9F0892BA1F580E4898340E2CE0102967C
:104058000E94573C811111EF498150E0F7016081BE
:104068007181CE0102960E944848112371F020C048
:104078000097E9F0F70144814134C8F4498350E0DE
:10408800BC01CE0102960E94484880E3C82ED12C7C
:104098009CE6E92EF12C850120E330E0AE0143597E
:1040A8005F4F6BEB81E00E949B11182F01C011EF4D
:1040B800812FC456DF4FCDBFDEBFDF91CF911F9157
:1040C8000F91FF90EF90DF90CF90BF90AF90089541
:1040D8004F925F926F927F92AF92BF92CF92DF9290
:1040E800EF92FF921F93CF93DF93CDB7DEB7C75EF2
:1040F800D109CDBFDEBF2B013C01CE0101965C0189
:1041080080E5F50111928A95E9F7CB51DF4F1882C6
:104118001982C55ED040C12CD12C760114EF0E94C3
:10412800F64AC9F19E012F553F4FAE014F5A5F4FD6
:10413800B501CE018B519F4F0E949A0E182F811105
:104148002AC0CB510E94444CC55ED0404797D1F459
:10415800C951DF4F1882C75ED0409E0129513F4F99
:10416800AE014F555F4FBE016F5A7F4FC5010E9488
:104178003D2B81110DC0C951DF4F8881C75ED040EA
:10418800882331F0FFEFCF1ADF0AEF0AFF0AC7CF03
:104198000E945F4D14EF812FC951DF4FCDBFDEBFA5
:1041A800DF91CF911F91FF90EF90DF90CF90BF905C
:0C41B800AF907F906F905F904F90089543
:1041C400CF92DF92EF92FF920F931F93CF93DF93DF
:1041D400CDB7DEB76097CDBFDEBF6B017C018AE24D
:1041E4009AE40E942C4460E070EA80E090E00E942F
:1041F400F1420E94E74A09F44AC082E090E08983D0
:104204009A8383EB92E20E94144D8B839C83CD822C
:10421400DE82EF82F8860E94054D8C010E94D14611
:104224000E94A647811118C0F801E088F18841E096
:1042340050E061E070E082E090E00E94D43DD7015C
:104244008C930E945A4987FD07C00E94093C00973D
:1042540019F021E0FC012483D8010E9482470E94C6
:10426400A6478130A1F40E945A4940E150E0BE01C2
:104274006F5F7F4F0E94A04C0E94CA25F82E8823AE
:1042840039F0D8010E9482470E94ED3E01C0F12C12
:104294008F2D6096CDBFDEBFDF91CF911F910F911F
:0A42A400FF90EF90DF90CF90089597
:1042AE00AF92BF92CF92DF92EF92FF921F93CF9376
:1042BE00DF9300D0CDB7DEB77C016B01DB016D91D2
:1042CE007C91FC0182810E94A52A811151C0D601E8
:1042DE00ED91FC911197A280B3800E94054B0E9434
:1042EE002F41182F81113EC0F701418150E0B701D7
:1042FE00D6010E94054B0E94424A182F811132C0EE
:10430E00B50180E090E00E94AB44B6E0EB0EF11CEC
:10431E0080ECF70111928A95E9F780EC90E08983A1
:10432E009A83AE014F5F5F4FB701D6010E94054BD6
:10433E000E94484A182F811115C089819A818430B4
:10434E00910520F4892B69F417EE0CC0C7010E9469
:10435E009038182F811106C0C7010E944239182FBC
:10436E0001C016EEF601828193810E94B945812F1C
:10437E000F900F90DF91CF911F91FF90EF90DF90F4
:08438E00CF90BF90AF9008959D
:104396009F92AF92BF92CF92DF92EF92FF920F93CE
:1043A6001F93CF93DF93CDB7DEB72897CDBFDEBF80
:1043B6005A018901FE01319697E0DF011D929A9517
:1043C600E9F797EC998390919532992319F0DD24BA
:1043D600D39442C091E0909395322130310511F487
:1043E60002E010E08A837B836C831E830F8367E081
:1043F600CF010E944E42D82E8111E9CF81EF8887E6
:1044060093EFC92E22EF922E01151105F1F07801D6
:104416000130B0E21B0718F0E12C80E2F82E0E19ED
:104426001F0909F4C88661E070E0CE0108960E9473
:104436003F2E882361F2B701C5010E943F2E8823D3
:1044460031F29886AE0CBF1CDFCF83EC0E94BD38DC
:104456008111BDCF109295328D2D2896CDBFDEBF2E
:10446600DF91CF911F910F91FF90EF90DF90CF904A
:08447600BF90AF909F900895E4
:10447E00CF92DF92EF92FF920F931F93CF93DF9322
:10448E00CDB7DEB7C75CD109CDBFDEBFFA0130971D
:10449E0009F44DC0982F9370923021F421153105F7
:1044AE0039F445C0933021F40115110509F43FC0CC
:1044BE00A0914932B0914A32CD90DC900E948C4C42
:1044CE0050E4DE01179601900D925A95E1F7923065
:1044DE0019F490E4F90105C00115110541F093E1BD
:1044EE00F801DE01A95BBF4F0E946C4CE9F7BE01DB
:1044FE006F5F7F4FC6010E948A4181111BC0609180
:10450E00493270914A32CE0101960E945721811193
:10451E0011C0E114F10469F08F81833250F080E212
:10452E00FE013896D7010E94704CE9F702C082EE68
:10453E0001C080E0C953DF4FCDBFDEBFDF91CF9109
:0E454E001F910F91FF90EF90DF90CF90089596
:10455C00CF92DF92EF92FF920F931F93CF93DF9343
:10456C00EC01CE80DF80E884F98400914D3210910B
:10457C004E321C821D8280911B3290911C32A09174
:10458C001D32B0911E320E94FB4A68F40E94E03347
:10459C002FEFE21AF20AC61AD70AE80AF90ACE82F3
:1045AC00DF82E886F986E0E0F0E081E00115110594
:1045BC0041F0D80116960E94324B19970E94554B28
:1045CC0018F4813009F505C080E0F80104811581EB
:1045DC00EDCF6FEF7FEF80E090E00E9407380E94F4
:1045EC00604AE0914D32F0914E32B1E3E53BFB076E
:1045FC0019F40480F581E02DEC83FD83C0934D32DA
:10460C00D0934E3281E007C0848195818C839D8349
:10461C00C483D58380E0DF91CF911F910F91FF90E0
:08462C00EF90DF90CF9008959C
:104634009F92AF92BF92CF92DF92EF92FF920F932D
:104644001F93CF93DF936C015B01EA0180910F32DA
:1046540090911032A0911132B09112320E94904C7C
:1046640041F010920F3210921032109211321092C7
:104674001232E0914932F0914A320E946B48833001
:10468400C1F080910F3290911032A0911132B0910B
:1046940012320196A11DB11D80930F3290931032F6
:1046A400A0931132B093123222E0E22EF12C912C1D
:1046B40005C0EE24EA94FE2C9DE0992EBE01C701AC
:1046C4000E946849882311F084EF10C0C05CDF4F5A
:1046D40080E290E08883998300E010E09501A601D0
:1046E400B701892D0E947B288111EECFDF91CF91F4
:1046F4001F910F91FF90EF90DF90CF90BF90AF90FC
:044704009F900895E5
:10470800EF92FF920F931F93CF93DF93F82EE92E2A
:10471800162F072F8FE298E29F938F938EEC97E4E2
:104728009F938F93CDECD8E2DF93CF930E94B23D55
:1047380009900020E9F72197AE014D5C58426F2D92
:104748007E2D8DEC98E20E9477450F900F900F9088
:104758000F900F900F90892BC9F461EF77E4812FA8
:10476800902F0E943740009789F0FC0181858133A2
:1047780029F481E08093A13280E003C01092A13235
:104788008FEF0E94274C82E08093A032EF92FF9235
:104798008BEF97E49F938F931F921F920E94F230A2
:1047A8000F931F9385E098E49F938F931F921F9216
:1047B8000E94F2308DB79EB70C968DBF9EBFDF91D9
:0E47C800CF911F910F91FF90EF900C94012F55
:1047D6000F931F93CF93DF93F901D801445D5F4F89
:1047E600309709F450C022813381232B09F44BC042
:1047F6009481913208F047C0109709F442C090E3C3
:10480600E80119929A95E9F74D935C9311978130D7
:1048160049F070F08230B9F50E94604C82601296C1
:104826008C9312970E94604C816012968C9312971B
:1048360085818F3F19F081508E3028F513968C9321
:1048460013978FEF860F8430F0F4ED018F016CA77C
:1048560084818C83448150E062817381CD01059609
:104866000E944848F8010E94584C79F081E08DA3D7
:10487600DE0196960E94744C86E00E94704CE9F721
:1048860004C084EF03C081EF01C080E0DF91CF91C7
:064896001F910F9108952F
:10489C00AF92BF92CF92DF92EF92FF920F931F9342
:1048AC00CF93DF93CDB7DEB7C95CD109CDBFDEBFE7
:1048BC00F82E6801012B09F43CC084E0E81619F0CD
:1048CC0080E2E81236C0E0914932F0914A32A08081
:1048DC00B1808E0108531F4F8F2D0E94EA38811131
:1048EC0029C080E2E81203C08F2D8068F82EFC826C
:1048FC00C8530E94444CC85CD0408D839E830E9458
:10490C00284B0E94A348811115C0609149327091C7
:10491C004A32CE0101960E94572181110BC04E2DB7
:10492C0050E0BE01685F7F4FC6010E94484880E09E
:10493C0001C082EEC753DF4FCDBFDEBFDF91CF91F9
:10494C001F910F91FF90EF90DF90CF90BF90AF90A1
:02495C000895BC
:10495E0010920A2810920B2810920C2810920D28F3
:10496E0080910E288D7F886080930E288091092873
:10497E00877F8B7F809309280E94C23561E375E49F
:10498E008EE095E20E9412480E94913B8AE0EFE091
:10499E00F8E2DF011D928A95E9F7CF010E94784B6C
:1049AE000E94054DFC018089918980930F28909378
:1049BE00102881E39DE48093112890931228809112
:1049CE005C28882329F081E09091AE28911101C0D6
:1049DE0080E00E942A3D882391F08FE691E30E94A9
:1049EE00A14240E157E260E070E089E791E30E9466
:1049FE00F234809109288D7F8860816003C0809198
:0E4A0E0009288E7F809309280E94484C089545
:104A1C00EF92FF920F931F93CF93DF93E82EF62E16
:104A2C00EA010E94093C8C01892B09F448C086E0FC
:104A3C00F81641F18F1520F0A5E0FA1641F03FC0B1
:104A4C00B7E0FB16C9F1E9E0FE1659F038C0209723
:104A5C00B1F1898187FD0BC083E0D80114968C934A
:104A6C002EC0209761F1888199810097D1F48E2D09
:104A7C00EE0C990BDF91CF911F910F91FF90EF905E
:104A8C000C94ED3E2097D9F06A817B81161617069F
:104A9C0074F7D8011296ED91FC9113978881998146
:104AAC000AC06A817B816115710509F3D8011296E0
:104ABC00ED91FC911397099583E0F8018483DF91C4
:0C4ACC00CF911F910F91FF90EF90089583
:104AD800FA01AA27283051F1203181F1E8946F9327
:104AE8006E7F6E5F7F4F8F4F9F4FAF4FB1E03ED0CD
:104AF800B4E03CD0670F781F891F9A1FA11D680F6B
:104B0800791F8A1F911DA11D6A0F711D811D911D9D
:104B1800A11D20D009F468943F912AE0269F112412
:104B28003019305D3193DEF6CF010895462F477076
:104B3800405D4193B3E00FD0C9F7F6CF462F4F70D1
:104B4800405D4A3318F0495D31FD4052419302D02F
:104B5800A9F7EACFB4E0A6959795879577956795D5
:104B6800BA95C9F700976105710508959B01AC01D5
:104B78000A2E06945795479537952795BA95C9F7FC
:0C4B8800620F731F841F951FA01D08956D
:104B9400AF92BF92CF92DF92EF92FF920F931F9347
:104BA400CF93DF93CDB7DEB76097CDBFDEBF8C0167
:104BB4005B016A010E94093C7C01892B99F1F50192
:104BC4008191919189839A832EE0DE0113960E944C
:104BD400684CE9F78230910511F589839A834C2D4D
:104BE4000E94544C802F0E948534882391F0873F83
:104BF40071F08A3FB9F417FF02C086E211C0AB28F6
:104C040011F481E30DC0CD28C1F786E109C085E028
:104C140007C082E0F701848380E090E005C08FE262
:104C240080938D328FEF9FEF6096CDBFDEBFDF9113
:104C3400CF911F910F91FF90EF90DF90CF90BF9095
:044C4400AF90089590
:104C4800E6E6F4E038E030832FE946E851E0215009
:104C580040405040E1F700C0000024E020836FE9A5
:104C680086E891E0615080409040E1F700C0000084
:104C780092E090834FE956E861E04150504060402F
:104C8800E1F700C0000081E080834FE956E861E069
:104C9800415050406040E1F700C00000E5E6F4E014
:104CA80030833FE946E851E0315040405040E1F759
:104CB80000C0000020836FE926E831E06150204001
:104CC8003040E1F700C0000090834FE956E861E00A
:104CD800415050406040E1F700C0000080838FE9F8
:104CE80096E821E0815090402040E1F700C00000A4
:024CF80008951D
:104CFA00A4E0B0E0E3E8F6E20C94D8408C010E940C
:104D0A00F91769837A838B839C83F801828593855B
:104D1A0097FF0EC0E0914029F0914129309741F068
:104D2A006CE379E2CE0101960995F80182879387AF
:104D3A00F801828593851816190694F4092E000C39
:104D4A00AA0BBB0B49815A816B817C816A017B0169
:104D5A00C81AD90AEA0AFB0AC982DA82EB82FC82F9
:104D6A0089819A81AB81BC8140913C2950913D292E
:104D7A0060913E2970913F29841B950BA60BB70BB6
:104D8A0089839A83AB83BC83B801CE0101960E94C2
:104D9A00BC2D69817A818B819C812496E8E00C94F0
:024DAA002141A5
:104DAC00CF92DF92EF92FF920F931F93CF93DF93EB
:104DBC00CDB7DEB76097CDBFDEBF87FD3AC06115BA
:104DCC00710509F436C0493795E0590790F50E94F2
:104DDC002448EE50F24D9085992359F189834B83E9
:104DEC005C83248135812D873E8787301CF024E439
:104DFC0030E002C020E530E00E94ED49EE50F24D6B
:104E0C00818580FF04C0268137818CE401C085E454
:104E1C007A018B01682F6068690120E130E0AE01F6
:104E2C004F5F5F4F82E00E949B11882319F082EF45
:104E3C0001C08AEF6096CDBFDEBFDF91CF911F918D
:0C4E4C000F91FF90EF90DF90CF90089541
:104E58001F920F920FB60F9211242F933F934F93E7
:104E68005F936F937F938F939F93AF93BF93EF93CA
:104E7800FF93BE9B05C0E0916132F09162320995C3
:104E8800B99B05C0E0915F32F09160320995B89BFB
:104E980005C0E0915D32F0915E320995BB9B05C07B
:104EA800E0915B32F0915C320995BA9B05C0E091C4
:104EB8005932F0915A320995BD9B05C0E09157329D
:104EC800F09158320995BC9B05C0E0915532F0919C
:104ED800563209958FEF87BBFF91EF91BF91AF9144
:104EE8009F918F917F916F915F914F913F912F91FA
:0A4EF8000F900FBE0F901F90189549
:104F0200DF92EF92FF920F931F93CF93DF93CDB770
:104F1200DEB72997CDBFDEBFFE01319697E0DF01F4
:104F22001D929A95E9F798EC99839091953299237D
:104F320019F0DD24D3942CC091E0909395328A83AA
:104F42007B836C832130310519F482E08F8302C0A8
:104F52003E832F8389017A0167E0CF010E944E428E
:104F6200D82E8111E6CF0130110551F462E070E0D4
:104F7200CE0108960E941C3A9885F701908304C0DE
:104F8200B801C7010E941C3A8111D3CF1092953209
:104F92008D2D2996CDBFDEBFDF91CF911F910F914D
:084FA200FF90EF90DF900895ED
:104FAA00FF920F931F93CF93DF93CDB7DEB72C9762
:104FBA00CDBFDEBF6115710509F43CC08B01F82E27
:104FCA0086E2FB0111928A95E9F70E94FB480E944A
:104FDA005E44882321F080E090E0DC0113C08985DB
:104FEA009A85AB85BC850097A105B105A1F3BC01E3
:104FFA00CD0183600E94904A0E9481278111EBCFE4
:10500A000E94FA4BAA27BB270097A105B10511F404
:10501A0084EF11C0F11003C080E090E0DC01BC0114
:10502A00CD01836026E230E0A8010E94812788230F
:10503A0011F0EECF81EF2C96CDBFDEBFDF91CF917D
:08504A001F910F91FF900895E2
:105052008091AF308E7F8093AF308091AB30909152
:10506200AC30019719F40E94AA4B02C00E94A54BD2
:105072008091AB309091AC3001978093AB3090939C
:10508200AC30E091A930F091AA30892B81F0809167
:10509200A80880838091A9309091AA3001968093CC
:1050A200A9309093AA300E94964B84E00895809193
:1050B200A80880838091A9309091AA3001968093AC
:1050C200A9309093AA308091AF3088608093AF303E
:1050D200E0918C30F0918D308091983090919930A0
:1050E20009958250823020F40E94AA4B88E00895EC
:0450F2000C941246C2
:1050F600EF92FF920F931F93CF93DF93CDB7DEB757
:10510600C75CD109CDBFDEBF79018C836D837E83F9
:1051160080E40E94884C0E94704CE9F7E091493285
:10512600F0914A320E94644C808191810E94F94636
:10513600811124C06091493270914A32CE010196A4
:105146000E94572181111AC0E114F10451F09F8188
:10515600933238F090E2FE013896D7010E946C4CEB
:10516600E9F70115110551F09F81933438F090E26B
:10517600FE01B896D8010E946C4CE9F7C953DF4F7F
:10518600CDBFDEBFDF91CF911F910F91FF90EF90C2
:0251960008957A
:105198000F931F930E943B4DE0914D32F0914E3298
:1051A800309721F41F910F910C94244200911B32E7
:1051B80010911C3220911D3230911E3286819781C8
:1051C800A085B185BC01CD01601B710B820B930BCF
:1051D8006115710521E08207910508F180911B3264
:1051E80090911C32A0911D32B0911E320197AF4FA1
:1051F800BF4F8093BB319093BC31A093BD31B09326
:10520800BE31E093B931F093BA3185EB91E38093E5
:105218004D3290934E326FEF7FEF80E090E00E9426
:1052280007380E94394D81E0809385321F910F9194
:025238000895D7
:10523A00DF92EF92FF920F931F93CF93DF93CDB735
:10524A00DEB7C85DD109CDBFDEBF0097A1F1D42E6C
:10525A007B018C010E94F12C81112DC088E8F80194
:10526A00DE0111960E94704CE9F7F801E857FF4FEA
:10527A008CE0DE01A653BF4F0E94704CE9F7F7019C
:10528A0080818823C1F0EF28B1F080E4DE01A757BE
:10529A00BF4F0E94704CE9F7C753DF4FD882C95CF1
:1052AA00D04010929A3228ED0E94D24B68E881E0F1
:1052BA000E94634201C084EFC852DF4FCDBFDEBFF8
:1052CA00DF91CF911F910F91FF90EF90DF9008959A
:1052DA00CF93DF93CDB7DEB7C858D109CDBFDEBFB4
:1052EA009E012F5F3F4F88E8D9011D928A95E9F701
:1052FA0085E1E8E3F7E4D9010E94704CE9F7FE0181
:10530A0076968CE0DF011D928A95E9F791E09AA3DF
:10531A008AE08CA38BE0E9E5F7E4DE0195960E942A
:10532A00704CE9F7FE01F09680E1DF011D928A9543
:10533A00E9F721969FAF219780EC23968FAF2397A9
:10534A0088EA24968FAF249725969FAF25972696AD
:10535A009FAF269741E06DEC70E3C9010E940340BC
:0E536A00C857DF4FCDBFDEBFDF91CF91089552
:105378000F931F93CF93DF93CDB7DEB7C75CD109E7
:10538800CDBFDEBFFA01A0914932B0914A324D91AA
:105398005C91982F93700E948C4C923010F494E199
:1053A80007C0933041F585FF02C090E401C090E248
:1053B800DE0117960E946C4CE9F789010E94644C43
:1053C800CA010E945140811119C0609149327091FF
:1053D8004A32CE0101960E94572181110FC0011552
:1053E800110559F08F81833240F00E94234B0E94AF
:1053F800704CE9F702C082EE01C080E0C953DF4F6C
:0E540800CDBFDEBFDF91CF911F910F910895B0
:10541600CF92DF92EF92FF920F931F93CF93DF937A
:10542600CDB7DEB7C054D109CDBFDEBFFA01309784
:1054360079F10E94E44C61F193819150943040F5EA
:1054460092819F7E9A3021F57A019B010E94804CC1
:1054560040E150E063E00E94EB2381111AC0F7019E
:105466008381815089AB428146954AAB60817181C7
:10547600CE01C3960E94573C80E3C82ED12C90E102
:10548600E92EF12C005D0E9409480E949B1101C083
:1054960081EFC05CDF4FCDBFDEBFDF91CF911F91A3
:0C54A6000F91FF90EF90DF90CF900895E1
:1054B200CF92DF92EF92FF920F931F93CF93DF93DE
:1054C200C0904732D0904832C114D104A1F17B017F
:1054D2008C01D601CD91DC9163E270E0CE010E9495
:1054E200A646FE0101900020E9F7892B51F0AF0199
:1054F2004C1B5D0B42505109BE01C8010E94774509
:1055020008C03197AF014C1B5D0BB801CE010E9460
:10551200ED45892B81F4D6011296ED91FC911397FA
:10552200B701C801DF91CF911F910F91FF90EF90CA
:10553200DF90CF900994DF91CF911F910F91FF904F
:08554200EF90DF90CF90089577
:10554A00CF93DF93FB019081913031F0D0F092300C
:10555A0039F0933049F011C093E12DE33AE41CC0CD
:10556A0094E121E03AE418C09181983271F09836BA
:10557A0081F096E12FEB39E40FC090E020E030E0B3
:10558A000BC09EE026E73AE407C096E12DE739E42E
:10559A0003C096E12BE339E44FEF5FEF4283538375
:1055AA0040E0491779F0D9012D5F3F4FE901239770
:1055BA005881581305C00E94D74B8283938302C037
:1055CA004F5FEFCF82819381019611F482EF01C080
:0855DA0080E0DF91CF910895FC
:1055E2000F931F93CF93DF93CDB7DEB72897CDBF2D
:1055F200DEBF87FD36C06115710509F432C0411561
:10560200510509F42EC00E942448EE50F24D9085B7
:10561200992339F160837183428353839285911177
:105622001EC091E09287918590FF02C06DE401C097
:1056320066E40E94F04B19F40FEF1FEF98010E94ED
:10564200F54B8D830E94ED49EE50F24D8481958198
:105652000E941B4982E00E946342811104C080E0E3
:1056620003C08AEF01C082EF2896CDBFDEBFDF9173
:08567200CF911F910F910895E3
:10567A009F92AF92BF92CF92DF92EF92FF920F93D7
:10568A001F93CF93DF932115310511F482EE2FC0BA
:10569A00F901108261157105C9F30097B9F3411533
:1056AA005105A1F3E0914932F0914A320E94744CBB
:1056BA00E081E33021F4E0E29E2EE0E402C0912C86
:1056CA00E0E00E948B480E946743811110C0E12CE0
:1056DA00F12C00E010E09501A60164E070E0892D4C
:1056EA0082600E943F220E94364A09F480E0DF91DC
:1056FA00CF911F910F91FF90EF90DF90CF90BF90C5
:06570A00AF909F9008958E
:10571000EF92FF921F93CF93DF93CDB7DEB7C75CB5
:10572000D109CDBFDEBF7901E0914932F0914A3213
:10573000208131818C836D837E834115510531F049
:1057400083E00E94884C0E94704CE9F7BE016F5FB5
:105750007F4FC9010E94BA44182F811118C060916F
:10576000493270914A32CE0101960E945721182F7A
:1057700081110DC0E114F10451F04F81453038F032
:1057800050E0435051090E942D4B0E944848812F00
:10579000C953DF4FCDBFDEBFDF91CF911F91FF9087
:0457A000EF900895E9
:1057A4000F931F93CF93DF93EC0180914932909133
:1057B4004A32892B11F00E94924587EC98E280933B
:1057C400B0289093B12884EB98E28093B228909308
:1057D400B32860EB78E2CE010E94C53A811124C05F
:1057E40080EB98E28093493290934A3289818330E6
:1057F400D1F42091B0283091B1282F5F3F4F01E0C0
:1058040010E043E150E060E070E080E00E94871621
:1058140081110AC0E0914932F0914A320E94744CDD
:105824008181887F818380E0DF91CF911F910F91E7
:025834000895D5
:105836009091AF3092FD43C08093A830892F887F26
:105846009EE09093AD3024EF31E02093A630309364
:10585600A730846088608093AF3083E49DE48093B2
:105866008C3090938D3010929830109299308093AE
:105876008E3090938F3010929A3010929B30809396
:1058860090309093913010929C3010929D3080937E
:1058960092309093933010929E3010929F3081E414
:1058A6009DE480939430909395301092A03010929E
:1058B600A1300E94DB480E94724A80E0089581E090
:0258C600089543
:1058C8000F931F93CF930E943D4481113CC009E27E
:1058D80010E020E030E040E05FE660E070E08FE25A
:1058E80098E20E94792DC82F81110AC08FE298E2B0
:1058F80020912F282F3F21F0209157282F3F99F4EE
:105908006DEC76E48FE298E20E94174A8C2F0C2EF9
:10591800000C990B9F93CF938EEC96E49F938F93F3
:1059280083E08F9307C09F938F9384E197E49F93BD
:105938008F931F921F920E94F2300F900F900F903A
:0E5948000F900F900F90CF911F910F91089527
:105956008F929F92AF92BF92CF92DF92EF92FF9279
:10596600CF93DF9300D000D0CDB7DEB76B017C01BB
:1059760049015A010E944C4C0E945E440E94C34B4E
:10598600AC01BD01482159216A217B21452B462BBB
:10599600472BA1F0B501A4014095509560957095EF
:1059A6009A01AB01282339234A235B2329833A83AF
:1059B6004B835C83C701B6010E94BB36809195324A
:1059C6002496CDBFDEBFDF91CF91FF90EF90DF90A1
:0C59D600CF90BF90AF909F908F900895ED
:1059E200FC01892B09F43DC080818823D1F1DF01BC
:1059F2000D900020E9F70E94DC4C919790F581A16F
:105A020081508E3070F5DF01AF5BBF4F8C918111F9
:105A120008C011968C91811104C011968C91882333
:105A220001F187AD8130F9F08330A9F482A1815070
:105A32008430B8F483A18F7E8A3099F484A18823BC
:105A420081F0B496DF010D900020E9F70E94DC4C52
