:100000000C94F8010C94FC4C0C94C2440C94A03158
:100010000C9463390C94FC4C0C94FC4C0C94FC4CEC
:100020000C94FC4C0C94FC4C0C94FC4C0C94FC4C30
:100030000C94FC4C0C94FC4C0C94FC4C0C94FC4C20
:100040000C94FC4C0C94FC4C0C94FC4C0C94FC4C10
:100050000C94FC4C0C94FC4C0C94A4440C948F39E0
:100060000C94FC4C0C94FC4C0C94FC4C0C94FC4CF0
:100070000C94FC4C0C9428270C94FC4C0C94E33A04
:100080000C940C3B0C9405420C94FC4C0C94FC4CD2
:10009000B10FB30FB60FBA0FBE0FC10FC50FC90F07
:1000A000F10FF30FF60FFA0FFE0F011005100910F4
:1000B0003110331036103A103E10411045104910DF
:1000C0007110731076107A107E10811085108910CF
:1000D000327B327C80323F3241803165316F009B10
:1000E00052327C327D80327D327E802E6B2ECF80EC
:1000F000301C3042009A87320F32138028002809C2
:100100008032133217009BFC327E327F80311C31EB
:100110002C009B34316F3179009B5C317931830045
:100120009B663183318D009B70280928198030CD62
:1001300030E2009AF73241324380327F32808031A0
:100140008D3197009B7A319731A1009B8431A13189
:10015000AB009B8E31AB31B5009B982819282F80BE
:100160003243324580282F2858802858285C802820
:100170005C28B080324532478028B028CB8032805E
:1001800032818032813282803217321B80321B32C0
:100190001F8031B531BF009BA232473249803249BE
:1001A000324B80324B324D8032823283000AD92961
:1001B000422AD2802AD22C6280310A311C8031BF7F
:1001C00031C9009BAC31C931D3009BB631D331DD8D
:1001D000009BC031DD31E7009BCA31E731F1009B64
:1001E000D43283328480324D324F803284328580E3
:1001F000328532868032863287803158316580314F
:100200003C314A80312C313C8030B030CD80328757
:10021000328880328832898028CB28CD80324F3294
:1002200051803289328A8032513253803253325572
:1002300080325532578032573259803259325B8082
:10024000325B325D80325D325F80328A328B803247
:100250001F3223009C00325F326180326132638042
:1002600032633265803068308C009AD3308C30B085
:1002700080326532678032673269009C04326932AD
:100280006B009C06328B328C80328C328D80328DAA
:10029000328E802F6F2FAF80328E328F80328F322E
:1002A000908032903291802FAF2FEF80314A3158B9
:1002B000009B4432913292009C08329232938032F9
:1002C00093329480326B326D8032233227803294A5
:1002D0003295803227322B8032953296009C09323B
:1002E0002B322F80326D326F802FEF301C009A5AE4
:1002F0003296329780326F327180329732988032E4
:10030000983299803299329A80329A329B80322F79
:100310003233803271327380329B329C803273323E
:100320007580327532778032773279802DF22E6B7C
:10033000802C622D2A802ECF2F1F803233323780BF
:100340002D2A2DF2802F1F2F6F8031F131FB009B62
:10035000DE31FB3205009BE8329C329D8030E2307A
:10036000F6009B0C329D329E8028CD29328030F6DB
:10037000310A009B20329E329F80329F32A0009C27
:100380000A32A032A1009C0B32A132A2009C0C3296
:10039000A232A3009C0D3205320F009BF232A33231
:1003A000A48032A432A58032A532A68032A632A71C
:1003B0008032A732A88032A832A98032A932AA801E
:1003C00032AA32AB803237323B80323B323F803010
:1003D000423068009AAD3279327B802932293880E8
:1003E0002938293C80293C29408029402942800025
:1003F00011241FBECFEFCDBFDFE3DEBFE0EDF0E0A5
:1004000043E017C0B591A59135912591059107FD60
:100410000CC095918591EF01F92FE82F05900D9271
:10042000A217B307D9F7FE0104C01D92A217B307A4
:10043000E1F7EF3EF40731F70E94024C0C942002E2
:04044000F894FFCF5E
:100444004F4B0D00646562756720706172616D6564
:10045400746572206D7573742062652062657477AB
:1004640065656E203020284C656173742920616EA7
:1004740064203420284D6F737429200D00312E32EE
:100484002E31007625730D0A0400332E30002573B7
:100494000D0A0400556E6B6E6F776E2E0D0A040004
:1004A4004572726F722067657474696E6720546850
:1004B400696E672049442E0D0A04002C00000031A7
:1004C400002564004572726F722E2057692D4669AB
:1004D40020636F6D6D616E6420666F726D61742050
:1004E40069732077696669203C737369643E5B2C89
:1004F4003C706173733E2C5B6175746854797065EC
:100504005D5D0D0A04004F4B0D0A04002D2D2D2DA9
:100514002D2D2D2D2D2D2D2D2D2D2D2D2D2D2D2D07
:100524002D2D2D2D2D2D2D2D2D2D2D2D2D2D2D2DF7
:100534002D2D2D2D2D2D2D2D0D0A556E6B6E6F77B6
:100544006E20636F6D6D616E642E204C6973742030
:100554006F6620617661696C61626C6520636F6DA2
:100564006D616E64733A0D0A72657365740D0A6485
:1005740065766963650D0A7468696E670D0A72654C
:10058400636F6E6E6563740D0A76657273696F6E60
:100594000D0A636C695F76657273696F6E0D0A7715
:1005A400696669203C737369643E5B2C3C706173BB
:1005B400733E2C5B61757468547970655D5D0D0ADA
:1005C40064656275670D0A2D2D2D2D2D2D2D2D2D74
:1005D4002D2D2D2D2D2D2D2D2D2D2D2D2D2D2D2D47
:1005E4002D2D2D2D2D2D2D2D2D2D2D2D2D2D2D2D37
:1005F4002D2D2D0D0A04000D0A436F6D6D616E647F
:1006040020746F6F206C6F6E670D00726573657474
:10061400007265636F6E6E65637400776966690066
:100624007468696E670064657669636500636C6904
:100634005F76657273696F6E0076657273696F6E4B
:10064400006465627567002D2D2D2D2D42454749A7
:100654004E205055424C4943204B45592D2D2D2DAC
:100664002D0D0A25730D0A2D2D2D2D2D454E4420BB
:100674005055424C4943204B45592D2D2D2D2D0DC0
:100684000A0400253032580061316771743873747C
:10069400746969676E332E696F742E75732D656185
:1006A40073742D322E616D617A6F6E6177732E6370
:1006B4006F6D002564002A2E706F6F6C2E6E74703F
:1006C4002E6F726700005468696E67204944206980
:1006D40073206E6F742070726573656E742C206560
:1006E40072726F7220747970652025642C20757382
:1006F400657220646566696E6564207468696E67F6
:100704002049442069732075736564005468696ED8
:100714006720494420726561642066726F6D20749D
:1007240068652064657669636520697320257300B4
:100734004D4348502E494F542E4143434553535043
:100744004F494E540000000000000000000000006B
:100754000031323334353637383930000000000088
:1007640000000000000000000000000004113343FA
:100774000407C440246177732F7468696E67732F0C
:1007840025732F736861646F772F75706461746566
:10079400007B227374617465223A7B227265706FE8
:1007A40072746564223A7B224465766963654944C0
:1007B400223A222573222C22746F67676C65223AD1
:1007C40025647D7D7D00246177732F7468696E676D
:1007D400732F25732F736861646F772F757064614D
:1007E40074652F64656C74610022746F67676C654F
:1007F400223A00746F7069633A202573007061793E
:100804006C6F61643A2025730025732F73656E73D2
:100814006F7273007B224465766963654944223AAA
:10082400222573222C224C69676874223A25642C91
:100834002254656D70223A25642E253032647D0081
:100844004D4348502E494F54006D6963726F63687D
:100854006970002564002573042025732025732006
:10086400001B5B306D0D001B5B33376D4E4F524DDB
:10087400414C1B5B33376D001B5B33326D202047CB
:100884004F4F441B5B33376D001B5B33316D2020AE
:10089400204241441B5B33376D001B5B33316D1BBE
:1008A4005B376D204552524F521B5B32376D1B5BD9
:1008B40033376D001B5B33376D2020204E4F4E4580
:1008C4001B5B33376D001B5B33336D5741524E490D
:1008D4004E471B5B33376D001B5B33346D204E4F2B
:1008E400544943451B5B33376D001B5B33356D2027
:1008F4002020494E464F1B5B33376D001B5B333161
:100904006D202044454255471B5B32376D1B5B33DA
:10091400376D000F465145154640411F46C3152407
:100924004668442A46123F314659443D464A4445A6
:1009340046EF44511B002828002419001C320043B0
:100944001302152300408D0230050056A50017231D
:10095400000837001614004632001B170002050079
:1009640080E001771409474B00419902200A0045B1
:100974003D04122D00511B002828002419001C32AC
:100984000043AC0015230040D70030050056A500F5
:100994001723000837001614004632001B17000204
:1009A400050080A000777102472A0041DC00200A7C
:1009B40000452701122D00511B002828002419008E
:1009C4001C3200434B0015190040730030050056DB
:1009D400A5001723000837001614004632001B1721
:1009E4000002050080500077FA004724004173009C
:1009F400200A00456900122D00280D002414001C53
:100A04003200433A00150B00407300111700300206
:100A140000172000080E00161D00010300463000D8
:100A24001B1700020500470900413C00200A00454D
:100A34004800121A00280D002414001C3200150B63
:100A440000407300111700300200172000080E0048
:100A5400161D000103004630001B17000205004765
:100A64000900413C00200A00454800121A002826CB
:100A7400001C3E00152B0011450030020017180021
:100A8400082300163C000102001B32000205004747
:100A94001600200C00122A00E44CCC4C90476C4306
:100AA4007E439043E74CEA4C00000000C900E82470
:100AB400000000525C651DBF072B4D2B4D181B2BEE
:100AC4004D2B4D6B487C488D489E48B848CA48DC3D
:050AD40048EE48004956
:010AD900FF1D
:100ADA000F931F93CF93DF9300D0CDB7DEB78C016E
:100AEA001092853280918332823020F0833009F46B
:100AFA0090C030C28091883280FF2CC2C8010E9407
:100B0A00A348C80108960E94A34841E050E060EB60
:100B1A0070E3C8010E94322D61EB70E38091CB3003
:100B2A009091CC300E948142482F50E061EB70E3F3
:100B3A00C8010E94322D4AE050E065EB70E3C8011B
:100B4A000E94322D42E050E06FEB70E3C8010E9430
:100B5A00322D6091C1307091C230FB0101900020AA
:100B6A00E9F73197AF01461B570BC8010E94322D96
:100B7A008091C7309091C830892B31F48091C3306D
:100B8A009091C430892B41F142E050E063EC70E36C
:100B9A00C8010E94322D4091C3305091C4300E9446
:100BAA00714C6091C5307091C630C8010E94322DD7
:100BBA0042E050E067EC70E3C8010E94322D409198
:100BCA00C7305091C8300E94714C6091C930709101
:100BDA00CA30C8010E94322DC8010E949B3F882357
:100BEA0009F4C1C1809188328E7F8093883285E072
:100BFA00809385320E943F4B87EE91E30E94B33483
:100C0A0082E080938332809186328E7F809386320F
:100C1A00A1C120918832222309F49CC180E030E0EE
:100C2A00482FB901082E02C0759567950A94E2F714
:100C3A0060FD02C08F5FF4CF81E090E001C0880FB1
:100C4A004A95EAF7883009F4B5C020F4843009F4EB
:100C5A0040C080C1803109F40DC1803209F07AC1E7
:100C6A008091863281FF76C1809186328D7F809312
:100C7A00863219821A82C8010E94A348C8010896BE
:100C8A000E94A34889818170806C8E7F89831A8231
:100C9A0041E00E941F4A0E94322D0E9463490E942D
:100CAA00322DC8010E949B3F882309F453C18091C9
:100CBA0088328F7D809388328091873280618093D9
:100CCA0087320E943F4B83ED91E30E94B33485E063
:100CDA004BC18DED91E30E946D42C8010E94A34869
:100CEA00C80108960E94A34841E050E06CE271E313
:100CFA00C8010E94322D6DE271E380913A319091E0
:100D0A003B310E948142482F50E06DE271E3C801F5
:100D1A000E94322D42E050E061E371E3C8010E9473
:100D2A00322D40913131509132310E94714C609193
:100D3A00333170913431C8010E94322D80912C31A7
:100D4A008670823071F441E050E066E371E3C801D5
:100D5A000E94322D41E050E065E371E3C8010E9430
:100D6A00322D4091373150E06091383170913931EC
:100D7A00C8010E94322D8091883282FD04C0809180
:100D8A002C3183FFF4C0C8010E949B3F882309F4D9
:100D9A00EEC0809188328B7F8093883280912C318B
:100DAA008670823009F0BFC080918732806280935A
:100DBA008732B9C0C8010E94A348C80108960E9498
:100DCA00A34841E050E06CE371E3C8010E94322D70
:100DDA006DE371E380914831909149310E948142DB
:100DEA00482F50E06DE371E3C8010E94322D41E0C3
:100DFA0050E062E471E3C8010E94322D41E050E004
:100E0A0061E471E3C8010E94322D42E050E063E4DC
:100E1A0071E3C8010E94322D40914331509144310F
:100E2A000E94714C6091453170914631C8010E940F
:100E3A00322D41E050E067E471E3C8010E94322D8F
:100E4A00C8010E949B3F882309F470C080918832B0
:100E5A00877F80938832809187328460809387323B
:100E6A0080918632877F809386320E943F4B89EC3D
:100E7A0091E357C0C8010E94A348C80108960E947E
:100E8A00A34841E050E068E571E3C8010E94322DB1
:100E9A0069E571E380916331909164310E948142E6
:100EAA00482F50E069E571E3C8010E94322D41E004
:100EBA0050E06EE571E3C8010E94322D41E050E036
:100ECA006DE571E3C8010E94322D42E050E06FE502
:100EDA0071E3C8010E94322D40915F315091603117
:100EEA000E94714C6091613170916231C8010E9417
:100EFA00322DC8010E949B3F8823C1F0809188321D
:100F0A008F7E80938832809187328860809387327F
:100F1A00809186328F7E809386320E943F4B8FEB80
:100F2A0091E30E94B33485E0809385322091BD30ED
:100F3A003091BE302115310569F032272327322737
:100F4A000E943A4B0E94D144AB01BC018DED91E362
:100F5A000E94B334809183320F900F90DF91CF912A
:100F6A001F910F91089586E080938532F3CF1092F6
:040F7A008332F0CFFF
:100F7E002F923F924F925F926F927F928F929F929B
:100F8E00AF92BF92CF92DF92EF92FF920F931F9389
:100F9E00CF93DF93CDB7DEB7C455D109CDBFDEBF3A
:100FAE005B0169017A01813411F08435B1F40E943C
:100FBE00FB480E944F328111E9C18A8126968FAF7C
:100FCE002697E0917532F0917632309709F4DEC1B2
:100FDE00AE014B5B5F4F61E017C08234C1F40E94DB
:100FEE00FB480E944F328111D1C18A8126968FAF64
:100FFE002697E0917532F0917632309709F4C6C19A
:10100E00AE014B5B5F4F62E089810995BFC18334AE
:10101E0009F073C02CE030E0AE014B5B5F4FC701AF
:10102E00B6010E944F328111B1C12F963FAD2F975D
:10103E0037FD3FC0432F032E000C550B2E962FADC0
:10104E002E976BE02603F0011124EE50F24D8185B0
:10105E00649FF001659FF00D1124EE50F24D8187D3
:10106E0081E0808761968EAD9FAD619708978683EC
:10107E0097838091773290917832BC016F5F7F4F6A
:10108E0029F0609377327093783205C00296809380
:10109E007732909378328BE0849FF001859FF00D2C
:1010AE001124EE50F24D80917732909178328483F4
:1010BE009583398382E090E08A839B8329968EAD57
:1010CE009FAD29978C839D832D968CAD9DADAEAD36
:1010DE00BFAD2D978E839F83A887B987E091753218
:1010EE00F0917632309709F451C1AE014F5F5F4FE8
:1010FE0064E02E968FAD2E9788CF843411F08B340A
:10110E0031F50E94FB480E944F3281113FC1898107
:10111E0026968FAF26979A8127969FAF2797911184
:10112E000AC00E94BC4BEE50F24D2B813C812850E0
:10113E00310926833783E0917532F09176323097FC
:10114E0009F424C1AE014B5B5F4F65E05ECF8A347C
:10115E00C1F424E40E94B0490E944F32811116C19D
:10116E00E0917332F0917432309709F40FC12596E5
:10117E004CAD5DAD6EAD7FAD2597CE010196099557
:10118E0005C1863429F0883431F08D3409F0A7C0BA
:10119E0096E0992E02C089E0982E20E130E0AE0153
:1011AE004B5B5F4FC701B6010E944F328111EEC0FB
:1011BE0062968FAC629765964EAD5FAD6597882D42
:1011CE000E94BC4BEE50F24D12862F968EAD9FAD07
:1011DE002F9761966EAD7FAD619729962EAD3FAD7F
:1011EE00299729873A872D960CAD1DAD2EAD3FADB3
:1011FE002D970B871C872D873E870E94904A09F0FA
:10120E00C5C0181619060CF059C08C018A159B051D
:10121E0008F054C00E94294C09F4B8C08281938111
:10122E00892B09F4B3C08085813009F0AFC0260147
:10123E003701460E571E611C711C0D831E835F0104
:10124E001F01E2E02E0E311C6501F8E0CF0ED11C1D
:10125E00F101E080F1800E151F0508F47801F5010B
:10126E00408151819701C301B2010E944F32811119
:10127E008DC00E94B54C89839A83EB82FC828D814E
:10128E009E818E199F098D839E83E0917532F09118
:10129E007632309731F0AE014F5F5F4F692D882D5A
:1012AE0009954E0C5F1C611C711CF6018081882310
:1012BE0009F46CC00E191F0959F668C08B839C8304
:1012CE0019821A82E0917532F0917632309709F4D4
:1012DE005DC0AE014F5F5F4F692D882D96CE853470
:1012EE0021F0873421F08C3429F517E001C018E085
:1012FE0028E00E94B0490E944F32811147C0898177
:10130E004D815E812B813C8127962EAF3FAF279773
:10131E000E94BC4BEE50F24D0E94904AB9F5E091FE
:10132E007532F0917632309789F1AE014B5B5F4F9B
:10133E00612F6BCE823551F524E10E94B0490E9497
:10134E004F32811123C04D815E816F8178858091EE
:10135E002F3290913032A0913132B09132320E94C0
:10136E00EA4A81F4E0917132F0917232309751F085
:10137E0029853A854B855C8569817A818B819C8133
:10138E00098909951092713210927232CC5ADF4F40
:10139E00CDBFDEBFDF91CF911F910F91FF90EF90E8
:1013AE00DF90CF90BF90AF909F908F907F906F9077
:0A13BE005F904F903F902F9008952C
:1013C800ABE0B0E0EAEEF9E00C949A406C017B01E6
:1013D8008A01FC0116821782838181FFCCC1CE016C
:1013E80001963C01F6019381F70193FD859193FFE6
:1013F80081917F01882309F4BAC1853239F493FDBC
:10140800859193FF81917F01853229F4B60190E09F
:101418000E94C232E7CF912C212C312CFFE1F31529
:10142800D8F08B3279F038F4803279F08332A1F435
:10143800232D20611DC08D3261F0803369F4232D86
:10144800216016C0832D8260382EE32DE4603E2E85
:101458002AC0F32DF8601DC037FC2DC020ED280FE1
:101468002A3040F08E32B9F436FC81C1232D206435
:10147800322E19C036FE06C08AE0989E200D11242F
:10148800922E11C0EAE02E9E200D1124222EF32D5B
:10149800F0623F2E08C08C3621F4832D8068382EE8
:1014A80002C0883641F4F70193FD859193FF81913D
:1014B8007F018111B3CF982F9F7D9554933028F4E5
:1014C8000C5F1F4F9FE399830DC0833631F083373C
:1014D80071F0833509F059C021C0F80180818983F2
:1014E8000E5F1F4F88248394912C530113C0280149
:1014F800F2E04F0E511CF801A080B18036FE03C007
:10150800692D70E002C06FEF7FEFC5010E9494461D
:101518004C018201F32DFF773F2E16C0280122E0EF
:10152800420E511CF801A080B18036FE03C0692D1F
:1015380070E002C06FEF7FEFC5010E9489464C0141
:10154800F32DF0683F2E820133FC1BC0822D90E002
:1015580088169906B0F4B60180E290E00E94C23283
:101568002A94F4CFF50137FC859137FE81915F010C
:10157800B60190E00E94C23221102A9421E0821A1A
:1015880091088114910471F7E8C0843611F0893606
:1015980041F5F80137FE07C060817181828193812E
:1015A8000C5F1F4F08C060817181072E000C880BEB
:1015B800990B0E5F1F4FF32DFF763F2E97FF09C043
:1015C80090958095709561957F4F8F4F9F4FF068EC
:1015D8003F2E2AE030E0A3010E946825882E861855
:1015E80045C0853731F4232D2F7EB22E2AE030E016
:1015F80025C0932D997FB92E8F36C1F018F4883500
:1016080079F0B5C0803719F0883721F0B0C0E92FDC
:10161800E061BE2EB4FE0DC0FB2DF460BF2E09C0E4
:1016280034FE0AC0292F2660B22E06C028E030E01A
:1016380005C020E130E002C020E132E0F801B7FE49
:1016480007C060817181828193810C5F1F4F06C042
:101658006081718180E090E00E5F1F4FA3010E94BE
:101668006825882E8618FB2DFF773F2E36FE0DC085
:10167800232D2E7FA22E891458F434FE0BC032FC81
:1016880009C0832D8E7EA82E05C0B82CA32C03C0BC
:10169800B82C01C0B92CA4FE0FC0FE01E80DF11D45
:1016A8008081803321F49A2D997EA92E09C0A2FE4B
:1016B80006C0B394B39404C08A2D867809F0B39415
:1016C800A3FC11C0A0FE06C0B21488F4280C922C0A
:1016D8009B180EC0B21460F4B60180E290E00E943C
:1016E800C232B394F7CFB21418F42B1802C0982C56
:1016F800212CA4FE10C0B60180E390E00E94C23203
:10170800A2FE17C0A1FC03C088E790E002C088E5EC
:1017180090E0B6010CC08A2D867859F0A1FE02C06F
:101728008BE201C080E2A7FC8DE2B60190E00E9446
:10173800C232891438F4B60180E390E00E94C232C4
:101748009A94F7CF8A94F301E80DF11D8081B601D0
:1017580090E00E94C2328110F5CF222009F442CED7
:10176800B60180E290E00E94C2322A94F6CFF601D8
:101778008681978102C08FEF9FEF2B96E2E10C9450
:02178800E3403C
:10178A00AF92BF92CF92DF92EF92FF920F931F9385
:10179A00CF93DF93CDB7DEB72997CDBFDEBF7C01EC
:1017AA001092853219868091863282FD08C0809116
:1017BA00863283FD04C08091863284FF05C0109270
:1017CA008332C7010E94EF46F701868597851091FB
:1017DA008332892B11F4812F7FC1123051F01330DB
:1017EA0009F484C0113009F475C187E0809383320B
:1017FA0071C18091863280FD70C0C090BD30D0909A
:10180A00BE3087EE91E30E946D425701F8E0AF0EB9
:10181A00B11C41E050E0BE01675F7F4FC5010E94E5
:10182A00853B9C019985892F807F803209F047C0CA
:10183A00BE016F5F7F4F84E0FB0111928A95E9F741
:10184A0041E050E0C5010E94673A41E050E0BE0124
:10185A006E5F7F4FC5010E94673A41E050E0BE01CA
:10186A006D5F7F4FC5010E94673A41E050E0BE01BB
:10187A006C5F7F4FC5010E94673A8C81882311F003
:10188A0080E001C083E0809383328330B1F43C2D41
:10189A002D2D2115310579F080918832806280934F
:1018AA0088320E943A4B0E94D144AB01BC018DEDB3
:1018BA0091E30E94B33484E016C083E014C010930D
:1018CA0085329093843220934D3230934E32109267
:1018DA008332C7010E94EF46FDC010928332C701CE
:1018EA000E94EF4681E080938532F4C08701085F49
:1018FA001F4F41E050E0BE01675F7F4FC8010E9461
:10190A00853B898582958F70893081F138F48330DF
:10191A0009F4B5C0843009F4B6C0DCC08B3009F4D0
:10192A006EC08D3009F0D6C08091873284FFD2C054
:10193A008091863282FDCEC083ED91E30E946D4292
:10194A0019821A8241E00E941F4A0E94673A8091D6
:10195A00BD309091BE30892B29F080918832806207
:10196A0080938832C8010E94A348B4C0809187320C
:10197A0082FFB0C08091863283FDACC089EC91E3CE
:10198A000E946D420E94254C88E0FB0111928A95C3
:10199A00E9F741E050E0C8010E94673A0E946349B2
:1019AA000E94673A41E050E0BE016A5F7F4FC8017A
:1019BA000E94673A41E050E0BE01695F7F4FC8016B
:1019CA000E94673A9F8180914131981711F0F12C5A
:1019DA0012C09E81809142319813F9CF41E050E0C4
:1019EA00BE01685F7F4FC8010E94673A88858038C8
:1019FA0071F393E0F92E809187328B7F38C0809102
:101A0A00873283FF67C08091863284FD63C08FEB83
:101A1A0091E30E946D420E94254C84E0FB011192E1
:101A2A008A95E9F741E050E0C8010E94673A0E94AE
:101A3A0063490E94673A8A81823091F40E945C4924
:101A4A000E94673A0E946A490E94673A9C81809183
:101A5A005D31981305C09B8180915E31981711F012
:101A6A00F12C02C083E0F82E80918732877F809321
:101A7A008732C8010E94A348F09283322BC0C70163
:101A8A000E942B1427C0BE016F5F7F4FFB0111928A
:101A9A008A95E9F741E050E0C8010E94673A0E943E
:101AAA0063490E94673A0E946A490E94673A0E9403
:101ABA005C490E94673A9B818091353198130AC02C
:101ACA009C8180913631981305C0809187328F7D31
:101ADA0080938732809183322996CDBFDEBFDF9112
:101AEA00CF911F910F91FF90EF90DF90CF90BF9011
:041AFA00AF9008950C
:101AFE00CF92DF92EF92FF92CF93DF9380910928DE
:101B0E00982F957051F4E0911C31F0911D316FE6D4
:101B1E0071E389E791E309951AC083FD18C0E0913E
:101B2E002831F09129310995811111C08091092830
:101B3E0081FD0DC040E157E260E070E089E791E37E
:101B4E000E94B3348091092888608093092880917F
:101B5E000E2881FD0BC0E0912831F09129310995B5
:101B6E00882309F4D1C00E94D54CCEC00E94D24C1D
:101B7E000E94A9460E947E47C82F0E94E13D6B013C
:101B8E007C010E940548672B682B692BF9F0E091C8
:101B9E002831F091293109958823C1F080910E28C2
:101BAE00806880930E288091133290911432A09108
:101BBE001532B09116320E94D14A41F0C0921332C2
:101BCE00D0921432E0921532F0921632C23009F4ED
:101BDE009BC030F0C330E1F0C43009F091C094C026
:101BEE000E945D3B60910A2870910B2880910C2811
:101BFE0090910D28E0911E31F0911F3109958F3F84
:101C0E0009F47EC080910E28806180930E287CC0DE
:101C1E00E0912A31F0912B310995882331F0E09132
:101C2E002031F091213109956FC00E94D24CEC0108
:101C3E000E94C50B873069F00E94DB4C823039F070
:101C4E00843039F40E9405480E940E4802C00E945A
:101C5E00DE4CCE010E946D050E94DB4C0E94D24CE0
:101C6E00FC01C484D5840E94D24CDC011896ED9000
:101C7E00FC9019970E94D24CDC015096ED91FC918C
:101C8E005197808120E030E0A601B7010E94754C8B
:101C9E000E94E834E0912831F0912931099588238A
:101CAE0099F180910E288F7E8B7F80930E2889E785
:101CBE0091E30E946D428FE691E30E946D42809106
:101CCE0009288B7F877F8093092884FF05C0E091C8
:101CDE002231F091233109950E94E13D61317E4020
:101CEE00810591058CF0E0912631F091273109950F
:101CFE00E889F98980810E94754C0E94B93E04C022
:101D0E0080910E28846081CF64EF71E080E090E0D6
:0E1D1E00DF91CF91FF90EF90DF90CF9008956E
:101D2C00AF92BF92CF92DF92EF92FF920F931F93DD
:101D3C00CF93DF93CDB7DEB72697CDBFDEBF8C0137
:101D4C006B0160912B3270912C3280912D329091DD
:101D5C002E320E94C74A11F484EFE1C059017A0176
:101D6C0022E030E0A8010E944F328111F5CF809122
:101D7C002B3290912C32A0912D32B0912E320E94A8
:101D8C009B4960932B3270932C3280932D3290931D
:101D9C002E3222E030E0AE014F5F5F4F0E944F3297
:101DAC008111DACF80912B3290912C32A0912D326F
:101DBC00B0912E320E949B4960932B3270932C323F
:101DCC0080932D3290932E3222E030E0AE014B5FA7
:101DDC005F4F0E944F328111BFCF80912B32909177
:101DEC002C32A0912D32B0912E320E949B496093DF
:101DFC002B3270932C3280932D3290932E3222E022
:101E0C0030E0AE014D5F5F4F0E944F328111A4CF85
:101E1C0080912B3290912C32A0912D32B0912E3298
:101E2C000E949B4960932B3270932C3280932D32FD
:101E3C0090932E32F80120813181322723273227CB
:101E4C002083318329813A81322723273227850148
:101E5C00005C1F4FF801208331834D815E810E940D
:101E6C00714C4D835E834B815C810E94714C4B8322
:101E7C005C83220F331FA5010E944F3281116CCF5E
:101E8C00F80120813181220F331F80912B329091E8
:101E9C002C32A0912D32B0912E320E94A249609327
:101EAC002B3270932C3280932D3290932E322D81C5
:101EBC003E81A6010E944F3281114ECF2D813E8171
:101ECC0080912B3290912C32A0912D32B0912E32E8
:101EDC000E94A24960932B3270932C3280932D3246
:101EEC0090932E322B813C81A7010E944F3281119D
:101EFC0033CF2B813C8140912B3250912C3260910D
:101F0C002D3270912E32420F531F611D711D409363
:101F1C002B3250932C3260932D3270932E322696A6
:101F2C00CDBFDEBFDF91CF911F910F91FF90EF904E
:0A1F3C00DF90CF90BF90AF900895A2
:101F4600E091A6328E2F90E08830910520F5FC01B5
:101F5600E85BFF4F8091AA320C94854A817019C0C4
:101F66008695817016C082FB882780F912C083FB94
:101F7600882780F90EC0829581700BC085FB882763
:101F860080F907C086FB882780F903C087FB88276E
:101F960080F98093A2328091A232811104C081E03F
:101FA6008093660403C081E0809365048091A63225
:101FB600873018F01092A63203C08F5F8093A63246
:101FC600E091A3328E2F90E08830910520F5FC0138
:101FD600E05BFF4F8091A7320C94854A817019C04F
:101FE6008695817016C082FB882780F912C083FB14
:101FF600882780F90EC0829581700BC085FB8827E3
:1020060080F907C086FB882780F903C087FB8827ED
:1020160080F98093A1328091A132811104C088E0B9
:102026008093660403C088E0809365048091A332A0
:10203600873018F01092A33203C08F5F8093A332CB
:10204600E091A4328E2F90E08830910520F5FC01B6
:10205600E85AFF4F8091A8320C94854A817019C0C6
:102066008695817016C082FB882780F912C083FB93
:10207600882780F90EC0829581700BC085FB882762
:1020860080F907C086FB882780F903C087FB88276D
:1020960080F98093A0328091A032811104C084E03F
:1020A6008093660403C084E0809365048091A43223
:1020B600873018F01092A43203C08F5F8093A43249
:1020C600E091A5328E2F90E08830910520F5FC0135
:1020D600E05AFF4F8091A9320C94854A817019C04D
:1020E6008695817016C082FB882780F912C083FB13
:1020F600882780F90EC0829581700BC085FB8827E2
:1021060080F907C086FB882780F903C087FB8827EC
:1021160080F980939F3280919F32811104C082E0C2
:102126008093660403C082E0809365048091A532A3
:10213600873018F01092A53203C08F5F8093A532C6
:0A2146006AEF70E080E090E0089579
:102150000F931F93CF930E94E93F0E9420260E9475
:102160000D4382EE90E30E94954A82EE90E30E9436
:10217000E44B0E943545811105C080910E28846092
:1021800080930E2882EE90E30E94BD2E8093312929
:10219000882329F080910E28846080930E2882EE97
:1021A00090E30E94954A82EE90E30E94D3490E94F8
:1021B000602C48EE53E060E070E081EF91E30E9414
:1021C000B33400E217E426E130E080E090E0DC0187
:1021D00040E050E0BA01E6B3E0744E0F511D611DBE
:1021E000711DE6B3E0728E0F911DA11DB11D01504E
:1021F00011092109310979F7403953426B407105C2
:1022000008F04DC080399342AB40B10598F564E4C5
:1022100078E48CE598E20E94E8496DE478E48BE785
:1022200098E20E94E8491F9282E08F9387E598E444
:102230009F938F938EEA98E29F938F930E947E3DA7
:1022400085E50E94F34B85E50E94EE4B8FEF0E94DF
:10225000F84B8FEF0E94E94B80910E2888608F7DAC
:10226000806480930E280F900F900F900F900F9026
:102270000F9028C083E30E94EE4B8FEF0E94F34B38
:102280008FEF0E94F84B8FEF0E94E94B80910E2850
:10229000877F80628F7B80930E28C0E014C085E525
:1022A0000E94EE4B8FEF0E94F34B8FEF0E94F84B92
:1022B0008FEF0E94E94B80910E2888608F7D8F7B85
:1022C00080930E28C1E06C2F8AED9BE40E949B3E18
:1022D000C13061F482EE90E30E944B4844E650E046
:1022E00060E070E08BEF91E30E94B3340E942026FF
:1022F0000E9423498FE298E29F938F938AEC97E4A0
:102300009F938F938DEC98E29F938F930E947E3DD5
:102310000F900F900F900F900F900F9060E873E266
:0E2320008DEC98E2CF911F910F910C945942D1
:10232E002F923F924F925F926F927F928F929F92D7
:10233E00AF92BF92CF92DF92EF92FF920F931F93C5
:10234E00CF93DF93CDB7DEB72C97CDBFDEBF962FE1
:10235E009F779A8789870115110529F0F70138961D
:10236E00EC0DFD1D02C0F9013896EB87FC87EB855D
:10237E00FC85ED33F64008F047C0360159016A017D
:10238E00962E882E0E94954281113EC02B853C854B
:10239E00C901A0E0B0E0DC019927882788299C01BB
:1023AE00AD0139292D833E834F8358870E949E4B62
:1023BE000E941C3622E00E94C14C68E70E94AD4C80
:1023CE000E941C360E94B24B48EE842E43E0942E9F
:1023DE0009C085EF881681E0980620F40E94944B80
:1023EE000E94CB4091E0891A9108E0F0AE014B5F5C
:1023FE005F4F68E70E94AD4C0E942A440E94F34C46
:10240E00882321F00E9412418FEF54C08D8181FDEF
:10241E00E0CFAE014F5F5F4F60E074E085E190E08A
:10242E000E942A440E94F34C811109C029803A80EF
:10243E004B805C80211431044104510421F40E942C
:10244E0012418DEF37C028E030E0AE01475F5F4F9D
:10245E00C201B1010E94C72198E0290E311C411C16
:10246E00511CC114D10431F09501A601C201B10174
:10247E000E94C7210115110551F0C201B101660D6F
:10248E00771D811D911D9701A8010E94C7210E94F1
:10249E00994B22E00E947F4AE9F79C01AD01226030
:1024AE006CE60E94AD4C0E941C360E9412410E94A6
:1024BE00F34C81952C96CDBFDEBFDF91CF911F914E
:1024CE000F91FF90EF90DF90CF90BF90AF909F90C5
:1024DE008F907F906F905F904F903F902F900895C8
:1024EE004F925F926F927F92BF92CF92DF92EF9256
:1024FE00FF920F931F93CF93DF9300D000D0CDB7F1
:10250E00DEB7B82EF62E29013A0120E030E0A901FF
:10251E006CE070E0CB010E941C3620E030E0A90197
:10252E000E949E4B0E941C3620E030E0A9010E94C2
:10253E00A34B0E941C360E94BD470E947C2F88230D
:10254E0011F080E09CC00E94C6470E947C2F811132
:10255E00F8CF64E10E94AD4C0E94183D97FFF9CF71
:10256E006CEB77E082E090E00E94183D60FF0BC0BC
:10257E00BB20F9F02DE735ED4CE15CE30E94A34B57
:10258E000E941C361FC000ED17E00150110980F3A8
:10259E000E94944B0E94CB406CE070E0CB010E94F5
:1025AE00183D6E39704D8D4A904179F7012B01F728
:1025BE00C8CFFF2039F090E8C92EDD24D394E12C4A
:1025CE00F12C04C0C12CD12C7601D394A30192011D
:1025DE000E949E4B0E941C360E946F1E0E94354721
:1025EE0010F06894C1F8A701960160EA74E180E0EA
:1025FE0090E00E941C360E941D4C60EA74E180E05F
:10260E0090E00E942A44811107C089819A81AB8192
:10261E00BC810E94D14A39F721E63FE242E55FEEE6
:10262E006CE070E0CB010E941C3601ED17E001500A
:10263E00110909F486CF62E00E94BD4C0E94CB4086
:10264E00B11013C00E949E4B0E94183D6633764215
:10265E008345924061F720E030E0A9010E949E4B35
:10266E000E941C360E944F400AC00E94A34B0E943B
:10267E00183D633C714C8D45974DC9F681E024960B
:10268E00CDBFDEBFDF91CF911F910F91FF90EF90E5
:10269E00DF90CF90BF907F906F905F904F90089596
:1026AE00CF93DF938B3109F490C0EB018C3120F482
:1026BE00893009F494C0C5C08C3221F0823309F4FC
:1026CE006BC0BFC08881813099F580917F3288239D
:1026DE0099F08BEA91E30E946D4210927F3285E56C
:1026EE000E94EE4B44EF51E060E070E081EA91E32E
:1026FE000E94B3340E940E4680910E288A70883054
:10270E0051F485E50E94F34B80910E288260877B01
:10271E00806180930E2880910E2885FF06C08F7DE4
:10272E0080930E288FE00E94EE4B0E94204325C01E
:10273E00811123C08FEF0E94F84B8FEF0E94E94B5F
:10274E0080910E2886FD06C08FEF0E94F34B85E523
:10275E000E94EE4B80910E288D7E886080930E280D
:10276E0042E350E060E070E08DE891E30E94B33404
:10277E0080910E28816080930E28E0914132F09175
:10278E004232309709F45DC080910E2880FD59C009
:10279E008881DF91CF9109948CE896E40E94814064
:1027AE0081114FC080910E2880FF09C08DE891E302
:1027BE000E946D4280910E288E7F80930E2880910C
:1027CE000E288B7F80930E283CC0FB018081918167
:1027DE00892BB9F1CB01DF91CF910C947137FB01AD
:1027EE00ED59FF4F808181112CC0319780811F924E
:1027FE008F9387EB96E49F938F938EEA98E29F9345
:10280E008F930E947E3DBE018CE598E20E94E849BE
:10281E00BE016F5D7F4F8BE798E20E94E84981E031
:10282E0080937F320F900F900F900F900F900F901C
:10283E0040E050E0BA018BEA91E3DF91CF910C9426
:08284E00B334DF91CF9108952E
:102856002F923F924F925F926F927F928F929F92AA
:10286600AF92BF92CF92DF92EF92FF920F931F9398
:10287600CF93DF93CDB7DEB7CE53D140CDBFDEBF0A
:102886008E01035D1E4F20E1D8011D922A95E9F7BE
:10289600FE01E753FF4FC35C0E94554CCD53D14018
:1028A60024E611922A95E9F70E94494C390128EC51
:1028B600D3011D922A95E9F708967C0141E050E084
:1028C600B8010E94673A6801BFEFCB1ADB0A41E004
:1028D60050E0B601C7010E94673A4801E5E08E0E56
:1028E600911CD6018D916D0187FF0AC0A815B90507
:1028F60039F041E050E0B601C7010E94673AF1CFD6
:10290600F801212C312C2101812C912C5401839426
:10291600D180AD2DAF77B0E0A50194010E9473463A
:10292600260E371E481E591E87E0880C991CAA1CC5
:10293600BB1C8A95D1F7D7FE02C03196E9CF42E09B
:1029460050E0B8016B5F7F4FC7010E94673A29ECE0
:1029560030E02C0F3D1FF8012783308745815681D3
:102966000E94714CB901C7010E94673AD8010E94C2
:10297600E04A0E94794C4EEF5FEF6FEF7FEF481B06
:10298600590B61097109420D531D641D751D1C9675
:102996006D927C921D97B301C7010E94673A0E940F
:1029A600494BFC01892B51F0D8011C966D917C9105
:1029B6001D9717968D919C9118970995C7010E94AE
:1029C600A34883E0C25CDE4FCDBFDEBFDF91CF916F
:1029D6001F910F91FF90EF90DF90CF90BF90AF9037
:1029E6009F908F907F906F905F904F903F902F9029
:0229F600089542
:1029F800A8E0B0E0E2E0F5E10C94A4408B01FC0112
:102A0800608171818281938120E831E541E050E065
:102A18000E945C3D69017A012CE330E040E050E01F
:102A28000E94294129833A834B835C8389819A8157
:102A3800AB81BC81F80160836CE370E00E94E542E1
:102A4800DC01CB01F801A1838283C601069667E009
:102A580070E00E94D14284832DEA3EE840E050E0D5
:102A6800C701B6010E94294129833A836D837E8379
:102A78008F83988789819A8124E6289F6001299FFE
:102A8800D00C11246D817E818F81988525EB35E0EE
:102A980040E050E00E94294129833A836D837E8378
:102AA800E980FA80EE0CFF1CEE0CFF1CEC0CFD1C00
:102AB8008D819E81F5E6EF16F10410F0019604C0B1
:102AC80024E6E216F10419F021E030E002C020E02B
:102AD80030E0A90144595E4F4817590768F46DE67C
:102AE80071E0821B930B0E94E542DC01CB01E80EEA
:102AF800F91ECD0120E030E044E6E40EF11CF801B7
:102B0800E682F78280879187255C3F4F821793077B
:102B180048F46FE170E00E94E542DC01CB01F80166
:102B2800858322C069E970E0821B930B0E94E5420D
:102B3800DC01CB01F82EFF0CFF0CF80E6DE370E002
:102B4800CD010E94E542DC01CB01E82EEE0C6FE1DD
:102B580070E0CD010E94E542DC01CB0122E0280FA4
:102B6800F20EFE0CF801F582A383F8011286138693
:0E2B780083818F5F83832896E8E00C94ED4004
:102B8600EF92FF921F93CF93DF93CDB7DEB72697D1
:102B9600CDBFDEBF1B821C821D821E826FEB74E4DA
:102BA6000E94074C89839A839E012F5F3F4F7901CC
:102BB60010E0009771F0133061F0F7018193919363
:102BC6007F011F5F6FEB74E480E090E00E94074C8A
:102BD600F0CFE980FA80E114F104D9F02B813C8131
:102BE6008D819E812115310519F4009779F417C05E
:102BF600009761F4C9010E94C54C9EEF980F923070
:102C060008F443C0813059F012E01DC00E94C54C43
:102C1600182F113021F0C8F11430A8F036C04EE15B
:102C260050E0B7018CE598E20E94E04461EC74E460
:102C36008BE798E20E94E84963EC74E48EEA98E236
:102C46000E94E8492BC04EE150E0B7018CE598E2BE
:102C56000E94E0446B817C814EE150E08BE798E274
:102C66000E94E0441F921F9385EC94E49F938F93F8
:102C76008EEA98E29F938F930E947E3D0F900F906D
:102C86000F900F900F900F9009C088EC94E49F93DB
:102C96008F930E94DA410F900F9029C08AE095E445
:102CA6009F938F930E94DA410E94A94A0F900F903A
:102CB600882321F00E94D24C0E94EF4680910E2874
:102CC60087FF07C08F7780930E280E94D24C0E9400
:102CD600FA320E940B458FEF0E94F84B8FEF0E944D
:102CE600E94B8FEF0E94F34B85E50E94EE4B26964B
:102CF600CDBFDEBFDF91CF911F91FF90EF9008957A
:102D06002F923F924F925F926F927F928F929F92F5
:102D1600AF92BF92CF92DF92EF92FF920F931F93E3
:102D2600CF93DF93CDB7DEB7A597CDBFDEBF19A290
:102D36001AA2833010F082EE8CC0823019F4603112
:102D46007105C8F70115110511F480E082C021153F
:102D5600310589F328012CA33DA35A011B01F82E46
:102D6600AE014F5D5F4F0E94DB31811172C029A118
:102D76003AA1C8018A0D9B1D28173907E0F23501D3
:102D860065E0769467946A95E1F720E22BA3C12C5F
:102D9600D12C812C912C84149504B8F68BA1803209
:102DA600C1F489A19AA1930155E0220F331F5A95C8
:102DB600E1F7821B930B809760F46401CA0CDB1C5D
:102DC600D694C794D694C79497E0C922DD2424E00C
:102DD6002BA3EBA00E94514C2C2D462DB1018F2D1B
:102DE6000E944A24811135C0C30123E0880F991F30
:102DF6002A95E1F78C0D9D1D0E94C24A8A159B05F6
:102E060020F4B501681B790B02C060E070E02BA1CD
:102E1600822F90E0861B970B8201081919098017EB
:102E2600910708F48C010E943949A8018CA19DA143
:102E3600880D991D0E942048800E911E9BA19032FC
:102E460021F42FEF621A720AA6CF8FEFC81AD80A9A
:102E5600A2CFA596CDBFDEBFDF91CF911F910F9177
:102E6600FF90EF90DF90CF90BF90AF909F908F90A4
:0E2E76007F906F905F904F903F902F90089547
:102E8400CF92DF92EF92FF92CF93DF930E94054897
:102E94006B017C010E94A94A882309F47DC020911A
:102EA4003332309134324091353250913632C70149
:102EB400B6010E94224D16161706180619060CF0C4
:102EC4006BC0C0923332D0923432E0923532F092F9
:102ED4003632EFECFEE280E5DF011D928A95E9F7D8
:102EE4008FE298E29F938F938DE098E49F938F9362
:102EF400FF93EF930E947E3D80910E280F900F90D8
:102F04000F900F900F900F9081FF46C00E94D73E04
:102F1400EC010E94F94C482FE92FCE01D7FF04C0E1
:102F2400882799278C1B9D0B24E630E0B9010E9469
:102F3400E5429F938F93CE01B9010E94E5427F93AE
:102F44006F93EF934F9382EE90E39F938F9388E177
:102F540098E49F938F9382E69CE29F938F930E94C1
:102F64007E3D2DB73EB7245F3F4F2DBF3EBF1816A1
:102F7400190694F4AC0162E67CE28FEC9EE20E94B6
:102F8400A44A80919C32882321F0815080939C3202
:102F940003C083E30E94F84B80910E2883FD10C088
:102FA40081FF03C080E00E94EE4B80910E2884FDD7
:102FB40007C00E94A94A882319F080E00E94F34BBD
:102FC40080910E2882FF02C080E001C08FEF0E9432
:102FD400E94B64E60E94BD4CDF91CF91FF90EF90E6
:062FE400DF90CF9008957C
:102FEA00A0E0B0E0EBEFF7E10C94A040EC01EE8139
:102FFA00FF818F0104561109B9F0CF018556910955
:10300A006C0197FF03C023E0C20ED11CD594C7946C
:10301A00D594C7946CE97FEF0E94E542C60ED71E8D
:10302A008FEFC81AD80A02C0C12CD12C2DE631E084
:10303A00D8010E94DA490D2C000CEE08FF08C60ED2
:10304A00D71EE81EF91E8B81082E000C990B8C01E5
:10305A00015011092D8122302CF4222379F1015ECD
:10306A001F4F2CC0CF018459984F0E94F942282F34
:10307A0030E0255C3F4F200F311F8D81082E000C58
:10308A00990B02978530910514F027563F4F65E05A
:10309A0070E00E94E542AC0197FF02C04F5F5F4FAC
:1030AA00559547959DE3949F8001959F100D112496
:1030BA00020F131F80FF02C0015E1F4FC801110FCC
:1030CA00AA0BBB0B9C01AD012C0D3D1D4E1D5F1DB6
:1030DA0060E871E581E090E00E943A444B015C01AE
:1030EA00AA810A2E000CBB0B20E13EE00E94DA49BD
:1030FA006B017C01A9810A2E000CBB0B2CE330E08A
:10310A000E94DA49C60ED71EE81EF91E6881862F6C
:10311A00660F990BAA0BBB0B8C0D9D1DAE1DBF1D17
:10312A00BC01CD01680D791D8A1D9B1DCDB7DEB787
:06313A00ECE00C94E940FA
:10314000AF92BF92CF92DF92EF92FF920F931F93B5
:10315000CF93DF93CDB7DEB7EC97CDBFDEBFFA01DB
:10316000309711F481EF84C00E946D4C11F41682E7
:10317000178222813381232BA9F324813581232BCC
:1031800089F3E680F780408551858A0120E030E0B0
:103190000E0D1F1D211D311D05381105210531059D
:1031A00008F7A285B385A13091E0B907D8F66F0181
:1031B0009B01E40EF51EECE0EE0EF11CEA0EFB1E88
:1031C0000E944D4CA70164E00E94E723811150C08A
:1031D000A70160E070E0CE01C1960E94E14981E064
:1031E00089ABF6018485882311F081E889ABF6016B
:1031F0008585882319F089A9806489AB1AAAF6010C
:1032000060817181CE01CD965C016115710551F02F
:10321000068117810AAB1127A8010E9420480A0DD8
:103220001B1D01C08C01F601408551854BAB5CAB89
:1032300062817381C8010E9420488BA99CA9800FDC
:10324000911F9C012A193B092DAB3EABF60142852B
:1032500053854FAB58AF648175810E94204880E34D
:10326000C82ED12C8E010F5C0E94E1470E9497115D
:10327000EC96CDBFDEBFDF91CF911F910F91FF90F4
:0C328000EF90DF90CF90BF90AF900895CA
:10328C008F929F92AF92BF92DF92EF92FF920F9329
:10329C001F93CF93DF93F12C07E319E4C0E1D5E43E
:1032AC000E947849882309F480C00E943640E0913E
:1032BC007D328D3019F08A3009F068C0F0E0E559A4
:1032CC00F14D108290917C32911153C091E08A3073
:1032DC0029F420917B322D3009F490E080937B32DD
:1032EC00992309F446C0F11044C060E270E08BE60B
:1032FC009EE20E947E467C01009719F0DC011D9233
:10330C007D01EBE6FEE201900020E9F73197EB56E8
:10331C00FE42DE2E87E1A82E89E4B82EF5018080CE
:10332C009180B4018BE69EE20E942948F401019041
:10333C000020E9F73197E819F90981110CC0DE1268
:10334C000AC0D5011296ED91FC911397309719F0A4
:10335C00C70109950CC0B4E0AB0EB11C0A151B05D6
:10336C00E9F6DF93CF930E94DA410F900F90FF2480
:10337C00F39480917C32882321F08BEF95E40E94AA
:10338C00A03710927D3210927C328ACFE43648F40A
:10339C0091E09E0F90937D32F0E0E559F14D8083E2
:1033AC007FCF81E080937C327BCF0E949A4ADF9161
:1033BC00CF911F910F91FF90EF90DF90BF90AF9046
:0633CC009F908F90089510
:1033D200CF93DF93FC018DE1A0EBB0E3ED011992F5
:1033E2008A95E9F78091B0308F7080618093B03018
:1033F20084E08093B6309DE49093B73091E590934A
:10340200B83094E59093B9309093BA308093BB3042
:103412006789708D6115710521F483899489892BDF
:1034220011F082EC01C082E08093BC3085859685E4
:103432000E94794C8093BD309093BE30A189B289AD
:10344200A093C130B093C230ED0109900020E9F79A
:1034520021979E012A1B3B0B2093BF303093C03033
:103462004091BC3046FF0AC0818D928D8093C93055
:103472009093CA306093C7307093C83047FF16C02C
:10348200858996898093C5309093C6306389748903
:103492006093C3307093C4308091C7309091C8302C
:1034A200860F971F0496820F931F01C0C9010C96C5
:1034B2008093CB309093CC30407CA1F08091C73088
:1034C2009091C8300E94794C8093C7309093C83055
:1034D2008091C3309091C4300E94794C8093C33064
:1034E2009093C4303227232732272093BF30309362
:1034F200C03081E08093883280938332DF91CF9114
:0235020008952A
:103504000F931F93CF93DF930E94B03640E054E0B3
:1035140082EDFA01808320E234E0F901108280E434
:1035240094E0FC011082C0E6D4E06FE06883A0E878
:10353400B4E01C9200EA14E079E1F801708370E8C9
:10354400FA017483F9011482FC0114826C831496C9
:103554001C921497F8011482FA010E948747F9011A
:103564000E948747FC010E948747188A198A1A8A91
:103574001B8A1C8A1D8A1E8A1F8A50961C92509789
:1035840051961C92519752961C92529753961C92A4
:10359400539754961C92549755961C925597569649
:1035A4001C92569757961C92F801108A118A8BE048
:1035B400828B138A148A88E0858B868B178AE0EEC7
:1035C400F5E011821082148215821382128285E240
:1035D4009DE480935D3290935E3286E29DE4809315
:1035E4005B3290935C3287E29DE4809359329093EE
:1035F4005A3288E29DE4809357329093583289E29C
:103604009DE480935532909356328AE29DE48093F0
:1036140053329093543284E29DE4809351329093D8
:0C3624005232DF91CF911F910F91089559
:10363000CF92DF92EF92FF92CF93DF93CDB7DEB7B9
:10364000C057D109CDBFDEBF69017A01863029F1AB
:10365000873009F434C0813009F075C020E70E943A
:10366000B0490E944F3281116EC0E0916D32F091ED
:103670006E32309709F467C080E7C80ED11CE11C98
:10368000F11CC0922B32D0922C32E0922D32F0926B
:103690002E320E94354C81E055C00E94FB480E94AA
:1036A0004F32811150C0E0916D32F0916E323097FF
:1036B00009F449C0BE016F5F7F4F86E043C028E038
:1036C0000E94B0490E944F32882351F0E0916D3240
:1036D000F0916E323097B9F165E972E387E032C05C
:1036E0004D815E812F813885EB81FC8189819A81B2
:1036F0004115510519F461E060939532420F531F53
:103700009C01332721303105C9F048F022303105C2
:1037100099F0609195322330310531F00AC0209143
:103720009532213059F408C0623041F0643021F400
:1037300005C0623019F084E080939532E417F507F4
:1037400011F4C4CF0995C059DF4FCDBFDEBFDF9163
:0C375000CF91FF90EF90DF90CF90089594
:10375C00CF93DF93CDB7DEB72897CDBFDEBF0E94E6
:10376C008D49882309F47CC0AE014B5F5F4F0E94EA
:10377C008F4B0E942A44882311F084EF76C00E945C
:10378C00CB4B80FFFACF9C01AD012E7F2D833E8366
:10379C004F8358870E948F4B0E941C368111EDCFAE
:1037AC000E94CB4B22E0B695A795979587952A95C5
:1037BC00D1F79F7080936B3290936C32892B09F404
:1037CC0051C043E252E30E94D54B0E942A4481111E
:1037DC00D4CF609123327091243280912532909114
:1037EC0026320E94674A0E947D278111C6CF6B81C9
:1037FC007C8180916B3290916C32861B970B059774
:10380C0098F5E9818FEF8E0F873008F0B6CF809155
:10381C00233290912432A0912532B09126329C0112
:10382C00AD01285F3F4F4F4F5F4F685071090E94A9
:10383C002D4CE954F54B0E94454C8A81099581E049
:10384C000E94AE4122E00E94C14C0E948F4B0E940C
:10385C007C2F80E00E94AE410E94F34C81118DCFF1
:10386C0080E003C08EEF01C08AEF2896CDBFDEBF8B
:06387C00DF91CF910895D9
:10388200CF92DF92EF920F93CF93DF93CDB7DEB754
:103892006497CDBFDEBF6C01F9011F86188A898B40
:1038A2009A8B6B8B0C8BE11002C082E001C080E02E
:1038B2006132D8F04230E9F048F4413009F068C092
:1038C200BE01615F7F4F0E943A3D63C0433051F1B8
:1038D200443009F438C05CC0615048F09601260FAC
:1038E200311DD9012C912111F7CF962FF5CF9B8B4A
:1038F200E1CF309709F44CC00E94014ADF010D90DC
:103902000020E9F70E94B14CA034B10519F4E98313
:10391200FA8303C0EB83FC83AD830E94A9490E9412
:10392200F01F37C03097A1F19F012E5F3F4F2983CF
:103932003A83918191509B8390819C830E94A949F3
:103942000E94072A26C0309719F119821A82EB8346
:10395200FC839F012B5E3F4F2D833E831F8218867F
:10396200DF010D900020E9F70E94B14CA987BA87C8
:10397200F90101900020E9F73197E21BF30BEB8785
:10398200FC871D861E860E94A9490E94A01801C0BC
:1039920081EF6496CDBFDEBFDF91CF910F91EF90A3
:0639A200DF90CF900895B4
:1039A800EF92FF920F931F93CF93DF93CDB7DEB7BC
:1039B800C25CD109CDBFDEBF8C01CF53DF4F188267
:1039C8001982C15CD04081E090E08B839C83F80130
:1039D800808191818330910569F1A0F4813091054E
:1039E800F1F0029709F041C0AE014F5A5F4FB8019C
:1039F800645F7F4FF801E25BFF4F808191810E94F5
:103A08009F4A1CC084309105F9F0059771F5F801BB
:103A180064857585868597850E9468200FC0AE01EC
:103A2800435F5F4FBE016F5A7F4FC8010C960E94DB
:103A3800162304C0CE010D960E94FA2D082E000C04
:103A4800990B8B839C8311C07E01F1E7EF0EF11C6B
:103A5800AE014F535F4FB701C8010C960E946A33FD
:103A68000E94754C8B839C8302C0E12CF12CF801D9
:103A78008081918189839A830E940D4B8D839E83D7
:103A8800AF83B88780859185A285B38589879A8712
:103A9800AB87BC870E94D847CF53DF4F48815981F5
:103AA800C15CD0400E94114C0E946840CE53DF4F49
:103AB800CDBFDEBFDF91CF911F910F91FF90EF90A7
:023AC80008955F
:103ACA00AF92BF92CF92DF92EF92FF921F93CF9362
:103ADA00DF93CDB7DEB7CC56D109CDBFDEBF182FE5
:103AEA0069017A018FEEA82E8FE2B82EF501808146
:103AFA008E3399F181132DC0D50111962D913C91E8
:103B0A0012972115310539F4E0916F32F091703234
:103B1A00309759F422C0AE014F5F5F4FC701B6011B
:103B2A000E944F32811143C0EFCFD5010E94AD4BA5
:103B3A00892B51F0113129F41092963289818093A0
:103B4A0098320E94254C02C060E070E0812F0995EE
:103B5A0004C0B3E0AB0EB11CC9CF103241F528E066
:103B6A0030E0AE014B595F4FC701B6010E944F3298
:103B7A0081111DC0AB962EAD3FADAB97A7964EAD4A
:103B8A005FADA797C701B601685F7F4F8F4F9F4F01
:103B9A000E944F3281110BC0E0916F32F091703266
:103BAA00309729F0BE016B597F4F80E20995C459BD
:103BBA00DF4FCDBFDEBFDF91CF911F91FF90EF9016
:0A3BCA00DF90CF90BF90AF900895F8
:103BD400EF92FF921F93CF93DF9300D000D0CDB725
:103BE400DEB7029709F06EC0613009F510919A3280
:103BF40027E03BE087E0E82EF12C812F90E0389F0E
:103C0400F001399FF00D1124EE50F24D0196B701E9
:103C14000E94E5429085911103C080939A3227C097
:103C24002150182F51F780939A321FEF20C0623031
:103C340009F048C01091993224E08BE0189FF001FC
:103C44001124E15CF14D812F90E001968370992756
:103C54003085311104C080939932195F06C0215018
:103C6400182F59F7809399321FEF309761F18BE049
:103C7400DF011D928A95E9F781E080878091773290
:103C8400909178329C012F5F3F4F29F02093773237
:103C94003093783205C002968093773290937832CD
:103CA40080917732909178328483958340FF0BC062
:103CB400198381E281870E946D4A60E582E00E9457
:103CC4002F4201C01FEF812F2496CDBFDEBFDF91AD
:0A3CD400CF911F91FF90EF9008952B
:103CDE00CF92DF92EF92FF92CF93DF9300D000D07E
:103CEE00CDB7DEB7C0902732D0902832E09029327F
:103CFE00F0902A320E94BD4A09F060C0AE014F5FBB
:103D0E005F4F64EF73E180E090E00E942A448111DE
:103D1E0055C047E252E360E00E94AD4C0E942A4437
:103D2E0081114CC08091273290912832A091293276
:103D3E00B0912A32803A22E0920720E1A207B10523
:103D4E0041F40E941B4931F181EA92E0A0E1B0E01A
:103D5E0019C0803B9240A041B105E1F40E94994BFD
:103D6E0083309105A105B105A9F00497A105B10510
:103D7E0029F481EB92E0A0E1B0E004C082EB92E086
:103D8E00A0E1B0E08093273290932832A09329329D
:103D9E00B0932A32C0902732D0902832E090293248
:103DAE00F0902A3280EFE82225E0E22AC0922732F4
:103DBE00D0922832E0922932F0922A32C701B6010F
:103DCE002496CDBFDEBFDF91CF91FF90EF90DF90B5
:043DDE00CF900895E5
:103DE2004F925F926F927F928F929F92AF92BF9209
:103DF200EF92FF920F931F93CF93DF9300D000D0E7
:103E0200CDB7DEB77C0128013901B42EAA2499244A
:103E12008824872F9927AA270E94794A8BE0882A2B
:103E2200DB01CA010E94F645442755277727452F13
:103E3200562F672F7727842A952AA62AB72AA30105
:103E4200920168E072E081E090E00E941C36A501D8
:103E520094010E94D04B0E941C3625EA0E94C14C5C
:103E620060E172E081E090E00E941C362FE10E9446
:103E72000B490E941C3620E030E04DE00E94734A5C
:103E82000E941C3625E80E9403490E941C360E94AB
:103E920013490E942A44811103C00E941B49B9F7A9
:103EA2000E94F34C882311F084EF0AC09201A7010B
:103EB20060E070E08DE090E00E947D278111F4CFF8
:103EC2002496CDBFDEBFDF91CF911F910F91FF905E
:103ED200EF90BF90AF909F908F907F906F905F9088
:043EE2004F90089560
:103EE600CF93DF93FC0180E1ACE2B1E3ED011992DF
:103EF6008A95E9F780918332833009F06AC0909100
:103F06002C319F70906390932C31808183FB88279E
:103F160080F980FB93F990932C3180818670997F8C
:103F2600982B90932C31892F8E70883019F4977FB7
:103F360090932C31908180912C3190FB80F9809365
:103F46002C31878190858093333190933431A781CA
:103F5600B085ED0109900020E9F72197CE018A1B73
:103F66009B0B8093313190933231208126952370BB
:103F760061F021852093353122852093363122E068
:103F860030E020933A3130933B31248535852093B8
:103F960038313093393143854093373120913A3166
:103FA60030913B312E5F3F4F240F311D280F391FB3
:103FB60020933A3130933B310E94794C80933131D2
:103FC600909332318091883284608093883281E088
:0A3FD60001C080E0DF91CF91089553
:103FE000AF92BF92CF92DF92EF92FF920F931F9307
:103FF000CF93DF93CDB7DEB7CC59D109CDBFDEBFAC
:104000004115510509F453C07A019B018E010359F2
:104010001F4F4CE650E062E00E94E723182F811109
:1040200047C0CE0101965C018CE6F50111928A959C
:10403000E9F7F701608171818281938161157105D2
:10404000B9F0892BA1F580E4898340E2CE01029684
:104050000E94233C811111EF498150E0F7016081FA
:104060007181CE0102960E942048112371F020C078
:104070000097E9F0F70144814134C8F4498350E0E6
:10408000BC01CE0102960E94204880E3C82ED12CAC
:104090009CE6E92EF12C850120E330E0AE01435986
:1040A0005F4F6BEB81E00E949711182F01C011EF59
:1040B000812FC456DF4FCDBFDEBFDF91CF911F915F
:1040C0000F91FF90EF90DF90CF90BF90AF90089549
:1040D0004F925F926F927F92AF92BF92CF92DF9298
:1040E000EF92FF921F93CF93DF93CDB7DEB7C75EFA
:1040F000D109CDBFDEBF2B013C01CE0101965C0191
:1041000080E5F50111928A95E9F7CB51DF4F1882CE
:104110001982C55ED040C12CD12C760114EF0E94CB
:10412000CC4AC9F19E012F553F4FAE014F5A5F4F08
:10413000B501CE018B519F4F0E94960E182F811111
:104140002AC0CB510E94154CC55ED0404797D1F490
:10415000C951DF4F1882C75ED0409E0129513F4FA1
:10416000AE014F555F4FBE016F5A7F4FC5010E9490
:10417000392B81110DC0C951DF4F8881C75ED040F6
:10418000882331F0FFEFCF1ADF0AEF0AFF0AC7CF0B
:104190000E942C4D14EF812FC951DF4FCDBFDEBFE0
:1041A000DF91CF911F91FF90EF90DF90CF90BF9064
:0C41B000AF907F906F905F904F9008954B
:1041BC00CF92DF92EF92FF920F931F93CF93DF93E7
:1041CC00CDB7DEB76097CDBFDEBF6B017C018BEF47
:1041DC0099E40E94F84360E070EA80E090E00E946D
:1041EC00BD420E94BD4A09F44AC082E090E0898336
:1041FC009A8383EB92E20E94E14C8B839C83CD8269
:10420C00DE82EF82F8860E94D24C8C010E94A94675
:10421C000E947E47811118C0F801E088F18841E0C6
:10422C0050E061E070E082E090E00E94A03DD70198
:10423C008C930E94324987FD07C00E94D53B0097A2
:10424C0019F021E0FC012483D8010E945A470E94F6
:10425C007E478130A1F40E94324940E150E0BE011A
:10426C006F5F7F4F0E94754C0E94C625F82E8823E5
:10427C0039F0D8010E945A470E94B93E01C0F12C76
:10428C008F2D6096CDBFDEBFDF91CF911F910F9127
:0A429C00FF90EF90DF90CF9008959F
:1042A600AF92BF92CF92DF92EF92FF921F93CF937E
:1042B600DF9300D0CDB7DEB77C016B01DB016D91DA
:1042C6007C91FC0182810E94A12A811151C0D601F4
:1042D600ED91FC911197A280B3800E94DB4A0E9467
:1042E600FB40182F81113EC0F701418150E0B70114
:1042F600D6010E94DB4A0E94134A182F811132C050
:10430600B50180E090E00E947744B6E0EB0EF11C28
:1043160080ECF70111928A95E9F780EC90E08983A9
:104326009A83AE014F5F5F4FB701D6010E94DB4A09
:104336000E94194A182F811115C089819A818430EB
:10434600910520F4892B69F417EE0CC0C7010E9471
:104356008538182F811106C0C7010E943739182FDA
:1043660001C016EEF601828193810E948545812F58
:104376000F900F90DF91CF911F91FF90EF90DF90FC
:08438600CF90BF90AF900895A5
:10438E009F92AF92BF92CF92DF92EF92FF920F93D6
:10439E001F93CF93DF93CDB7DEB72897CDBFDEBF88
:1043AE005A018901FE01319697E0DF011D929A951F
:1043BE00E9F797EC998390919132992319F0DD24C6
:1043CE00D39442C091E0909391322130310511F493
:1043DE0002E010E08A837B836C831E830F8367E089
:1043EE00CF010E941A42D82E8111E9CF81EF888722
:1043FE0093EFC92E22EF922E01151105F1F07801DF
:10440E000130B0E21B0718F0E12C80E2F82E0E19F5
:10441E001F0909F4C88661E070E0CE0108960E947B
:10442E003B2E882361F2B701C5010E943B2E8823E3
:10443E0031F29886AE0CBF1CDFCF83EC0E94B238EF
:10444E008111BDCF109291328D2D2896CDBFDEBF3A
:10445E00DF91CF911F910F91FF90EF90DF90CF9052
:08446E00BF90AF909F900895EC
:10447600CF92DF92EF92FF920F931F93CF93DF932A
:10448600CDB7DEB7C75CD109CDBFDEBFFA01309725
:1044960009F44DC0982F9370923021F421153105FF
:1044A60039F445C0933021F40115110509F43FC0D4
:1044B600A0914532B0914632CD90DC900E945D4C81
:1044C60050E4DE01179601900D925A95E1F792306D
:1044D60019F490E4F90105C00115110541F093E1C5
:1044E600F801DE01A95BBF4F0E943D4CE9F7BE0112
:1044F6006F5F7F4FC6010E94564181111BC06091BC
:10450600453270914632CE0101960E9453218111A7
:1045160011C0E114F10469F08F81833250F080E21A
:10452600FE013896D7010E94414CE9F702C082EE9F
:1045360001C080E0C953DF4FCDBFDEBFDF91CF9111
:0E4546001F910F91FF90EF90DF90CF9008959E
:10455400CF92DF92EF92FF920F931F93CF93DF934B
:10456400EC01CE80DF80E884F98400914932109117
:104574004A321C821D8280911B3290911C32A09180
:104584001D32B0911E320E94D14A68F40E94A133B8
:104594002FEFE21AF20AC61AD70AE80AF90ACE82FB
:1045A400DF82E886F986E0E0F0E081E0011511059C
:1045B40041F0D80116960E94084B19970E942B4B84
:1045C40018F4813009F505C080E0F80104811581F3
:1045D400EDCF6FEF7FEF80E090E00E94FC370E9408
:1045E400314AE0914932F0914A32B1E3E53BFB07AD
:1045F40019F40480F581E02DEC83FD83C0934932E6
:10460400D0934A3281E007C0848195818C839D8355
:10461400C483D58380E0DF91CF911F910F91FF90E8
:08462400EF90DF90CF900895A4
:10462C009F92AF92BF92CF92DF92EF92FF920F9335
:10463C001F93CF93DF936C015B01EA0180910F32E2
:10464C0090911032A0911132B09112320E94614CB3
:10465C0041F010920F3210921032109211321092CF
:10466C001232E0914532F09146320E944348833039
:10467C00C1F080910F3290911032A0911132B09113
:10468C0012320196A11DB11D80930F3290931032FE
:10469C00A0931132B093123222E0E22EF12C912C25
:1046AC0005C0EE24EA94FE2C9DE0992EBE01C701B4
:1046BC000E944049882311F084EF10C0C05CDF4F8A
:1046CC0080E290E08883998300E010E09501A601D8
:1046DC00B701892D0E9477288111EECFDF91CF9100
:1046EC001F910F91FF90EF90DF90CF90BF90AF9004
:0446FC009F900895EE
:10470000EF92FF920F931F93CF93DF93F82EE92E32
:10471000162F072F8FE298E29F938F938AEC97E4EE
:104720009F938F93CDECD8E2DF93CF930E947E3D91
:1047300009900020E9F72197AE014D5C58426F2D9A
:104740007E2D8DEC98E20E9443450F900F900F90C4
:104750000F900F900F90892BC9F46DEE77E4812FA5
:10476000902F0E940340009789F0FC0181858133DE
:1047700029F481E080939D3280E003C010929D3245
:104780008FEF0E94F84B82E080939C32EF92FF9271
:1047900087EF97E49F938F931F921F920E94EE30B2
:1047A0000F931F9381E098E49F938F931F921F9222
:1047B0000E94EE308DB79EB70C968DBF9EBFDF91E5
:0E47C000CF911F910F91FF90EF900C94FD2E62
:1047CE000F931F93CF93DF93F901D801445D5F4F91
:1047DE00309709F450C022813381232B09F44BC04A
:1047EE009481913208F047C0109709F442C090E3CB
:1047FE00E80119929A95E9F74D935C9311978130E0
:10480E0049F070F08230B9F50E94314C82601296F8
:10481E008C9312970E94314C816012968C93129752
:10482E0085818F3F19F081508E3028F513968C9329
:10483E0013978FEF860F8430F0F4ED018F016CA784
:10484E0084818C83448150E062817381CD01059611
:10485E000E942048F8010E94294C79F081E08DA336
:10486E00DE0196960E94454C86E00E94414CE9F787
:10487E0004C084EF03C081EF01C080E0DF91CF91CF
:06488E001F910F91089537
:10489400AF92BF92CF92DF92EF92FF920F931F934A
:1048A400CF93DF93CDB7DEB7C95CD109CDBFDEBFEF
:1048B400F82E6801012B09F43CC084E0E81619F0D5
:1048C40080E2E81236C0E0914532F0914632A08091
:1048D400B1808E0108531F4F8F2D0E94DF38811144
:1048E40029C080E2E81203C08F2D8068F82EFC8274
:1048F400C8530E94154CC85CD0408D839E830E948F
:10490400FE4A0E947B48811115C060914532709126
:104914004632CE0101960E94532181110BC04E2DC7
:1049240050E0BE01685F7F4FC6010E94204880E0CE
:1049340001C082EEC753DF4FCDBFDEBFDF91CF9101
:104944001F910F91FF90EF90DF90CF90BF90AF90A9
:024954000895C4
:1049560010920A2810920B2810920C2810920D28FB
:1049660080910E288D7F886080930E28809109287B
:10497600877F8B7F809309280E9483356DEF74E4CF
:104986008AE095E20E94EA470E945D3B8AE0EFE0FA
:10499600F8E2DF011D928A95E9F7CF010E944E4B9E
:1049A6000E94D24CFC018089918980930F289093B4
:1049B60010288EEF9CE48093112890931228809102
:1049C6005C28882329F081E09091AE28911101C0DE
:1049D60080E00E94F63C882391F08FE691E30E94E6
:1049E6006D4240E157E260E070E089E791E30E94A2
:1049F600B334809109288D7F8860816003C08091DF
:0E4A060009288E7F809309280E94194C08957C
:104A1400EF92FF920F931F93CF93DF93E82EF62E1E
:104A2400EA010E94D53B8C01892B09F448C086E039
:104A3400F81641F18F1520F0A5E0FA1641F03FC0B9
:104A4400B7E0FB16C9F1E9E0FE1659F038C020972B
:104A5400B1F1898187FD0BC083E0D80114968C9352
:104A64002EC0209761F1888199810097D1F48E2D11
:104A7400EE0C990BDF91CF911F910F91FF90EF9066
:104A84000C94B93E2097D9F06A817B8116161706DB
:104A940074F7D8011296ED91FC911397888199814E
:104AA4000AC06A817B816115710509F3D8011296E8
:104AB400ED91FC911397099583E0F8018483DF91CC
:0C4AC400CF911F910F91FF90EF9008958B
:104AD000FA01AA27283051F1203181F1E8946F932F
:104AE0006E7F6E5F7F4F8F4F9F4FAF4FB1E03ED0D5
:104AF000B4E03CD0670F781F891F9A1FA11D680F73
:104B0000791F8A1F911DA11D6A0F711D811D911DA5
:104B1000A11D20D009F468943F912AE0269F11241A
:104B20003019305D3193DEF6CF010895462F47707E
:104B3000405D4193B3E00FD0C9F7F6CF462F4F70D9
:104B4000405D4A3318F0495D31FD4052419302D037
:104B5000A9F7EACFB4E0A6959795879577956795DD
:104B6000BA95C9F700976105710508959B01AC01DD
:104B70000A2E06945795479537952795BA95C9F704
:0C4B8000620F731F841F951FA01D089575
:104B8C00AF92BF92CF92DF92EF92FF920F931F934F
:104B9C00CF93DF93CDB7DEB76097CDBFDEBF8C016F
:104BAC005B016A010E94D53B7C01892B99F1F501CF
:104BBC008191919189839A832EE0DE0113960E9454
:104BCC00394CE9F78230910511F589839A834C2D84
:104BDC000E94254C802F0E944634882391F0873FF9
:104BEC0071F08A3FB9F417FF02C086E211C0AB28FE
:104BFC0011F481E30DC0CD28C1F786E109C085E031
:104C0C0007C082E0F701848380E090E005C08FE26A
:104C1C00809389328FEF9FEF6096CDBFDEBFDF911F
:104C2C00CF911F910F91FF90EF90DF90CF90BF909D
:044C3C00AF90089598
:104C4000E6E6F4E038E030832FE946E851E0215011
:104C500040405040E1F700C0000024E020836FE9AD
:104C600086E891E0615080409040E1F700C000008C
:104C700092E090834FE956E861E041505040604037
:104C8000E1F700C0000081E080834FE956E861E071
:104C9000415050406040E1F700C00000E5E6F4E01C
:104CA00030833FE946E851E0315040405040E1F761
:104CB00000C0000020836FE926E831E06150204009
:104CC0003040E1F700C0000090834FE956E861E012
:104CD000415050406040E1F700C0000080838FE900
:104CE00096E821E0815090402040E1F700C00000AC
:024CF000089525
:104CF200A4E0B0E0EFE7F6E20C94A4408C010E943D
:104D0200F51769837A838B839C83F8018285938567
:104D120097FF0EC0E0914029F0914129309741F070
:104D22006CE379E2CE0101960995F80182879387B7
:104D3200F801828593851816190694F4092E000C41
:104D4200AA0BBB0B49815A816B817C816A017B0171
:104D5200C81AD90AEA0AFB0AC982DA82EB82FC8201
:104D620089819A81AB81BC8140913C2950913D2936
:104D720060913E2970913F29841B950BA60BB70BBE
:104D820089839A83AB83BC83B801CE0101960E94CA
:104D9200B82D69817A818B819C812496E8E00C94FC
:024DA200ED40E2
:104DA400CF92DF92EF92FF920F931F93CF93DF93F3
:104DB400CDB7DEB76097CDBFDEBF87FD3AC06115C2
:104DC400710509F436C0493795E0590790F50E94FA
:104DD400FC47EE50F24D9085992359F189834B831A
:104DE4005C83248135812D873E8787301CF024E441
:104DF40030E002C020E530E00E94BE49EE50F24DA2
:104E0400818580FF04C0268137818CE401C085E45C
:104E14007A018B01682F6068690120E130E0AE01FE
:104E24004F5F5F4F82E00E949711882319F082EF51
:104E340001C08AEF6096CDBFDEBFDF91CF911F9195
:0C4E44000F91FF90EF90DF90CF90089549
:104E50001F920F920FB60F9211242F933F934F93EF
:104E60005F936F937F938F939F93AF93BF93EF93D2
:104E7000FF93BE9B05C0E0915D32F0915E320995D3
:104E8000B99B05C0E0915B32F0915C320995B89B0B
:104E900005C0E0915932F0915A320995BB9B05C08B
:104EA000E0915732F09158320995BA9B05C0E091D4
:104EB0005532F09156320995BD9B05C0E0915332B1
:104EC000F09154320995BC9B05C0E0915132F091AC
:104ED000523209958FEF87BBFF91EF91BF91AF9150
:104EE0009F918F917F916F915F914F913F912F9102
:0A4EF0000F900FBE0F901F90189551
:104EFA00DF92EF92FF920F931F93CF93DF93CDB779
:104F0A00DEB72997CDBFDEBFFE01319697E0DF01FC
:104F1A001D929A95E9F798EC998390919132992389
:104F2A0019F0DD24D3942CC091E0909391328A83B6
:104F3A007B836C832130310519F482E08F8302C0B0
:104F4A003E832F8389017A0167E0CF010E941A42CA
:104F5A00D82E8111E6CF0130110551F462E070E0DC
:104F6A00CE0108960E94113A9885F701908304C0F1
:104F7A00B801C7010E94113A8111D3CF1092913220
:104F8A008D2D2996CDBFDEBFDF91CF911F910F9155
:084F9A00FF90EF90DF900895F5
:104FA200FF920F931F93CF93DF93CDB7DEB72C976A
:104FB200CDBFDEBF6115710509F43CC08B01F82E2F
:104FC20086E2FB0111928A95E9F70E94D3480E947A
:104FD2002A44882321F080E090E0DC0113C0898517
:104FE2009A85AB85BC850097A105B105A1F3BC01EB
:104FF200CD0183600E94614A0E947D278111EBCF1F
:105002000E94CB4BAA27BB270097A105B10511F43B
:1050120084EF11C0F11003C080E090E0DC01BC011C
:10502200CD01836026E230E0A8010E947D2788231B
:1050320011F0EECF81EF2C96CDBFDEBFDF91CF9185
:085042001F910F91FF900895EA
:10504A008091AF308E7F8093AF308091AB3090915A
:10505A00AC30019719F40E94804B02C00E947B4B2E
:10506A008091AB309091AC3001978093AB309093A4
:10507A00AC30E091A930F091AA30892B81F080916F
:10508A00A80880838091A9309091AA3001968093D4
:10509A00A9309093AA300E946C4B84E008958091C5
:1050AA00A80880838091A9309091AA3001968093B4
:1050BA00A9309093AA308091AF3088608093AF3046
:1050CA00E0918C30F0918D308091983090919930A8
:1050DA0009958250823020F40E94804B88E008951E
:0450EA000C94DE45FF
:1050EE00EF92FF920F931F93CF93DF93CDB7DEB75F
:1050FE00C75CD109CDBFDEBF79018C836D837E8302
:10510E0080E40E94594C0E94414CE9F7E0914532EF
:10511E00F09146320E94354C808191810E94D14699
:10512E00811124C06091453270914632CE010196B4
:10513E000E94532181111AC0E114F10451F09F8194
:10514E00933238F090E2FE013896D7010E943D4C22
:10515E00E9F70115110551F09F81933438F090E273
:10516E00FE01B896D8010E943D4CE9F7C953DF4FB6
:10517E00CDBFDEBFDF91CF911F910F91FF90EF90CA
:02518E00089582
:105190000F931F930E94084DE0914932F0914A32DB
:1051A000309721F41F910F910C94F04100911B3224
:1051B00010911C3220911D3230911E3286819781D0
:1051C000A085B185BC01CD01601B710B820B930BD7
:1051D0006115710521E08207910508F180911B326C
:1051E00090911C32A0911D32B0911E320197AF4FA9
:1051F000BF4F8093BB319093BC31A093BD31B0932E
:10520000BE31E093B931F093BA3185EB91E38093ED
:10521000493290934A326FEF7FEF80E090E00E9436
:10522000FC370E94064D81E0809381321F910F91DF
:025230000895DF
:10523200DF92EF92FF920F931F93CF93DF93CDB73D
:10524200DEB7C85DD109CDBFDEBF0097A1F1D42E74
:105252007B018C010E94ED2C81112DC088E8F801A0
:10526200DE0111960E94414CE9F7F801E857FF4F21
:105272008CE0DE01A653BF4F0E94414CE9F7F701D3
:1052820080818823C1F0EF28B1F080E4DE01A757C6
:10529200BF4F0E94414CE9F7C753DF4FD882C95C28
:1052A200D0401092963228ED0E94A84B68E881E027
:1052B2000E942F4201C084EFC852DF4FCDBFDEBF34
:1052C200DF91CF911F910F91FF90EF90DF900895A2
:1052D200CF93DF93CDB7DEB7C858D109CDBFDEBFBC
:1052E2009E012F5F3F4F88E8D9011D928A95E9F709
:1052F20085E1E4E3F7E4D9010E94414CE9F7FE01BC
:1053020076968CE0DF011D928A95E9F791E09AA3E7
:105312008AE08CA38BE0E5E5F7E4DE0195960E9436
:10532200414CE9F7FE01F09680E1DF011D928A957A
:10533200E9F721969FAF219780EC23968FAF2397B1
:1053420088EA24968FAF249725969FAF25972696B5
:105352009FAF269741E06DEC70E3C9010E94CF3FF9
:0E536200C857DF4FCDBFDEBFDF91CF9108955A
:105370000F931F93CF93DF93CDB7DEB7C75CD109EF
:10538000CDBFDEBFFA01A0914532B09146324D91BA
:105390005C91982F93700E945D4C923010F494E1D0
:1053A00007C0933041F585FF02C090E401C090E250
:1053B000DE0117960E943D4CE9F789010E94354CA9
:1053C000CA010E941D40811119C06091453270913F
:1053D0004632CE0101960E94532181110FC0011562
:1053E000110559F08F81833240F00E94F94A0E94E2
:1053F000414CE9F702C082EE01C080E0C953DF4FA3
:0E540000CDBFDEBFDF91CF911F910F910895B8
:10540E00CF92DF92EF92FF920F931F93CF93DF9382
:10541E00CDB7DEB7C054D109CDBFDEBFFA0130978C
:10542E0079F10E946D4C61F193819150943040F569
:10543E0092819F7E9A3021F57A019B010E94514CF8
:10544E0040E150E063E00E94E72381111AC0F701AA
:10545E008381815089AB428146954AAB60817181CF
:10546E00CE01C3960E94233C80E3C82ED12C90E13E
:10547E00E92EF12C005D0E94E1470E94971101C0B8
:10548E0081EFC05CDF4FCDBFDEBFDF91CF911F91AB
:0C549E000F91FF90EF90DF90CF900895E9
:1054AA00CF92DF92EF92FF920F931F93CF93DF93E6
:1054BA00C0904332D0904432C114D104A1F17B018F
:1054CA008C01D601CD91DC9163E270E0CE010E949D
:1054DA007E46FE0101900020E9F7892B51F0AF01C9
:1054EA004C1B5D0B42505109BE01C8010E94434545
:1054FA0008C03197AF014C1B5D0BB801CE010E9469
:10550A00B945892B81F4D6011296ED91FC91139736
:10551A00B701C801DF91CF911F910F91FF90EF90D2
:10552A00DF90CF900994DF91CF911F910F91FF9057
:08553A00EF90DF90CF9008957F
:10554200CF93DF93FB019081913031F0D0F0923014
:1055520039F0933049F011C093E129E33AE41CC0D9
:1055620094E12DEF39E418C09181983271F09836A8
:1055720081F096E12BEB39E40FC090E020E030E0BF
:105582000BC09EE022E73AE407C096E129E739E43E
:1055920003C096E127E339E44FEF5FEF4283538381
:1055A20040E0491779F0D9012D5F3F4FE901239778
:1055B2005881581305C00E94AD4B8283938302C069
:1055C2004F5FEFCF82819381019611F482EF01C088
:0855D20080E0DF91CF91089504
:1055DA000F931F93CF93DF93CDB7DEB72897CDBF35
:1055EA00DEBF87FD36C06115710509F432C0411569
:1055FA00510509F42EC00E94FC47EE50F24D9085E9
:10560A00992339F16083718342835383928591117F
:10561A001EC091E09287918590FF02C06DE401C09F
:10562A0066E40E94C14B19F40FEF1FEF98010E9424
:10563A00C64B8D830E94BE49EE50F24D84819581FE
:10564A000E94F34882E00E942F42811104C080E048
:10565A0003C08AEF01C082EF2896CDBFDEBFDF917B
:08566A00CF911F910F910895EB
:105672009F92AF92BF92CF92DF92EF92FF920F93DF
:105682001F93CF93DF932115310511F482EE2FC0C2
:10569200F901108261157105C9F30097B9F341153B
:1056A2005105A1F3E0914532F09146320E94454CFA
:1056B200E081E33021F4E0E29E2EE0E402C0912C8E
:1056C200E0E00E9463480E943343811110C0E12C44
:1056D200F12C00E010E09501A60164E070E0892D54
:1056E20082600E943B220E94074A09F480E0DF9117
:1056F200CF911F910F91FF90EF90DF90CF90BF90CD
:06570200AF909F90089596
:10570800EF92FF921F93CF93DF93CDB7DEB7C75CBD
:10571800D109CDBFDEBF7901E0914532F091463223
:10572800208131818C836D837E834115510531F051
:1057380083E00E94594C0E94414CE9F7BE016F5F1B
:105748007F4FC9010E948644182F811118C06091AB
:10575800453270914632CE0101960E945321182F8E
:1057680081110DC0E114F10451F04F81453038F03A
:1057780050E0435051090E94034B0E942048812F5A
:10578800C953DF4FCDBFDEBFDF91CF911F91FF908F
:04579800EF900895F1
:10579C000F931F93CF93DF93EC018091453290913F
:1057AC004632892B11F00E945E4587EC98E280937B
:1057BC00B0289093B12884EB98E28093B228909310
:1057CC00B32860EB78E2CE010E94BA3A811124C072
:1057DC0080EB98E2809345329093463289818330F6
:1057EC00D1F42091B0283091B1282F5F3F4F01E0C8
:1057FC0010E043E150E060E070E080E00E9483162E
:10580C0081110AC0E0914532F09146320E94454C1C
:10581C008181887F818380E0DF91CF911F910F91EF
:02582C000895DD
:10582E009091AF3092FD43C08093A830892F887F2E
:10583E009EE09093AD3024EF31E02093A63030936C
:10584E00A730846088608093AF3080E19DE48093C0
:10585E008C3090938D3010929830109299308093B6
:10586E008E3090938F3010929A3010929B3080939E
:10587E0090309093913010929C3010929D30809386
:10588E0092309093933010929E3010929F308EE013
:10589E009DE480939430909395301092A0301092A6
:1058AE00A1300E94B3480E94434A80E0089581E0EF
:0258BE0008954B
:1058C0000F931F93CF930E94094481113CC009E2BA
:1058D00010E020E030E040E05FE660E070E08FE262
:1058E00098E20E94752DC82F81110AC08FE298E2BC
:1058F00020912F282F3F21F0209157282F3F99F4F6
:1059000069EC76E48FE298E20E94E8498C2F0C2E35
:10591000000C990B9F93CF938AEC96E49F938F93FF
:1059200083E08F9307C09F938F9380E197E49F93C9
:105930008F931F921F920E94EE300F900F900F9046
:0E5940000F900F900F90CF911F910F9108952F
:10594E008F929F92AF92BF92CF92DF92EF92FF9281
:10595E00CF93DF9300D000D0CDB7DEB76B017C01C3
:10596E0049015A010E941D4C0E942A440E94994BE3
:10597E00AC01BD01482159216A217B21452B462BC3
:10598E00472BA1F0B501A4014095509560957095F7
:10599E009A01AB01282339234A235B2329833A83B7
:1059AE004B835C83C701B6010E941C3680919132F5
:1059BE002496CDBFDEBFDF91CF91FF90EF90DF90A9
:0C59CE00CF90BF90AF909F908F900895F5
:1059DA00FC01892B09F43DC080818823D1F1DF01C4
:1059EA000D900020E9F70E94B14C919790F581A1A2
:1059FA0081508E3070F5DF01AF5BBF4F8C91811102
:105A0A0008C011968C91811104C011968C9188233B
:105A1A0001F187AD8130F9F08330A9F482A1815078
:105A2A008430B8F483A18F7E8A3099F484A18823C4
:105A3A0081F0B496DF010D900020E9F70E94B14C85
