:100000000C94F1010C94E1520C94564A0C94303744
:100010000C941B3F0C94E1520C94E1520C94E1526D
:100020000C94E1520C94E1520C94E1520C94E15284
:100030000C94E1520C94E1520C94E1520C94E15274
:100040000C94E1520C94E1520C94E1520C94E15264
:100050000C94E1520C94E1520C94384A0C94473FB2
:100060000C94E1520C94E1520C94E1520C94E15244
:100070000C94E1520C94892D0C94E1520C949B4009
:100080000C94C4400C94E0470C94E1520C94E1525F
:10009000C715C915CC15D015D415D715DB15DF1527
:1000A000071609160C161016141617161B161F160F
:1000B000471649164C165016541657165B165F16FF
:1000C000871689168C169016941697169B169F16EF
:1000D00033543355803318331A803244324E00A7DC
:1000E0001A335533568033563357802FC430288007
:1000F00030D530FB00A64F280028098032E432E8D2
:1001000000A7BA335733588031FB320B00A6FC32BC
:100110004E325800A7243258326200A72E32623283
:100120006C00A738280928198031AC31C100A6BF5E
:10013000331A331C803358335980326C327600A71F
:10014000423276328000A74C3280328A00A7563283
:100150008A329400A7602819282F80331C331E8010
:10016000282F28938028932A7D802A7D2AD18033C6
:100170001E3320802AD12AEC8032E832EC00A7BE60
:1001800032EC32F000A7C23359335A80335A335B12
:100190008032F032F48032F432F8803294329E00B1
:1001A000A76A33203322803322332480332433263A
:1001B00080335B335C00A7CE2B632CF3802CF32EB3
:1001C000838031E931FB80329E32A800A77432A8C7
:1001D00032B200A77E32B232BC00A78832BC32C62F
:1001E00000A79232C632D000A79C335C335D8033C7
:1001F00026332880335D335E80335E335F80335F28
:100200003360803237324480321B322980320B32E5
:100210001B80318F31AC8033603361803361336256
:10022000802AEC2AEE803328332A803362336380BD
:10023000332A332C80332C332E80332E33308033CB
:100240003033328033323334803334333680333694
:10025000333880336333648032F832FC00A7C6330E
:1002600038333A80333A333C80333C333E80314735
:10027000316B00A69B316B318F80333E334080332E
:1002800040334200A7CA3342334400A7CC3364331F
:100290006580336533668033663367803028306825
:1002A00080336733688033683369803369336A80A9
:1002B000306830A8803229323700A70C336A336B9C
:1002C00000A7CF336B336C80336C336D8033443392
:1002D000468032FC330080336D336E80330033044C
:1002E00080336E336F00A7D0330433088033463336
:1002F000488030A830D500A622336F337080334851
:10030000334A803370337180337133728033723388
:10031000738033733374803308330C80334A334C27
:10032000803374337580334C334E80334E3350807A
:1003300033503352802F4B2FC4802E832F4B80306D
:10034000FB312180330C33108032D032DA00A7A683
:10035000337533768031C131D500A6D42AEE2B53C4
:100360008031D531E900A6E83376337780337733AF
:100370007800A7D13378337900A7D23379337A0064
:10038000A7D3337A337B00A7D432DA32E400A7B0A4
:10039000337B337C80337C337D80337D337E80338D
:1003A0007E337F80337F338080338033818033811D
:1003B0003382803382338380331033148033143399
:1003C00018803121314700A67533523354802B53A6
:1003D0002B59802B592B5D802B5D2B61802B612B42
:1003E000638011241FBECFEFCDBFDFE3DEBFE0EDA2
:1003F000F0E043E017C0B591A591359125910591A5
:1004000007FD0CC095918591EF01F92FE82F05901C
:100410000D92A217B307D9F7FE0104C01D92A217CF
:10042000B307E1F7E23EF40731F70E94E7510C947D
:060430001902F894FFCF51
:100436004F4B0D00646562756720706172616D6572
:10044600746572206D7573742062652062657477B9
:1004560065656E203020284C656173742920616EB5
:1004660064203420284D6F737429200D00322E30FD
:100476002E30007625730D0A0400332E30002573C6
:100486000D0A0400556E6B6E6F776E2E0D0A040012
:100496004572726F722067657474696E67206B654A
:1004A600792E0D0A04002C00000031002564004559
:1004B60072726F722E2057692D466920636F6D6DBB
:1004C600616E6420666F726D61742069732077694E
:1004D6006669203C737369643E5B2C3C7061737380
:1004E6003E2C5B61757468547970655D5D0D0A0418
:1004F600004F4B0D0A04002D2D2D2D2D2D2D2D2DAC
:100506002D2D2D2D2D2D2D2D2D2D2D2D2D2D2D2D15
:100516002D2D2D2D2D2D2D2D2D2D2D2D2D2D2D2D05
:100526002D2D2D0D0A556E6B6E6F776E20636F6DD8
:100536006D616E642E204C697374206F662061763F
:1005460061696C61626C6520636F6D6D616E647369
:100556003A0D0A72657365740D0A6465766963659A
:100566000D0A6B65790D0A7265636F6E6E6563744D
:100576000D0A76657273696F6E0D0A636C695F7634
:10058600657273696F6E0D0A77696669203C7373CD
:1005960069643E5B2C3C706173733E2C5B617574C1
:1005A60068547970655D5D0D0A64656275670D0A4C
:1005B6002D2D2D2D2D2D2D2D2D2D2D2D2D2D2D2D65
:1005C6002D2D2D2D2D2D2D2D2D2D2D2D2D2D2D2D55
:1005D6002D2D2D2D2D2D2D2D2D2D2D2D0D0A0400DE
:1005E6000D0A436F6D6D616E6420746F6F206C6FC2
:1005F6006E670D007265736574007265636F6E6E6B
:100606006563740077696669006B65790064657671
:1006160069636500636C695F76657273696F6E0006
:1006260076657273696F6E006465627567006961ED
:10063600740065787000617564002D2D2D2D2D4296
:100646004547494E205055424C4943204B45592D6C
:100656002D2D2D2D0D0A25730D0A2D2D2D2D2D45F4
:100666004E44205055424C4943204B45592D2D2D83
:100676002D2D0D0A040025303258006D7174742E2C
:10068600676F6F676C65617069732E636F6D0025A8
:1006960064002A2E706F6F6C2E6E74702E6F7267E8
:1006A600004D4348502E494F542E41434345535322
:1006B600504F494E540000000000000000000000AA
:1006C6000000313233343536373839300000000017
:1006D6000000000000000000000000000064257318
:1006E6000070726F6A656374732F25732F6C6F6366
:1006F6006174696F6E732F25732F726567697374E2
:10070600726965732F25732F646576696365732F28
:100716002573003A2042617365363420636861723E
:100726007320616674657220656E6420706164640E
:10073600696E67202D2D205374617475733A2025D8
:100746003032580D0A003A206465636F6465642090
:1007560062756666657220746F6F20736D616C6C6E
:10076600202D2D205374617475733A20253032582C
:100776000D0A0025303258200025303258000D0071
:100786002573003A204E756C6C20696E7075742066
:10079600706172616D65746572202D2D20537461D0
:1007A6007475733A20253032580D0A003A20496E86
:1007B60076616C69642062617365363420636861B2
:1007C600726163746572202D2D2053746174757384
:1007D6003A20253032580D0A003A20496E76616C6F
:1007E6006964206E756D626572206F662062617342
:1007F600653634206368617273202D2D2053746131
:100806007475733A20253032580D0A003A206E6509
:10081600776C696E652072756C65735B335D206DF0
:10082600757374206265206D756C7469706C6520D3
:100836006F662034202D2D205374617475733A2011
:10084600253032580D0A003A204C656E67746820D0
:100856006F6620656E636F646564206275666665A3
:100866007220746F6F20736D616C6C202D2D205378
:1008760074617475733A20253032580D0A000411DC
:1008860033430407C440222573223A2225732200EB
:10089600222573223A256C640022746F67676C65A3
:1008A600223A00746F7069633A202573007061798B
:1008B6006C6F61643A202573002F64657669636501
:1008C600732F6425732F6576656E7473007B224CD7
:1008D60069676874223A25642C2254656D70223A41
:1008E60025642E253032647D004D4348502E494FF5
:1008F60054006D6963726F63686970002564002F28
:10090600646576696365732F6425732F636F6E66FE
:1009160069670025730420257320257320001B5B5F
:10092600306D0D001B5B33376D4E4F524D414C1BE6
:100936005B33376D001B5B33326D2020474F4F44CE
:100946001B5B33376D001B5B33316D20202042412A
:10095600441B5B33376D001B5B33316D1B5B376D9F
:10096600204552524F521B5B32376D1B5B33376D3E
:10097600001B5B33376D2020204E4F4E451B5B33EB
:10098600376D001B5B33336D5741524E494E471B43
:100996005B33376D001B5B33346D204E4F54494338
:1009A600451B5B33376D001B5B33356D20202049BB
:1009B6004E464F1B5B33376D001B5B33316D20207A
:1009C60044454255471B5B32376D1B5B33376D0021
:1009D600FA45D74A004631470A46D11B0F46DB4146
:1009E6001346EB441A46FC492646ED492E46834AF1
:1009F6003059301306072A8648CE3D020106082ADA
:100A06008648CE3D030107034200044156522D4954
:100A16004F540075732D63656E7472616C3100619D
:100A260076722D696F7400982F8A4291443771CF80
:100A3600FBC0B5A5DBB5E95BC25639F111F159A486
:100A4600823F92D55E1CAB98AA07D8015B8312BE83
:100A5600853124C37D0C55745DBE72FEB1DE80A760
:100A660006DC9B74F19BC1C1699BE48647BEEFC659
:100A76009DC10FCCA10C246F2CE92DAA84744ADCED
:100A8600A9B05CDA88F97652513E986DC631A8C88D
:100A96002703B0C77F59BFF30BE0C64791A7D551CF
:100AA60063CA0667292914850AB72738211B2EFC35
:100AB6006D2C4D130D385354730A65BB0A6A762E96
:100AC600C9C281852C7292A1E8BFA24B661AA87092
:100AD6008B4BC2A3516CC719E892D1240699D685CF
:100AE600350EF470A06A1016C1A419086C371E4C96
:100AF600774827B5BCB034B30C1C394AAAD84E4F38
:100B0600CA9C5BF36F2E68EE828F746F63A57814B0
:100B160078C8840802C78CFAFFBE90EB6C50A4F725
:100B2600A3F9BEF27871C667E6096A85AE67BB723D
:100B3600F36E3C3AF54FA57F520E518C68059BAB80
:100B4600D9831F19CDE05B7B22616C67223A22456F
:100B560053323536222C22747970223A224A57545F
:100B6600227D00511B002828002419001C32004356
:100B76001302152300408D0230050056A5001723E9
:100B8600000837001614004632001B170002050045
:100B960080E001771409474B00419902200A00457D
:100BA6003D04122D00511B002828002419001C3278
:100BB6000043AC0015230040D70030050056A500C1
:100BC6001723000837001614004632001B170002D0
:100BD600050080A000777102472A0041DC00200A48
:100BE60000452701122D00511B002828002419005A
:100BF6001C3200434B0015190040730030050056A7
:100C0600A5001723000837001614004632001B17EC
:100C16000002050080500077FA0047240041730067
:100C2600200A00456900122D00280D002414001C1E
:100C36003200433A00150B004073001117003002D2
:100C460000172000080E00161D00010300463000A4
:100C56001B1700020500470900413C00200A004519
:100C66004800121A00280D002414001C3200150B2F
:100C760000407300111700300200172000080E0014
:100C8600161D000103004630001B17000205004731
:100C96000900413C00200A00454800121A00282697
:100CA600001C3E00152B00114500300200171800ED
:100CB600082300163C000102001B32000205004713
:100CC6001600200C00122A00C952B1522D4D1F49A0
:100CD60031494349CC52CF5200000000CFFFFFFFFD
:100CE60000C900E824000000525C1F247F0C10534A
:100CF6001053D521105310532A493B494C495D499D
:0A0D0600774989499B49AD49BF496F
:100D10002F923F924F925F926F927F928F929F920B
:100D2000AF92BF92CF92DF92EF92FF920F931F93F9
:100D3000CF93DF93CDB7DEB7C455D140CDBFDEBF73
:100D4000C55BDE4F88839983CB54D140C15B0E9441
:100D500046524A835B83CF54D140CB5CDE4F6883DD
:100D6000C553D140CA5CDE4F7883C653D140CF5BB8
:100D7000DE4F188219821A821B82C154D1409E0113
:100D80002F5B3F4FCF5D0E944652C152D140AE0112
:100D90004F535F4FCD5DDE4F48835983C352D140DF
:100DA00088559F4FC35BDE4F88839983CD54D140D4
:100DB000CF5BDE4F688179818A819B81C154D140AC
:100DC000C15BDE4F488059806A807B80CF54D14020
:100DD000641575058605970509F428C30E9402521B
:100DE000C95CDE4F68837983C753D140FB01CB5C7C
:100DF000DE4FA881B981C553D1408C918383119670
:100E00008C91119782830E941252818313968C9148
:100E10001397808314963496CF5DDE4F8881998135
:100E2000C152D140E817F90741F7C95CDE4F28806D
:100E30003980C753D1403101D10114960E94C55069
:100E40001797D8960E94AF4FE4E02E0E311C6A012E
:100E50007B0117E00E94D9501A95E1F78A019B01A6
:100E6000E9E1000F111F221F331FEA95D1F7C02AB5
:100E7000D12AE22AF32A4A015B01FEE0880C991C80
:100E8000AA1CBB1CFA95D1F78A019B01E2E13695B9
:100E9000279517950795EA95D1F7082919292A2941
:100EA0003B290C251D252E253F256A017B01F3E0FA
:100EB0000E94E54FE9F70C251D252E253F25F3015E
:100EC000C080D180E280F380F10140A151A162A1F4
:100ED00073A10E94D450C00ED11EE21EF31E8C01DD
:100EE0009D014FE0000F111F221F331F4A95D1F7BC
:100EF000AC01BD01E1E17695679557954795EA9577
:100F0000D1F7042B152B262B372BAC01BD01FDE0AF
:100F1000440F551F661F771FFA95D1F72C013D012D
:100F2000E3E10E94BB4FE9F7442A552A662A772A53
:100F30004026512662267326FAE00E94B54FE9F753
:100F4000482659266A267B264C0C5D1C6E1C7F1C8D
:100F5000D101DC964D925D926D927C92DF97CD5DD2
:100F6000DE4FE881F981C352D1402E163F0609F0C9
:100F700062CFC55BDE4F28803980CB54D140F8E882
:100F80002F0E311C9E012F5F3E4FCD5A0E944652BC
:100F9000C355D140C901F1014191519161917191C4
:100FA000DC014D935D936D937D93CD010E94EE4ED8
:100FB000E415F50589F7CD5ADE4FA881B981C355EF
:100FC000D1400D911D912D913C91139714960E9443
:100FD000CA501797C35D0E94C14FCD52D140189699
:100FE0000E94CA501B97CF5C0E94C14FC153D14091
:100FF00050960E94AF4F0E94F54E448855886688EF
:101000007788C75C0E94C14FC953D140408C518C36
:10101000628C738CC35C0E94C14FCD53D140448C11
:10102000558C668C778CC95B0E94C14FC754D140E8
:101030004484558466847784CB5DDE4F4882598230
:101040006A827B82C552D1404DE25AE4CB5BDE4FCF
:1010500048835983C554D140CB5BDE4FE881F98189
:10106000C554D1404191519161917191CB5B0E94E6
:101070003A52C554D1404C015D01EAE1880C991CFB
:10108000AA1CBB1CEA95D1F76C017D01F6E00E9419
:10109000E54FE9F7C828D928EA28FB282C013D01AB
:1010A000E5E10E94DE50EA95E1F74C015D01FBE0CD
:1010B000B694A79497948794FA95D1F784289528A5
:1010C000A628B7288C249D24AE24BF246C017D0162
:1010D000E9E10E94D950EA95E1F72C013D01F7E0E2
:1010E0000E94DE50FA95E1F7C428D528E628F728B3
:1010F000C824D924EA24FB24C95CDE4FE881F981A5
:10110000C753D14081909190A190B190C95C0E9449
:101110003A52C753D140480D591D6A1D7B1D0E948C
:1011200092512C013D014094509460947094C35CA2
:10113000DE4F88809980AA80BB80CD53D140482063
:1011400059206A207B20C75C0E94C74FC953D140F9
:10115000C822D922EA22FB220E94E3500E94925127
:10116000C95BDE4FA880B980CA80DB80C754D140FC
:101170004A0D5B1D6C1D7D1DCB5D0E94C74FC55286
:10118000D1400E94D450C75D0E94CD4FC952D1407A
:1011900048015901EEE1880C991CAA1CBB1CEA9578
:1011A000D1F768017901F2E00E94E54FE9F7C8281C
:1011B000D928EA28FB2828013901E3E1440C551C11
:1011C000661C771CEA95D1F748015901FDE00E94A1
:1011D000CF50FA95E1F7482859286A287B280E94C1
:1011E000E35028013901E6E10E94BB4FE9F74801CD
:1011F0005901FAE0880C991CAA1CBB1CFA95D1F77E
:1012000084289528A628B728240135014C245D247C
:101210006E247F24CB5D0E94C14FC5520E94494C71
:101220000E94F74C482459246A247B2440225122EE
:1012300062227322C35D0E94C74FCD52D140C820A5
:10124000D920EA20FB200E94E350CB5DDE4F48808E
:1012500059806A807B80C552D140C40CD51CE61CE5
:10126000F71C0E94D450C35C0E94D34FCD53D14091
:10127000C95B0E94D94FC754D1400E94F74CCB5D47
:10128000DE4F88829982AA82BB82C552D140CB5B55
:10129000DE4F48815981C554D1404D525B44A9F17C
:1012A000C75CDE4F488059806A807B80C953D1403B
:1012B000C35CDE4F488259826A827B82CD53D14023
:1012C000C75CDE4F88839983AA83BB83C953D1400F
:1012D000C75DDE4F88819981AA81BB81C952D14007
:1012E000C35D0E94D34FCD52D140CF5C0E94D94FF5
:1012F000C153D140C35DDE4F088319832A833B83EA
:10130000CD52D14097018601A7CECF5F0E94CD4F2D
:10131000C150D140CB5FDE4F088319832A833B83C2
:10132000C5500E94494CC75FDE4F488259826A828D
:101330007B82C950D140C75D0E94D34FC952D14072
:10134000CF5E0E94D94FC151D140CB5EDE4F888322
:101350009983AA83BB83C551D140C75CDE4F888087
:101360009980AA80BB80C953D140C75EDE4F888276
:101370009982AA82BB82C951D140C35CDE4FA8804A
:10138000B980CA80DB80CD53D140C35EDE4FA882D6
:10139000B982CA82DB82CD51D140CF5C0E94C74F57
:1013A000C153D140C35F0E94CD4FCD50D1400E9468
:1013B000F54E81919191A191B191CD5A0E943A52ED
:1013C000C355D140F1010E94A651840F951FA61F5D
:1013D000B71F81939193A193B1931F010E94EE4E89
:1013E0004E165F0621F7CF5BDE4F288139814A8197
:1013F0005B81C154D1402F5F3F4F4F4F5F4FCF5B59
:10140000DE4F288339834A835B83C154D140CB5C50
:10141000DE4F48815981C553D140405C5F4FCB5C62
:10142000DE4F48835983C553D140C2CCCC5ADE4FDE
:10143000CDBFDEBFDF91CF911F910F91FF90EF9055
:10144000DF90CF90BF90AF909F908F907F906F90E4
:0A1450005F904F903F902F90089599
:10145A000F931F93CF93DF9300D0CDB7DEB78C01E4
:10146A0010925E3380915C33823020F0833009F42D
:10147A0090C030C28091613380FF2CC2C8010E94A3
:10148A003F4EC80108960E943F4E41E050E06FE887
:10149A0071E3C8010E944C3360E971E38091AA317B
:1014AA009091AB310E945C48482F50E060E971E3AB
:1014BA00C8010E944C334AE050E064E971E3C80174
:1014CA000E944C3342E050E06EE971E3C8010E9489
:1014DA004C336091A0317091A131FB010190002041
:1014EA00E9F73197AF01461B570BC8010E944C33ED
:1014FA008091A6319091A731892B31F48091A23144
:10150A009091A331892B41F142E050E062EA71E304
:10151A00C8010E944C334091A2315091A3310E94DC
:10152A0052526091A4317091A531C8010E944C3386
:10153A0042E050E066EA71E3C8010E944C334091F0
:10154A00A6315091A7310E9452526091A8317091F0
:10155A00A931C8010E944C33C8010E9474458823EE
:10156A0009F4C1C1809161338E7F8093613385E034
:10157A0080935E330E94155186EC92E30E94413AB1
:10158A0082E080935C3380915F338E7F80935F33F8
:10159A00A1C120916133222309F49CC180E030E08B
:1015AA00482FB901082E02C0759567950A94E2F78B
:1015BA0060FD02C08F5FF4CF81E090E001C0880F28
:1015CA004A95EAF7883009F4B5C020F4843009F462
:1015DA0040C080C1803109F40DC1803209F07AC15E
:1015EA0080915F3381FF76C180915F338D7F8093D5
:1015FA005F3319821A82C8010E943F4EC8010896B9
:10160A000E943F4E89818170806C8E7F89831A8205
:10161A0041E00E94F74F0E944C330E94184F0E94EB
:10162A004C33C8010E947445882309F453C1809140
:10163A0061338F7D809361338091603380618093C1
:10164A0060330E94155182EB92E30E94413A85E091
:10165A004BC18CEB92E30E944848C8010E943F4E5E
:10166A00C80108960E943F4E41E050E06BE072E3E9
:10167A00C8010E944C336CE072E380911932909158
:10168A001A320E945C48482F50E06CE072E3C801AD
:10169A000E944C3342E050E060E172E3C8010E94CC
:1016AA004C3340911032509111320E945252609143
:1016BA00123270911332C8010E944C3380910B325E
:1016CA008670823071F441E050E065E172E3C8014E
:1016DA000E944C3341E050E064E172E3C8010E9489
:1016EA004C334091163250E06091173270911832A3
:1016FA00C8010E944C338091613382FD04C08091FD
:10170A000B3283FFF4C0C8010E947445882309F490
:10171A00EEC0809161338B7F8093613380910B326D
:10172A008670823009F0BFC08091603380628093F6
:10173A006033B9C0C8010E943F4EC80108960E9492
:10174A003F4E41E050E06BE172E3C8010E944C3326
:10175A006CE172E380912732909128320E945C48B2
:10176A00482F50E06CE172E3C8010E944C3341E01B
:10177A0050E061E272E3C8010E944C3341E050E05C
:10178A0060E272E3C8010E944C3342E050E062E238
:10179A0072E3C8010E944C334091223250912332A5
:1017AA000E9452526091243270912532C8010E94DF
:1017BA004C3341E050E066E272E3C8010E944C33C8
:1017CA00C8010E947445882309F470C0809161336E
:1017DA00877F809361338091603384608093603324
:1017EA0080915F33877F80935F330E94155188EA27
:1017FA0092E357C0C8010E943F4EC80108960E9452
:10180A003F4E41E050E067E372E3C8010E944C3367
:10181A0068E372E380914232909143320E945C48BD
:10182A00482F50E068E372E3C8010E944C3341E05C
:10183A0050E06DE372E3C8010E944C3341E050E08E
:10184A006CE372E3C8010E944C3342E050E06EE35D
:10185A0072E3C8010E944C3340913E3250913F32AC
:10186A000E9452526091403270914132C8010E94E6
:10187A004C33C8010E9474458823C1F080916133BA
:10188A008F7E809361338091603388608093603368
:10189A0080915F338F7E80935F330E9415518EE96A
:1018AA0092E30E94413A85E080935E3320919C3115
:1018BA0030919D312115310569F0322723273227CE
:1018CA000E9410510E94654AAB01BC018CEB92E365
:1018DA000E94413A80915C330F900F90DF91CF9133
:1018EA001F910F91089586E080935E33F3CF109293
:0418FA005C33F0CF9C
:1018FE002F923F924F925F926F927F928F929F9212
:10190E00AF92BF92CF92DF92EF92FF920F931F93FF
:10191E00CF93DF93CDB7DEB7C455D109CDBFDEBFB0
:10192E005B0169017A01813411F08435B1F40E94B2
:10193E00974E0E94DF378111E9C18A8126968FAFBB
:10194E002697E0914E33F0914F33309709F4DEC174
:10195E00AE014B5B5F4F61E017C08234C1F40E9451
:10196E00974E0E94DF378111D1C18A8126968FAFA3
:10197E002697E0914E33F0914F33309709F4C6C15C
:10198E00AE014B5B5F4F62E089810995BFC1833425
:10199E0009F073C02CE030E0AE014B5B5F4FC70126
:1019AE00B6010E94DF378111B1C12F963FAD2F973F
:1019BE0037FD3FC0432F032E000C550B2E962FAD37
:1019CE002E976BE02603F0011124E55BF04D818527
:1019DE00649FF001659FF00D1124E55BF04D81874A
:1019EE0081E0808761968EAD9FAD61970897868363
:1019FE0097838091503390915133BC016F5F7F4F2D
:101A0E0029F0609350337093513305C00296809342
:101A1E005033909351338BE0849FF001859FF00DEE
:101A2E001124E55BF04D80915033909151338483B6
:101A3E009583398382E090E08A839B8329968EADCD
:101A4E009FAD29978C839D832D968CAD9DADAEADAC
:101A5E00BFAD2D978E839F83A887B987E0914E33B4
:101A6E00F0914F33309709F451C1AE014F5F5F4F84
:101A7E0064E02E968FAD2E9788CF843411F08B3480
:101A8E0031F50E94974E0E94DF3781113FC1898147
:101A9E0026968FAF26979A8127969FAF27979111FB
:101AAE000AC00E94AB51E55BF04D2B813C81285062
:101ABE00310926833783E0914E33F0914F333097BF
:101ACE0009F424C1AE014B5B5F4F65E05ECF8A34F3
:101ADE00C1F424E40E945E4F0E94DF37811116C1CB
:101AEE00E0914C33F0914D33309709F40FC12596A8
:101AFE004CAD5DAD6EAD7FAD2597CE0101960995CE
:101B0E0005C1863429F0883431F08D3409F0A7C030
:101B1E0096E0992E02C089E0982E20E130E0AE01C9
:101B2E004B5B5F4FC701B6010E94DF378111EEC0DC
:101B3E0062968FAC629765964EAD5FAD6597882DB8
:101B4E000E94AB51E55BF04D12862F968EAD9FAD88
:101B5E002F9761966EAD7FAD619729962EAD3FADF5
:101B6E00299729873A872D960CAD1DAD2EAD3FAD29
:101B7E002D970B871C872D873E870E94A15109F058
:101B8E00C5C0181619060CF059C08C018A159B0594
:101B9E0008F054C00E94065209F4B8C082819381A5
:101BAE00892B09F4B3C08085813009F0AFC02601BE
:101BBE003701460E571E611C711C0D831E835F017B
:101BCE001F01E2E02E0E311C6501F8E0CF0ED11C94
:101BDE00F101E080F1800E151F0508F47801F50182
:101BEE00408151819701C301B2010E94DF378111FB
:101BFE008DC00E94965289839A83EB82FC828D81DE
:101C0E009E818E199F098D839E83E0914E33F091B4
:101C1E004F33309731F0AE014F5F5F4F692D882DF6
:101C2E0009954E0C5F1C611C711CF6018081882386
:101C3E0009F46CC00E191F0959F668C08B839C837A
:101C4E0019821A82E0914E33F0914F33309709F496
:101C5E005DC0AE014F5F5F4F692D882D96CE8534E6
:101C6E0021F0873421F08C3429F517E001C018E0FB
:101C7E0028E00E945E4F0E94DF37811147C08981A4
:101C8E004D815E812B813C8127962EAF3FAF2797EA
:101C9E000E94AB51E55BF04D0E94A151B9F5E09168
:101CAE004E33F0914F33309789F1AE014B5B5F4F5E
:101CBE00612F6BCE823551F524E10E945E4F0E945A
:101CCE00DF37811123C04D815E816F8178858091D0
:101CDE00083390910933A0910A33B0910B330E94CF
:101CEE00B15081F4E0914A33F0914B33309751F07B
:101CFE0029853A854B855C8569817A818B819C81AA
:101D0E000989099510924A3310924B33CC5ADF4F02
:101D1E00CDBFDEBFDF91CF911F910F91FF90EF905E
:101D2E00DF90CF90BF90AF909F908F907F906F90ED
:0A1D3E005F904F903F902F900895A2
:101D4800ABE0B0E0EAEAFEE00C9473466C017B017C
:101D58008A01FC0116821782838181FFCCC1CE01E2
:101D680001963C01F6019381F70193FD859193FF5C
:101D780081917F01882309F4BAC1853239F493FD32
:101D8800859193FF81917F01853229F4B60190E016
:101D98000E945238E7CF912C212C312CFFE1F3150A
:101DA800D8F08B3279F038F4803279F08332A1F4AC
:101DB800232D20611DC08D3261F0803369F4232DFD
:101DC800216016C0832D8260382EE32DE4603E2EFC
:101DD8002AC0F32DF8601DC037FC2DC020ED280F58
:101DE8002A3040F08E32B9F436FC81C1232D2064AC
:101DF800322E19C036FE06C08AE0989E200D1124A6
:101E0800922E11C0EAE02E9E200D1124222EF32DD1
:101E1800F0623F2E08C08C3621F4832D8068382E5E
:101E280002C0883641F4F70193FD859193FF8191B3
:101E38007F018111B3CF982F9F7D9554933028F45B
:101E48000C5F1F4F9FE399830DC0833631F08337B2
:101E580071F0833509F059C021C0F8018081898368
:101E68000E5F1F4F88248394912C530113C02801BF
:101E7800F2E04F0E511CF801A080B18036FE03C07D
:101E8800692D70E002C06FEF7FEFC5010E94164C0C
:101E98004C018201F32DFF773F2E16C0280122E066
:101EA800420E511CF801A080B18036FE03C0692D96
:101EB80070E002C06FEF7FEFC5010E940B4C4C0130
:101EC800F32DF0683F2E820133FC1BC0822D90E079
:101ED80088169906B0F4B60180E290E00E94523864
:101EE8002A94F4CFF50137FC859137FE81915F0183
:101EF800B60190E00E94523821102A9421E0821AFB
:101F080091088114910471F7E8C0843611F089367C
:101F180041F5F80137FE07C06081718182819381A4
:101F28000C5F1F4F08C060817181072E000C880B61
:101F3800990B0E5F1F4FF32DFF763F2E97FF09C0B9
:101F480090958095709561957F4F8F4F9F4FF06862
:101F58003F2E2AE030E0A3010E946E2B882E8618BF
:101F680045C0853731F4232D2F7EB22E2AE030E08C
:101F780025C0932D997FB92E8F36C1F018F4883576
:101F880079F0B5C0803719F0883721F0B0C0E92F53
:101F9800E061BE2EB4FE0DC0FB2DF460BF2E09C05B
:101FA80034FE0AC0292F2660B22E06C028E030E091
:101FB80005C020E130E002C020E132E0F801B7FEC0
:101FC80007C060817181828193810C5F1F4F06C0B9
:101FD8006081718180E090E00E5F1F4FA3010E9435
:101FE8006E2B882E8618FB2DFF773F2E36FE0DC0F0
:101FF800232D2E7FA22E891458F434FE0BC032FCF8
:1020080009C0832D8E7EA82E05C0B82CA32C03C032
:10201800B82C01C0B92CA4FE0FC0FE01E80DF11DBB
:102028008081803321F49A2D997EA92E09C0A2FEC1
:1020380006C0B394B39404C08A2D867809F0B3948B
:10204800A3FC11C0A0FE06C0B21488F4280C922C80
:102058009B180EC0B21460F4B60180E290E00E94B2
:102068005238B394F7CFB21418F42B1802C0982C36
:10207800212CA4FE10C0B60180E390E00E945238E3
:10208800A2FE17C0A1FC03C088E790E002C088E563
:1020980090E0B6010CC08A2D867859F0A1FE02C0E6
:1020A8008BE201C080E2A7FC8DE2B60190E00E94BD
:1020B8005238891438F4B60180E390E00E9452380F
:1020C8009A94F7CF8A94F301E80DF11D8081B60147
:1020D80090E00E9452388110F5CF222009F442CEB8
:1020E800B60180E290E00E9452382A94F6CFF601B9
:1020F8008681978102C08FEF9FEF2B96E2E10C94C7
:02210800D446BB
:10210A00AF92BF92CF92DF92EF92FF920F931F93FB
:10211A00CF93DF93CDB7DEB72997CDBFDEBF7C0162
:10212A0010925E33198680915F3382FD08C08091D8
:10213A005F3383FD04C080915F3384FF05C0109232
:10214A005C33C7010E94714CF7018685978510910F
:10215A005C33892B11F4812F7FC1123051F0133077
:10216A0009F484C0113009F475C187E080935C33A7
:10217A0071C180915F3380FD70C0C0909C31D09056
:10218A009D3186EC92E30E9448485701F8E0AF0E71
:10219A00B11C41E050E0BE01675F7F4FC5010E945C
:1021AA003D419C019985892F807F803209F047C083
:1021BA00BE016F5F7F4F84E0FB0111928A95E9F7B8
:1021CA0041E050E0C5010E941F4041E050E0BE01DD
:1021DA006E5F7F4FC5010E941F4041E050E0BE0183
:1021EA006D5F7F4FC5010E941F4041E050E0BE0174
:1021FA006C5F7F4FC5010E941F408C81882311F0BC
:10220A0080E001C083E080935C338330B1F43C2DDD
:10221A002D2D2115310579F08091613380628093EB
:10222A0061330E9410510E94654AAB01BC018CEBDC
:10223A0092E30E94413A84E016C083E014C01093EE
:10224A005E3390935D332093263330932733109275
:10225A005C33C7010E94714CFDC010925C33C70108
:10226A000E94714C81E080935E33F4C08701085F5D
:10227A001F4F41E050E0BE01675F7F4FC8010E94D7
:10228A003D41898582958F70893081F138F4833098
:10229A0009F4B5C0843009F4B6C0DCC08B3009F447
:1022AA006EC08D3009F0D6C08091603384FFD2C0F1
:1022BA0080915F3382FDCEC082EB92E30E94484850
:1022CA0019821A8241E00E94F74F0E941F408091B2
:1022DA009C3190919D31892B29F0809161338062E4
:1022EA0080936133C8010E943F4EB4C0809160332D
:1022FA0082FFB0C080915F3383FDACC088EA92E36D
:10230A000E9448480E94025288E0FB0111928A9575
:10231A00E9F741E050E0C8010E941F400E94184FAF
:10232A000E941F4041E050E0BE016A5F7F4FC80132
:10233A000E941F4041E050E0BE01695F7F4FC80123
:10234A000E941F409F8180912032981711F0F12C32
:10235A0012C09E81809121329813F9CF41E050E05A
:10236A00BE01685F7F4FC8010E941F408885803880
:10237A0071F393E0F92E809160338B7F38C080919E
:10238A00603383FF67C080915F3384FD63C08EE949
:10239A0092E30E9448480E94025284E0FB01119293
:1023AA008A95E9F741E050E0C8010E941F400E9467
:1023BA00184F0E941F408A81823091F40E94114F67
:1023CA000E941F400E941F4F0E941F409C818091C3
:1023DA003C32981305C09B8180913D32981711F0C9
:1023EA00F12C02C083E0F82E80916033877F8093BE
:1023FA006033C8010E943F4EF0925C332BC0C70184
:10240A000E94391A27C0BE016F5F7F4FFB011192EC
:10241A008A95E9F741E050E0C8010E941F400E94F6
:10242A00184F0E941F400E941F4F0E941F400E9487
:10243A00114F0E941F409B818091143298130AC049
:10244A009C8180911532981305C0809160338F7DED
:10245A008093603380915C332996CDBFDEBFDF91D4
:10246A00CF911F910F91FF90EF90DF90CF90BF9087
:04247A00AF90089582
:10247E002F923F924F925F926F927F928F929F9286
:10248E00AF92BF92CF92DF92EF92FF920F931F9374
:10249E00CF93DF93CDB7DEB72897CDBFDEBF7C01DC
:1024AE006B014F8358872B833C83452B39F0892B47
:1024BE0029F0232B19F00115110531F41F9282EE2C
:1024CE008F9389E897E423C0CB0163E070E00E940C
:1024DE00844821E030E0892B11F420E030E0C60181
:1024EE0063E070E00E948448260F371F220F331FCF
:1024FE00220F331FD80113966C916623D1F0862FCD
:10250E00837079F01F9282EE8F9382E198E49F930D
:10251E008F930E94B5470F900F900F900F9082EE01
:10252E00ECC070E0C9010E948448660F771F260F29
:10253E00371F2F5F3F4FEB81FC8180819181821786
:10254E00930778F41F928DEE8F938DE498E49F930A
:10255E008F930E94B5470F900F900F900F908DEEB6
:10256E00CCC0AB81BC811D921C92212C312C612CD4
:10257E00712C812C912CEF81F885E60DF71D8C14B2
:10258E009D0408F0ABC0D80113966C916623D9F068
:10259E0081149104C1F070E0C301821993090E9465
:1025AE008448892B81F4BDE0B083F30131962F81ED
:1025BE003885E20FF31F32E0630E711C4AE0408350
:1025CE0052E0250E311C8F819885860D971D8983CB
:1025DE009A83D7018C91B801869586950E94BA434D
:1025EE00E981FA818083D7018C9183708295807FF7
:1025FE0093012F5F3F4FEF81F885E20FF31FED83BD
:10260E00FE832E5F3F4F2901A3014C5F5F4F5A019E
:10261E0094012F5F3F4F2C153D05F0F552E0650EEE
:10262E00711C11969C9192959F70B801892B0E94F6
:10263E00BA43AD81BE818C93F70181818F70880F73
:10264E00880F2F813885620E731E94012E5F3F4FC7
:10265E002C153D05C8F4928192959695969593709A
:10266E00B801892B0E94BA43D3018C933501AF80F8
:10267E00B884A40CB51CF7018281B8018F730E9437
:10268E00BA43D5018C931CC0B8010E94BA43F30122
:10269E0080833501D8010DC0B8010E94BA43ED8187
:1026AE00FE818083D8010E941252E981FA818283D1
:1026BE00350112968C91EF81F885E40DF51D80831E
:1026CE00F3E08F0E911C23E0E20EF11C54CF930128
:1026DE00215031098291811105C0390132E0631612
:1026EE007104A8F74F815885460D571DDA011C92CB
:1026FE00EB81FC816082718280E02896CDBFDEBFC7
:10270E00DF91CF911F910F91FF90EF90DF90CF90BF
:10271E00BF90AF909F908F907F906F905F904F90F3
:06272E003F902F9008957A
:10273400CF92DF92EF92FF92CF93DF93809109289B
:10274400982F957051F4E091FB31F091FC316EE4D7
:1027540072E388E592E309951AC083FD18C0E091FD
:102764000732F09108320995811111C0809109282E
:1027740081FD0DC040E157E260E070E088E592E33E
:102784000E94413A809109288860809309288091A9
:102794000E2881FD0BC0E0910732F09108320995B3
:1027A400882309F4D1C00E94BA52CEC00E94B75205
:1027B4000E942B4C0E941B4DC82F0E949B436B010F
:1027C4007C010E94994D672B682B692BF9F0E091ED
:1027D4000732F091083209958823C1F080910E28C0
:1027E400806880930E288091E4329091E532A09124
:1027F400E632B091E7320E948E5041F0C092E4324A
:10280400D092E532E092E632F092E732C23009F437
:102814009BC030F0C330E1F0C43009F091C094C0E3
:102824000E94154160910A2870910B2880910C2810
:1028340090910D28E091FD31F091FE3109958F3F83
:1028440009F47EC080910E28806180930E287CC09C
:10285400E0910932F0910A320995882331F0E09130
:10286400FF31F091003209956FC00E94B752EC011C
:102874000E948510873069F00E94C052823039F07E
:10288400843039F40E94994D0E94A24D02C00E94E6
:10289400C352CE010E942D0A0E94C0520E94B75218
:1028A400FC01C484D5840E94B752DC011896ED90D3
:1028B400FC9019970E94B752DC015096ED91FC915F
:1028C4005197808120E030E0A601B7010E94565262
:1028D4000E94763AE0910732F091083209958823F4
:1028E40099F180910E288F7E8B7F80930E2888E546
:1028F40092E30E9448488EE492E30E944848809103
:1029040009288B7F877F8093092884FF05C0E09185
:102914000132F091023209950E949B4361317E405D
:10292400810591058CF0E0910532F091063209950C
:10293400E889F98980810E9456520E94924404C019
:1029440080910E28846081CF64EF71E080E090E094
:0E295400DF91CF91FF90EF90DF90CF9008952C
:102962008F929F92AF92BF92CF92DF92EF92FF929D
:102972000F931F93CF93DF9300D0CDB7DEB7FC0147
:102982005B01892B09F4E4C0A081B181109709F49D
:10299200DFC082819381892B09F4DAC08481958119
:1029A200009709F4D5C0AD01480F591F9A01215073
:1029B2003109D9012C912D3731F001968483958309
:1029C2008DE7DA018C932481358160E070E0621733
:1029D200730759F0A081B181A60FB71F8C916F5F69
:1029E2007F4F8E32A1F76B0101C0690149018C183A
:1029F2009D08C401805C9F4F0E947F5063E070E09D
:102A02000E94844882819381821B930B6D5F7F4F6A
:102A12008617970710F484EE9CC07F0120813181D4
:102A2200B9016C0D7D1DA401820F931F0E9467499D
:102A3200F7012281338129833A830E942652AF0112
:102A42004C0D5D1DD7010E949C51B901681B790B89
:102A5200CB0108EE12E30E942A52B4018E0F9F1F8F
:102A62000E943F12811175C069817A816C0D7D1DB2
:102A7200D70114966D937C93159712964D915C91A4
:102A82001397CA01885591096817790708F0C3CFCF
:102A92008D919C9140525109480F591F0E94E33D6C
:102AA200811157C0F7016081718182819381AC01EC
:102AB20040545109460F571F8097680F791FC5016F
:102AC2000E94F536811145C0D7012D913C91119795
:102AD2000E949C51AC014F5F5F4F14964D935C93E3
:102AE2001597F901E80FF91F2EE2208312962D9116
:102AF2003C9113970E949D50C901841B950B8983B9
:102B02009A83ED91FC914E0F5F1FC9018054910988
:102B12009E012F5F3F4F60E470E08E0F9F1F0E9467
:102B22003F12F7012481358189819A81820F931F97
:102B320084839583228133818217930708F06BCFB8
:102B420020813181F901E80FF91F108280E001C074
:102B520082EE0F900F90DF91CF911F910F91FF9016
:102B6200EF90DF90CF90BF90AF909F908F9008959D
:102B7200E0917E338E2F90E08830910520F5FC01A4
:102B8200E85BFF4F809182330C945150817019C0E1
:102B92008695817016C082FB882780F912C083FB5C
:102BA200882780F90EC0829581700BC085FB88272B
:102BB20080F907C086FB882780F903C087FB882736
:102BC20080F980937A3380917A33811104C081E055
:102BD2008093660403C081E08093650480917E3314
:102BE200873018F010927E3303C08F5F80937E335C
:102BF200E0917B338E2F90E08830910520F5FC0127
:102C0200E05BFF4F80917F330C945150817019C06B
:102C12008695817016C082FB882780F912C083FBDB
:102C2200882780F90EC0829581700BC085FB8827AA
:102C320080F907C086FB882780F903C087FB8827B5
:102C420080F98093793380917933811104C088E0CF
:102C52008093660403C088E08093650480917B338F
:102C6200873018F010927B3303C08F5F80937B33E1
:102C7200E0917C338E2F90E08830910520F5FC01A5
:102C8200E85AFF4F809180330C945150817019C0E3
:102C92008695817016C082FB882780F912C083FB5B
:102CA200882780F90EC0829581700BC085FB88272A
:102CB20080F907C086FB882780F903C087FB882735
:102CC20080F98093783380917833811104C084E055
:102CD2008093660403C084E08093650480917C3312
:102CE200873018F010927C3303C08F5F80937C335F
:102CF200E0917D338E2F90E08830910520F5FC0124
:102D0200E05AFF4F809181330C945150817019C069
:102D12008695817016C082FB882780F912C083FBDA
:102D2200882780F90EC0829581700BC085FB8827A9
:102D320080F907C086FB882780F903C087FB8827B4
:102D420080F98093773380917733811104C082E0D8
:102D52008093660403C082E08093650480917D3392
:102D6200873018F010927D3303C08F5F80937D33DC
:0A2D72006AEF70E080E090E0089541
:102D7C000F931F93CF930E94C2450E94812C0E94F7
:102D8C00C04881EC91E30E945C5081EC91E30E947D
:102D9C00C9510E94BB4A811105C080910E288460E4
:102DAC0080930E2881EC91E30E9453348093522B34
:102DBC00882329F080910E28846080930E2881EC62
:102DCC0091E30E945C5081EC91E30E94814F00E200
:102DDC0017E426E130E080E090E0DC0140E050E0D8
:102DEC00BA01E6B3E0744E0F511D611D711DE6B3BF
:102DFC00E0728E0F911DA11DB11D01501109210909
:102E0C00310979F7403953426B40710508F04DC0D8
:102E1C0080399342AB40B10598F56FEE78E48DE7BD
:102E2C009AE20E94964F68EF78E48CE99AE20E944D
:102E3C00964F1F9282E08F9382E099E49F938F9339
:102E4C008FEC9AE29F938F930E94384385E50E9402
:102E5C00D85185E50E94D3518FEF0E94DD518FEF41
:102E6C000E94CE5180910E2888608F7D8064809363
:102E7C000E280F900F900F900F900F900F9028C06E
:102E8C0083E30E94D3518FEF0E94D8518FEF0E94A1
:102E9C00DD518FEF0E94CE5180910E28877F80628A
:102EAC008F7B80930E28C0E014C085E50E94D3511F
:102EBC008FEF0E94D8518FEF0E94DD518FEF0E944F
:102ECC00CE5180910E2888608F7D8F7B80930E2849
:102EDC00C1E06C2F84EC91E50E947444C13061F424
:102EEC0081EC91E30E94D74D44E650E060E070E045
:102EFC0080ED92E30E94413A0E94812C0E94A74EE1
:102F0C0081EC91E39F938F9385E099E49F938F934A
:102F1C008EEE9AE29F938F930E9438430F900F90FE
:102F2C000F900F900F900F9068E772E38EEE9AE27D
:0A2F3C00CF911F910F910C943448BF
:102F46002F923F924F925F926F927F928F929F92B3
:102F5600AF92BF92CF92DF92EF92FF920F931F93A1
:102F6600CF93DF93CDB7DEB72C97CDBFDEBF962FBD
:102F76009F779A8789870115110529F0F7013896F9
:102F8600EC0DFD1D02C0F9013896EB87FC87EB8539
:102F9600FC85ED33F64008F047C0360159016A0159
:102FA600962E882E0E94704881113EC02B853C8546
:102FB600C901A0E0B0E0DC019927882788299C0197
:102FC600AD0139292D833E834F8358870E9479515D
:102FD6000E94773B22E00E94A65268E70E948E522A
:102FE6000E94773B0E948D5148EE842E43E0942E3A
:102FF60009C085EF881681E0980620F40E946F517B
:103006000E94BC4691E0891A9108E0F0AE014B5F40
:103016005F4F68E70E948E520E94CD490E94D852A7
:10302600882321F00E9403478FEF56C08D8181FDD2
:10303600E0CFAE014F5F5F4F60E074E085E190E066
:103046000E94CD490E94D852811109C029803A8038
:103056004B805C80211431044104510421F40E9408
:1030660003478DEF39C028E030E0AE01475F5F4F80
:10307600C201B1010E94162798E0290E311C411C9D
:10308600511CC114D10431F09501A601C201B10150
:103096000E9416270115110551F0C201B101660DF6
:1030A600771D811D911D9701A8010E941627898110
:1030B6009A81AB81BC8122E00E944B50E9F79C01CA
:1030C600AD0122606CE60E948E520E94773B0E9400
:1030D60003470E94D85281952C96CDBFDEBFDF9163
:1030E600CF911F910F91FF90EF90DF90CF90BF90FF
:1030F600AF909F908F907F906F905F904F903F9092
:043106002F90089569
:10310A004F925F926F927F92BF92CF92DF92EF922D
:10311A00FF920F931F93CF93DF9300D000D0CDB7C8
:10312A00DEB7B82EF62E29013A0120E030E0A901D7
:10313A006CE070E0CB010E94773B20E030E0A9010F
:10314A000E9479510E94773B20E030E0A9010E9459
:10315A007E510E94773B0E945A4D0E94D2348823A6
:10316A0011F080E09CC00E94634D0E94D23481110C
:10317A00F8CF64E10E948E520E94D24297FFF9CFA3
:10318A006CEB77E082E090E00E94D24260FF0BC0D5
:10319A00BB20F9F02DE735ED4CE15CE30E947E514E
:1031AA000E94773B1FC000ED17E00150110980F320
:1031BA000E946F510E94BC466CE070E0CB010E94F5
:1031CA00D2426E39704D8D4A904179F7012B01F741
:1031DA00C8CFFF2039F090E8C92EDD24D394E12C22
:1031EA00F12C04C0C12CD12C7601D394A3019201F5
:1031FA000E9479510E94773B0E9429250E94B74C70
:10320A0010F06894C1F8A701960160EA74E180E0C1
:10321A0090E00E94773B0E94FA5160EA74E180E0F4
:10322A0090E00E94CD49811107C089819A81AB81C2
:10323A00BC810E948E5039F721E63FE242E55FEEFB
:10324A006CE070E0CB010E94773B01ED17E0015082
:10325A00110909F486CF62E00E94A2520E94BC467C
:10326A00B11013C00E9479510E94D242663376424D
:10327A008345924061F720E030E0A9010E9479512C
:10328A000E94773B0E9441460AC00E947E510E94DA
:10329A00D242633C714C8D45974DC9F681E0249624
:1032AA00CDBFDEBFDF91CF911F910F91FF90EF90BD
:1032BA00DF90CF90BF907F906F905F904F9008956E
:1032CA00CF93DF938B3109F490C0EB018C3120F45A
:1032DA00893009F494C0C5C08C3221F0823309F4D4
:1032EA006BC0BFC08881813099F58091583388239B
:1032FA0099F08AE892E30E9448481092583385E58B
:10330A000E94D35144EF51E060E070E080E892E31C
:10331A000E94413A0E946F4B80910E288A70883031
:10332A0051F485E50E94D85180910E288260877BEE
:10333A00806180930E2880910E2885FF06C08F7DBC
:10334A0080930E288FE00E94D3510E94D34825C053
:10335A00811123C08FEF0E94DD518FEF0E94CE5161
:10336A0080910E2886FD06C08FEF0E94D85185E510
:10337A000E94D35180910E288D7E886080930E28FA
:10338A0042E350E060E070E08CE692E30E94413A4A
:10339A0080910E28816080930E28E0911A33F09173
:1033AA001B33309709F45DC080910E2880FD59C007
:1033BA008881DF91CF91099481E896E40E945A4668
:1033CA0081114FC080910E2880FF09C08CE692E3DC
:1033DA000E94484880910E288E7F80930E28809103
:1033EA000E288B7F80930E283CC0FB01808191813F
:1033FA00892BB9F1CB01DF91CF910C94FC3CFB01F5
:10340A00ED59FF4F808181112CC0319780811F9225
:10341A008F9385E996E49F938F938FEC9AE29F931B
:10342A008F930E943843BE018DE79AE20E94964F1D
:10343A00BE016F5D7F4F8CE99AE20E94964F81E050
:10344A00809358330F900F900F900F900F900F901A
:10345A0040E050E0BA018AE892E3DF91CF910C9400
:08346A00413ADF91CF91089572
:103472002F923F924F925F926F927F928F929F9282
:10348200AF92BF92CF92DF92EF92FF920F931F9370
:10349200CF93DF93CDB7DEB7CE53D140CDBFDEBFE2
:1034A2008E01035D1E4F20E1D8011D922A95E9F796
:1034B200FE01E753FF4FC35C0E943A52CD53D14005
:1034C20024E611922A95E9F70E942A52390128EC42
:1034D200D3011D922A95E9F708967C0141E050E05C
:1034E200B8010E941F406801BFEFCB1ADB0A41E01E
:1034F20050E0B601C7010E941F404801E5E08E0E70
:10350200911CD6018D916D0187FF0AC0A815B905DE
:1035120039F041E050E0B601C7010E941F40F1CFEF
:10352200F801212C312C2101812C912C54018394FE
:10353200D180AD2DAF77B0E0A50194010E94F54B8B
:10354200260E371E481E591E87E0880C991CAA1C9D
:10355200BB1C8A95D1F7D7FE02C03196E9CF42E073
:1035620050E0B8016B5F7F4FC7010E941F4029ECFA
:1035720030E02C0F3D1FF8012783308745815681AB
:103582000E945252B901C7010E941F40D8010E94F5
:10359200A7500E945A524EEF5FEF6FEF7FEF481B2A
:1035A200590B61097109420D531D641D751D1C964D
:1035B2006D927C921D97B301C7010E941F400E9429
:1035C2001F51FC01892B51F0D8011C966D917C9101
:1035D2001D9717968D919C9118970995C7010E9486
:1035E2003F4E83E0C25CDE4FCDBFDEBFDF91CF91A5
:1035F2001F910F91FF90EF90DF90CF90BF90AF900F
:103602009F908F907F906F905F904F903F902F9000
:02361200089519
:10361400A8E0B0E0E0E1FBE10C947D468B01FC0105
:10362400608171818281938120E831E541E050E03D
:103634000E94164369017A012CE330E040E050E037
:103644000E941A4729833A834B835C8389819A8138
:10365400AB81BC81F80160836CE370E00E94984800
:10366400DC01CB01F801A1838283C601069667E0E1
:1036740070E00E94844884832DEA3EE840E050E0F4
:10368400C701B6010E941A4729833A836D837E835A
:103694008F83988789819A8124E6289F6001299FD6
:1036A400D00C11246D817E818F81988525EB35E0C6
:1036B40040E050E00E941A4729833A836D837E8359
:1036C400E980FA80EE0CFF1CEE0CFF1CEC0CFD1CD8
:1036D4008D819E81F5E6EF16F10410F0019604C089
:1036E40024E6E216F10419F021E030E002C020E003
:1036F40030E0A90144595E4F4817590768F46DE654
:1037040071E0821B930B0E949848DC01CB01E80E08
:10371400F91ECD0120E030E044E6E40EF11CF8018E
:10372400E682F78280879187255C3F4F8217930753
:1037340048F46FE170E00E949848DC01CB01F80185
:10374400858322C069E970E0821B930B0E9498482C
:10375400DC01CB01F82EFF0CFF0CF80E6DE370E0DA
:10376400CD010E949848DC01CB01E82EEE0C6FE1FC
:1037740070E0CD010E949848DC01CB0122E0280FC3
:10378400F20EFE0CF801F582A383F801128613866B
:0E37940083818F5F83832896E8E00C94DE46E5
:1037A200EF92FF921F93CF93DF93CDB7DEB72697A9
:1037B200CDBFDEBF1B821C821D821E826CEA74E4B6
:1037C2000E94EC5189839A839E012F5F3F4F7901BA
:1037D20010E0009771F0133061F0F701819391933B
:1037E2007F011F5F6CEA74E480E090E00E94EC517C
:1037F200F0CFE980FA80E114F104D9F02B813C8109
:103802008D819E812115310519F4009779F417C035
:10381200009761F4C9010E94AA529EEF980F92305C
:1038220008F443C0813059F012E01DC00E94AA5230
:10383200182F113021F0C8F11430A8F036C04EE133
:1038420050E0B7018DE79AE20E94744A6EEA74E48E
:103852008CE99AE20E94964F60EB74E48FEC9AE254
:103862000E94964F2BC04EE150E0B7018DE79AE2DD
:103872000E94744A6B817C814EE150E08CE99AE2AD
:103882000E94744A1F921F9382EB94E49F938F933A
:103892008FEC9AE29F938F930E9438430F900F9080
:1038A2000F900F900F900F9009C085EB94E49F93B7
:1038B2008F930E94B5470F900F9029C087EF94E431
:1038C2009F938F930E94B5470E946B500F900F9069
:1038D200882321F00E94B7520E94714C80910E28D9
:1038E20087FF07C08F7780930E280E94B7520E94ED
:1038F2008A380E949F4A8FEF0E94DD518FEF0E940B
:10390200CE518FEF0E94D85185E50E94D351269661
:10391200CDBFDEBFDF91CF911F91FF90EF90089551
:103922002F923F924F925F926F927F928F929F92CD
:10393200AF92BF92CF92DF92EF92FF920F931F93BB
:10394200CF93DF93CDB7DEB7A597CDBFDEBF19A268
:103952001AA2833010F082EE8CC0823019F46031EA
:103962007105C8F70115110511F480E082C0211517
:10397200310589F328012CA33DA35A011B01F82E1E
:10398200AE014F5D5F4F0E946B37811172C029A15A
:103992003AA1C8018A0D9B1D28173907E0F23501AB
:1039A20065E0769467946A95E1F720E22BA3C12C37
:1039B200D12C812C912C84149504B8F68BA18032E1
:1039C200C1F489A19AA1930155E0220F331F5A95A0
:1039D200E1F7821B930B809760F46401CA0CDB1C35
:1039E200D694C794D694C79497E0C922DD2424E0E4
:1039F2002BA3EBA00E9436522C2D462DB1018F2D08
:103A02000E94EE29811135C0C30123E0880F991F5E
:103A12002A95E1F78C0D9D1D0E947F508A159B050A
:103A220020F4B501681B790B02C060E070E02BA1A5
:103A3200822F90E0861B970B8201081919098017C3
:103A4200910708F48C010E94BD4EA8018CA19DA192
:103A5200880D991D0E94B44D800E911E9BA190323B
:103A620021F42FEF621A720AA6CF8FEFC81AD80A72
:103A7200A2CFA596CDBFDEBFDF91CF911F910F914F
:103A8200FF90EF90DF90CF90BF90AF909F908F907C
:0E3A92007F906F905F904F903F902F9008951F
:103AA0002F923F924F925F926F927F928F929F924E
:103AB000AF92BF92CF92DF92EF92FF920F931F933C
:103AC000CF93DF93EC018B0149015A018C819D81D9
:103AD000AE81BF8140E4C42ED12CE12CF12CC81A58
:103AE000D90AEA0AFB0A8C149D04AE04BF0410F440
:103AF000750164010896A601B8018C0F9D1F0E94F4
:103B0000B44D8C819D81AE81BF81880D991DAA1D08
:103B1000BB1D80349105A105B105B8F48C839D834C
:103B2000AE83BF83DF91CF911F910F91FF90EF90F4
:103B3000DF90CF90BF90AF909F908F907F906F90CD
:103B40005F904F903F902F9008951E0188E0280EBF
:103B5000311C21E030E040E050E0B101CE010E9494
:103B600088068C189D08AE08BF082401350186E040
:103B700076946794579447948A95D1F7B8016C0D61
:103B80007D1DA3019201CE010E948806D301C201CE
:103B90000196A11DB11D26E0880F991FAA1FBB1F0A
:103BA0002A95D1F7488159816A817B81840F951FBD
:103BB000A61FB71F88839983AA83BB83B501A4017D
:103BC0004F735527662777274C835D836E837F83EA
:103BD00036E0440C551C3A95E1F7C40CD51CC801DD
:103BE0008C0D9D1DBC01C101DF91CF911F910F91E3
:103BF000FF90EF90DF90CF90BF90AF909F908F900D
:103C00007F906F905F904F903F902F900C94B44DA9
:103C1000A0E0B0E0EEE0FEE10C947946EC01EE812C
:103C2000FF818F0104561109B9F0CF018556910922
:103C30006C0197FF03C023E0C20ED11CD594C7943A
:103C4000D594C7946CE97FEF0E949848C60ED71EA2
:103C50008FEFC81AD80A02C0C12CD12C2DE631E052
:103C6000D8010E94884F0D2C000CEE08FF08C60EEC
:103C7000D71EE81EF91E8B81082E000C990B8C01B3
:103C8000015011092D8122302CF4222379F1015E9B
:103C90001F4F2CC0CF018459984F0E94AC48282F49
:103CA00030E0255C3F4F200F311F8D81082E000C26
:103CB000990B02978530910514F027563F4F65E028
:103CC00070E00E949848AC0197FF02C04F5F5F4FC1
:103CD000559547959DE3949F8001959F100D112464
:103CE000020F131F80FF02C0015E1F4FC801110F9A
:103CF000AA0BBB0B9C01AD012C0D3D1D4E1D5F1D84
:103D000060E871E581E090E00E94DD494B015C01D3
:103D1000AA810A2E000CBB0B20E13EE00E94884FD6
:103D20006B017C01A9810A2E000CBB0B2CE330E057
:103D30000E94884FC60ED71EE81EF91E6881862F86
:103D4000660F990BAA0BBB0B8C0D9D1DAE1DBF1DE5
:103D5000BC01CD01680D791D8A1D9B1DCDB7DEB755
:063D6000ECE00C94DA46D1
:103D6600CF92DF92EF92FF92CF93DF930E94994D0D
:103D76006B017C010E946B50882309F474C020916A
:103D86000C3330910D3340910E3350910F33C701F0
:103D9600B6010E94075316161706180619060CF0E8
:103DA60062C0C0920C33D0920D33E0920E33F09283
:103DB6000F3381EC91E39F938F938FEB98E49F935E
:103DC6008F938BEF90E39F938F930E94384380915C
:103DD6000E280F900F900F900F900F900F9081FF6D
:103DE60042C00E94B044EC010E94DE52482FE92FE7
:103DF600CE01D7FF04C0882799278C1B9D0B24E68C
:103E060030E0B9010E9498489F938F93CE01B90183
:103E16000E9498487F936F93EF934F9383ED98E4B6
:103E26009F938F9383E89EE29F938F930E943843DC
:103E36002DB73EB7265F3F4F2DBF3EBF181619065A
:103E460094F4AC0163E87EE28BEF90E30E94665047
:103E560080917533882321F081508093753303C098
:103E660083E30E94DD5180910E2883FD10C081FFFF
:103E760003C080E00E94D35180910E2884FD07C0C4
:103E86000E946B50882319F080E00E94D8518091DF
:103E96000E2882FF02C080E001C08FEF0E94CE5143
:103EA60064E60E94A252DF91CF91FF90EF90DF90DF
:043EB600CF9008950C
:103EBA00AF92BF92CF92DF92EF92FF920F931F932E
:103ECA00CF93DF93CDB7DEB7EC97CDBFDEBFFA0154
:103EDA00309711F481EF84C00E949A5211F416822D
:103EEA00178222813381232BA9F324813581232B45
:103EFA0089F3E680F780408551858A0120E030E029
:103F0A000E0D1F1D211D311D053811052105310515
:103F1A0008F7A285B385A13091E0B907D8F66F01F9
:103F2A009B01E40EF51EECE0EE0EF11CEA0EFB1E00
:103F3A000E943252A70164E00E942929811150C0CF
:103F4A00A70160E070E0CE01C1960E948F4F81E028
:103F5A0089ABF6018485882311F081E889ABF601E3
:103F6A008585882319F089A9806489AB1AAAF60184
:103F7A0060817181CE01CD965C016115710551F0A8
:103F8A00068117810AAB1127A8010E94B44D0A0DB8
:103F9A001B1D01C08C01F601408551854BAB5CAB02
:103FAA0062817381C8010E94B44D8BA99CA9800FBC
:103FBA00911F9C012A193B092DAB3EABF6014285A4
:103FCA0053854FAB58AF648175810E94B44D80E32D
:103FDA00C82ED12C8E010F5C0E94754D0E94A3172A
:103FEA00EC96CDBFDEBFDF91CF911F910F91FF906D
:0C3FFA00EF90DF90CF90BF90AF90089543
:104006008F929F92AF92BF92DF92EF92FF920F93A1
:104016001F93CF93DF93F12C06EF19E4CDEFD4E491
:104026000E942D4F882309F480C00E942846E09103
:1040360056338D3019F08A3009F068C0F0E0EC5341
:10404600F04D108290915533911153C091E08A3012
:1040560029F4209154332D3009F490E080935433A1
:10406600992309F446C0F11044C060E270E084EC84
:104076009FE20E94004C7C01009719F0DC011D9222
:104086007D01E4ECFFE201900020E9F73197E45C62
:10409600FF42DE2E86EDA82E89E4B82EF50180803B
:1040A6009180B40184EC9FE20E94BD4DF401019021
:1040B6000020E9F73197E819F90981110CC0DE12E1
:1040C6000AC0D5011296ED91FC911397309719F01D
:1040D600C70109950CC0B4E0AB0EB11C0A151B054F
:1040E600E9F6DF93CF930E94B5470F900F90FF2418
:1040F600F39480915533882321F086EE95E40E944F
:104106002B3D10925633109255338ACFE43648F43D
:1041160091E09E0F90935633F0E0EC53F04D808380
:104126007FCF81E0809355337BCF0E946150DF9132
:10413600CF911F910F91FF90EF90DF90BF90AF90BE
:064146009F908F90089588
:10414C00CF93DF93FC018DE1AFE8B1E3ED01199260
:10415C008A95E9F780918F318F70806180938F31D0
:10416C0084E0809395319DE49093963191E5909302
:10417C00973194E5909398319093993180939A313B
:10418C006789708D6115710521F483899489892B58
:10419C0011F082EC01C082E080939B31858596857D
:1041AC000E945A5280939C3190939D31A189B2897F
:1041BC00A093A031B093A131ED0109900020E9F753
:1041CC0021979E012A1B3B0B20939E3130939F31EC
:1041DC0040919B3146FF0AC0818D928D8093A8310E
:1041EC009093A9316093A6317093A73147FF16C005
:1041FC00858996898093A4319093A53163897489BC
:10420C006093A2317093A3318091A6319091A73124
:10421C00860F971F0496820F931F01C0C9010C963D
:10422C008093AA319093AB31407CA1F08091A63160
:10423C009091A7310E945A528093A6319093A73146
:10424C008091A2319091A3310E945A528093A23155
:10425C009093A33132272327322720939E3130931A
:10426C009F3181E08093613380935C33DF91CF91F8
:02427C000895A3
:10427E000F931F93CF93DF930E940B3C40E054E0CB
:10428E0082EDFA01808320E234E0F901108280E4AD
:10429E0094E0FC011082C0E6D4E06FE06883A0E8F1
:1042AE00B4E01C9200EA14E079E1F801708370E842
:1042BE00FA017483F9011482FC0114826C83149642
:1042CE001C921497F8011482FA010E94244DF901F0
:1042DE000E94244DFC010E94244D188A198A1A8AC4
:1042EE001B8A1C8A1D8A1E8A1F8A50961C92509702
:1042FE0051961C92519752961C92529753961C921D
:10430E00539754961C92549755961C9255975696C1
:10431E001C92569757961C92F801108A118A8BE0C0
:10432E00828B138A148A88E0858B868B178AE0EE3F
:10433E00F5E01182108214821582138212828AE0B5
:10434E0093E580933633909337338BE093E58093E8
:10435E003433909335338CE093E5809332339093DE
:10436E0033338DE093E580933033909331338EE089
:10437E0093E580932E3390932F338FE093E58093C4
:10438E002C3390932D3389E093E580932A339093C9
:0C439E002B33DF91CF911F910F910895F8
:1043AA00CF92DF92EF92FF92CF93DF93CDB7DEB732
:1043BA00C057D109CDBFDEBF69017A01863029F124
:1043CA00873009F434C0813009F075C020E70E94B3
:1043DA005E4F0E94DF3781116EC0E0914633F09143
:1043EA004733309709F467C080E7C80ED11CE11C37
:1043FA00F11CC0920433D0920533E0920633F09256
:10440A0007330E94165281E055C00E94974E0E94BF
:10441A00DF37811150C0E0914633F091473330972E
:10442A0009F449C0BE016F5F7F4F86E043C028E0B0
:10443A000E945E4F0E94DF37882351F0E091463395
:10444A00F09147333097B9F16EE673E387E032C0F3
:10445A004D815E812F813885EB81FC8189819A812A
:10446A004115510519F461E060936E33420F531FF1
:10447A009C01332721303105C9F048F0223031053B
:10448A0099F060916E332330310531F00AC02091E2
:10449A006E33213059F408C0623041F0643021F49F
:1044AA0005C0623019F084E080936E33E417F50793
:1044BA0011F4C4CF0995C059DF4FCDBFDEBFDF91DC
:0C44CA00CF91FF90EF90DF90CF9008950D
:1044D600CF93DF93CDB7DEB72897CDBFDEBF0E945F
:1044E600494F882309F47CC0AE014B5F5F4F0E94A1
:1044F6006A510E94CD49882311F084EF76C00E944C
:10450600BA5180FFFACF9C01AD012E7F2D833E83E9
:104516004F8358870E946A510E94773B8111EDCFE5
:104526000E94BA5122E0B695A795979587952A9548
:10453600D1F79F708093443390934533892B09F4C8
:1045460051C04CEF52E30E94BF510E94CD498111E8
:10455600D4CF6091FC327091FD328091FE32909101
:10456600FF320E943F500E94DE2D8111C6CF6B8123
:104576007C818091443390914533861B970B059738
:1045860098F5E9818FEF8E0F873008F0B6CF8091CE
:10459600FC329091FD32A091FE32B091FF329C0127
:1045A600AD01285F3F4F4F4F5F4F685071090E9422
:1045B6000A52E251F34B0E9426528A81099581E004
:1045C6000E94894722E00E94A6520E946A510E94D8
:1045D600D23480E00E9489470E94D85281118DCF43
:1045E60080E003C08EEF01C08AEF2896CDBFDEBF04
:0645F600DF91CF91089552
:1045FC00CF92DF92EF920F93CF93DF93CDB7DEB7CD
:10460C006497CDBFDEBF6C01F9011F86188A898BB8
:10461C009A8B6B8B0C8BE11002C082E001C080E0A6
:10462C006132D8F04230E9F048F4413009F068C00A
:10463C00BE01615F7F4F0E94F44263C0433051F171
:10464C00443009F438C05CC0615048F09601260F24
:10465C00311DD9012C912111F7CF962FF5CF9B8BC2
:10466C00E1CF309709F44CC00E94A34FDF010D90AD
:10467C000020E9F70E949252A034B10519F4E983A5
:10468C00FA8303C0EB83FC83AD830E94574F0E94D7
:10469C002A2637C03097A1F19F012E5F3F4F298307
:1046AC003A83918191509B8390819C830E94574FB8
:1046BC000E946A3026C0309719F119821A82EB8356
:1046CC00FC839F012B5E3F4F2D833E831F821886F8
:1046DC00DF010D900020E9F70E949252A987BA875A
:1046EC00F90101900020E9F73197E21BF30BEB87FE
:1046FC00FC871D861E860E94574F0E945D1F01C0BD
:10470C0081EF6496CDBFDEBFDF91CF910F91EF901B
:06471C00DF90CF9008952C
:104722008F929F92AF92BF92CF92DF92EF92FF92BF
:104732000F931F93CF93DF93EC018B014C815D812B
:104742006E817F81C880D980EA80FB800E94D4502C
:10475200C882D982EA82FB8283E00E94DF4FE9F7B6
:104762000E949D4B2FE382220E94EE4C8C839D83FC
:10477200AE83BF83FE010E94874B8C0F9D1F0E9458
:104782008F4F8C819D81AE81BF810E94924BFE0131
:10479200E40FF51FF0860E94E74EFE01E40FF51FBD
:1047A200E0860E94E04EFE01E40FF51FD0860E94D3
:1047B200D94E4C835D836E837F830796A11DB11D05
:1047C200FE01E80FF91FC0869A01AB0196E05695EB
:1047D2004795379527959A95D1F7BE01685F7F4F28
:1047E200CE010E948806C801FE01E857FF4FC85556
:1047F200DF4F9C012C5F3F4FD90140814E930E94B5
:10480200A651452F562F672F772740835183628306
:104812007383A817B90789F73496C901EC17FD0706
:1048220041F7DF91CF911F910F91FF90EF90DF90B1
:0C483200CF90BF90AF909F908F900895A2
:10483E00AF92BF92CF92DF92EF92FF921F93CF93E0
:10484E00DF93CDB7DEB7CC56D109CDBFDEBF182F63
:10485E0069017A0188EAA82E80E3B82EF5018081DD
:10486E008E3399F181132DC0D50111962D913C9166
:10487E0012972115310539F4E0914833F0914933FF
:10488E00309759F422C0AE014F5F5F4FC701B6019A
:10489E000E94DF37811143C0EFCFD5010E948851AE
:1048AE00892B51F0113129F410926F338981809345
:1048BE0071330E94025202C060E070E0812F0995B0
:1048CE0004C0B3E0AB0EB11CC9CF103241F528E0E5
:1048DE0030E0AE014B595F4FC701B6010E94DF3782
:1048EE0081111DC0AB962EAD3FADAB97A7964EADC9
:1048FE005FADA797C701B601685F7F4F8F4F9F4F80
:10490E000E94DF3781110BC0E0914833F09149339B
:10491E00309729F0BE016B597F4F80E20995C4593B
:10492E00DF4FCDBFDEBFDF91CF911F91FF90EF9094
:0A493E00DF90CF90BF90AF90089576
:10494800EF92FF921F93CF93DF9300D000D0CDB7A3
:10495800DEB7029709F06EC0613009F51091733324
:1049680027E03BE087E0E82EF12C812F90E0389F8C
:10497800F001399FF00D1124E55BF04D0196B70168
:104988000E9498489085911103C08093733327C083
:104998002150182F51F7809373331FEF20C06230D6
:1049A80009F048C01091723324E08BE0189FF001A1
:1049B8001124E856F04D812F90E0019683709927D5
:1049C8003085311104C080937233195F06C02150BD
:1049D800182F59F7809372331FEF309761F18BE0EE
:1049E800DF011D928A95E9F781E080878091503335
:1049F800909151339C012F5F3F4F29F02093503302
:104A08003093513305C002968093503390935133BD
:104A180080915033909151338483958340FF0BC02C
:104A2800198381E281870E94455060E582E00E94F7
:104A38000A4801C01FEF812F2496CDBFDEBFDF914A
:0A4A4800CF911F91FF90EF900895A9
:104A5200CF92DF92EF92FF92CF93DF9300D000D0FC
:104A6200CDB7DEB7C0900033D0900133E09002336F
:104A7200F09003330E94655109F062C0AE014F5FAE
:104A82005F4F64EF73E180E090E00E94CD498111B5
:104A920057C040E053E360E00E948E520E94CD492D
:104AA20081114EC08091003390910133A091023365
:104AB200B0910333803A22E0920720E1A207B105C8
:104AC20041F40E949F4E41F181EA92E0A0E1B0E000
:104AD2001BC0803B9240A041B105F1F489819A81CB
:104AE200AB81BC8183309105A105B105A9F0049782
:104AF200A105B10529F481EB92E0A0E1B0E004C088
:104B020082EB92E0A0E1B0E0809300339093013316
:104B1200A0930233B0930333C0900033D09001339B
:104B2200E0900233F090033380EFE82225E0E22A9E
:104B3200C0920033D0920133E0920233F0920333F9
:104B4200C701B6012496CDBFDEBFDF91CF91FF90A2
:084B5200EF90DF90CF90089571
:104B5A00CF93DF93FC0180E1ABE0B2E3ED01199260
:104B6A008A95E9F780915C33833009F06AC09091A5
:104B7A000B329F70906390930B32808183FB88275E
:104B8A0080F980FB93F990930B3280818670997F2C
:104B9A00982B90930B32892F8E70883019F4977F57
:104BAA0090930B32908180910B3290FB80F9809325
:104BBA000B32878190858093123290931332A781AA
:104BCA00B085ED0109900020E9F72197CE018A1BF3
:104BDA009B0B80931032909311322081269523707B
:104BEA0061F021852093143222852093153222E028
:104BFA0030E02093193230931A3224853585209378
:104C0A001732309318324385409316322091193265
:104C1A0030911A322E5F3F4F240F311D280F391F52
:104C2A002093193230931A320E945A5280931032CA
:104C3A00909311328091613384608093613381E073
:0A4C4A0001C080E0DF91CF910895D2
:104C5400AF92BF92CF92DF92EF92FF920F931F9386
:104C6400CF93DF93CDB7DEB7CC59D109CDBFDEBF2B
:104C74004115510509F453C07A019B018E01035972
:104C84001F4F4CE650E062E00E942929182F811141
:104C940047C0CE0101965C018CE6F50111928A951C
:104CA400E9F7F70160817181828193816115710552
:104CB400B9F0892BA1F580E4898340E2CE01029604
:104CC4000E940042811111EF498150E0F701608197
:104CD4007181CE0102960E94B44D112371F020C05F
:104CE4000097E9F0F70144814134C8F4498350E066
:104CF400BC01CE0102960E94B44D80E3C82ED12C93
:104D04009CE6E92EF12C850120E330E0AE01435905
:104D14005F4F6BEB81E00E94A317182F01C011EFC6
:104D2400812FC456DF4FCDBFDEBFDF91CF911F91DE
:104D34000F91FF90EF90DF90CF90BF90AF900895C8
:104D4400AF92BF92CF92DF92EF92FF921F93CF93D5
:104D5400DF9300D0CDB7DEB77C016B01DB016D9131
:104D64007C91FC0182810E940431811151C0D601E1
:104D7400ED91FC911197A280B3800E94A2500E94F1
:104D8400EC46182F81113EC0F701418150E0B70174
:104D9400D6010E94A2500E94EB4F182F811132C0FD
:104DA400B50180E090E00E940B4AB6E0EB0EF11CE6
:104DB40080ECF70111928A95E9F780EC90E0898301
:104DC4009A83AE014F5F5F4FB701D6010E94A25094
:104DD4000E94F14F182F811115C089819A81843066
:104DE400910520F4892B69F417EE0CC0C7010E94C9
:104DF4003D3E182F811106C0C7010E94EF3E182FB7
:104E040001C016EEF601828193810E94FE4A812F31
:104E14000F900F90DF91CF911F91FF90EF90DF9053
:084E2400CF90BF90AF900895FC
:104E2C009F92AF92BF92CF92DF92EF92FF920F932D
:104E3C001F93CF93DF93CDB7DEB72897CDBFDEBFDF
:104E4C005A018901FE01319697E0DF011D929A9576
:104E5C00E9F797EC998390916A33992319F0DD2443
:104E6C00D39442C091E090936A332130310511F410
:104E7C0002E010E08A837B836C831E830F8367E0E0
:104E8C00CF010E94F547D82E8111E9CF81EF888799
:104E9C0093EFC92E22EF922E01151105F1F0780136
:104EAC000130B0E21B0718F0E12C80E2F82E0E194D
:104EBC001F0909F4C88661E070E0CE0108960E94D3
:104ECC00D133882361F2B701C5010E94D133882305
:104EDC0031F29886AE0CBF1CDFCF83EC0E946A3E89
:104EEC008111BDCF10926A338D2D2896CDBFDEBFB8
:104EFC00DF91CF911F910F91FF90EF90DF90CF90AA
:084F0C00BF90AF909F90089543
:104F1400CF92DF92EF92FF920F931F93CF93DF9381
:104F2400EC01CE80DF80E884F98400912233109173
:104F340023331C821D828091F4329091F532A0912A
:104F4400F632B091F7320E948E5068F40E94FA381B
:104F54002FEFE21AF20AC61AD70AE80AF90ACE8231
:104F6400DF82E886F986E0E0F0E081E001151105D2
:104F740041F0D80116960E94C55019970E9401511C
:104F840018F4813009F505C080E0F8010481158129
:104F9400EDCF6FEF7FEF80E090E00E94873D0E94AD
:104FA4000950E0912233F0912333B2E3E439FB0753
:104FB40019F40480F581E02DEC83FD83C093223342
:104FC400D093233381E007C0848195818C839D83B2
:104FD400C483D58380E0DF91CF911F910F91FF901F
:084FE400EF90DF90CF900895DB
:104FEC00CF92DF92EF92FF920F931F93CF93DF93A9
:104FFC00CDB7DEB76097CDBFDEBF0E94845009F4F9
:10500C004CC06B017C0182E090E089839A838BEB2E
:10501C0091E00E94C6528B839C83CD82DE82EF820C
:10502C00F8860E94B7528C010E942B4C0E941B4D9B
:10503C00811118C0F801E088F18841E050E061E08E
:10504C0070E082E090E00E945A43D7018C930E945A
:10505C00B64E87FD07C00E948D41009719F021E0E4
:10506C00FC012483D8010E94DC4C0E941B4D813032
:10507C00A1F40E94B64E40E150E0BE016F5F7F4F3D
:10508C000E9456520E94272CF82E882339F0D80102
:10509C000E94DC4C0E94924401C0F12C8F2D609632
:1050AC00CDBFDEBFDF91CF911F910F91FF90EF909D
:0650BC00DF90CF90089583
:1050C2008F929F92AF92BF92CF92DF92EF92FF9216
:1050D2000F931F93CF93DF93CDB7DEB72697CDBF44
:1050E200DEBF5C014B0169017A010E94BB4A81115A
:1050F20002C091E038C0A114B104A1F1811491045D
:1051020089F1A401B501CE0101960E94862E81117A
:10511200F0CFA701960164E376E4CE0101960E94E6
:10512200502A8111E6CFA7019601205F314F4F4FE0
:105132005F4F68E376E4CE0101960E94502A811106
:10514200D8CFA8016CE376E4CE0101960E94CC2B65
:105152008111CFCF60E00E940E520E94B11491E003
:10516200811101C090E0892F2696CDBFDEBFDF916D
:10517200CF911F910F91FF90EF90DF90CF90BF9052
:08518200AF909F908F900895FB
:10518A00CF92DF92EF92FF920F931F93CF93DF9309
:10519A00CDB7DEB76497CDBFDEBF0E94994D6B01D4
:1051AA007C01672B682B692B09F43DC00E94E251F0
:1051BA000E9489500E942E52C8010E9453341F93A4
:1051CA000F9383EE96E49F938F930FE51AE21F9352
:1051DA000F930E9438431F930F9381E19AE49F93A0
:1051EA008F9389E19AE49F938F9385E29AE49F9340
:1051FA008F9387EE96E49F938F938FE298E29F9323
:10520A008F930E94384305E21AE4A701960168ECDD
:10521A0071E083E998E20E9461280E94E2510E94AB
:10522A000C3ACDBFDEBF809109288061809309289E
:10523A006496CDBFDEBFDF91CF911F910F91FF9092
:08524A00EF90DF90CF90089572
:105252000F931F93CF93DF93F901D801445D5F4F02
:10526200309709F450C022813381232B09F44BC0BB
:105272009481913208F047C0109709F442C090E33C
:10528200E80119929A95E9F74D935C931197813051
:1052920049F070F08230B9F50E9412528260129683
:1052A2008C9312970E941252816012968C931297DD
:1052B20085818F3F19F081508E3028F513968C939B
:1052C20013978FEF860F8430F0F4ED018F016CA7F6
:1052D20084818C83448150E062817381CD01059683
:1052E2000E94B44DF8010E94065279F081E08DA32C
:1052F200DE0196960E94265286E00E942252E9F72B
:1053020004C084EF03C081EF01C080E0DF91CF9140
:065312001F910F910895A8
:10531800EF92FF920F931F93CF93DF93CDB7DEB732
:10532800C258D109CDBFDEBFF82EE92E80E890E043
:10533800CF57DF4F88839983C158D04085ED90E3DC
:105348000E94E631882311F081E039C08BE1E6EF55
:10535800F9E4DE0196960E942252E9F7BE016F5BDE
:105368007F4F80E090E00E94C44E8111EDCF9E01F6
:105378002F573F4F0E943252A8016BE570E0CE01D3
:1053880086960E94E54C8111DFCFCF57DF4FE88129
:10539800F981C158D040E00FF11F10821F930F937D
:1053A80080E496E49F938F93EF92FF920E94384394
:1053B8000F900F900F900F900F900F9080E0CE57A6
:1053C800DF4FCDBFDEBFDF91CF911F910F91FF90CF
:0453D800EF900895B5
:1053DC00AF92BF92CF92DF92EF92FF920F931F93F7
:1053EC00CF93DF93CDB7DEB7C95CD109CDBFDEBF9C
:1053FC00F82E6801012B09F43DC084E0E81619F081
:10540C0080E2E81237C0E0911E33F0911F33A08088
:10541C00B1808E0108531F4F8F2D0E94973E811132
:10542C002AC080E2E81203C08F2D8068F82EFC821F
:10543C00C853DF4F88819981C85CD0408D839E838F
:10544C000E94BB500E94174E811115C060911E33F3
:10545C0070911F33CE0101960E94A22681110BC0C0
:10546C004E2D50E0BE01685F7F4FC6010E94B44DC7
:10547C0080E001C082EEC753DF4FCDBFDEBFDF91AE
:10548C00CF911F910F91FF90EF90DF90CF90BF9035
:04549C00AF90089530
:1054A000AF92BF92CF92DF92EF92FF920F931F9332
:1054B000CF93DF93EC01892B09F445C08881998152
:1054C000892B09F440C08A819B81892B09F43BC058
:1054D0006115710509F437C0A52EB42EC32ED22E46
:1054E0007B01CE010E9449400E94FF4DAF92BF92C6
:1054F000CF92DF92FF92EF9226E938E43F932F9309
:105500001F930F9328813981820F931F9F938F934D
:105510000E949D3C6C01092E000CEE08FF082DB77F
:105520003EB7245F3F4F2DBF3EBF1C141D041E0419
:105530001F045CF4A80160E070E00E9401512CF4AB
:105540000E94F74D03C082EE01C081EEDF91CF9142
:105550001F910F91FF90EF90DF90CF90BF90AF9091
:025560000895AC
:1055620010920A2810920B2810920C2810920D28E3
:1055720080910E288D7F886080930E288091092863
:10558200877F8B7F809309280E94113B61E97AE42F
:1055920080E19BE20E947E4D0E9415418AE0EFE08D
:1055A200F8E2DF011D928A95E9F7CF010E942451AA
:1055B2000E94B752FC018089918980930F289093B1
:1055C200102883EE92E580931128909312288091FF
:1055D2007D2A882329F081E09091CF2A911101C080
:1055E20080E00E94B042882391F08EE492E30E9410
:1055F200484840E157E260E070E088E592E30E94AB
:10560200413A809109288D7F8860816003C0809132
:0E56120009288E7F809309280E94F651089582
:10562000EF92FF920F931F93CF93DF93E82EF62E06
:10563000EA010E948D418C01892B09F448C086E063
:10564000F81641F18F1520F0A5E0FA1641F03FC0A1
:10565000B7E0FB16C9F1E9E0FE1659F038C0209713
:10566000B1F1898187FD0BC083E0D80114968C933A
:105670002EC0209761F1888199810097D1F48E2DF9
:10568000EE0C990BDF91CF911F910F91FF90EF904E
:105690000C9492442097D9F06A817B8116161706E4
:1056A00074F7D8011296ED91FC9113978881998136
:1056B0000AC06A817B816115710509F3D8011296D0
:1056C000ED91FC911397099583E0F8018483DF91B4
:0C56D000CF911F910F91FF90EF90089573
:1056DC00FA01AA27283051F1203181F1E8946F9317
:1056EC006E7F6E5F7F4F8F4F9F4FAF4FB1E03ED0BD
:1056FC00B4E03CD0670F781F891F9A1FA11D680F5B
:10570C00791F8A1F911DA11D6A0F711D811D911D8D
:10571C00A11D20D009F468943F912AE0269F112402
:10572C003019305D3193DEF6CF010895462F477066
:10573C00405D4193B3E00FD0C9F7F6CF462F4F70C1
:10574C00405D4A3318F0495D31FD4052419302D01F
:10575C00A9F7EACFB4E0A6959795879577956795C5
:10576C00BA95C9F700976105710508959B01AC01C5
:10577C000A2E06945795479537952795BA95C9F7EC
:0C578C00620F731F841F951FA01D08955D
:10579800CF92DF92EF92FF920F931F93CF93DF93F5
:1057A800EC01892B09F443C088819981892B09F47C
:1057B8003EC08A819B81892B09F439C06115710526
:1057C80009F435C04115510591F16A017B01CE01FB
:1057D8000E9449400E94FF4DDF92CF92FF92EF92C4
:1057E8002CE838E43F932F931F930F932881398136
:1057F800820F931F9F938F930E949D3C6C01092EEB
:10580800000CEE08FF082DB73EB7265F3F4F2DBFAF
:105818003EBF1C141D041E041F045CF4A80160E0B4
:1058280070E00E9401512CF40E94F74D03C082EEF3
:1058380001C081EEDF91CF911F910F91FF90EF9002
:06584800DF90CF900895EF
:10584E00AF92BF92CF92DF92EF92FF920F931F9380
:10585E00CF93DF93CDB7DEB76097CDBFDEBF8C01A0
:10586E005B016A010E948D417C01892B99F1F50142
:10587E008191919189839A832EE0DE0113960E9485
:10588E001A52E9F78230910511F589839A834C2DCE
:10589E000E940252802F0E949F39882391F0873FE9
:1058AE0071F08A3FB9F417FF02C086E211C0AB282F
:1058BE0011F481E30DC0CD28C1F786E109C085E062
:1058CE0007C082E0F701848380E090E005C08FE29C
:1058DE00809362338FEF9FEF6096CDBFDEBFDF9177
:1058EE00CF911F910F91FF90EF90DF90CF90BF90CF
:0458FE00AF900895CA
:10590200E6E6F4E038E030832FE946E851E0215042
:1059120040405040E1F700C0000024E020836FE9DE
:1059220086E891E0615080409040E1F700C00000BD
:1059320092E090834FE956E861E041505040604068
:10594200E1F700C0000081E080834FE956E861E0A2
:10595200415050406040E1F700C00000E5E6F4E04D
:1059620030833FE946E851E0315040405040E1F792
:1059720000C0000020836FE926E831E0615020403A
:105982003040E1F700C0000090834FE956E861E043
:10599200415050406040E1F700C0000080838FE931
:1059A20096E821E0815090402040E1F700C00000DD
:0259B200089556
:1059B400A4E0B0E0E0EEFCE20C947D468C010E9491
:1059C400081E69837A838B839C83F801828593857F
:1059D40097FF0EC0E091612BF091622B309741F05C
:1059E4006DE57BE2CE0101960995F80182879387E4
:1059F400F801828593851816190694F4092E000C73
:105A0400AA0BBB0B49815A816B817C816A017B01A2
:105A1400C81AD90AEA0AFB0AC982DA82EB82FC8232
:105A240089819A81AB81BC8140915D2B50915E2B21
:105A340060915F2B7091602B841B950BA60BB70BA9
:105A440089839A83AB83BC83B801CE0101960E94FB
:105A54008F3369817A818B819C812496E8E00C9450
:025A6400DE461C
:105A6600CF92DF92EF92FF920F931F93CF93DF9324
