:100000000C94F1010C94CE520C944A4A0C94F136A3
:100010000C940F3F0C94CE520C94CE520C94CE52B2
:100020000C94CE520C94CE520C94CE520C94CE52D0
:100030000C94CE520C94CE520C94CE520C94CE52C0
:100040000C94CE520C94CE520C94CE520C94CE52B0
:100050000C94CE520C94CE520C942C4A0C943B3FF0
:100060000C94CE520C94CE520C94CE520C94CE5290
:100070000C94CE520C94862D0C94CE520C948F403E
:100080000C94B8400C94D4470C94CE520C94CE529D
:10009000C515C715CA15CE15D215D515D915DD1537
:1000A000051607160A160E161216151619161D161F
:1000B000451647164A164E165216551659165D160F
:1000C000851687168A168E169216951699169D16FF
:1000D00033543355803318331A803244324E00A6DD
:1000E000F4335533568033563357802FC43028802D
:1000F00030D530FB00A629280028098032E432E8F8
:1001000000A794335733588031FB320B00A6D63208
:100110004E325800A6FE3258326200A708326232D0
:100120006C00A712280928198031AC31C100A699AA
:10013000331A331C803358335980326C327600A71F
:100140001C3276328000A7263280328A00A73032F5
:100150008A329400A73A2819282F80331C331E8036
:10016000282F28938028932A7D802A7D2AD18033C6
:100170001E3320802AD12AEC8032E832EC00A79886
:1001800032EC32F000A79C3359335A80335A335B38
:100190008032F032F48032F432F8803294329E00B1
:1001A000A744332033228033223324803324332660
:1001B00080335B335C000D0B2B632CF3802CF32E10
:1001C000838031E931FB80329E32A800A74E32A8ED
:1001D00032B200A75832B232BC00A76232BC32C67B
:1001E00000A76C32C632D000A776335C335D803313
:1001F00026332880335D335E80335E335F80335F28
:100200003360803237324480321B322980320B32E5
:100210001B80318F31AC8033603361803361336256
:10022000802AEC2AEE803328332A803362336380BD
:10023000332A332C80332C332E80332E33308033CB
:100240003033328033323334803334333680333694
:10025000333880336333648032F832FC00A7A03334
:1002600038333A80333A333C80333C333E80314735
:10027000316B00A675316B318F80333E3340803354
:1002800040334200A7A43342334400A7A63364336B
:100290006580336533668033663367803028306825
:1002A00080336733688033683369803369336A80A9
:1002B000306830A8803229323700A6E6336A336BC3
:1002C00000A7A8336B336C80336C336D80334433B9
:1002D000468032FC330080336D336E80330033044C
:1002E00080336E336F00A7A933043308803346335D
:1002F000488030A830D500A5FC336F337080334878
:10030000334A803370337180337133728033723388
:10031000738033733374803308330C80334A334C27
:10032000803374337580334C334E80334E3350807A
:1003300033503352802F4B2FC4802E832F4B80306D
:10034000FB312180330C33108032D032DA00A780A9
:10035000337533768031C131D500A6AE2AEE2B53EA
:100360008031D531E900A6C23376337780337733D5
:100370007800A7AA3378337900A7AB3379337A00B2
:10038000A7AC337A337B00A7AD32DA32E400A78A18
:10039000337B337C80337C337D80337D337E80338D
:1003A0007E337F80337F338080338033818033811D
:1003B0003382803382338380331033148033143399
:1003C00018803121314700A64F33523354802B53CC
:1003D0002B59802B592B5D802B5D2B61802B612B42
:1003E000638011241FBECFEFCDBFDFE3DEBFE0EDA2
:1003F000F0E043E017C0B591A591359125910591A5
:1004000007FD0CC095918591EF01F92FE82F05901C
:100410000D92A217B307D9F7FE0104C01D92A217CF
:10042000B307E1F7E23EF40731F70E94D4510C9490
:060430001902F894FFCF51
:100436004F4B0D00646562756720706172616D6572
:10044600746572206D7573742062652062657477B9
:1004560065656E203020284C656173742920616EB5
:1004660064203420284D6F737429200D00312E32FC
:100476002E31007625730D0A0400332E30002573C5
:100486000D0A0400556E6B6E6F776E2E0D0A040012
:100496004572726F722067657474696E67206B654A
:1004A600792E0D0A04002C00000031002564004559
:1004B60072726F722E2057692D466920636F6D6DBB
:1004C600616E6420666F726D61742069732077694E
:1004D6006669203C737369643E5B2C3C7061737380
:1004E6003E2C5B61757468547970655D5D0D0A0418
:1004F600004F4B0D0A04002D2D2D2D2D2D2D2D2DAC
:100506002D2D2D2D2D2D2D2D2D2D2D2D2D2D2D2D15
:100516002D2D2D2D2D2D2D2D2D2D2D2D2D2D2D2D05
:100526002D2D2D0D0A556E6B6E6F776E20636F6DD8
:100536006D616E642E204C697374206F662061763F
:1005460061696C61626C6520636F6D6D616E647369
:100556003A0D0A72657365740D0A6465766963659A
:100566000D0A6B65790D0A7265636F6E6E6563744D
:100576000D0A76657273696F6E0D0A636C695F7634
:10058600657273696F6E0D0A77696669203C7373CD
:1005960069643E5B2C3C706173733E2C5B617574C1
:1005A60068547970655D5D0D0A64656275670D0A4C
:1005B6002D2D2D2D2D2D2D2D2D2D2D2D2D2D2D2D65
:1005C6002D2D2D2D2D2D2D2D2D2D2D2D2D2D2D2D55
:1005D6002D2D2D2D2D2D2D2D2D2D2D2D0D0A0400DE
:1005E6000D0A436F6D6D616E6420746F6F206C6FC2
:1005F6006E670D007265736574007265636F6E6E6B
:100606006563740077696669006B65790064657671
:1006160069636500636C695F76657273696F6E0006
:1006260076657273696F6E006465627567006961ED
:10063600740065787000617564002D2D2D2D2D4296
:100646004547494E205055424C4943204B45592D6C
:100656002D2D2D2D0D0A25730D0A2D2D2D2D2D45F4
:100666004E44205055424C4943204B45592D2D2D83
:100676002D2D0D0A040025303258006D7174742E2C
:10068600676F6F676C65617069732E636F6D0025A8
:1006960064002A2E706F6F6C2E6E74702E6F7267E8
:1006A600004D4348502E494F542E41434345535322
:1006B600504F494E540000000000000000000000AA
:1006C6000000313233343536373839300000000017
:1006D6000000000000000000000000000064257318
:1006E6000070726F6A656374732F25732F6C6F6366
:1006F6006174696F6E732F25732F726567697374E2
:10070600726965732F25732F646576696365732F28
:100716002573003A2042617365363420636861723E
:100726007320616674657220656E6420706164640E
:10073600696E67202D2D205374617475733A2025D8
:100746003032580D0A003A206465636F6465642090
:1007560062756666657220746F6F20736D616C6C6E
:10076600202D2D205374617475733A20253032582C
:100776000D0A0025303258200025303258000D0071
:100786002573003A204E756C6C20696E7075742066
:10079600706172616D65746572202D2D20537461D0
:1007A6007475733A20253032580D0A003A20496E86
:1007B60076616C69642062617365363420636861B2
:1007C600726163746572202D2D2053746174757384
:1007D6003A20253032580D0A003A20496E76616C6F
:1007E6006964206E756D626572206F662062617342
:1007F600653634206368617273202D2D2053746131
:100806007475733A20253032580D0A003A206E6509
:10081600776C696E652072756C65735B335D206DF0
:10082600757374206265206D756C7469706C6520D3
:100836006F662034202D2D205374617475733A2011
:10084600253032580D0A003A204C656E67746820D0
:100856006F6620656E636F646564206275666665A3
:100866007220746F6F20736D616C6C202D2D205378
:1008760074617475733A20253032580D0A000411DC
:1008860033430407C440222573223A2225732200EB
:10089600222573223A256C640022746F67676C65A3
:1008A600223A00746F7069633A202573007061798B
:1008B6006C6F61643A202573002F64657669636501
:1008C600732F6425732F6576656E7473007B224CD7
:1008D60069676874223A25642C2254656D70223A41
:1008E60025642E253032647D004D4348502E494FF5
:1008F60054006D6963726F63686970002564002F28
:10090600646576696365732F6425732F636F6E66FE
:1009160069670025730420257320257320001B5B5F
:10092600306D0D001B5B33376D4E4F524D414C1BE6
:100936005B33376D001B5B33326D2020474F4F44CE
:100946001B5B33376D001B5B33316D20202042412A
:10095600441B5B33376D001B5B33316D1B5B376D9F
:10096600204552524F521B5B32376D1B5B33376D3E
:10097600001B5B33376D2020204E4F4E451B5B33EB
:10098600376D001B5B33336D5741524E494E471B43
:100996005B33376D001B5B33346D204E4F54494338
:1009A600451B5B33376D001B5B33356D20202049BB
:1009B6004E464F1B5B33376D001B5B33316D20207A
:1009C60044454255471B5B32376D1B5B33376D0021
:1009D600FA45CB4A004625470A46CF1B0F46CF416C
:1009E6001346DF441A46F0492646E1492E46774A21
:1009F6003059301306072A8648CE3D020106082ADA
:100A06008648CE3D030107034200044156522D4954
:100A16004F540075732D63656E7472616C3100619D
:100A260076722D696F7400982F8A4291443771CF80
:100A3600FBC0B5A5DBB5E95BC25639F111F159A486
:100A4600823F92D55E1CAB98AA07D8015B8312BE83
:100A5600853124C37D0C55745DBE72FEB1DE80A760
:100A660006DC9B74F19BC1C1699BE48647BEEFC659
:100A76009DC10FCCA10C246F2CE92DAA84744ADCED
:100A8600A9B05CDA88F97652513E986DC631A8C88D
:100A96002703B0C77F59BFF30BE0C64791A7D551CF
:100AA60063CA0667292914850AB72738211B2EFC35
:100AB6006D2C4D130D385354730A65BB0A6A762E96
:100AC600C9C281852C7292A1E8BFA24B661AA87092
:100AD6008B4BC2A3516CC719E892D1240699D685CF
:100AE600350EF470A06A1016C1A419086C371E4C96
:100AF600774827B5BCB034B30C1C394AAAD84E4F38
:100B0600CA9C5BF36F2E68EE828F746F63A57814B0
:100B160078C8840802C78CFAFFBE90EB6C50A4F725
:100B2600A3F9BEF27871C667E6096A85AE67BB723D
:100B3600F36E3C3AF54FA57F520E518C68059BAB80
:100B4600D9831F19CDE05B7B22616C67223A22456F
:100B560053323536222C22747970223A224A57545F
:100B6600227D00511B002828002419001C32004356
:100B76001302152300408D0230050056A5001723E9
:100B8600000837001614004632001B170002050045
:100B960080E001771409474B00419902200A00457D
:100BA6003D04122D00511B002828002419001C3278
:100BB6000043AC0015230040D70030050056A500C1
:100BC6001723000837001614004632001B170002D0
:100BD600050080A000777102472A0041DC00200A48
:100BE60000452701122D00511B002828002419005A
:100BF6001C3200434B0015190040730030050056A7
:100C0600A5001723000837001614004632001B17EC
:100C16000002050080500077FA0047240041730067
:100C2600200A00456900122D00280D002414001C1E
:100C36003200433A00150B004073001117003002D2
:100C460000172000080E00161D00010300463000A4
:100C56001B1700020500470900413C00200A004519
:100C66004800121A00280D002414001C3200150B2F
:100C760000407300111700300200172000080E0014
:100C8600161D000103004630001B17000205004731
:100C96000900413C00200A00454800121A00282697
:100CA600001C3E00152B00114500300200171800ED
:100CB600082300163C000102001B32000205004713
:100CC6001600200C00122A00B6529E52214D1349DE
:100CD60025493749B952BC5200000000C900E82432
:100CE600000000525C1D247D0CFD52FD52D321FDF7
:100CF60052FD522A493B494C495D49774989499BEE
:050D060049AD49BF49A1
:010D0B00FFE8
:100D0C002F923F924F925F926F927F928F929F920F
:100D1C00AF92BF92CF92DF92EF92FF920F931F93FD
:100D2C00CF93DF93CDB7DEB7C455D140CDBFDEBF77
:100D3C00C55BDE4F88839983CB54D140C15B0E9445
:100D4C0033524A835B83CF54D140CB5CDE4F6883F4
:100D5C00C553D140CA5CDE4F7883C653D140CF5BBC
:100D6C00DE4F188219821A821B82C154D1409E0117
:100D7C002F5B3F4FCF5D0E943352C152D140AE0129
:100D8C004F535F4FCD5DDE4F48835983C352D140E3
:100D9C0088559F4FC35BDE4F88839983CD54D140D8
:100DAC00CF5BDE4F688179818A819B81C154D140B0
:100DBC00C15BDE4F488059806A807B80CF54D14024
:100DCC00641575058605970509F428C30E94EF5133
:100DDC00C95CDE4F68837983C753D140FB01CB5C80
:100DEC00DE4FA881B981C553D1408C918383119674
:100DFC008C91119782830E94FF51818313968C9161
:100E0C001397808314963496CF5DDE4F8881998139
:100E1C00C152D140E817F90741F7C95CDE4F288071
:100E2C003980C753D1403101D10114960E94B7507B
:100E3C001797D8960E949C4FE4E02E0E311C6A0145
:100E4C007B0117E00E94CB501A95E1F78A019B01B8
:100E5C00E9E1000F111F221F331FEA95D1F7C02AB9
:100E6C00D12AE22AF32A4A015B01FEE0880C991C84
:100E7C00AA1CBB1CFA95D1F78A019B01E2E13695BD
:100E8C00279517950795EA95D1F7082919292A2945
:100E9C003B290C251D252E253F256A017B01F3E0FE
:100EAC000E94D24FE9F70C251D252E253F25F30175
:100EBC00C080D180E280F380F10140A151A162A1F8
:100ECC0073A10E94C650C00ED11EE21EF31E8C01EF
:100EDC009D014FE0000F111F221F331F4A95D1F7C0
:100EEC00AC01BD01E1E17695679557954795EA957B
:100EFC00D1F7042B152B262B372BAC01BD01FDE0B4
:100F0C00440F551F661F771FFA95D1F72C013D0131
:100F1C00E3E10E94A84FE9F7442A552A662A772A6A
:100F2C004026512662267326FAE00E94A24FE9F76A
:100F3C00482659266A267B264C0C5D1C6E1C7F1C91
:100F4C00D101DC964D925D926D927C92DF97CD5DD6
:100F5C00DE4FE881F981C352D1402E163F0609F0CD
:100F6C0062CFC55BDE4F28803980CB54D140F8E886
:100F7C002F0E311C9E012F5F3E4FCD5A0E943352D3
:100F8C00C355D140C901F1014191519161917191C8
:100F9C00DC014D935D936D937D93CD010E94E24EE8
:100FAC00E415F50589F7CD5ADE4FA881B981C355F3
:100FBC00D1400D911D912D913C91139714960E9447
:100FCC00BC501797C35D0E94AE4FCD52D1401896BE
:100FDC000E94BC501B97CF5C0E94AE4FC153D140B6
:100FEC0050960E949C4F0E94E94E44885588668812
:100FFC007788C75C0E94AE4FC953D140408C518C4E
:10100C00628C738CC35C0E94AE4FCD53D140448C28
:10101C00558C668C778CC95B0E94AE4FC754D140FF
:10102C004484558466847784CB5DDE4F4882598234
:10103C006A827B82C552D1404DE25AE4CB5BDE4FD3
:10104C0048835983C554D140CB5BDE4FE881F9818D
:10105C00C554D1404191519161917191CB5B0E94EA
:10106C002752C554D1404C015D01EAE1880C991C12
:10107C00AA1CBB1CEA95D1F76C017D01F6E00E941D
:10108C00D24FE9F7C828D928EA28FB282C013D01C2
:10109C00E5E10E94D050EA95E1F74C015D01FBE0DF
:1010AC00B694A79497948794FA95D1F784289528A9
:1010BC00A628B7288C249D24AE24BF246C017D0166
:1010CC00E9E10E94CB50EA95E1F72C013D01F7E0F4
:1010DC000E94D050FA95E1F7C428D528E628F728C5
:1010EC00C824D924EA24FB24C95CDE4FE881F981A9
:1010FC00C753D14081909190A190B190C95C0E944E
:10110C002752C753D140480D591D6A1D7B1D0E94A3
:10111C0084512C013D014094509460947094C35CB4
:10112C00DE4F88809980AA80BB80CD53D140482067
:10113C0059206A207B20C75C0E94B44FC953D14010
:10114C00C822D922EA22FB220E94D5500E94845147
:10115C00C95BDE4FA880B980CA80DB80C754D14000
:10116C004A0D5B1D6C1D7D1DCB5D0E94B44FC5529D
:10117C00D1400E94C650C75D0E94BA4FC952D1409F
:10118C0048015901EEE1880C991CAA1CBB1CEA957C
:10119C00D1F768017901F2E00E94D24FE9F7C82833
:1011AC00D928EA28FB2828013901E3E1440C551C15
:1011BC00661C771CEA95D1F748015901FDE00E94A5
:1011CC00C150FA95E1F7482859286A287B280E94D3
:1011DC00D55028013901E6E10E94A84FE9F74801F2
:1011EC005901FAE0880C991CAA1CBB1CFA95D1F782
:1011FC0084289528A628B728240135014C245D2481
:10120C006E247F24CB5D0E94AE4FC5520E943D4C94
:10121C000E94EB4C482459246A247B2440225122FE
:10122C0062227322C35D0E94B44FCD52D140C820BC
:10123C00D920EA20FB200E94D550CB5DDE4F4880A0
:10124C0059806A807B80C552D140C40CD51CE61CE9
:10125C00F71C0E94C650C35C0E94C04FCD53D140B6
:10126C00C95B0E94C64FC754D1400E94EB4CCB5D6A
:10127C00DE4F88829982AA82BB82C552D140CB5B59
:10128C00DE4F48815981C554D1404D525B44A9F180
:10129C00C75CDE4F488059806A807B80C953D1403F
:1012AC00C35CDE4F488259826A827B82CD53D14027
:1012BC00C75CDE4F88839983AA83BB83C953D14013
:1012CC00C75DDE4F88819981AA81BB81C952D1400B
:1012DC00C35D0E94C04FCD52D140CF5C0E94C64F1F
:1012EC00C153D140C35DDE4F088319832A833B83EE
:1012FC00CD52D14097018601A7CECF5F0E94BA4F45
:10130C00C150D140CB5FDE4F088319832A833B83C6
:10131C00C5500E943D4CC75FDE4F488259826A829D
:10132C007B82C950D140C75D0E94C04FC952D14089
:10133C00CF5E0E94C64FC151D140CB5EDE4F888339
:10134C009983AA83BB83C551D140C75CDE4F88808B
:10135C009980AA80BB80C953D140C75EDE4F88827A
:10136C009982AA82BB82C951D140C35CDE4FA8804E
:10137C00B980CA80DB80CD53D140C35EDE4FA882DA
:10138C00B982CA82DB82CD51D140CF5C0E94B44F6E
:10139C00C153D140C35F0E94BA4FCD50D1400E947F
:1013AC00E94E81919191A191B191CD5A0E94275210
:1013BC00C355D140F1010E949351840F951FA61F74
:1013CC00B71F81939193A193B1931F010E94E24E99
:1013DC004E165F0621F7CF5BDE4F288139814A819B
:1013EC005B81C154D1402F5F3F4F4F4F5F4FCF5B5D
:1013FC00DE4F288339834A835B83C154D140CB5C55
:10140C00DE4F48815981C553D140405C5F4FCB5C66
:10141C00DE4F48835983C553D140C2CCCC5ADE4FE2
:10142C00CDBFDEBFDF91CF911F910F91FF90EF9059
:10143C00DF90CF90BF90AF909F908F907F906F90E8
:0A144C005F904F903F902F9008959D
:101456000F931F93CF93DF9300D0CDB7DEB78C01E8
:1014660010925E3380915C33823020F0833009F431
:1014760090C030C28091613380FF2CC2C8010E94A7
:10148600334EC80108960E94334E41E050E06FE8A3
:1014960071E3C8010E94493360E971E38091AA3182
:1014A6009091AB310E945048482F50E060E971E3BB
:1014B600C8010E9449334AE050E064E971E3C8017B
:1014C6000E94493342E050E06EE971E3C8010E9490
:1014D60049336091A0317091A131FB010190002048
:1014E600E9F73197AF01461B570BC8010E944933F4
:1014F6008091A6319091A731892B31F48091A23148
:101506009091A331892B41F142E050E062EA71E308
:10151600C8010E9449334091A2315091A3310E94E3
:1015260043526091A4317091A531C8010E9449339C
:1015360042E050E066EA71E3C8010E9449334091F7
:10154600A6315091A7310E9443526091A831709103
:10155600A931C8010E944933C8010E946845882301
:1015660009F4C1C1809161338E7F8093613385E038
:1015760080935E330E94075186EC92E30E94023A02
:1015860082E080935C3380915F338E7F80935F33FC
:10159600A1C120916133222309F49CC180E030E08F
:1015A600482FB901082E02C0759567950A94E2F78F
:1015B60060FD02C08F5FF4CF81E090E001C0880F2C
:1015C6004A95EAF7883009F4B5C020F4843009F466
:1015D60040C080C1803109F40DC1803209F07AC162
:1015E60080915F3381FF76C180915F338D7F8093D9
:1015F6005F3319821A82C8010E94334EC8010896C9
:101606000E94334E89818170806C8E7F89831A8215
:1016160041E00E94E44F0E9449330E940C4F0E9411
:101626004933C8010E946845882309F453C1809153
:1016360061338F7D809361338091603380618093C5
:1016460060330E94075182EB92E30E94023A85E0E2
:101656004BC18CEB92E30E943C48C8010E94334E7A
:10166600C80108960E94334E41E050E06BE072E3F9
:10167600C8010E9449336CE072E38091193290915F
:101686001A320E945048482F50E06CE072E3C801BD
:101696000E94493342E050E060E172E3C8010E94D3
:1016A600493340911032509111320E944352609159
:1016B600123270911332C8010E94493380910B3265
:1016C6008670823071F441E050E065E172E3C80152
:1016D6000E94493341E050E064E172E3C8010E9490
:1016E60049334091163250E06091173270911832AA
:1016F600C8010E9449338091613382FD04C0809104
:101706000B3283FFF4C0C8010E946845882309F4A0
:10171600EEC0809161338B7F8093613380910B3271
:101726008670823009F0BFC08091603380628093FA
:101736006033B9C0C8010E94334EC80108960E94A2
:10174600334E41E050E06BE172E3C8010E94493339
:101756006CE172E380912732909128320E945048C2
:10176600482F50E06CE172E3C8010E94493341E022
:1017760050E061E272E3C8010E94493341E050E063
:1017860060E272E3C8010E94493342E050E062E23F
:1017960072E3C8010E9449334091223250912332AC
:1017A6000E9443526091243270912532C8010E94F2
:1017B600493341E050E066E272E3C8010E944933D2
:1017C600C8010E946845882309F470C0809161337E
:1017D600877F809361338091603384608093603328
:1017E60080915F33877F80935F330E94075188EA39
:1017F60092E357C0C8010E94334EC80108960E9462
:10180600334E41E050E067E372E3C8010E9449337A
:1018160068E372E380914232909143320E945048CD
:10182600482F50E068E372E3C8010E94493341E063
:1018360050E06DE372E3C8010E94493341E050E095
:101846006CE372E3C8010E94493342E050E06EE364
:1018560072E3C8010E94493340913E3250913F32B3
:101866000E9443526091403270914132C8010E94F9
:101876004933C8010E9468458823C1F080916133CD
:101886008F7E80936133809160338860809360336C
:1018960080915F338F7E80935F330E9407518EE97C
:1018A60092E30E94023A85E080935E3320919C3158
:1018B60030919D312115310569F0322723273227D2
:1018C6000E9402510E94594AAB01BC018CEB92E383
:1018D6000E94023A80915C330F900F90DF91CF9176
:1018E6001F910F91089586E080935E33F3CF109297
:0418F6005C33F0CFA0
:1018FA002F923F924F925F926F927F928F929F9216
:10190A00AF92BF92CF92DF92EF92FF920F931F9303
:10191A00CF93DF93CDB7DEB7C455D109CDBFDEBFB4
:10192A005B0169017A01813411F08435B1F40E94B6
:10193A008B4E0E94A0378111E9C18A8126968FAF0A
:10194A002697E0914E33F0914F33309709F4DEC178
:10195A00AE014B5B5F4F61E017C08234C1F40E9455
:10196A008B4E0E94A0378111D1C18A8126968FAFF2
:10197A002697E0914E33F0914F33309709F4C6C160
:10198A00AE014B5B5F4F62E089810995BFC1833429
:10199A0009F073C02CE030E0AE014B5B5F4FC7012A
:1019AA00B6010E94A0378111B1C12F963FAD2F9782
:1019BA0037FD3FC0432F032E000C550B2E962FAD3B
:1019CA002E976BE02603F0011124E55BF04D81852B
:1019DA00649FF001659FF00D1124E55BF04D81874E
:1019EA0081E0808761968EAD9FAD61970897868367
:1019FA0097838091503390915133BC016F5F7F4F31
:101A0A0029F0609350337093513305C00296809346
:101A1A005033909351338BE0849FF001859FF00DF2
:101A2A001124E55BF04D80915033909151338483BA
:101A3A009583398382E090E08A839B8329968EADD1
:101A4A009FAD29978C839D832D968CAD9DADAEADB0
:101A5A00BFAD2D978E839F83A887B987E0914E33B8
:101A6A00F0914F33309709F451C1AE014F5F5F4F88
:101A7A0064E02E968FAD2E9788CF843411F08B3484
:101A8A0031F50E948B4E0E94A03781113FC1898196
:101A9A0026968FAF26979A8127969FAF27979111FF
:101AAA000AC00E949851E55BF04D2B813C81285079
:101ABA00310926833783E0914E33F0914F333097C3
:101ACA0009F424C1AE014B5B5F4F65E05ECF8A34F7
:101ADA00C1F424E40E944B4F0E94A037811116C121
:101AEA00E0914C33F0914D33309709F40FC12596AC
:101AFA004CAD5DAD6EAD7FAD2597CE0101960995D2
:101B0A0005C1863429F0883431F08D3409F0A7C034
:101B1A0096E0992E02C089E0982E20E130E0AE01CD
:101B2A004B5B5F4FC701B6010E94A0378111EEC01F
:101B3A0062968FAC629765964EAD5FAD6597882DBC
:101B4A000E949851E55BF04D12862F968EAD9FAD9F
:101B5A002F9761966EAD7FAD619729962EAD3FADF9
:101B6A00299729873A872D960CAD1DAD2EAD3FAD2D
:101B7A002D970B871C872D873E870E94495009F0B5
:101B8A00C5C0181619060CF059C08C018A159B0598
:101B9A0008F054C00E94F35109F4B8C082819381BD
:101BAA00892B09F4B3C08085813009F0AFC02601C2
:101BBA003701460E571E611C711C0D831E835F017F
:101BCA001F01E2E02E0E311C6501F8E0CF0ED11C98
:101BDA00F101E080F1800E151F0508F47801F50186
:101BEA00408151819701C301B2010E94A03781113E
:101BFA008DC00E94875289839A83EB82FC828D81F1
:101C0A009E818E199F098D839E83E0914E33F091B8
:101C1A004F33309731F0AE014F5F5F4F692D882DFA
:101C2A0009954E0C5F1C611C711CF601808188238A
:101C3A0009F46CC00E191F0959F668C08B839C837E
:101C4A0019821A82E0914E33F0914F33309709F49A
:101C5A005DC0AE014F5F5F4F692D882D96CE8534EA
:101C6A0021F0873421F08C3429F517E001C018E0FF
:101C7A0028E00E944B4F0E94A037811147C08981FA
:101C8A004D815E812B813C8127962EAF3FAF2797EE
:101C9A000E949851E55BF04D0E944950B9F5E091D8
:101CAA004E33F0914F33309789F1AE014B5B5F4F62
:101CBA00612F6BCE823551F524E10E944B4F0E9471
:101CCA00A037811123C04D815E816F817885809113
:101CDA00083390910933A0910A33B0910B330E94D3
:101CEA00A35081F4E0914A33F0914B33309751F08D
:101CFA0029853A854B855C8569817A818B819C81AE
:101D0A000989099510924A3310924B33CC5ADF4F06
:101D1A00CDBFDEBFDF91CF911F910F91FF90EF9062
:101D2A00DF90CF90BF90AF909F908F907F906F90F1
:0A1D3A005F904F903F902F900895A6
:101D4400ABE0B0E0E8EAFEE00C9467466C017B018E
:101D54008A01FC0116821782838181FFCCC1CE01E6
:101D640001963C01F6019381F70193FD859193FF60
:101D740081917F01882309F4BAC1853239F493FD36
:101D8400859193FF81917F01853229F4B60190E01A
:101D94000E941338E7CF912C212C312CFFE1F3154D
:101DA400D8F08B3279F038F4803279F08332A1F4B0
:101DB400232D20611DC08D3261F0803369F4232D01
:101DC400216016C0832D8260382EE32DE4603E2E00
:101DD4002AC0F32DF8601DC037FC2DC020ED280F5C
:101DE4002A3040F08E32B9F436FC81C1232D2064B0
:101DF400322E19C036FE06C08AE0989E200D1124AA
:101E0400922E11C0EAE02E9E200D1124222EF32DD5
:101E1400F0623F2E08C08C3621F4832D8068382E62
:101E240002C0883641F4F70193FD859193FF8191B7
:101E34007F018111B3CF982F9F7D9554933028F45F
:101E44000C5F1F4F9FE399830DC0833631F08337B6
:101E540071F0833509F059C021C0F801808189836C
:101E64000E5F1F4F88248394912C530113C02801C3
:101E7400F2E04F0E511CF801A080B18036FE03C081
:101E8400692D70E002C06FEF7FEFC5010E940A4C1C
:101E94004C018201F32DFF773F2E16C0280122E06A
:101EA400420E511CF801A080B18036FE03C0692D9A
:101EB40070E002C06FEF7FEFC5010E94FF4B4C0141
:101EC400F32DF0683F2E820133FC1BC0822D90E07D
:101ED40088169906B0F4B60180E290E00E941338A7
:101EE4002A94F4CFF50137FC859137FE81915F0187
:101EF400B60190E00E94133821102A9421E0821A3E
:101F040091088114910471F7E8C0843611F0893680
:101F140041F5F80137FE07C06081718182819381A8
:101F24000C5F1F4F08C060817181072E000C880B65
:101F3400990B0E5F1F4FF32DFF763F2E97FF09C0BD
:101F440090958095709561957F4F8F4F9F4FF06866
:101F54003F2E2AE030E0A3010E946B2B882E8618C6
:101F640045C0853731F4232D2F7EB22E2AE030E090
:101F740025C0932D997FB92E8F36C1F018F488357A
:101F840079F0B5C0803719F0883721F0B0C0E92F57
:101F9400E061BE2EB4FE0DC0FB2DF460BF2E09C05F
:101FA40034FE0AC0292F2660B22E06C028E030E095
:101FB40005C020E130E002C020E132E0F801B7FEC4
:101FC40007C060817181828193810C5F1F4F06C0BD
:101FD4006081718180E090E00E5F1F4FA3010E9439
:101FE4006B2B882E8618FB2DFF773F2E36FE0DC0F7
:101FF400232D2E7FA22E891458F434FE0BC032FCFC
:1020040009C0832D8E7EA82E05C0B82CA32C03C036
:10201400B82C01C0B92CA4FE0FC0FE01E80DF11DBF
:102024008081803321F49A2D997EA92E09C0A2FEC5
:1020340006C0B394B39404C08A2D867809F0B3948F
:10204400A3FC11C0A0FE06C0B21488F4280C922C84
:102054009B180EC0B21460F4B60180E290E00E94B6
:102064001338B394F7CFB21418F42B1802C0982C79
:10207400212CA4FE10C0B60180E390E00E94133826
:10208400A2FE17C0A1FC03C088E790E002C088E567
:1020940090E0B6010CC08A2D867859F0A1FE02C0EA
:1020A4008BE201C080E2A7FC8DE2B60190E00E94C1
:1020B4001338891438F4B60180E390E00E94133891
:1020C4009A94F7CF8A94F301E80DF11D8081B6014B
:1020D40090E00E9413388110F5CF222009F442CEFB
:1020E400B60180E290E00E9413382A94F6CFF601FC
:1020F4008681978102C08FEF9FEF2B96E2E10C94CB
:02210400C846CB
:10210600AF92BF92CF92DF92EF92FF920F931F93FF
:10211600CF93DF93CDB7DEB72997CDBFDEBF7C0166
:1021260010925E33198680915F3382FD08C08091DC
:102136005F3383FD04C080915F3384FF05C0109236
:102146005C33C7010E94654CF7018685978510911F
:102156005C33892B11F4812F7FC1123051F013307B
:1021660009F484C0113009F475C187E080935C33AB
:1021760071C180915F3380FD70C0C0909C31D0905A
:102186009D3186EC92E30E943C485701F8E0AF0E81
:10219600B11C41E050E0BE01675F7F4FC5010E9460
:1021A60031419C019985892F807F803209F047C093
:1021B600BE016F5F7F4F84E0FB0111928A95E9F7BC
:1021C60041E050E0C5010E94134041E050E0BE01ED
:1021D6006E5F7F4FC5010E94134041E050E0BE0193
:1021E6006D5F7F4FC5010E94134041E050E0BE0184
:1021F6006C5F7F4FC5010E9413408C81882311F0CC
:1022060080E001C083E080935C338330B1F43C2DE1
:102216002D2D2115310579F08091613380628093EF
:1022260061330E9402510E94594AAB01BC018CEBFA
:1022360092E30E94023A84E016C083E014C0109331
:102246005E3390935D332093263330932733109279
:102256005C33C7010E94654CFDC010925C33C70118
:102266000E94654C81E080935E33F4C08701085F6D
:102276001F4F41E050E0BE01675F7F4FC8010E94DB
:102286003141898582958F70893081F138F48330A8
:1022960009F4B5C0843009F4B6C0DCC08B3009F44B
:1022A6006EC08D3009F0D6C08091603384FFD2C0F5
:1022B60080915F3382FDCEC082EB92E30E943C4860
:1022C60019821A8241E00E94E44F0E9413408091D5
:1022D6009C3190919D31892B29F0809161338062E8
:1022E60080936133C8010E94334EB4C0809160333D
:1022F60082FFB0C080915F3383FDACC088EA92E371
:102306000E943C480E94EF5188E0FB0111928A9599
:10231600E9F741E050E0C8010E9413400E940C4FCB
:102326000E94134041E050E0BE016A5F7F4FC80142
:102336000E94134041E050E0BE01695F7F4FC80133
:102346000E9413409F8180912032981711F0F12C42
:1023560012C09E81809121329813F9CF41E050E05E
:10236600BE01685F7F4FC8010E9413408885803890
:1023760071F393E0F92E809160338B7F38C08091A2
:10238600603383FF67C080915F3384FD63C08EE94D
:1023960092E30E943C480E94EF5184E0FB011192B7
:1023A6008A95E9F741E050E0C8010E9413400E9477
:1023B6000C4F0E9413408A81823091F40E94054F8F
:1023C6000E9413400E94134F0E9413409C818091EB
:1023D6003C32981305C09B8180913D32981711F0CD
:1023E600F12C02C083E0F82E80916033877F8093C2
:1023F6006033C8010E94334EF0925C332BC0C70194
:102406000E94371A27C0BE016F5F7F4FFB011192F2
:102416008A95E9F741E050E0C8010E9413400E9406
:102426000C4F0E9413400E94134F0E9413400E94BB
:10243600054F0E9413409B818091143298130AC065
:102446009C8180911532981305C0809160338F7DF1
:102456008093603380915C332996CDBFDEBFDF91D8
:10246600CF911F910F91FF90EF90DF90CF90BF908B
:04247600AF90089586
:10247A002F923F924F925F926F927F928F929F928A
:10248A00AF92BF92CF92DF92EF92FF920F931F9378
:10249A00CF93DF93CDB7DEB72897CDBFDEBF7C01E0
:1024AA006B014F8358872B833C83452B39F0892B4B
:1024BA0029F0232B19F00115110531F41F9282EE30
:1024CA008F9389E897E423C0CB0163E070E00E9410
:1024DA00784821E030E0892B11F420E030E0C60191
:1024EA0063E070E00E947848260F371F220F331FDF
:1024FA00220F331FD80113966C916623D1F0862FD1
:10250A00837079F01F9282EE8F9382E198E49F9311
:10251A008F930E94A9470F900F900F900F9082EE11
:10252A00ECC070E0C9010E947848660F771F260F39
:10253A00371F2F5F3F4FEB81FC818081918182178A
:10254A00930778F41F928DEE8F938DE498E49F930E
:10255A008F930E94A9470F900F900F900F908DEEC6
:10256A00CCC0AB81BC811D921C92212C312C612CD8
:10257A00712C812C912CEF81F885E60DF71D8C14B6
:10258A009D0408F0ABC0D80113966C916623D9F06C
:10259A0081149104C1F070E0C301821993090E9469
:1025AA007848892B81F4BDE0B083F30131962F81FD
:1025BA003885E20FF31F32E0630E711C4AE0408354
:1025CA0052E0250E311C8F819885860D971D8983CF
:1025DA009A83D7018C91B801869586950E94AE435D
:1025EA00E981FA818083D7018C9183708295807FFB
:1025FA0093012F5F3F4FEF81F885E20FF31FED83C1
:10260A00FE832E5F3F4F2901A3014C5F5F4F5A01A2
:10261A0094012F5F3F4F2C153D05F0F552E0650EF2
:10262A00711C11969C9192959F70B801892B0E94FA
:10263A00AE43AD81BE818C93F70181818F70880F83
:10264A00880F2F813885620E731E94012E5F3F4FCB
:10265A002C153D05C8F4928192959695969593709E
:10266A00B801892B0E94AE43D3018C933501AF8008
:10267A00B884A40CB51CF7018281B8018F730E943B
:10268A00AE43D5018C931CC0B8010E94AE43F3013E
:10269A0080833501D8010DC0B8010E94AE43ED8197
:1026AA00FE818083D8010E94FF51E981FA818283E9
:1026BA00350112968C91EF81F885E40DF51D808322
:1026CA00F3E08F0E911C23E0E20EF11C54CF93012C
:1026DA00215031098291811105C0390132E0631616
:1026EA007104A8F74F815885460D571DDA011C92CF
:1026FA00EB81FC816082718280E02896CDBFDEBFCB
:10270A00DF91CF911F910F91FF90EF90DF90CF90C3
:10271A00BF90AF909F908F907F906F905F904F90F7
:06272A003F902F9008957E
:10273000CF92DF92EF92FF92CF93DF93809109289F
:10274000982F957051F4E091FB31F091FC316EE4DB
:1027500072E388E592E309951AC083FD18C0E09101
:102760000732F09108320995811111C08091092832
:1027700081FD0DC040E157E260E070E088E592E342
:102780000E94023A809109288860809309288091EC
:102790000E2881FD0BC0E0910732F09108320995B7
:1027A000882309F4D1C00E94A752CEC00E94A4522F
:1027B0000E941F4C0E940F4DC82F0E948F436B0137
:1027C0007C010E948D4D672B682B692BF9F0E091FD
:1027D0000732F091083209958823C1F080910E28C4
:1027E000806880930E288091E4329091E532A09128
:1027F000E632B091E7320E94805041F0C092E4325C
:10280000D092E532E092E632F092E732C23009F43B
:102810009BC030F0C330E1F0C43009F091C094C0E7
:102820000E94094160910A2870910B2880910C2820
:1028300090910D28E091FD31F091FE3109958F3F87
:1028400009F47EC080910E28806180930E287CC0A0
:10285000E0910932F0910A320995882331F0E09134
:10286000FF31F091003209956FC00E94A452EC0133
:102870000E948310873069F00E94AD52823039F097
:10288000843039F40E948D4D0E94964D02C00E9402
:10289000B052CE010E942B0A0E94AD520E94A45257
:1028A000FC01C484D5840E94A452DC011896ED90EA
:1028B000FC9019970E94A452DC015096ED91FC9176
:1028C0005197808120E030E0A601B7010E94475275
:1028D0000E94373AE0910732F09108320995882337
:1028E00099F180910E288F7E8B7F80930E2888E54A
:1028F00092E30E943C488EE492E30E943C4880911F
:1029000009288B7F877F8093092884FF05C0E09189
:102910000132F091023209950E948F4361317E406D
:10292000810591058CF0E0910532F0910632099510
:10293000E889F98980810E9447520E94864404C038
:1029400080910E28846081CF64EF71E080E090E098
:0E295000DF91CF91FF90EF90DF90CF90089530
:10295E008F929F92AF92BF92CF92DF92EF92FF92A1
:10296E000F931F93CF93DF9300D0CDB7DEB7FC014B
:10297E005B01892B09F4E4C0A081B181109709F4A1
:10298E00DFC082819381892B09F4DAC0848195811D
:10299E00009709F4D5C0AD01480F591F9A01215077
:1029AE003109D9012C912D3731F00196848395830D
:1029BE008DE7DA018C932481358160E070E0621737
:1029CE00730759F0A081B181A60FB71F8C916F5F6D
:1029DE007F4F8E32A1F76B0101C0690149018C183E
:1029EE009D08C401805C9F4F0E94715063E070E0AF
:1029FE000E94784882819381821B930B6D5F7F4F7B
:102A0E008617970710F484EE9CC07F0120813181D8
:102A1E00B9016C0D7D1DA401820F931F0E945B49AD
:102A2E00F7012281338129833A830E941352AF0129
:102A3E004C0D5D1DD7010E948E51B901681B790B9B
:102A4E00CB0108EE12E30E941752B4018E0F9F1FA6
:102A5E000E943D12811175C069817A816C0D7D1DB8
:102A6E00D70114966D937C93159712964D915C91A8
:102A7E001397CA01885591096817790708F0C3CFD3
:102A8E008D919C9140525109480F591F0E94D73D7C
:102A9E00811157C0F7016081718182819381AC01F0
:102AAE0040545109460F571F8097680F791FC50173
:102ABE000E94B636811145C0D7012D913C911197D8
:102ACE000E948E51AC014F5F5F4F14964D935C93F5
:102ADE001597F901E80FF91F2EE2208312962D911A
:102AEE003C9113970E948F50C901841B950B8983CB
:102AFE009A83ED91FC914E0F5F1FC901805491098D
:102B0E009E012F5F3F4F60E470E08E0F9F1F0E946B
:102B1E003D12F7012481358189819A81820F931F9D
:102B2E0084839583228133818217930708F06BCFBC
:102B3E0020813181F901E80FF91F108280E001C078
:102B4E0082EE0F900F90DF91CF911F910F91FF901A
:102B5E00EF90DF90CF90BF90AF909F908F900895A1
:102B6E00E0917E338E2F90E08830910520F5FC01A8
:102B7E00E85BFF4F809182330C943E50817019C0F8
:102B8E008695817016C082FB882780F912C083FB60
:102B9E00882780F90EC0829581700BC085FB88272F
:102BAE0080F907C086FB882780F903C087FB88273A
:102BBE0080F980937A3380917A33811104C081E059
:102BCE008093660403C081E08093650480917E3318
:102BDE00873018F010927E3303C08F5F80937E3360
:102BEE00E0917B338E2F90E08830910520F5FC012B
:102BFE00E05BFF4F80917F330C943E50817019C083
:102C0E008695817016C082FB882780F912C083FBDF
:102C1E00882780F90EC0829581700BC085FB8827AE
:102C2E0080F907C086FB882780F903C087FB8827B9
:102C3E0080F98093793380917933811104C088E0D3
:102C4E008093660403C088E08093650480917B3393
:102C5E00873018F010927B3303C08F5F80937B33E5
:102C6E00E0917C338E2F90E08830910520F5FC01A9
:102C7E00E85AFF4F809180330C943E50817019C0FA
:102C8E008695817016C082FB882780F912C083FB5F
:102C9E00882780F90EC0829581700BC085FB88272E
:102CAE0080F907C086FB882780F903C087FB882739
:102CBE0080F98093783380917833811104C084E059
:102CCE008093660403C084E08093650480917C3316
:102CDE00873018F010927C3303C08F5F80937C3363
:102CEE00E0917D338E2F90E08830910520F5FC0128
:102CFE00E05AFF4F809181330C943E50817019C081
:102D0E008695817016C082FB882780F912C083FBDE
:102D1E00882780F90EC0829581700BC085FB8827AD
:102D2E0080F907C086FB882780F903C087FB8827B8
:102D3E0080F98093773380917733811104C082E0DC
:102D4E008093660403C082E08093650480917D3396
:102D5E00873018F010927D3303C08F5F80937D33E0
:0A2D6E006AEF70E080E090E0089545
:102D78000F931F93CF930E94B6450E947E2C0E940A
:102D8800B44881EC91E30E944E5081EC91E30E949B
:102D9800B6510E94AF4A811105C080910E28846007
:102DA80080930E2881EC91E30E9450348093522B3B
:102DB800882329F080910E28846080930E2881EC66
:102DC80091E30E944E5081EC91E30E946E4F00E225
:102DD80017E426E130E080E090E0DC0140E050E0DC
:102DE800BA01E6B3E0744E0F511D611D711DE6B3C3
:102DF800E0728E0F911DA11DB11D0150110921090D
:102E0800310979F7403953426B40710508F04DC0DC
:102E180080399342AB40B10598F56FEE78E48DE7C1
:102E28009AE20E94834F68EF78E48CE99AE20E9464
:102E3800834F1F9282E08F9382E099E49F938F9350
:102E48008FEC9AE29F938F930E942C4385E50E9412
:102E5800C55185E50E94C0518FEF0E94CA518FEF7E
:102E68000E94BB5180910E2888608F7D806480937A
:102E78000E280F900F900F900F900F900F9028C072
:102E880083E30E94C0518FEF0E94C5518FEF0E94CB
:102E9800CA518FEF0E94BB5180910E28877F8062B4
:102EA8008F7B80930E28C0E014C085E50E94C05136
:102EB8008FEF0E94C5518FEF0E94CA518FEF0E9479
:102EC800BB5180910E2888608F7D8F7B80930E2860
:102ED800C1E06C2F81EB91E50E946844C13061F438
:102EE80081EC91E30E94CB4D44E650E060E070E055
:102EF80080ED92E30E94023A0E947E2C0E949B4E33
:102F080081EC91E39F938F9385E099E49F938F934E
:102F18008EEE9AE29F938F930E942C430F900F900E
:102F28000F900F900F900F9065E772E38EEE9AE284
:0A2F3800CF911F910F910C942848CF
:102F42002F923F924F925F926F927F928F929F92B7
:102F5200AF92BF92CF92DF92EF92FF920F931F93A5
:102F6200CF93DF93CDB7DEB72C97CDBFDEBF962FC1
:102F72009F779A8789870115110529F0F7013896FD
:102F8200EC0DFD1D02C0F9013896EB87FC87EB853D
:102F9200FC85ED33F64008F047C0360159016A015D
:102FA200962E882E0E94644881113EC02B853C8556
:102FB200C901A0E0B0E0DC019927882788299C019B
:102FC200AD0139292D833E834F8358870E946B516F
:102FD2000E946B3B22E00E94935268E70E947F525C
:102FE2000E946B3B0E947F5148EE842E43E0942E58
:102FF20009C085EF881681E0980620F40E9461518D
:103002000E94B04691E0891A9108E0F0AE014B5F50
:103012005F4F68E70E947F520E94C1490E94C552D9
:10302200882321F00E94F7468FEF56C08D8181FDE3
:10303200E0CFAE014F5F5F4F60E074E085E190E06A
:103042000E94C1490E94C552811109C029803A805B
:103052004B805C80211431044104510421F40E940C
:10306200F7468DEF39C028E030E0AE01475F5F4F91
:10307200C201B1010E94142798E0290E311C411CA3
:10308200511CC114D10431F09501A601C201B10154
:103092000E9414270115110551F0C201B101660DFC
:1030A200771D811D911D9701A8010E941427898116
:1030B2009A81AB81BC8122E00E943850E9F79C01E1
:1030C200AD0122606CE60E947F520E946B3B0E941F
:1030D200F7460E94C55281952C96CDBFDEBFDF9187
:1030E200CF911F910F91FF90EF90DF90CF90BF9003
:1030F200AF909F908F907F906F905F904F903F9096
:043102002F9008956D
:103106004F925F926F927F92BF92CF92DF92EF9231
:10311600FF920F931F93CF93DF9300D000D0CDB7CC
:10312600DEB7B82EF62E29013A0120E030E0A901DB
:103136006CE070E0CB010E946B3B20E030E0A9011F
:103146000E946B510E946B3B20E030E0A9010E9477
:1031560070510E946B3B0E944E4D0E94CF348823D3
:1031660011F080E09CC00E94574D0E94CF3481111F
:10317600F8CF64E10E947F520E94C64297FFF9CFC2
:103186006CEB77E082E090E00E94C64260FF0BC0E5
:10319600BB20F9F02DE735ED4CE15CE30E94705160
:1031A6000E946B3B1FC000ED17E00150110980F330
:1031B6000E9461510E94B0466CE070E0CB010E9413
:1031C600C6426E39704D8D4A904179F7012B01F751
:1031D600C8CFFF2039F090E8C92EDD24D394E12C26
:1031E600F12C04C0C12CD12C7601D394A3019201F9
:1031F6000E946B510E946B3B0E9427250E94AB4C9C
:1032060010F06894C1F8A701960160EA74E180E0C5
:1032160090E00E946B3B0E94E75160EA74E180E017
:1032260090E00E94C149811107C089819A81AB81D2
:10323600BC810E94805039F721E63FE242E55FEE0D
:103246006CE070E0CB010E946B3B01ED17E0015092
:10325600110909F486CF62E00E948F520E94B0469F
:10326600B11013C00E946B510E94C642663376426B
:103276008345924061F720E030E0A9010E946B513E
:103286000E946B3B0E9435460AC00E9470510E9404
:10329600C642633C714C8D45974DC9F681E0249634
:1032A600CDBFDEBFDF91CF911F910F91FF90EF90C1
:1032B600DF90CF90BF907F906F905F904F90089572
:1032C600CF93DF938B3109F490C0EB018C3120F45E
:1032D600893009F494C0C5C08C3221F0823309F4D8
:1032E6006BC0BFC08881813099F58091583388239F
:1032F60099F08AE892E30E943C481092583385E59B
:103306000E94C05144EF51E060E070E080E892E333
:103316000E94023A0E94634B80910E288A70883080
:1033260051F485E50E94C55180910E288260877B05
:10333600806180930E2880910E2885FF06C08F7DC0
:1033460080930E288FE00E94C0510E94C74825C076
:10335600811123C08FEF0E94CA518FEF0E94BB518B
:1033660080910E2886FD06C08FEF0E94C55185E527
:103376000E94C05180910E288D7E886080930E2811
:1033860042E350E060E070E08CE692E30E94023A8D
:1033960080910E28816080930E28E0911A33F09177
:1033A6001B33309709F45DC080910E2880FD59C00B
:1033B6008881DF91CF91099481E896E40E944E4678
:1033C60081114FC080910E2880FF09C08CE692E3E0
:1033D6000E943C4880910E288E7F80930E28809113
:1033E6000E288B7F80930E283CC0FB018081918143
:1033F600892BB9F1CB01DF91CF910C94F03CFB0105
:10340600ED59FF4F808181112CC0319780811F9229
:103416008F9385E996E49F938F938FEC9AE29F931F
:103426008F930E942C43BE018DE79AE20E94834F40
:10343600BE016F5D7F4F8CE99AE20E94834F81E067
:10344600809358330F900F900F900F900F900F901E
:1034560040E050E0BA018AE892E3DF91CF910C9404
:08346600023ADF91CF910895B5
:10346E002F923F924F925F926F927F928F929F9286
:10347E00AF92BF92CF92DF92EF92FF920F931F9374
:10348E00CF93DF93CDB7DEB7CE53D140CDBFDEBFE6
:10349E008E01035D1E4F20E1D8011D922A95E9F79A
:1034AE00FE01E753FF4FC35C0E942752CD53D1401C
:1034BE0024E611922A95E9F70E941752390128EC59
:1034CE00D3011D922A95E9F708967C0141E050E060
:1034DE00B8010E9413406801BFEFCB1ADB0A41E02E
:1034EE0050E0B601C7010E9413404801E5E08E0E80
:1034FE00911CD6018D916D0187FF0AC0A815B905E3
:10350E0039F041E050E0B601C7010E941340F1CFFF
:10351E00F801212C312C2101812C912C5401839402
:10352E00D180AD2DAF77B0E0A50194010E94E94B9B
:10353E00260E371E481E591E87E0880C991CAA1CA1
:10354E00BB1C8A95D1F7D7FE02C03196E9CF42E077
:10355E0050E0B8016B5F7F4FC7010E94134029EC0A
:10356E0030E02C0F3D1FF8012783308745815681AF
:10357E000E944352B901C7010E941340D8010E9414
:10358E0099500E944B524EEF5FEF6FEF7FEF481B4B
:10359E00590B61097109420D531D641D751D1C9651
:1035AE006D927C921D97B301C7010E9413400E9439
:1035BE001151FC01892B51F0D8011C966D917C9113
:1035CE001D9717968D919C9118970995C7010E948A
:1035DE00334E83E0C25CDE4FCDBFDEBFDF91CF91B5
:1035EE001F910F91FF90EF90DF90CF90BF90AF9013
:1035FE009F908F907F906F905F904F903F902F9005
:02360E0008951D
:10361000A8E0B0E0EEE0FBE10C9471468B01FC0108
:10362000608171818281938120E831E541E050E041
:103630000E940A4369017A012CE330E040E050E047
:103640000E940E4729833A834B835C8389819A8148
:10365000AB81BC81F80160836CE370E00E948C4810
:10366000DC01CB01F801A1838283C601069667E0E5
:1036700070E00E94784884832DEA3EE840E050E004
:10368000C701B6010E940E4729833A836D837E836A
:103690008F83988789819A8124E6289F6001299FDA
:1036A000D00C11246D817E818F81988525EB35E0CA
:1036B00040E050E00E940E4729833A836D837E8369
:1036C000E980FA80EE0CFF1CEE0CFF1CEC0CFD1CDC
:1036D0008D819E81F5E6EF16F10410F0019604C08D
:1036E00024E6E216F10419F021E030E002C020E007
:1036F00030E0A90144595E4F4817590768F46DE658
:1037000071E0821B930B0E948C48DC01CB01E80E18
:10371000F91ECD0120E030E044E6E40EF11CF80192
:10372000E682F78280879187255C3F4F8217930757
:1037300048F46FE170E00E948C48DC01CB01F80195
:10374000858322C069E970E0821B930B0E948C483C
:10375000DC01CB01F82EFF0CFF0CF80E6DE370E0DE
:10376000CD010E948C48DC01CB01E82EEE0C6FE10C
:1037700070E0CD010E948C48DC01CB0122E0280FD3
:10378000F20EFE0CF801F582A383F801128613866F
:0E37900083818F5F83832896E8E00C94D246F5
:10379E00EF92FF921F93CF93DF93CDB7DEB72697AD
:1037AE00CDBFDEBF1B821C821D821E826CEA74E4BA
:1037BE000E94D95189839A839E012F5F3F4F7901D1
:1037CE0010E0009771F0133061F0F701819391933F
:1037DE007F011F5F6CEA74E480E090E00E94D95193
:1037EE00F0CFE980FA80E114F104D9F02B813C810D
:1037FE008D819E812115310519F4009779F417C03A
:10380E00009761F4C9010E9497529EEF980F923073
:10381E0008F443C0813059F012E01DC00E94975247
:10382E00182F113021F0C8F11430A8F036C04EE137
:10383E0050E0B7018DE79AE20E94684A6EEA74E49E
:10384E008CE99AE20E94834F60EB74E48FEC9AE26B
:10385E000E94834F2BC04EE150E0B7018DE79AE2F4
:10386E000E94684A6B817C814EE150E08CE99AE2BD
:10387E000E94684A1F921F9382EB94E49F938F934A
:10388E008FEC9AE29F938F930E942C430F900F9090
:10389E000F900F900F900F9009C085EB94E49F93BB
:1038AE008F930E94A9470F900F9029C087EF94E441
:1038BE009F938F930E94A9470E945D500F900F9087
:1038CE00882321F00E94A4520E94654C80910E28FC
:1038DE0087FF07C08F7780930E280E94A4520E9404
:1038EE004B380E94934A8FEF0E94CA518FEF0E946D
:1038FE00BB518FEF0E94C55185E50E94C05126969F
:10390E00CDBFDEBFDF91CF911F91FF90EF90089555
:10391E002F923F924F925F926F927F928F929F92D1
:10392E00AF92BF92CF92DF92EF92FF920F931F93BF
:10393E00CF93DF93CDB7DEB7A597CDBFDEBF19A26C
:10394E001AA2833010F082EE8CC0823019F46031EE
:10395E007105C8F70115110511F480E082C021151B
:10396E00310589F328012CA33DA35A011B01F82E22
:10397E00AE014F5D5F4F0E942C37811172C029A19D
:10398E003AA1C8018A0D9B1D28173907E0F23501AF
:10399E0065E0769467946A95E1F720E22BA3C12C3B
:1039AE00D12C812C912C84149504B8F68BA18032E5
:1039BE00C1F489A19AA1930155E0220F331F5A95A4
:1039CE00E1F7821B930B809760F46401CA0CDB1C39
:1039DE00D694C794D694C79497E0C922DD2424E0E8
:1039EE002BA3EBA00E9423522C2D462DB1018F2D1F
:1039FE000E94EC29811135C0C30123E0880F991F65
:103A0E002A95E1F78C0D9D1D0E9471508A159B051C
:103A1E0020F4B501681B790B02C060E070E02BA1A9
:103A2E00822F90E0861B970B8201081919098017C7
:103A3E00910708F48C010E94B14EA8018CA19DA1A2
:103A4E00880D991D0E94A84D800E911E9BA190324B
:103A5E0021F42FEF621A720AA6CF8FEFC81AD80A76
:103A6E00A2CFA596CDBFDEBFDF91CF911F910F9153
:103A7E00FF90EF90DF90CF90BF90AF909F908F9080
:0E3A8E007F906F905F904F903F902F90089523
:103A9C002F923F924F925F926F927F928F929F9252
:103AAC00AF92BF92CF92DF92EF92FF920F931F9340
:103ABC00CF93DF93EC018B0149015A018C819D81DD
:103ACC00AE81BF8140E4C42ED12CE12CF12CC81A5C
:103ADC00D90AEA0AFB0A8C149D04AE04BF0410F444
:103AEC00750164010896A601B8018C0F9D1F0E94F8
:103AFC00A84D8C819D81AE81BF81880D991DAA1D19
:103B0C00BB1D80349105A105B105B8F48C839D8350
:103B1C00AE83BF83DF91CF911F910F91FF90EF90F8
:103B2C00DF90CF90BF90AF909F908F907F906F90D1
:103B3C005F904F903F902F9008951E0188E0280EC3
:103B4C00311C21E030E040E050E0B101CE010E9498
:103B5C0086068C189D08AE08BF082401350186E046
:103B6C0076946794579447948A95D1F7B8016C0D65
:103B7C007D1DA3019201CE010E948606D301C201D4
:103B8C000196A11DB11D26E0880F991FAA1FBB1F0E
:103B9C002A95D1F7488159816A817B81840F951FC1
:103BAC00A61FB71F88839983AA83BB83B501A40181
:103BBC004F735527662777274C835D836E837F83EE
:103BCC0036E0440C551C3A95E1F7C40CD51CC801E1
:103BDC008C0D9D1DBC01C101DF91CF911F910F91E7
:103BEC00FF90EF90DF90CF90BF90AF909F908F9011
:103BFC007F906F905F904F903F902F900C94A84DBA
:103C0C00A0E0B0E0ECE0FEE10C946D46EC01EE813E
:103C1C00FF818F0104561109B9F0CF018556910926
:103C2C006C0197FF03C023E0C20ED11CD594C7943E
:103C3C00D594C7946CE97FEF0E948C48C60ED71EB2
:103C4C008FEFC81AD80A02C0C12CD12C2DE631E056
:103C5C00D8010E94754F0D2C000CEE08FF08C60E03
:103C6C00D71EE81EF91E8B81082E000C990B8C01B7
:103C7C00015011092D8122302CF4222379F1015E9F
:103C8C001F4F2CC0CF018459984F0E94A048282F59
:103C9C0030E0255C3F4F200F311F8D81082E000C2A
:103CAC00990B02978530910514F027563F4F65E02C
:103CBC0070E00E948C48AC0197FF02C04F5F5F4FD1
:103CCC00559547959DE3949F8001959F100D112468
:103CDC00020F131F80FF02C0015E1F4FC801110F9E
:103CEC00AA0BBB0B9C01AD012C0D3D1D4E1D5F1D88
:103CFC0060E871E581E090E00E94D1494B015C01E4
:103D0C00AA810A2E000CBB0B20E13EE00E94754FED
:103D1C006B017C01A9810A2E000CBB0B2CE330E05B
:103D2C000E94754FC60ED71EE81EF91E6881862F9D
:103D3C00660F990BAA0BBB0B8C0D9D1DAE1DBF1DE9
:103D4C00BC01CD01680D791D8A1D9B1DCDB7DEB759
:063D5C00ECE00C94CE46E1
:103D6200CF92DF92EF92FF92CF93DF930E948D4D1D
:103D72006B017C010E945D50882309F474C020917C
:103D82000C3330910D3340910E3350910F33C701F4
:103D9200B6010E94F45216161706180619060CF000
:103DA20062C0C0920C33D0920D33E0920E33F09287
:103DB2000F3381EC91E39F938F938FEB98E49F9362
:103DC2008F938BEF90E39F938F930E942C4380916C
:103DD2000E280F900F900F900F900F900F9081FF71
:103DE20042C00E94A444EC010E94CB52482FE92F0A
:103DF200CE01D7FF04C0882799278C1B9D0B24E690
:103E020030E0B9010E948C489F938F93CE01B90193
:103E12000E948C487F936F93EF934F9383ED98E4C6
:103E22009F938F9383E89EE29F938F930E942C43EC
:103E32002DB73EB7265F3F4F2DBF3EBF181619065E
:103E420094F4AC0163E87EE28BEF90E30E94585059
:103E520080917533882321F081508093753303C09C
:103E620083E30E94CA5180910E2883FD10C081FF16
:103E720003C080E00E94C05180910E2884FD07C0DB
:103E82000E945D50882319F080E00E94C551809104
:103E92000E2882FF02C080E001C08FEF0E94BB515A
:103EA20064E60E948F52DF91CF91FF90EF90DF90F6
:043EB200CF90089510
:103EB600AF92BF92CF92DF92EF92FF920F931F9332
:103EC600CF93DF93CDB7DEB7EC97CDBFDEBFFA0158
:103ED600309711F481EF84C00E943F5211F416828C
:103EE600178222813381232BA9F324813581232B49
:103EF60089F3E680F780408551858A0120E030E02D
:103F06000E0D1F1D211D311D053811052105310519
:103F160008F7A285B385A13091E0B907D8F66F01FD
:103F26009B01E40EF51EECE0EE0EF11CEA0EFB1E04
:103F36000E941F52A70164E00E942729811150C0E8
:103F4600A70160E070E0CE01C1960E947C4F81E03F
:103F560089ABF6018485882311F081E889ABF601E7
:103F66008585882319F089A9806489AB1AAAF60188
:103F760060817181CE01CD965C016115710551F0AC
:103F8600068117810AAB1127A8010E94A84D0A0DC8
:103F96001B1D01C08C01F601408551854BAB5CAB06
:103FA60062817381C8010E94A84D8BA99CA9800FCC
:103FB600911F9C012A193B092DAB3EABF6014285A8
:103FC60053854FAB58AF648175810E94A84D80E33D
:103FD600C82ED12C8E010F5C0E94694D0E94A1173C
:103FE600EC96CDBFDEBFDF91CF911F910F91FF9071
:0C3FF600EF90DF90CF90BF90AF90089547
:104002008F929F92AF92BF92DF92EF92FF920F93A5
:104012001F93CF93DF93F12C06EF19E4CDEFD4E495
:104022000E94214F882309F480C00E941C46E0911F
:1040320056338D3019F08A3009F068C0F0E0EC5345
:10404200F04D108290915533911153C091E08A3016
:1040520029F4209154332D3009F490E080935433A5
:10406200992309F446C0F11044C060E270E084EC88
:104072009FE20E94F44B7C01009719F0DC011D9233
:104082007D01E4ECFFE201900020E9F73197E45C66
:10409200FF42DE2E86EDA82E89E4B82EF50180803F
:1040A2009180B40184EC9FE20E94B14DF401019031
:1040B2000020E9F73197E819F90981110CC0DE12E5
:1040C2000AC0D5011296ED91FC911397309719F021
:1040D200C70109950CC0B4E0AB0EB11C0A151B0553
:1040E200E9F6DF93CF930E94A9470F900F90FF2428
:1040F200F39480915533882321F086EE95E40E9453
:104102001F3D10925633109255338ACFE43648F44D
:1041120091E09E0F90935633F0E0EC53F04D808384
:104122007FCF81E0809355337BCF0E945350DF9144
:10413200CF911F910F91FF90EF90DF90BF90AF90C2
:064142009F908F9008958C
:10414800CF93DF93FC018DE1AFE8B1E3ED01199264
:104158008A95E9F780918F318F70806180938F31D4
:1041680084E0809395319DE49093963191E5909306
:10417800973194E5909398319093993180939A313F
:104188006789708D6115710521F483899489892B5C
:1041980011F082EC01C082E080939B318585968581
:1041A8000E944B5280939C3190939D31A189B28992
:1041B800A093A031B093A131ED0109900020E9F757
:1041C80021979E012A1B3B0B20939E3130939F31F0
:1041D80040919B3146FF0AC0818D928D8093A83112
:1041E8009093A9316093A6317093A73147FF16C009
:1041F800858996898093A4319093A53163897489C0
:104208006093A2317093A3318091A6319091A73128
:10421800860F971F0496820F931F01C0C9010C9641
:104228008093AA319093AB31407CA1F08091A63164
:104238009091A7310E944B528093A6319093A73159
:104248008091A2319091A3310E944B528093A23168
:104258009093A33132272327322720939E3130931E
:104268009F3181E08093613380935C33DF91CF91FC
:024278000895A7
:10427A000F931F93CF93DF930E94FF3B40E054E0DC
:10428A0082EDFA01808320E234E0F901108280E4B1
:10429A0094E0FC011082C0E6D4E06FE06883A0E8F5
:1042AA00B4E01C9200EA14E079E1F801708370E846
:1042BA00FA017483F9011482FC0114826C83149646
:1042CA001C921497F8011482FA010E94184DF90100
:1042DA000E94184DFC010E94184D188A198A1A8AE0
:1042EA001B8A1C8A1D8A1E8A1F8A50961C92509706
:1042FA0051961C92519752961C92529753961C9221
:10430A00539754961C92549755961C9255975696C5
:10431A001C92569757961C92F801108A118A8BE0C4
:10432A00828B138A148A88E0858B868B178AE0EE43
:10433A00F5E011821082148215821382128287EFAD
:10434A0092E5809336339093373388EF92E58093E2
:10435A0034339093353389EF92E5809332339093D7
:10436A0033338AEF92E580933033909331338BEF76
:10437A0092E580932E3390932F338CEF92E58093BE
:10438A002C3390932D3386EF92E580932A339093C2
:0C439A002B33DF91CF911F910F910895FC
:1043A600CF92DF92EF92FF92CF93DF93CDB7DEB736
:1043B600C057D109CDBFDEBF69017A01863029F128
:1043C600873009F434C0813009F075C020E70E94B7
:1043D6004B4F0E94A03781116EC0E0914633F09199
:1043E6004733309709F467C080E7C80ED11CE11C3B
:1043F600F11CC0920433D0920533E0920633F0925A
:1044060007330E94035281E055C00E948B4E0E94E2
:10441600A037811150C0E0914633F0914733309771
:1044260009F449C0BE016F5F7F4F86E043C028E0B4
:104436000E944B4F0E94A037882351F0E0914633EB
:10444600F09147333097B9F16EE673E387E032C0F7
:104456004D815E812F813885EB81FC8189819A812E
:104466004115510519F461E060936E33420F531FF5
:104476009C01332721303105C9F048F0223031053F
:1044860099F060916E332330310531F00AC02091E6
:104496006E33213059F408C0623041F0643021F4A3
:1044A60005C0623019F084E080936E33E417F50797
:1044B60011F4C4CF0995C059DF4FCDBFDEBFDF91E0
:0C44C600CF91FF90EF90DF90CF90089511
:1044D200CF93DF93CDB7DEB72897CDBFDEBF0E9463
:1044E200364F882309F47CC0AE014B5F5F4F0E94B8
:1044F2005C510E94C149882311F084EF76C00E946A
:10450200A75180FFFACF9C01AD012E7F2D833E8300
:104512004F8358870E945C510E946B3B8111EDCF03
:104522000E94A75122E0B695A795979587952A955F
:10453200D1F79F708093443390934533892B09F4CC
:1045420051C04CEF52E30E94AC510E94C14981110B
:10455200D4CF6091FC327091FD328091FE32909105
:10456200FF320E942C500E94DB2D8111C6CF6B813D
:104572007C818091443390914533861B970B05973C
:1045820098F5E9818FEF8E0F873008F0B6CF8091D2
:10459200FC329091FD32A091FE32B091FF329C012B
:1045A200AD01285F3F4F4F4F5F4F685071090E9426
:1045B200F751E751F34B0E9413528A81099581E02A
:1045C2000E947D4722E00E9493520E945C510E9409
:1045D200CF3480E00E947D470E94C55281118DCF69
:1045E20080E003C08EEF01C08AEF2896CDBFDEBF08
:0645F200DF91CF91089556
:1045F800CF92DF92EF920F93CF93DF93CDB7DEB7D1
:104608006497CDBFDEBF6C01F9011F86188A898BBC
:104618009A8B6B8B0C8BE11002C082E001C080E0AA
:104628006132D8F04230E9F048F4413009F068C00E
:10463800BE01615F7F4F0E94E84263C0433051F181
:10464800443009F438C05CC0615048F09601260F28
:10465800311DD9012C912111F7CF962FF5CF9B8BC6
:10466800E1CF309709F44CC00E94904FDF010D90C4
:104678000020E9F70E948352A034B10519F4E983B8
:10468800FA8303C0EB83FC83AD830E94444F0E94EE
:10469800282637C03097A1F19F012E5F3F4F29830D
:1046A8003A83918191509B8390819C830E94444FCF
:1046B8000E94673026C0309719F119821A82EB835D
:1046C800FC839F012B5E3F4F2D833E831F821886FC
:1046D800DF010D900020E9F70E948352A987BA876D
:1046E800F90101900020E9F73197E21BF30BEB8702
:1046F800FC871D861E860E94444F0E945B1F01C0D6
:1047080081EF6496CDBFDEBFDF91CF910F91EF901F
:06471800DF90CF90089530
:10471E008F929F92AF92BF92CF92DF92EF92FF92C3
:10472E000F931F93CF93DF93EC018B014C815D812F
:10473E006E817F81C880D980EA80FB800E94C6503E
:10474E00C882D982EA82FB8283E00E94CC4FE9F7CD
:10475E000E94914B2FE382220E94E24C8C839D8318
:10476E00AE83BF83FE010E947B4B8C0F9D1F0E9468
:10477E007C4F8C819D81AE81BF810E94864BFE0154
:10478E00E40FF51FF0860E94DB4EFE01E40FF51FCD
:10479E00E0860E94D44EFE01E40FF51FD0860E94E3
:1047AE00CD4E4C835D836E837F830796A11DB11D15
:1047BE00FE01E80FF91FC0869A01AB0196E05695EF
:1047CE004795379527959A95D1F7BE01685F7F4F2C
:1047DE00CE010E948606C801FE01E857FF4FC8555C
:1047EE00DF4F9C012C5F3F4FD90140814E930E94B9
:1047FE009351452F562F672F77274083518362831E
:10480E007383A817B90789F73496C901EC17FD070A
:10481E0041F7DF91CF911F910F91FF90EF90DF90B5
:0C482E00CF90BF90AF909F908F900895A6
:10483A00AF92BF92CF92DF92EF92FF921F93CF93E4
:10484A00DF93CDB7DEB7CC56D109CDBFDEBF182F67
:10485A0069017A0188EAA82E80E3B82EF5018081E1
:10486A008E3399F181132DC0D50111962D913C916A
:10487A0012972115310539F4E0914833F091493303
:10488A00309759F422C0AE014F5F5F4FC701B6019E
:10489A000E94A037811143C0EFCFD5010E947A51FF
:1048AA00892B51F0113129F410926F338981809349
:1048BA0071330E94EF5102C060E070E0812F0995C8
:1048CA0004C0B3E0AB0EB11CC9CF103241F528E0E9
:1048DA0030E0AE014B595F4FC701B6010E94A037C5
:1048EA0081111DC0AB962EAD3FADAB97A7964EADCD
:1048FA005FADA797C701B601685F7F4F8F4F9F4F84
:10490A000E94A03781110BC0E0914833F0914933DE
:10491A00309729F0BE016B597F4F80E20995C4593F
:10492A00DF4FCDBFDEBFDF91CF911F91FF90EF9098
:0A493A00DF90CF90BF90AF9008957A
:10494400EF92FF921F93CF93DF9300D000D0CDB7A7
:10495400DEB7029709F06EC0613009F51091733328
:1049640027E03BE087E0E82EF12C812F90E0389F90
:10497400F001399FF00D1124E55BF04D0196B7016C
:104984000E948C489085911103C08093733327C093
:104994002150182F51F7809373331FEF20C06230DA
:1049A40009F048C01091723324E08BE0189FF001A5
:1049B4001124E856F04D812F90E0019683709927D9
:1049C4003085311104C080937233195F06C02150C1
:1049D400182F59F7809372331FEF309761F18BE0F2
:1049E400DF011D928A95E9F781E080878091503339
:1049F400909151339C012F5F3F4F29F02093503306
:104A04003093513305C002968093503390935133C1
:104A140080915033909151338483958340FF0BC030
:104A2400198381E281870E94325060E582E00E940E
:104A3400FE4701C01FEF812F2496CDBFDEBFDF915B
:0A4A4400CF911F91FF90EF900895AD
:104A4E00CF92DF92EF92FF92CF93DF9300D000D000
:104A5E00CDB7DEB7C0900033D0900133E090023373
:104A6E00F09003330E94575109F062C0AE014F5FC0
:104A7E005F4F64EF73E180E090E00E94C1498111C5
:104A8E0057C040E053E360E00E947F520E94C1494C
:104A9E0081114EC08091003390910133A091023369
:104AAE00B0910333803A22E0920720E1A207B105CC
:104ABE0041F40E94934E41F181EA92E0A0E1B0E010
:104ACE001BC0803B9240A041B105F1F489819A81CF
:104ADE00AB81BC8183309105A105B105A9F0049786
:104AEE00A105B10529F481EB92E0A0E1B0E004C08C
:104AFE0082EB92E0A0E1B0E080930033909301331B
:104B0E00A0930233B0930333C0900033D09001339F
:104B1E00E0900233F090033380EFE82225E0E22AA2
:104B2E00C0920033D0920133E0920233F0920333FD
:104B3E00C701B6012496CDBFDEBFDF91CF91FF90A6
:084B4E00EF90DF90CF90089575
:104B5600CF93DF93FC0180E1ABE0B2E3ED01199264
:104B66008A95E9F780915C33833009F06AC09091A9
:104B76000B329F70906390930B32808183FB882762
:104B860080F980FB93F990930B3280818670997F30
:104B9600982B90930B32892F8E70883019F4977F5B
:104BA60090930B32908180910B3290FB80F9809329
:104BB6000B32878190858093123290931332A781AE
:104BC600B085ED0109900020E9F72197CE018A1BF7
:104BD6009B0B80931032909311322081269523707F
:104BE60061F021852093143222852093153222E02C
:104BF60030E02093193230931A322485358520937C
:104C06001732309318324385409316322091193269
:104C160030911A322E5F3F4F240F311D280F391F56
:104C26002093193230931A320E944B5280931032DD
:104C3600909311328091613384608093613381E077
:0A4C460001C080E0DF91CF910895D6
:104C5000AF92BF92CF92DF92EF92FF920F931F938A
:104C6000CF93DF93CDB7DEB7CC59D109CDBFDEBF2F
:104C70004115510509F453C07A019B018E01035976
:104C80001F4F4CE650E062E00E942729182F811147
:104C900047C0CE0101965C018CE6F50111928A9520
:104CA000E9F7F70160817181828193816115710556
:104CB000B9F0892BA1F580E4898340E2CE01029608
:104CC0000E94F441811111EF498150E0F7016081A8
:104CD0007181CE0102960E94A84D112371F020C06F
:104CE0000097E9F0F70144814134C8F4498350E06A
:104CF000BC01CE0102960E94A84D80E3C82ED12CA3
:104D00009CE6E92EF12C850120E330E0AE01435909
:104D10005F4F6BEB81E00E94A117182F01C011EFCC
:104D2000812FC456DF4FCDBFDEBFDF91CF911F91E2
:104D30000F91FF90EF90DF90CF90BF90AF900895CC
:104D4000AF92BF92CF92DF92EF92FF921F93CF93D9
:104D5000DF9300D0CDB7DEB77C016B01DB016D9135
:104D60007C91FC0182810E940131811151C0D601E8
:104D7000ED91FC911197A280B3800E9494500E9403
:104D8000E046182F81113EC0F701418150E0B70184
:104D9000D6010E9494500E94D84F182F811132C022
:104DA000B50180E090E00E94FF49B6E0EB0EF11CF7
:104DB00080ECF70111928A95E9F780EC90E0898305
:104DC0009A83AE014F5F5F4FB701D6010E949450A6
:104DD0000E94DE4F182F811115C089819A8184307D
:104DE000910520F4892B69F417EE0CC0C7010E94CD
:104DF000313E182F811106C0C7010E94E33E182FD3
:104E000001C016EEF601828193810E94F24A812F41
:104E10000F900F90DF91CF911F91FF90EF90DF9057
:084E2000CF90BF90AF90089500
:104E28009F92AF92BF92CF92DF92EF92FF920F9331
:104E38001F93CF93DF93CDB7DEB72897CDBFDEBFE3
:104E48005A018901FE01319697E0DF011D929A957A
:104E5800E9F797EC998390916A33992319F0DD2447
:104E6800D39442C091E090936A332130310511F414
:104E780002E010E08A837B836C831E830F8367E0E4
:104E8800CF010E94E947D82E8111E9CF81EF8887A9
:104E980093EFC92E22EF922E01151105F1F078013A
:104EA8000130B0E21B0718F0E12C80E2F82E0E1951
:104EB8001F0909F4C88661E070E0CE0108960E94D7
:104EC800CE33882361F2B701C5010E94CE3388230F
:104ED80031F29886AE0CBF1CDFCF83EC0E945E3E99
:104EE8008111BDCF10926A338D2D2896CDBFDEBFBC
:104EF800DF91CF911F910F91FF90EF90DF90CF90AE
:084F0800BF90AF909F90089547
:104F1000CF92DF92EF92FF920F931F93CF93DF9385
:104F2000EC01CE80DF80E884F98400912233109177
:104F300023331C821D828091F4329091F532A0912E
:104F4000F632B091F7320E94805068F40E94BB386C
:104F50002FEFE21AF20AC61AD70AE80AF90ACE8235
:104F6000DF82E886F986E0E0F0E081E001151105D6
:104F700041F0D80116960E94B75019970E94F3503D
:104F800018F4813009F505C080E0F801048115812D
:104F9000EDCF6FEF7FEF80E090E00E947B3D0E94BD
:104FA000F64FE0912233F0912333B2E3E439FB076B
:104FB00019F40480F581E02DEC83FD83C093223346
:104FC000D093233381E007C0848195818C839D83B6
:104FD000C483D58380E0DF91CF911F910F91FF9023
:084FE000EF90DF90CF900895DF
:104FE800CF92DF92EF92FF920F931F93CF93DF93AD
:104FF800CDB7DEB76097CDBFDEBF0E94765009F40B
:105008004CC06B017C0182E090E089839A838BEB32
:1050180091E00E94B3528B839C83CD82DE82EF8223
:10502800F8860E94A4528C010E941F4C0E940F4DCA
:10503800811118C0F801E088F18841E050E061E092
:1050480070E082E090E00E944E43D7018C930E946A
:10505800AA4E87FD07C00E948141009719F021E000
:10506800FC012483D8010E94D04C0E940F4D81304E
:10507800A1F40E94AA4E40E150E0BE016F5F7F4F4D
:105088000E9447520E94242CF82E882339F0D80118
:105098000E94D04C0E94864401C0F12C8F2D60964E
:1050A800CDBFDEBFDF91CF911F910F91FF90EF90A1
:0650B800DF90CF90089587
:1050BE008F929F92AF92BF92CF92DF92EF92FF921A
:1050CE000F931F93CF93DF93CDB7DEB72697CDBF48
:1050DE00DEBF5C014B0169017A010E94AF4A81116A
:1050EE0002C091E038C0A114B104A1F18114910461
:1050FE0089F1A401B501CE0101960E94832E811182
:10510E00F0CFA701960164E376E4CE0101960E94EA
:10511E004E2A8111E6CFA7019601205F314F4F4FE6
:10512E005F4F68E376E4CE0101960E944E2A81110C
:10513E00D8CFA8016CE376E4CE0101960E94C92B6C
:10514E008111CFCF60E00E94FB510E94AF1491E01D
:10515E00811101C090E0892F2696CDBFDEBFDF9171
:10516E00CF911F910F91FF90EF90DF90CF90BF9056
:08517E00AF909F908F900895FF
:10518600CF92DF92EF92FF920F931F93CF93DF930D
:10519600CDB7DEB76497CDBFDEBF0E948D4D6B01E4
:1051A6007C01672B682B692B09F43DC00E94CF5107
:1051B6000E947B500E941B52C8010E9450341F93CC
:1051C6000F9383EE96E49F938F930FE51AE21F9356
:1051D6000F930E942C431F930F9381E19AE49F93B0
:1051E6008F9389E19AE49F938F9385E29AE49F9344
:1051F6008F9387EE96E49F938F938FE298E29F9327
:105206008F930E942C4305E21AE4A701960168ECED
:1052160071E083E998E20E945F280E94CF510E94C4
:10522600CD39CDBFDEBF80910928806180930928E2
:105236006496CDBFDEBFDF91CF911F910F91FF9096
:08524600EF90DF90CF90089576
:10524E000F931F93CF93DF93F901D801445D5F4F06
:10525E00309709F450C022813381232B09F44BC0BF
:10526E009481913208F047C0109709F442C090E340
:10527E00E80119929A95E9F74D935C931197813055
:10528E0049F070F08230B9F50E94FF51826012969B
:10529E008C9312970E94FF51816012968C931297F5
:1052AE0085818F3F19F081508E3028F513968C939F
:1052BE0013978FEF860F8430F0F4ED018F016CA7FA
:1052CE0084818C83448150E062817381CD01059687
:1052DE000E94A84DF8010E94F35179F081E08DA350
:1052EE00DE0196960E94135286E00E940F52E9F755
:1052FE0004C084EF03C081EF01C080E0DF91CF9145
:06530E001F910F910895AC
:10531400EF92FF920F931F93CF93DF93CDB7DEB736
:10532400C258D109CDBFDEBFF82EE92E80E890E047
:10533400CF57DF4F88839983C158D04085ED90E3E0
:105344000E94E331882311F081E039C08BE1E6EF5C
:10535400F9E4DE0196960E940F52E9F7BE016F5BF5
:105364007F4F80E090E00E94B84E8111EDCF9E0106
:105374002F573F4F0E941F52A8016BE570E0CE01EA
:1053840086960E94D94C8111DFCFCF57DF4FE88139
:10539400F981C158D040E00FF11F10821F930F9381
:1053A40080E496E49F938F93EF92FF920E942C43A4
:1053B4000F900F900F900F900F900F9080E0CE57AA
:1053C400DF4FCDBFDEBFDF91CF911F910F91FF90D3
:0453D400EF900895B9
:1053D800AF92BF92CF92DF92EF92FF920F931F93FB
:1053E800CF93DF93CDB7DEB7C95CD109CDBFDEBFA0
:1053F800F82E6801012B09F43DC084E0E81619F085
:1054080080E2E81237C0E0911E33F0911F33A0808C
:10541800B1808E0108531F4F8F2D0E948B3E811142
:105428002AC080E2E81203C08F2D8068F82EFC8223
:10543800C853DF4F88819981C85CD0408D839E8393
:105448000E94AD500E940B4E811115C060911E3311
:1054580070911F33CE0101960E94A02681110BC0C6
:105468004E2D50E0BE01685F7F4FC6010E94A84DD7
:1054780080E001C082EEC753DF4FCDBFDEBFDF91B2
:10548800CF911F910F91FF90EF90DF90CF90BF9039
:04549800AF90089534
:10549C00AF92BF92CF92DF92EF92FF920F931F9336
:1054AC00CF93DF93EC01892B09F445C08881998156
:1054BC00892B09F440C08A819B81892B09F43BC05C
:1054CC006115710509F437C0A52EB42EC32ED22E4A
:1054DC007B01CE010E943D400E94F34DAF92BF92E2
:1054EC00CF92DF92FF92EF9226E938E43F932F930D
:1054FC001F930F9328813981820F931F9F938F9352
:10550C000E94913C6C01092E000CEE08FF082DB78F
:10551C003EB7245F3F4F2DBF3EBF1C141D041E041D
:10552C001F045CF4A80160E070E00E94F3502CF4BE
:10553C000E94EB4D03C082EE01C081EEDF91CF9152
:10554C001F910F91FF90EF90DF90CF90BF90AF9095
:02555C000895B0
:10555E0010920A2810920B2810920C2810920D28E7
:10556E0080910E288D7F80930E2880910928877F49
:10557E008B7F809309280E94D23A65E87AE48DE009
:10558E009BE20E94724D0E9409418AE0EFE0F8E230
:10559E00DF011D928A95E9F7CF010E9416510E94F4
:1055AE00A452FC018089918980930F289093102832
:1055BE0080ED92E5809311289093122880917D2A98
:1055CE00882329F081E09091CF2A911101C080E0CB
:1055DE000E94A442882391F08EE492E30E943C48FC
:1055EE0040E157E260E070E088E592E30E94023A03
:1055FE00809109288D7F8860816003C08091092881
:0C560E008E7F809309280E94E3510895CC
:10561A00EF92FF920F931F93CF93DF93E82EF62E0C
:10562A00EA010E9481418C01892B09F448C086E075
:10563A00F81641F18F1520F0A5E0FA1641F03FC0A7
:10564A00B7E0FB16C9F1E9E0FE1659F038C0209719
:10565A00B1F1898187FD0BC083E0D80114968C9340
:10566A002EC0209761F1888199810097D1F48E2DFF
:10567A00EE0C990BDF91CF911F910F91FF90EF9054
:10568A000C9486442097D9F06A817B8116161706F6
:10569A0074F7D8011296ED91FC911397888199813C
:1056AA000AC06A817B816115710509F3D8011296D6
:1056BA00ED91FC911397099583E0F8018483DF91BA
:0C56CA00CF911F910F91FF90EF90089579
:1056D600FA01AA27283051F1203181F1E8946F931D
:1056E6006E7F6E5F7F4F8F4F9F4FAF4FB1E03ED0C3
:1056F600B4E03CD0670F781F891F9A1FA11D680F61
:10570600791F8A1F911DA11D6A0F711D811D911D93
:10571600A11D20D009F468943F912AE0269F112408
:105726003019305D3193DEF6CF010895462F47706C
:10573600405D4193B3E00FD0C9F7F6CF462F4F70C7
:10574600405D4A3318F0495D31FD4052419302D025
:10575600A9F7EACFB4E0A6959795879577956795CB
:10576600BA95C9F700976105710508959B01AC01CB
:105776000A2E06945795479537952795BA95C9F7F2
:0C578600620F731F841F951FA01D089563
:10579200CF92DF92EF92FF920F931F93CF93DF93FB
:1057A200EC01892B09F443C088819981892B09F482
:1057B2003EC08A819B81892B09F439C0611571052C
:1057C20009F435C04115510591F16A017B01CE0101
:1057D2000E943D400E94F34DDF92CF92FF92EF92E2
:1057E2002CE838E43F932F931F930F93288139813C
:1057F200820F931F9F938F930E94913C6C01092EFD
:10580200000CEE08FF082DB73EB7265F3F4F2DBFB5
:105812003EBF1C141D041E041F045CF4A80160E0BA
:1058220070E00E94F3502CF40E94EB4D03C082EE14
:1058320001C081EEDF91CF911F910F91FF90EF9008
:06584200DF90CF900895F5
:10584800AF92BF92CF92DF92EF92FF920F931F9386
:10585800CF93DF93CDB7DEB76097CDBFDEBF8C01A6
:105868005B016A010E9481417C01892B99F1F50154
:105878008191919189839A832EE0DE0113960E948B
:105888000752E9F78230910511F589839A834C2DE7
:105898000E94EF51802F0E946039882391F0873F42
:1058A80071F08A3FB9F417FF02C086E211C0AB2835
:1058B80011F481E30DC0CD28C1F786E109C085E068
:1058C80007C082E0F701848380E090E005C08FE2A2
:1058D800809362338FEF9FEF6096CDBFDEBFDF917D
:1058E800CF911F910F91FF90EF90DF90CF90BF90D5
:0458F800AF900895D0
:1058FC00E6E6F4E038E030832FE946E851E0215049
:10590C0040405040E1F700C0000024E020836FE9E4
:10591C0086E891E0615080409040E1F700C00000C3
:10592C0092E090834FE956E861E04150504060406E
:10593C00E1F700C0000081E080834FE956E861E0A8
:10594C00415050406040E1F700C00000E5E6F4E053
:10595C0030833FE946E851E0315040405040E1F798
:10596C0000C0000020836FE926E831E06150204040
:10597C003040E1F700C0000090834FE956E861E049
:10598C00415050406040E1F700C0000080838FE937
:10599C0096E821E0815090402040E1F700C00000E3
:0259AC0008955C
:1059AE00A4E0B0E0EDEDFCE20C9471468C010E9497
:1059BE00061E69837A838B839C83F8018285938587
:1059CE0097FF0EC0E091612BF091622B309741F062
:1059DE006DE57BE2CE0101960995F80182879387EA
:1059EE00F801828593851816190694F4092E000C79
:1059FE00AA0BBB0B49815A816B817C816A017B01A9
:105A0E00C81AD90AEA0AFB0AC982DA82EB82FC8238
:105A1E0089819A81AB81BC8140915D2B50915E2B27
:105A2E0060915F2B7091602B841B950BA60BB70BAF
:105A3E0089839A83AB83BC83B801CE0101960E9401
:105A4E008C3369817A818B819C812496E8E00C9459
:025A5E00D2462E
:105A6000CF92DF92EF92FF920F931F93CF93DF932A
